:100000000C946E010C949F010C949F010C949F0121
:100010000C949F010C949F010C949F010C949F01E0
:100020000C949F010C949F010C949F010C949F01D0
:100030000C949F010C949F010C949F010C949F01C0
:100040000C949F010C949F010C949F010C949F01B0
:100050000C949F010C949F010C949F010C94C60377
:100060000C949F010C943A040C9410040C949F017E
:100070000C949F010C949F010C949F010C949F0180
:100080000C949F010C949F010C949F010C949F0170
:100090000C949F010C949F010C949F010C949F0160
:1000A0000C949F010C949F010C949F010C949F0150
:1000B0000C949F010C949F010C949F010C949F0140
:1000C0000C949F010C949F010C949F010C949F0130
:1000D0000C949F010C949F010C949F010C949F0120
:1000E0000C949F01EF01F201E101E501E901290210
:1000F000F601FA010002040208020E0212021602C0
:1001000029021C02200224027A057F0584058E053F
:1001100098051106A205AA05B205BC05C605D005BD
:10012000DF05E9051106F305FD0507060C947F05BB
:100130000C947A050C94DF050C94B2050C941C0207
:100140000C94F2010C943F060C94C2020C94FA0237
:100150000C9408020C94C6050C94BC050C94000287
:100160000C9411060C94D0050C94A2050C94E90192
:100170000C94AA050C94EF010C9491020C94E501E7
:100180000C94A0020C9429020C9420020C94FD05FE
:100190000C9404020C94B4020C9412020C94F30517
:1001A0000C94FA010C94E9050C9463020C94070674
:1001B0000C94F6010C94E1010C9484050C940E024D
:1001C0000C9498050C948E050C9447030C9424020F
:1001D0000C94160200000A0B02090C0D0E0807030E
:1001E000040100000000000000000000000000000A
:1001F00000000000000000000000000000000000FF
:1002000012111000000000000000000000000000BB
:100210000000000000000000000000002200250097
:1002200028002B002E0031003400020100000501DF
:1002300008010B0100002100240027002A002D00E6
:100240003000330001010000040107010A01050527
:100250000505070508080808020202020A0A08083C
:10026000040404040101010101010101030303036A
:1002700003030303040707070C0C0C0C0C0C0C0CF9
:100280000202020206060606060606060B0B0B0B0A
:100290000B0B0B0B0102102020080810204010202F
:1002A000408002010201080402010102040810203A
:1002B0004080804020100804020180040201804038
:1002C00020100804020108040201010204081020A1
:1002D000408001020408102040803F0611241FBE08
:1002E000CFEFD1E2DEBFCDBF00E00CBF12E0A0E057
:1002F000B2E0E6EFFCE000E00BBF02C007900D9219
:10030000AA34B107D9F722E0AAE4B2E001C01D92F5
:10031000A23FB207E1F711E0CEE6D1E000E006C06F
:1003200021970109802FFE010E946C06CD36D1076E
:1003300080E00807A9F70E9470040C9479060C94D9
:10034000000090E0FC01EC56FD4F2491FC01E25BC3
:10035000FD4F8491882399F090E0880F991FFC014C
:10036000EC5CFD4FA591B491FC01E65EFD4F8591DB
:1003700094918FB7F894EC91E22BEC938FBF089592
:10038000362F90E0FC01EC52FE4F4491FC01EC56FC
:10039000FD4F2491FC01E25BFD4F9491992309F4F8
:1003A0006CC0442309F455C050E0FA013197E231A2
:1003B000F10508F04EC08827EE58FF4F8F4F0C9480
:1003C0006C06809180008F7707C0809180008F7DC0
:1003D00003C080918000877F809380003AC084B5FD
:1003E0008F7702C084B58F7D84BD33C08091B0000B
:1003F0008F7703C08091B0008F7D8093B00029C0BB
:10040000809190008F7707C0809190008F7D03C00E
:1004100080919000877F809390001BC08091A00006
:100420008F7707C08091A0008F7D03C08091A000CE
:10043000877F8093A0000DC0809120018F7707C037
:10044000809120018F7D03C080912001877F809360
:100450002001E92FF0E0EE0FFF1FE65EFD4FA591B2
:10046000B4919FB7F894311104C08C912095282342
:1004700002C0EC912E2B2C939FBF08953FB7F894A8
:100480008091510290915202A0915302B091540276
:1004900026B5A89B05C02F3F19F00196A11DB11DDF
:1004A0003FBFBA2FA92F982F8827820F911DA11D1A
:1004B000B11DBC01CD0142E0660F771F881F991F57
:1004C0004A95D1F70895CF92DF92EF92FF920F9362
:1004D0001F93CF93DF936C017A018B01C0E0D0E0D2
:1004E000CE15DF0581F0D8016D918D01D601ED911A
:1004F000FC910190F081E02DC6011995892B11F036
:100500002196EECF7E01C701DF91CF911F910F9110
:10051000FF90EF90DF90CF900895089580E090E0F5
:100520000895FC01538D448D252F30E0842F90E0F9
:10053000821B930B541710F0CF96089501970895DE
:10054000FC01918D828D981761F0828DDF01A80FDB
:10055000B11D5D968C91928D9F5F9F73928F90E0FD
:1005600008958FEF9FEF0895FC01918D828D98176C
:1005700031F0828DE80FF11D858D90E008958FEFA9
:100580009FEF0895FC01918D228D892F90E0805C72
:100590009F4F821B91098F739927089585E592E0FB
:1005A0000E94C20221E0892B09F420E0822F0895E5
:1005B000FC01848DDF01A80FB11DA35ABF4F2C9100
:1005C000848D90E001968F739927848FA689B789CF
:1005D0002C93A089B1898C91837080648C93938DC6
:1005E000848D981306C00288F389E02D80818F7D69
:1005F00080830895EF92FF920F931F93CF93DF9321
:10060000EC0181E0888F9B8D8C8D981305C0E88963
:10061000F989808185FD26C0F62E0B8D10E00F5FD5
:100620001F4F0F731127E02E8C8DE8120CC00FB6F0
:1006300007FCFACFE889F989808185FFF5CFCE01E3
:100640000E94D802F1CF8B8DFE01E80FF11DE35A15
:10065000FF4FF0829FB7F8940B8FEA89FB89808166
:1006600080620AC09FB7F894EE89FF896083E889A9
:10067000F98980818370806480839FBF81E090E0EE
:10068000DF91CF911F910F91FF90EF900895CF933D
:10069000DF93EC01888D8823C9F0EA89FB8980818A
:1006A00085FD05C0A889B9898C9186FD0FC00FB65C
:1006B00007FCF5CF808185FFF2CFA889B9898C919D
:1006C00085FFEDCFCE010E94D802E7CFDF91CF9119
:1006D000089580E090E0892B21F00E94CE028111E4
:1006E00025C080E090E0892B41F080E090E0892BEC
:1006F00021F00E94000081111CC080E090E0892B55
:1007000041F080E090E0892B21F00E9400008111EF
:1007100013C080E090E0892BA1F080E090E0892B6D
:1007200081F00E94000081110AC008950E9400001B
:10073000D8CF0E940000E1CF0E940000EACF0C94C5
:1007400000000895CF93DF93009779F0FC010190AA
:100750000020E9F73197AF01481B590BBC0185E533
:1007600092E00E946302EC0102C0C0E0D0E042E0EF
:1007700050E064E172E085E592E00E9463028C0F34
:100780009D1FDF91CF9108950E9474061F920F92D2
:100790000FB60F9211242F933F938F939F93AF9394
:1007A000BF9380914D0290914E02A0914F02B09163
:1007B000500230914C0223E0230F2D3720F4019694
:1007C000A11DB11D05C026E8230F0296A11DB11D74
:1007D00020934C0280934D0290934E02A0934F02BF
:1007E000B09350028091510290915202A091530215
:1007F000B09154020196A11DB11D809351029093B6
:100800005202A0935302B0935402BF91AF919F91B3
:100810008F913F912F910F900FBE0F901F901895C1
:100820001F920F920FB60F9211240BB60F922F93B7
:100830003F934F935F936F937F938F939F93AF9368
:10084000BF93EF93FF9385E592E00E94D802FF915A
:10085000EF91BF91AF919F918F917F916F915F9138
:100860004F913F912F910F900BBE0F900FBE0F90A5
:100870001F9018951F920F920FB60F9211240BB66E
:100880000F922F938F939F93EF93FF93E0916502C5
:10089000F09166028081E0916B02F0916C0282FD22
:1008A00012C0908180916E028F5F8F7320916F02D2
:1008B000821751F0E0916E02F0E0EB5AFD4F958FF8
:1008C00080936E0201C08081FF91EF919F918F9183
:1008D0002F910F900BBE0F900FBE0F901F90189589
:1008E000789484B5826084BD84B5816084BD85B50B
:1008F000826085BD85B5816085BD80916E00816017
:1009000080936E00109281008091810082608093BC
:1009100081008091810081608093810080918000BE
:100920008160809380008091B10084608093B100E9
:100930008091B00081608093B000809191008260CE
:1009400080939100809191008160809391008091CB
:1009500090008160809390008091A10082608093DC
:10096000A1008091A10081608093A1008091A000EE
:1009700081608093A0008091210182608093210199
:10098000809121018160809321018091200181600B
:100990008093200180917A00846080937A00809116
:1009A0007A00826080937A0080917A0081608093DF
:1009B0007A0080917A00806880937A001092C1005A
:1009C00086E30E94A101E0916502F091660282E057
:1009D0008083E0916102F09162021082E0916302F3
:1009E000F09164028FEC808310926D02E0916902B5
:1009F000F0916A0286E08083E0916702F0916802DC
:100A0000808180618083E0916702F091680280813B
:100A100088608083E0916702F0916802808180683D
:100A20008083E0916702F091680280818F7D8083EE
:100A3000FF24F3940AE012E085E592E00E94A00210
:100A4000813339F487E192E00E94A203F0924B02D5
:100A50000FC0803369F48FE292E00E94A2031092EB
:100A60004B0286E30E94A10160E086E30E94C00180
:100A700080914B02882309F4D9C020914A028091C9
:100A8000000290910102222311F00A9601C00A97F8
:100A90009093010280930002C0910002D091010264
:100AA000CF3FD10521F01CF010924A0205C0CF378C
:100AB000D10514F4F0924A0286E30E94A101209726
:100AC00011F460E004C0CF3FD10529F461E086E372
:100AD0000E94C001ABC0F801849190E0FC01319705
:100AE000E231F10508F09DC08827EC57FF4F8F4F8A
:100AF0000C946C0684B5806884BDC7BD97C084B56E
:100B0000806284BDC8BD92C080918000806880935F
:100B10008000D0938900C093880088C080918000B5
:100B2000806280938000D0938B00C0938A007EC047
:100B300080918000886080938000D0938D00C09366
:100B40008C0074C08091B00080688093B000C09326
:100B5000B3006CC08091B00080628093B000C093FD
:100B6000B40064C080919000806880939000D0931E
:100B70009900C09398005AC0809190008062809341
:100B80009000D0939B00C0939A0050C08091900039
:100B9000886080939000D0939D00C0939C0046C0D5
:100BA0008091A00080688093A0008091A0008F7B3E
:100BB0008093A000D093A900C093A80037C0809173
:100BC000A00080628093A000D093AB00C093AA00E5
:100BD0002DC08091A00088608093A000D093AD00CC
:100BE000C093AC0023C080912001806880932001D5
:100BF000D0932901C093280119C0809120018062FF
:100C000080932001D0932B01C0932A010FC08091C3
:100C10002001886080932001D0932D01C0932C0186
:100C200005C0C038D1050CF051CF4BCF0E943E0219
:100C30004B015C0182E3482E512C612C712C0E94E7
:100C40003E02DC01CB0188199909AA09BB09883E3B
:100C50009340A105B10598F3F1E04F1A51086108DE
:100C6000710828EE820E23E0921EA11CB11C4114D3
:100C700051046104710419F70E946903DDCEE5E5B2
:100C8000F2E01382128288EE93E0A0E0B0E0848369
:100C90009583A683B78386E092E09183808385EC79
:100CA00090E09587848784EC90E09787868780EC36
:100CB00090E0918B808B81EC90E0938B828B82EC27
:100CC00090E0958B848B86EC90E0978B868B118ED1
:100CD000128E138E148E0895EE0FFF1F881F8BBF88
:100CE0000790F691E02D199481E090E0F8940C942F
:060CF0007906F894FFCF25
:100CF6007F0000000000FA02630291024703C2026D
:100D0600A002B4020D0A005475726E696E67206FF8
:100D16006E20766962726174696F6E2E2E2E005493
:100D260075726E696E67206F66662076696272619B
:0A0D360074696F6E202E2E2E00004F
:00000001FF
