:100000000C94E0010C9411020C9411020C94110256
:100010000C9411020C9411020C9411020C94110214
:100020000C9411020C9411020C9411020C94110204
:100030000C9411020C9411020C9411020C941102F4
:100040000C9411020C9411020C9411020C941102E4
:100050000C9411020C9411020C9411020C9464047F
:100060000C9411020C943F050C9415050C9411028C
:100070000C9411020C9411020C9411020C941102B4
:100080000C9411020C9411020C9411020C941102A4
:100090000C9411020C9411020C9411020C9475052D
:1000A0000C9411020C9411020C9411020C94110284
:1000B0000C9411020C9411020C9411020C94110274
:1000C0000C9411020C9411020C9411020C94110264
:1000D0000C9411020C9411020C9411020C94110254
:1000E0000C9411023A083D082C08300834087408B2
:1000F000410845084B084F08530859085D08610836
:10010000740867086B086F0807634236B79BD8A767
:100110001A39685618AEBAAB558C1D3CB7CC57632C
:10012000BD6DEDFD753EF6177231BF000000803FDA
:100130000C9441080C94890D0C9482030C941502C4
:100140000C9453080C9461080C94A6030C94670853
:100150000C9430080C9492030C946E0D0C9474085B
:100160000C94AE030C9413020C943F020C944B08B5
:100170000C9470020C942C080C9462020C94F502FE
:100180000C9483030C944E020C940B040C944F08B3
:100190000C9434080C945D080C946B080C9459086A
:1001A0000C94A8020C943A080C9445080C946F081F
:1001B0000C94DB030C9414020C943D0800407A105C
:1001C000F35A00A0724E18090010A5D4E80000E808
:1001D0007648170000E40B54020000CA9A3B000066
:1001E00000E1F505000080969800000040420F00F5
:1001F0000000A08601000000102700000000E803B6
:10020000000000006400000000000A000000000080
:100210000100000000002C76D888DC674F0823DF3F
:10022000C1DFAE59E1B1B796E5E3E453C63AE65112
:10023000997696E8E6C28426EB898C9B62ED407C39
:100240006FFCEFBC9C9F40F2BAA56FA5F490055AD5
:100250002AF75C936B6CF9676DC11BFCE0E40D47FA
:10026000FEF520E6B500D0ED902E0300943577051D
:100270000080841E080000204E0A000000C80C33D5
:100280003333330F986E12831141EF8D2114893B64
:10029000E65516CFFEE6DB18D1844B381BF77C1DE4
:1002A000901DA4BBE424203284725E228100C9F137
:1002B00024ECA1E53D2700002100240027002A00AE
:1002C0002D003000330001010000040107010A0184
:1002D00000000A0B02090C0D0E08070304010000C0
:1002E000000000000000000000000000000000000E
:1002F00000000000000000000000000012111000CB
:1003000000000000000000000000000000000000ED
:10031000000000000000010210202008081020400A
:1003200010204080020102010804020101020408B9
:100330001020408080402010080402018004020147
:100340008040201008040201080402010102040890
:10035000102040800102040810204080000022008C
:10036000250028002B002E0031003400020100007F
:10037000050108010B010505050507050808080822
:10038000020202020A0A080804040404010101012D
:100390000101010103030303030303030407070728
:1003A0000C0C0C0C0C0C0C0C0202020206060606CD
:1003B000060606060B0B0B0B0B0B0B0B890D6E0DBC
:1003C00011241FBECFEFD1E2DEBFCDBF00E00CBFD6
:1003D00024E0A8E7B2E001C01D92A533B207E1F71F
:1003E00012E0A0E0B2E0EEE5FBE200E00BBF02C0ED
:1003F00007900D92A837B107D9F711E0CFEDD1E002
:1004000000E006C021970109802FFE010E94B6116D
:10041000CE3DD10780E00807A9F70E9443090C945C
:100420009D150C94000008950895CF92DF92EF92ED
:10043000FF920F931F93CF93DF936C017A018B018F
:10044000C0E0D0E0CE15DF0581F0D8016D918D01BF
:10045000D601ED91FC910190F081E02DC601199536
:10046000892B11F02196EECF7E01C701DF91CF914C
:100470001F910F91FF90EF90DF90CF900895FC01B6
:10048000538D448D252F30E0842F90E0821B930BF9
:10049000541710F0CF96089501970895FC01918D9F
:1004A000828D981761F0828DDF01A80FB11D5D96D6
:1004B0008C91928D9F5F9F73928F90E008958FEF44
:1004C0009FEF0895FC01918D828D981731F0828DF8
:1004D000E80FF11D858D90E008958FEF9FEF08954F
:1004E000FC01918D228D892F90E0805C9F4F821BB3
:1004F00091098F739927089581E693E00E94700215
:1005000021E0892B09F420E0822F0895FC01848DDD
:10051000DF01A80FB11DA35ABF4F2C91848D90E02D
:1005200001968F739927848FA689B7892C93A08908
:10053000B1898C91837080648C93938D848D981392
:1005400006C00288F389E02D80818F7D8083089525
:10055000EF92FF920F931F93CF93DF93EC0181E013
:10056000888F9B8D8C8D981305C0E889F9898081CF
:1005700085FD26C0F62E0B8D10E00F5F1F4F0F7309
:100580001127E02E8C8DE8120CC00FB607FCFACFB5
:10059000E889F989808185FFF5CFCE010E94860226
:1005A000F1CF8B8DFE01E80FF11DE35AFF4FF08272
:1005B0009FB7F8940B8FEA89FB89808180620AC01B
:1005C0009FB7F894EE89FF896083E889F989808173
:1005D0008370806480839FBF81E090E0DF91CF9142
:1005E0001F910F91FF90EF900895CF93DF93EC014F
:1005F000888D8823C9F0EA89FB89808185FD05C043
:10060000A889B9898C9186FD0FC00FB607FCF5CF7C
:10061000808185FFF2CFA889B9898C9185FFEDCFC4
:10062000CE010E948602E7CFDF91CF91089580E04E
:1006300090E0892B21F00E947C02811125C080E08E
:1006400090E0892B41F080E090E0892B21F00E941E
:10065000000081111CC080E090E0892B41F080E017
:1006600090E0892B21F00E940000811113C080E0EE
:1006700090E0892BA1F080E090E0892B81F00E942E
:10068000000081110AC008950E940000D8CF0E9486
:100690000000E1CF0E940000EACF0C940000089512
:1006A00085ED8093BC008091BC0084FDFCCF10924E
:1006B0003C03089540919802262F30E0240F311D0D
:1006C00021323105DCF420913C032430C9F4FC01D3
:1006D00080E090E0861758F4309198022191DC0177
:1006E000A858BD4FA30FB11D2C930196F3CF809155
:1006F0009802680F6093980280E0089581E0089561
:1007000082E008950895E091E0028091DF02E81709
:1007100030F4F0E0E554FD4F808190E008958FEFD4
:100720009FEF08959091E0028091DF02981750F4B6
:10073000E92FF0E0E554FD4F208130E09F5F90937A
:10074000E00202C02FEF3FEFC90108958091DF0260
:1007500090E02091E002821B91090895CF92DF92F0
:10076000EF92FF920F931F93CF93DF937C01CB0106
:100770008A0120913D03222389F0EB016B01C40E15
:10078000D51ECC15DD0569F06991D701ED91FC917D
:100790000190F081E02DC7011995F3CF642F0E94DD
:1007A0005A03C801DF91CF911F910F91FF90EF90F5
:1007B000DF90CF900895CF93DF931F92CDB7DEB730
:1007C000698320913D032223D1F0209160032032E0
:1007D00040F021E030E0FC013383228380E090E0B0
:1007E00015C080913E03E82FF0E0E15CFC4F998159
:1007F00090838F5F80933E038093600305C061E028
:10080000CE0101960E945A0381E090E00F90DF91A3
:10081000CF910895089580E090E008950E94881592
:10082000FC01808191810C941A144F925F926F9217
:100830007F928F929F92AF92BF92CF92DF92EF9270
:10084000FF926B017C012FEE39EC43E75FE30E94DE
:10085000F8100E94A5122B013C0124EB38EC4EE06D
:1008600050ECC701B6010E94F8100E94A5124B017E
:100870005C012CE23DE748E65CE3C301B2010E9463
:10088000F8106B017C0128EC3EE54FE65CEBC501FE
:10089000B4010E94F8109B01AC01C701B6010E948F
:1008A000BF1123EC35EF4CE151E40E94F810FF90AA
:1008B000EF90DF90CF90BF90AF909F908F907F9000
:1008C0006F905F904F9008951F920F920FB60F9206
:1008D00011242F933F938F939F93AF93BF93809156
:1008E000F8029091F902A091FA02B091FB023091C6
:1008F000F70223E0230F2D3720F40196A11DB11D2F
:1009000005C026E8230F0296A11DB11D2093F70212
:100910008093F8029093F902A093FA02B093FB023D
:100920008091FC029091FD02A091FE02B091FF0225
:100930000196A11DB11D8093FC029093FD02A0932E
:10094000FE02B093FF02BF91AF919F918F913F91B3
:100950002F910F900FBE0F901F9018950F931F931C
:10096000CF93DF93EC0188819981009729F02A8148
:100970003B812617370788F48B016F5F7F4F0E94FA
:10098000A314009761F0998388831B830A832C81C9
:100990003D81232B11F4FC01108281E001C080E035
:1009A000DF91CF911F910F910895EF92FF920F93D6
:1009B0001F93CF93DF93EC017B018A01BA010E9460
:1009C000AE042881398181110DC02115310519F03E
:1009D000C9010E941A14198218821D821C821B826E
:1009E0001A8206C01D830C83B701C9010E949615A7
:1009F000CE01DF91CF911F910F91FF90EF9008955D
:100A0000FC011182108213821282158214826115F8
:100A1000710551F0FB0101900020E9F73197AF011A
:100A2000461B570B0C94D50408951F920F920FB6D6
:100A30000F9211240BB60F922F933F934F935F9316
:100A40006F937F938F939F93AF93BF93EF93FF9396
:100A500081E693E00E948602FF91EF91BF91AF91F2
:100A60009F918F917F916F915F914F913F912F91C6
:100A70000F900BBE0F900FBE0F901F9018951F92F6
:100A80000F920FB60F9211240BB60F922F938F93E4
:100A90009F93EF93FF93E0917103F0917203808134
:100AA000E0917703F091780382FD12C090818091EC
:100AB0007A038F5F8F7320917B03821751F0E0914F
:100AC0007A03F0E0EF59FC4F958F80937A0301C0D1
:100AD0008081FF91EF919F918F912F910F900BBE8D
:100AE0000F900FBE0F901F9018951F920F920FB688
:100AF0000F9211240BB60F922F933F934F935F9356
:100B00006F937F938F939F93AF93BF93EF93FF93D5
:100B10008091B900887F803609F49CC068F58832DE
:100B200009F45BC090F4803109F454C038F4882390
:100B300009F4F6C0883009F44DC0F6C0883109F4D4
:100B40004CC0803209F45DC0EFC0803409F468C045
:100B500048F4803309F455C0883309F0E5C0809328
:100B60003A03D8C0803509F44FC0883509F45DC018
:100B7000883409F0D9C0D6C0883909F4C7C0A8F4B0
:100B8000883709F467C038F4883609F463C08037C1
:100B900009F460C0C9C0883809F4B8C0803909F4C4
:100BA0005FC0803809F0C0C05BC0803B09F486C0DC
:100BB00038F4803A09F466C0883A09F47FC0B4C0BA
:100BC000803C09F4A7C0883C09F4A4C0883B09F420
:100BD0008AC0AAC08091170310C0909139038091F8
:100BE0003803981770F5E091390381E08E0F8093F8
:100BF0003903F0E0E85EFC4F80818093BB0085EC18
:100C000086C080933A038EC0E091390381E08E0F55
:100C1000809339038091BB00F0E0E85EFC4F808355
:100C200090913903809138036EC0E091390381E0DF
:100C30008E0F809339038091BB00F0E0E85EFC4F9B
:100C4000808380913B0381116DC081E08093160306
:100C500084EA61C083E080933C031092BA02CFCF54
:100C60008091BA02803208F051C0E091BA0281E06E
:100C70008E0F8093BA028091BB00F0E0E656FD4FE4
:100C80008083BDCF85EC8093BC0010923C038091A3
:100C9000BA02803230F4E091BA02F0E0E656FD4F3D
:100CA00010826091BA0270E0E091DB02F091DC0208
:100CB0008AE992E019951092BA0236C084E08093D6
:100CC0003C031092990210929802E091DD02F0919B
:100CD000DE02199580919802811105C081E0809310
:100CE000980210927802E091990281E08E0F809331
:100CF0009902F0E0E858FD4F80818093BB0090910D
:100D0000990280919802981708F479CF85E880932A
:100D1000BC000AC085EC8093BC0010923C0304C068
:100D200010923A030E945003FF91EF91BF91AF914F
:100D30009F918F917F916F915F914F913F912F91F3
:100D40000F900BBE0F900FBE0F901F901895E1E60D
:100D5000F3E0A089B18982E08C93A485B5851C92CB
:100D6000A685B7858FEC8C93108EA489B58986E013
:100D70008C93A289B3898C9180618C93A289B38969
:100D80008C9188608C93A289B3898C9180688C93B4
:100D90000288F389E02D80818F7D80830895EF9212
:100DA000FF920F931F93CF93DF93FB010481158173
:100DB000E080F180E114F10411F480E01AC0011523
:100DC0001105B1F0EC018C819D81080F191FB8014C
:100DD000CE010E94AE04882381F3288139818C8161
:100DE0009D81B701820F931F0E9496151D830C836E
:100DF00081E0DF91CF911F910F91FF90EF900895C7
:100E0000EF92FF920F931F93CF93DF93CDB7DEB78F
:100E1000A1970FB6F894DEBF0FBECDBF7C01CB010A
:100E2000BA01F70111821082138212821582148294
:100E30008E010F5F1F4F22E044E00E944C0E00978E
:100E400069F0FC0101900020E9F73197AF01481BE0
:100E5000590BBC01C7010E94D5040EC0F701808167
:100E60009181009711F00E941A14F70111821082EB
:100E70001582148213821282A1960FB6F894DEBFF7
:100E80000FBECDBFDF91CF911F910F91FF90EF90DB
:100E900008950F931F93CF93DF93EC010C811D8175
:100EA0000F5F1F4FB8010E94AE04882369F02881AC
:100EB00039818C819D8165E772E0820F931F0E94CA
:100EC00096151D830C8381E0DF91CF911F910F91C7
:100ED0000895282F30916003313208F04AC0809184
:100EE0003C038111FCCF90915F0342E040933C03AF
:100EF00020933B032FEF20933A0310923903309352
:100F00003803EFE3F3E0A8E1B3E020E0321721F08B
:100F100041914D932F5FFACF109217032091170341
:100F2000990F922B9093170390911603913061F4CF
:100F300010921603909117039093BB009091BC0000
:100F400093FDF8CF95EC01C095EE9093BC00909185
:100F50003C039230E1F390913A039F3F79F0809106
:100F60003A03803241F080913A03803331F084E0DB
:100F700005C081E003C082E001C083E010923E031F
:100F80001092600310923D030895EF92FF921F9319
:100F9000CF93DF937B01142FC0E0D3E0988121E051
:100FA00020933D0390935F0310923E0310926003E1
:100FB000A981BA81ED91FC9111970190F081E02D0A
:100FC000682FCD01199589819A81412F50E0DC016C
:100FD000ED91FC910280F381E02DB701199581E03C
:100FE000DF91CF911F91FF90EF900C946907CF9301
:100FF000DF931F92CDB7DEB7698341E0BE016F5F1B
:101000007F4F0E94C5070F90DF91CF910895809187
:1010100008038F770895362F90E0FC01E053FD4FD1
:101020004491FC01EA5EFC4F2491FC01EA58FC4F1C
:101030009491992309F46CC0442309F455C050E0FD
:10104000FA013197E231F10508F04EC08827EE58D9
:10105000FF4F8F4F0C94B611809180008F7707C09F
:10106000809180008F7D03C080918000877F809376
:1010700080003AC084B58F7702C084B58F7D84BD6F
:1010800033C08091B0008F7703C08091B0008F7D16
:101090008093B00029C0809190008F7707C0809125
:1010A00090008F7D03C080919000877F8093900097
:1010B0001BC08091A0008F7707C08091A0008F7D1A
:1010C00003C08091A000877F8093A0000DC0809115
:1010D00020018F7707C0809120018F7D03C0809110
:1010E0002001877F80932001E92FF0E0EE0FFF1FA2
:1010F000E45AFC4FA591B4919FB7F894311104C004
:101100008C912095282302C0EC912E2B2C939FBF0D
:101110000895CF93DF9390E0FC01EA5EFC4F2491A9
:10112000FC01EA58FC4F8491882361F190E0880F1C
:10113000991FFC01EA54FD4FC591D491FC01E45A7A
:10114000FC4FA591B491611109C09FB7F8948881B3
:10115000209582238883EC912E230BC0623061F4AA
:101160009FB7F8948881322F309583238883EC9140
:101170002E2B2C939FBF06C08FB7F894E8812E2B9F
:1011800028838FBFDF91CF910895863308F086536F
:1011900090917B00282F2870977F922B90937B0053
:1011A0008770806480937C0080917A008064809353
:1011B0007A0080917A0086FDFCCF809178002091A2
:1011C000790090E0922B08953FB7F8948091FC024B
:1011D0009091FD02A091FE02B091FF0226B5A89B5E
:1011E00005C02F3F19F00196A11DB11D3FBFBA2FB9
:1011F000A92F982F8827820F911DA11DB11DBC0119
:10120000CD0142E0660F771F881F991F4A95D1F7DD
:1012100008958F929F92AF92BF92CF92DF92EF92FA
:10122000FF926B017C010E94E4084B015C01C11438
:10123000D104E104F104F1F00E94E408DC01CB01E7
:1012400088199909AA09BB09883E9340A105B105EF
:1012500070F321E0C21AD108E108F10888EE880E87
:1012600083E0981EA11CB11CC114D104E104F10457
:1012700019F7DDCFFF90EF90DF90CF90BF90AF9048
:101280009F908F900895CF93DF93CDB7DEB765978A
:101290000FB6F894DEBF0FBECDBF789484B58260E0
:1012A00084BD84B5816084BD85B5826085BD85B50A
:1012B000816085BD80916E00816080936E00109288
:1012C0008100809181008260809381008091810003
:1012D0008160809381008091800081608093800094
:1012E0008091B10084608093B1008091B0008160F2
:1012F0008093B000809191008260809391008091F2
:101300009100816080939100809190008160809332
:1013100090008091A10082608093A1008091A10043
:1013200081608093A1008091A00081608093A000E3
:10133000809121018260809321018091210181604F
:101340008093210180912001816080932001809110
:101350007A00846080937A0080917A008260809322
:101360007A0080917A00816080937A0080917A007F
:10137000806880937A001092C1000E94A7068EEFC9
:1013800093E090930203809301031092E002109285
:10139000DF0210923E031092600310923C0301E0C2
:1013A00000933B031092160361E084E10E940B0856
:1013B00061E085E10E940B088091B9008E7F8093E7
:1013C000B9008091B9008D7F8093B90088E4809343
:1013D000B80085E48093BC0083E192E09093DE0244
:1013E0008093DD0284E192E09093DC028093DB0243
:1013F00089E38093000300933D0380935F03109281
:101400003E03109260038091010390910203DC017E
:10141000ED91FC910190F081E02D62E9199581E058
:101420000E94690780913C038111FCCF80910003E9
:1014300091E090933C0390933B032FEF20933A036A
:101440001092390310923803909317039091170369
:10145000880F892B8093170380911603813061F4E4
:1014600010921603809117038093BB008091BC00FB
:1014700083FDF8CF85EC01C085EE8093BC008091A0
:101480003C038130E1F380913903811103C09091D5
:10149000390301C091E0A8E1B3E0EBEBF2E080E0BA
:1014A000891721F02D9121938F5FFACF1092E002DE
:1014B0008093DF028091010390910203DC01ED91A2
:1014C000FC910084F185E02D1995892B61F08091C4
:1014D000010390910203DC01ED91FC910284F385FC
:1014E000E02D1995182F1B3A09F0CEC06CEF81E85A
:1014F0000E94F70760910C036C7F616060930C039E
:10150000862F82958F70982F9370B0E49B9FC001B7
:1015100011246C70682B61608FE80E94F70760915E
:1015200014036E7F609314036695637070E0660F1A
:10153000771F8BEA0E94F707809108038F7B8093C7
:1015400008030E940708682F80E80E94F70710929E
:1015500003031092040310920503109206031092E5
:101560000703809108038B7F809308030E9407087C
:10157000682F80E80E94F707809108038D7F809391
:1015800008030E940708682F80E80E94F7078091EF
:1015900008038F7E809308030E940708682F80E865
:1015A0000E94F707809108038F7D809308030E94B3
:1015B0000708682F80E80E94F70740E060E070E0CD
:1015C00087EE0E94C507809108038E7F80930803F1
:1015D0000E940708682F80E80E94F7076AE070E021
:1015E00080E090E00E940909809108038160809367
:1015F00008030E940708682F80E80E94F7076AE046
:1016000070E080E090E00E940909809113038C7FD4
:101610008093130360E08AEA0E94F7076091100349
:101620006F736064609310036F73606482EA0E945A
:10163000F707609111036F796064609311036F7114
:10164000606483EA0E94F70762E380EA0E94F7077A
:1016500010920303109204031092050310920603E4
:101660001092070389EC8093120369EC86EA0E94CA
:10167000F707809108038460809308030E9407089D
:10168000682F80E80E94F7078091080380648093A8
:1016900008030E940708682F80E80E94F70710924D
:1016A0000303109204031092050310920603109294
:1016B000070360E087E30E94890860E088E30E94F6
:1016C000890860E089E30E94890860E08AE30E945B
:1016D000890860E086E30E9489080E94A70680913D
:1016E000100487FD08C061E00E94890860E08091D5
:1016F00010040E940B0881E080930B048091120477
:1017000090911304892B09F4A2C00E94E40800916F
:1017100018041091190420911A0430911B04DC0163
:10172000CB01801B910BA20BB30B8C329140A10516
:10173000B10558F3F89480910E0490910F049E87A0
:101740008D87E0911204F0911304DF0111968081DE
:101750008D8B90910A04E0911C04F0911D048091FE
:101760001E04992309F42EC09081982B9C8B9081A4
:10177000809589238B8B8B89888B88E08F875C8908
:101780006B894D893F8528898D859E85508347FDCE
:10179000252F3A952083262F39F0441F00C00000E2
:1017A0006083000000C0F2CF38E04D9160830000FC
:1017B000019761F7F0931D04E0931C044D8B3F8764
:1017C000288B38C09081982B9C8B908180958923A1
:1017D0008B8B8B898A8B88E0898B5C896B894D899F
:1017E00039892A898D859E85508347FD252F00C024
:1017F00000C0208300C000C000C000C000C06083E3
:101800000000262F3A9541F0441F000000C000C0A0
:1018100000C000C000C0E8CF38E04D9100C0608338
:1018200000C0019709F7F0931D04E0931C044D8B51
:10183000398B2A8B9E878D8778940E94E408609369
:1018400018047093190480931A0490931B0464E69F
:1018500070E080E090E00E94090915E087E30E94B3
:10186000C5087C018091060290910702E816F906EE
:1018700009F42BC11E9DB0011F9D700D1124072E70
:10188000000C880B990B0E94BD1020E030EC4FE754
:1018900054E40E942B120E9415046093F30270938B
:1018A000F4028093F5029093F602F0920702E09220
:1018B0000602E090F102F090F202F0920502E0924E
:1018C000040288E30E94C5089093F2028093F1021B
:1018D000E816F90609F4F9C0189FB001199F700DB8
:1018E0001124072E000C880B990B0E94BD1020E0DC
:1018F00030EC4FE754E40E942B120E9415046093D1
:10190000ED027093EE028093EF029093F002E0906C
:10191000EB02F090EC02F0920302E092020289E303
:101920000E94C5089093EC028093EB02E816F9063A
:1019300009F4CBC0189FB001199F700D1124072E18
:10194000000C880B990B0E94BD1020E030EC4FE793
:1019500054E40E942B120E9415046093E7027093D6
:10196000E8028093E9029093EA02E090E502F090A9
:10197000E602F0920102E09200028AE30E94C508AA
:101980009093E6028093E502E816F90609F49DC0FB
:10199000189FB001199F700D1124072E000C880BA1
:1019A000990B0E94BD1020E030EC4FE754E40E94F8
:1019B0002B120E9415046093E1027093E20280935F
:1019C000E3029093E40264E372E0CE0107960E9482
:1019D00000054091F3025091F4026091F50270917C
:1019E000F602CE0101960E940007BE016F5F7F4F95
:1019F000CE0107960E94CF06CE0101960E941004E8
:101A0000CE0107960E9449074091ED025091EE02E7
:101A10006091EF027091F002CE0101960E940007E2
:101A2000BE016F5F7F4FCE0107960E94CF06CE01A9
:101A300001960E941004CE0107960E94490740912A
:101A4000E7025091E8026091E9027091EA02CE014A
:101A500001960E940007BE016F5F7F4FCE0107967F
:101A60000E94CF06CE0101960E941004CE01079677
:101A70000E9449074091E1025091E2026091E30225
:101A80007091E402CE0101960E940007BE016F5FD3
:101A90007F4FCE0107960E94CF06CE0101960E948D
:101AA00010044B855C856F81788581E693E00E9408
:101AB000150242E050E062E372E081E693E00E94AA
:101AC0001502CE0107960E94100464E670E080E0E3
:101AD00090E00E9409090E941703C0CE8091120471
:101AE00090911304009711F00E941A148091100431
:101AF00087FD03C060E00E9489088FE194E00E94A6
:101B0000100485E294E00E9410048BE294E00C94AF
:101B10001004109264031092630388EE93E0A0E037
:101B2000B0E08093650390936603A0936703B0933E
:101B3000680322E132E0309362032093610325ECD5
:101B400030E030936E0320936D0324EC30E030934B
:101B5000700320936F0320EC30E0309372032093E6
:101B6000710321EC30E0309374032093730322EC73
:101B700030E0309376032093750326EC30E0309309
:101B800078032093770310927A0310927B031092CC
:101B90007C0310927D031092010410920004809344
:101BA000020490930304A0930404B093050484E218
:101BB00092E09093FF038093FE0365E372E08BE273
:101BC00094E00E94000569E472E085E294E00E94DE
:101BD000000562E672E08FE194E00E940005109239
:101BE0000B04109211041092180410921904109210
:101BF0001A0410921B0481E080931704809314044C
:101C00001092150492E09093160480930A0480EFDA
:101C100090E090930F0480930E040E94821390939F
:101C2000130480931204009761F020EFFC011192DD
:101C30002A95E9F780E590E090930D0480930C04D9
:101C400008C010920F0410920E0410920D0410920E
:101C50000C0486E08093100480910B04882341F0EB
:101C600061E086E00E94890860E086E00E940B083F
:101C7000ECE7F3E0E491F0E0EE0FFF1FE45AFC4FD5
:101C80008591949190931D0480931C04ECE1F3E002
:101C9000E491E0931E040895EF920F931F93CF9366
:101CA000DF93E80147FD02C034E001C034E1042EB7
:101CB000000C550B57FF03C0519541955109E32E78
:101CC000022F242FAE010E946C0ECE01DF91CF9126
:101CD0001F910F91EF9008958F929F92AF92BF92B4
:101CE000CF92DF92EF92FF920F931F93CF93DF93E8
:101CF000CDB7DEB729970FB6F894DEBF0FBECDBFC4
:101D00006A01122FB02E2BE3201720F0FF24F3944A
:101D1000F00E02C02CE3F22E0F2D27E0AE014F5F34
:101D20005F4F0E94E30FBC014981842F897081308D
:101D300031F0E1FC06C0E0FE06C090E205C09DE285
:101D400003C09BE201C090E05E2D507143FF3CC098
:101D5000911102C083E001C084E0811718F4212FA3
:101D6000281B01C020E051110BC0F601822F30E288
:101D7000882319F031938150FBCFC20ED11C20E093
:101D8000992329F0D6019C93F60131966F01C60183
:101D90000396E2FE0AC03EE4D6013C9341E411966C
:101DA0004C93119712963C9306C03EE6F6013083A1
:101DB00041E641833283FC01322F40E2332309F4B0
:101DC00042C041933150FACF42FF44C0911102C04A
:101DD00083E001C084E0811718F4212F281B01C083
:101DE00020E051110BC0F601822F30E2882319F058
:101DF00031938150FBCFC20ED11C20E0992329F0F2
:101E0000D6019C93F60131966F01C6010396E2FE5E
:101E10000BC039E4D6013C933EE411963C931197F4
:101E200036E412963C9307C039E6F60130833EE66D
:101E3000318336E63283FC01322F40E2332319F03E
:101E400041933150FBCFFC01E20FF11D10828EEF68
:101E50009FEFA6C021E030E0911102C020E030E009
:101E6000161617061CF4FB01319602C0E1E0F0E003
:101E70002E0F3F1FBB2021F0EB2DF0E0319602C06A
:101E8000E0E0F0E02E0F3F1FE12FF0E02E173F07BC
:101E90001CF4121B212F01C020E08E2D887159F4F3
:101EA000F601822F30E2882319F031938150FBCF65
:101EB000C20ED11C20E0992329F0D6019C93F60193
:101EC00031966F0151110BC0F601822F90E38823E8
:101ED00019F091938150FBCFC20ED11C20E00F2D41
:101EE000060F9A81342F307144FF03C0913309F4F7
:101EF0000150101624F4093018F008E001C001E088
:101F0000AB0177FF02C040E050E0FB01E41BF50BA2
:101F1000A1E0B0E0AC0FBD1FEA0FFB1F8EE2A82EC0
:101F20004B01801A91080B2D10E0119501951109B4
:101F30004F3FBFEF5B0721F4D601AC9211966D01C4
:101F4000641775072CF08416950614F4818101C07E
:101F500080E3415051093196D60111967D01401719
:101F6000510724F0D6018C936701E2CF64177507FF
:101F700039F4963320F4953319F4311101C081E31B
:101F8000F6018083F701822F90E2882319F0919364
:101F90008150FBCFF701E20FF11D108280E090E04D
:101FA00029960FB6F894DEBF0FBECDBFDF91CF915B
:101FB0001F910F91FF90EF90DF90CF90BF90AF9067
:101FC0009F908F900895283008F027E03327DA019A
:101FD000990F311D87FD916000966105710539F4F7
:101FE00032602E5F3D9330E32A95E1F708959F3FDD
:101FF00030F080387105610509F03C5F3C5F3D932E
:10200000913008F08068911DDF93CF931F930F9359
:10201000FF92EF92192F987F9695E92F96959695B6
:10202000E90FFF27EA5EFD4F99273327EE24FF24AF
:10203000A701E70105900894079428F4360FE71EDE
:10204000F81E491F511D660F771F881F991F0694A0
:10205000A1F70590079428F4E70EF81E491F561FB4
:10206000C11D770F881F991F661F0694A1F7059061
:10207000079428F4F80E491F561FC71FD11D880F5B
:10208000991F661F771F0694A1F70590079420F407
:10209000490F561FC71FD81F990F661F771F881F2C
:1020A0000694A9F784911095177041F0D695C795BD
:1020B00057954795F794E7941A95C1F7ECEBF1E043
:1020C00068941590159135916591959105907FE2F1
:1020D0007395E118F10A430B560BC90BD009C0F7F1
:1020E000E10CF11E431F561FC91FD01D7EF4703333
:1020F00011F48A95E6CFE894015030F0080F0AF405
:102100000027021708F4202F2395022F7A3328F096
:1021100079E37D932A95E9F710C07D932A9589F696
:10212000069497956795379517951794E118F10AD6
:10213000430B560BC90BD00998F023957E917395EC
:102140007A3308F070E37C932013B8F77E917061C6
:102150007D9330F0839571E37D9370E32A95E1F7E9
:102160001124EF90FF900F911F91CF91DF9199274C
:1021700087FD90950895E89409C097FB3EF49095EB
:102180008095709561957F4F8F4F9F4F9923A9F050
:10219000F92F96E9BB279395F695879577956795DF
:1021A000B795F111F8CFFAF4BB0F11F460FF1BC023
:1021B0006F5F7F4F8F4F9F4F16C0882311F096E9B6
:1021C00011C0772321F09EE8872F762F05C0662364
:1021D00071F096E8862F70E060E02AF09A95660F1D
:1021E000771F881FDAF7880F9695879597F90895D6
:1021F0000E940B110C947C110E946E1138F00E9409
:10220000751120F0952311F00C9465110C946B114D
:1022100011240C94B0110E948D1170F3959FC1F39D
:10222000950F50E0551F629FF001729FBB27F00D84
:10223000B11D639FAA27F00DB11DAA1F649F6627D9
:10224000B00DA11D661F829F2227B00DA11D621F28
:10225000739FB00DA11D621F839FA00D611D221FE2
:10226000749F3327A00D611D231F849F600D211DC6
:10227000822F762F6A2F11249F5750409AF0F1F049
:1022800088234AF0EE0FFF1FBB1F661F771F881FB2
:1022900091505040A9F79E3F510580F00C94651174
:1022A0000C94B0115F3FE4F3983ED4F38695779594
:1022B0006795B795F795E7959F5FC1F7FE2B880F58
:1022C000911D9695879597F9089597F99F6780E8EE
:1022D00070E060E008959FEF80EC089500240A9478
:1022E0001616170618060906089500240A941216F1
:1022F0001306140605060895092E0394000C11F424
:10230000882352F0BB0F40F4BF2B11F460FF04C0D0
:102310006F5F7F4F8F4F9F4F089557FD9058440F29
:10232000551F59F05F3F71F04795880F97FB991F34
:1023300061F09F3F79F087950895121613061406F1
:10234000551FF2CF4695F1DF08C01616170618067E
:10235000991FF1CF86957105610508940895E89459
:10236000BB2766277727CB0197F90895EE0FFF1F4C
:10237000881F8BBF0790F691E02D19945058BB270A
:10238000AA270E94D6110C947C110E946E1138F07D
:102390000E94751120F039F49F3F19F426F40C9433
:1023A0006B110EF4E095E7FB0C946511E92F0E9488
:1023B0008D1158F3BA17620773078407950720F049
:1023C00079F4A6F50C94AF110EF4E0950B2EBA2F0C
:1023D000A02D0B01B90190010C01CA01A00111242B
:1023E000FF27591B99F0593F50F4503E68F11A16D7
:1023F000F040A22F232F342F4427585FF3CF469568
:1024000037952795A795F0405395C9F77EF41F1689
:10241000BA0B620B730B840BBAF09150A1F0FF0F53
:10242000BB1F661F771F881FC2F70EC0BA0F621F3F
:10243000731F841F48F4879577956795B795F7952F
:102440009E3F08F0B0CF9395880F08F09927EE0FC4
:102450009795879508950E943F120C947C110E94D5
:10246000751158F00E946E1140F029F45F3F29F079
:102470000C94651151110C94B0110C946B110E94C5
:102480008D1168F39923B1F3552391F3951B550BE7
:10249000BB27AA2762177307840738F09F5F5F4F37
:1024A000220F331F441FAA1FA9F335D00E2E3AF076
:1024B000E0E832D091505040E695001CCAF72BD08E
:1024C000FE2F29D0660F771F881FBB1F26173707DF
:1024D0004807AB07B0E809F0BB0B802DBF01FF2711
:1024E00093585F4F3AF09E3F510578F00C94651178
:1024F0000C94B0115F3FE4F3983ED4F38695779542
:102500006795B795F7959F5FC9F7880F911D9695C9
:10251000879597F90895E1E0660F771F881FBB1F25
:10252000621773078407BA0720F0621B730B840BD2
:10253000BA0BEE1F88F7E095089529F416F00C9475
:1025400065110C94AF110C946B110E949511A8F3B6
:102550009638A0F707F80F92E8942BE33AEA48EB95
:102560005FE70E940E110F920F920F924DB75EB768
:102570000F920E944013E8E0F1E00E94D7124F91C1
:102580005F91EF91FF91E595EE1FFF1F49F0FE5718
:10259000E0684427EE0F441FFA95E1F74195550B8B
:1025A0000E940A130F9007FE0C94FE120895DF9309
:1025B000CF931F930F93FF92EF92DF927B018C01D9
:1025C000689406C0DA2EEF010E940B11FE01E89418
:1025D000A5912591359145915591A6F3EF010E9462
:1025E000D611FE019701A801DA9469F7DF90EF9008
:1025F000FF900F911F91CF91DF9108959B01AC0146
:1026000060E070E080E89FE30C942B120C9465115D
:102610000C9474130E949511D8F39923C9F3940F65
:10262000511DA3F39150504094F059F0882332F09B
:10263000660F771F881F91505040C1F79E3F51058C
:102640002CF7880F911D9695879597F908955F3F10
:10265000ACF0983E9CF0BB27869577956795B7952B
:1026600008F4B1609395C1F7BB0F58F711F460FF00
:10267000E8CF6F5F7F4F8F4F9F4FE3CF0C94B01128
:10268000FA01DC01AA0FBB1F9B01AC01BF5728F464
:10269000222733274427507820C0B75190F4AB2F1E
:1026A0000024469537952795011CA395D2F3002069
:1026B00071F0220F331F441FB395DAF30ED00C9440
:1026C000BE1161307105A0E88A07B94630F49B015C
:1026D000AC016627772788279078309621F02083F1
:1026E00031834283538308959F3F31F0915020F40A
:1026F000879577956795B795880F911D96958795DE
:1027000097F908950F931F93CF93DF93823091052C
:1027100010F482E090E0E0913304F091340420E082
:1027200030E0A0E0B0E0309719F1408151810281A2
:10273000138148175907C8F08417950769F4109753
:1027400031F012960C93129713961C9327C00093A6
:1027500033041093340422C02115310519F04217B7
:10276000530718F49A01BD01EF01DF01F801DBCF37
:1027700021153105F9F0281B390B2430310580F47F
:102780008A819B816115710521F0FB01938382830E
:1027900004C09093340480933304FE01329644C005
:1027A000FE01E20FF31F8193919322503109398387
:1027B00028833AC02091310430913204232B41F414
:1027C00020910A0230910B0230933204209331049D
:1027D00020910802309109022115310541F42DB7ED
:1027E0003EB740910C0250910D02241B350BE09135
:1027F0003104F0913204E217F307A0F42E1B3F0BD3
:102800002817390778F0AC014E5F5F4F2417350762
:1028100048F04E0F5F1F5093320440933104819370
:10282000919302C0E0E0F0E0CF01DF91CF911F91E2
:102830000F910895CF93DF93009709F481C0FC01B5
:10284000329713821282A0913304B091340410970E
:1028500081F420813181820F931F209131043091C6
:1028600032042817390751F5F0933204E09331040C
:1028700067C0ED0120E030E0CE17DF0740F44A8169
:102880005B819E0141155105F1F0EA01F5CFD3833B
:10289000C28340815181840F951FC817D90759F40D
:1028A00088819981840F951F0296918380838A8104
:1028B0009B81938382832115310529F4F09334049D
:1028C000E09333043DC0E901FB83EA8349915991C8
:1028D000C40FD51FEC17FD0761F480819181840F2F
:1028E000951F0296E90199838883828193819B8356
:1028F0008A83E0E0F0E012968D919C911397009707
:1029000019F0FD01DC01F7CF8D919C9111979D018C
:102910002E5F3F4F820F931F20913104309132047C
:102920002817390769F4309729F41092340410926B
:10293000330402C013821282B0933204A093310494
:10294000DF91CF9108956F927F928F929F92AF9275
:10295000BF92CF92DF92EF92FF920F931F93CF938C
:10296000DF93009789F4CB01DF91CF911F910F91F5
:10297000FF90EF90DF90CF90BF90AF909F908F909F
:102980007F906F900C948213FC01E60FF71F9C015F
:1029900022503109E217F30708F4A9C0EC01D9016C
:1029A0000D911C91119706171707B0F0053011050E
:1029B00008F49BC0C80104978617970708F495C0D0
:1029C00002501109061B170B019311936D937C9311
:1029D000CF010E941A1489C05B01A01AB10A4C01F0
:1029E000800E911EA0913304B0913404612C712C9F
:1029F000E12CF12C109709F446C08D919C91119710
:102A0000A815B905B1F56C0142E0C40ED11CCA1479
:102A1000DB0478F14C018A189B08640142E0C40E83
:102A2000D11C1296BC9012971396AC91B5E0CB16C0
:102A3000D10440F0B282A38391828082D9016D9348
:102A40007C9309C00E5F1F4F800F911FF901918386
:102A50008083EB2DFA2FE114F10431F0D7011396A6
:102A6000FC93EE93129741C0F0933404E093330447
:102A70003CC06816790608F43C017D0112960D9061
:102A8000BC91A02DB7CF809131049091320488166B
:102A90009906E1F466167706C8F4809108029091D1
:102AA0000902009741F48DB79EB740910C025091F6
:102AB0000D02841B950BE817F907C8F4F093320454
:102AC000E0933104F901718360830FC0CB010E9450
:102AD00082137C01009759F0A801BE010E948D1558
:102AE000CE010E941A14C70104C0CE0102C080E0CA
:102AF00090E0DF91CF911F910F91FF90EF90DF90C9
:102B0000CF90BF90AF909F908F907F906F900895DF
:102B100081E090E0F8940C949D15FB01DC0102C06B
:102B200001900D9241505040D8F70895FB01DC010F
:102B300001900D920020E1F7089511E0CFEDD1E072
:102B400000E006C0802FFE010E94B6112196011DF3
:0E2B5000C03ED10780E00807A9F7F894FFCF38
:102B5E00F0D8F0D8F0D8F0D800003504800000008E
:102B6E000000A80215023F02F50270024E02620238
:102B7E0000000000DB03AE030B048203A6039203E6
:102B8E0083030D0A0064697374616E636567726F07
:102B9E007570342D3535313800676573747572650F
:102BAE0073656E736F7267726F7570342D636331F8
:102BBE003200646973636F70726573737572652D1D
:082BCE0035393838002C0000F5
:00000001FF
