:100000000C94E0010C9411020C9411020C94110256
:100010000C9411020C9411020C9411020C94110214
:100020000C9411020C9411020C9411020C94110204
:100030000C9411020C9411020C9411020C941102F4
:100040000C9411020C9411020C9411020C941102E4
:100050000C9411020C9411020C9411020C94F908E6
:100060000C9411020C9426050C94FC040C941102BF
:100070000C9411020C9411020C9411020C941102B4
:100080000C9411020C9411020C9411020C941102A4
:100090000C9411020C9411020C9411020C945C0546
:1000A0000C9411020C9411020C9411020C94110284
:1000B0000C9411020C9411020C9411020C94110274
:1000C0000C9411020C9411020C9411020C94110264
:1000D0000C9411020C9411020C9411020C94110254
:1000E0000C941102F007F307E207E607EA072A0873
:1000F000F707FB070108050809080F081308170888
:100100002A081D082108250807634236B79BD8A78F
:100110001A39685618AEBAAB558C1D3CB7CC57632C
:10012000BD6DEDFD753EF6177231BF000000803FDA
:100130000C94930D0C9482030C9415020C94F0070C
:100140000C94A6030C940F080C9417080C949203BB
:100150000C94EA070C94F3070C94780D0C94AE03FE
:100160000C9413020C9401080C943F020C94F707B2
:100170000C9470020C9413080C9409080C94FB075F
:100180000C9462020C94F5020C9483030C944E02BE
:100190000C9405080C942A080C940B040C94E607A4
:1001A0000C9425080C94A8020C9421080C94E207E6
:1001B0000C94DB030C9414020C941D0800407A107C
:1001C000F35A00A0724E18090010A5D4E80000E808
:1001D0007648170000E40B54020000CA9A3B000066
:1001E00000E1F505000080969800000040420F00F5
:1001F0000000A08601000000102700000000E803B6
:10020000000000006400000000000A000000000080
:100210000100000000002C76D888DC674F0823DF3F
:10022000C1DFAE59E1B1B796E5E3E453C63AE65112
:10023000997696E8E6C28426EB898C9B62ED407C39
:100240006FFCEFBC9C9F40F2BAA56FA5F490055AD5
:100250002AF75C936B6CF9676DC11BFCE0E40D47FA
:10026000FEF520E6B500D0ED902E0300943577051D
:100270000080841E080000204E0A000000C80C33D5
:100280003333330F986E12831141EF8D2114893B64
:10029000E65516CFFEE6DB18D1844B381BF77C1DE4
:1002A000901DA4BBE424203284725E228100C9F137
:1002B00024ECA1E53D2700002100240027002A00AE
:1002C0002D003000330001010000040107010A0184
:1002D00000000A0B02090C0D0E08070304010000C0
:1002E000000000000000000000000000000000000E
:1002F00000000000000000000000000012111000CB
:1003000000000000000000000000000000000000ED
:10031000000000000000010210202008081020400A
:1003200010204080020102010804020101020408B9
:100330001020408080402010080402018004020147
:100340008040201008040201080402010102040890
:10035000102040800102040810204080000022008C
:10036000250028002B002E0031003400020100007F
:10037000050108010B010505050507050808080822
:10038000020202020A0A080804040404010101012D
:100390000101010103030303030303030407070728
:1003A0000C0C0C0C0C0C0C0C0202020206060606CD
:1003B000060606060B0B0B0B0B0B0B0B930D780DA8
:1003C00011241FBECFEFD1E2DEBFCDBF00E00CBFD6
:1003D00024E0A8E7B2E001C01D92A533B207E1F71F
:1003E00012E0A0E0B2E0E2E7FBE200E00BBF02C0F7
:1003F00007900D92A837B107D9F711E0CFEDD1E002
:1004000000E006C021970109802FFE010E94C01163
:10041000CE3DD10780E00807A9F70E9443090C945C
:10042000A7150C94000008950895CF92DF92EF92E3
:10043000FF920F931F93CF93DF936C017A018B018F
:10044000C0E0D0E0CE15DF0581F0D8016D918D01BF
:10045000D601ED91FC910190F081E02DC601199536
:10046000892B11F02196EECF7E01C701DF91CF914C
:100470001F910F91FF90EF90DF90CF900895FC01B6
:10048000538D448D252F30E0842F90E0821B930BF9
:10049000541710F0CF96089501970895FC01918D9F
:1004A000828D981761F0828DDF01A80FB11D5D96D6
:1004B0008C91928D9F5F9F73928F90E008958FEF44
:1004C0009FEF0895FC01918D828D981731F0828DF8
:1004D000E80FF11D858D90E008958FEF9FEF08954F
:1004E000FC01918D228D892F90E0805C9F4F821BB3
:1004F00091098F739927089588E593E00E9470020F
:1005000021E0892B09F420E0822F0895FC01848DDD
:10051000DF01A80FB11DA35ABF4F2C91848D90E02D
:1005200001968F739927848FA689B7892C93A08908
:10053000B1898C91837080648C93938D848D981392
:1005400006C00288F389E02D80818F7D8083089525
:10055000EF92FF920F931F93CF93DF93EC0181E013
:10056000888F9B8D8C8D981305C0E889F9898081CF
:1005700085FD26C0F62E0B8D10E00F5F1F4F0F7309
:100580001127E02E8C8DE8120CC00FB607FCFACFB5
:10059000E889F989808185FFF5CFCE010E94860226
:1005A000F1CF8B8DFE01E80FF11DE35AFF4FF08272
:1005B0009FB7F8940B8FEA89FB89808180620AC01B
:1005C0009FB7F894EE89FF896083E889F989808173
:1005D0008370806480839FBF81E090E0DF91CF9142
:1005E0001F910F91FF90EF900895CF93DF93EC014F
:1005F000888D8823C9F0EA89FB89808185FD05C043
:10060000A889B9898C9186FD0FC00FB607FCF5CF7C
:10061000808185FFF2CFA889B9898C9185FFEDCFC4
:10062000CE010E948602E7CFDF91CF91089580E04E
:1006300090E0892B21F00E947C02811125C080E08E
:1006400090E0892B41F080E090E0892B21F00E941E
:10065000000081111CC080E090E0892B41F080E017
:1006600090E0892B21F00E940000811113C080E0EE
:1006700090E0892BA1F080E090E0892B81F00E942E
:10068000000081110AC008950E940000D8CF0E9486
:100690000000E1CF0E940000EACF0C940000089512
:1006A00085ED8093BC008091BC0084FDFCCF10924E
:1006B0003303089540919802262F30E0240F311D16
:1006C00021323105DCF4209133032430C9F4FC01DC
:1006D00080E090E0861758F4309198022191DC0177
:1006E000A858BD4FA30FB11D2C930196F3CF809155
:1006F0009802680F6093980280E0089581E0089561
:1007000082E008950895E091E0028091DF02E81709
:1007100030F4F0E0E554FD4F808190E008958FEFD4
:100720009FEF08959091E0028091DF02981750F4B6
:10073000E92FF0E0E554FD4F208130E09F5F90937A
:10074000E00202C02FEF3FEFC90108958091DF0260
:1007500090E02091E002821B91090895CF92DF92F0
:10076000EF92FF920F931F93CF93DF937C01CB0106
:100770008A0120913403222389F0EB016B01C40E1E
:10078000D51ECC15DD0569F06991D701ED91FC917D
:100790000190F081E02DC7011995F3CF642F0E94DD
:1007A0005A03C801DF91CF911F910F91FF90EF90F5
:1007B000DF90CF900895CF93DF931F92CDB7DEB730
:1007C0006983209134032223D1F0209157032032F2
:1007D00040F021E030E0FC013383228380E090E0B0
:1007E00015C080913503E82FF0E0EA5CFC4F998159
:1007F00090838F5F809335038093570305C061E03A
:10080000CE0101960E945A0381E090E00F90DF91A3
:10081000CF910895089580E090E008950E94921588
:10082000FC01808191810C9424144F925F926F920D
:100830007F928F929F92AF92BF92CF92DF92EF9270
:10084000FF926B017C012FEE39EC43E75FE30E94DE
:1008500002110E94AF122B013C0124EB38EC4EE058
:1008600050ECC701B6010E9402110E94AF124B0169
:100870005C012CE23DE748E65CE3C301B2010E9463
:1008800002116B017C0128EC3EE54FE65CEBC501F3
:10089000B4010E9402119B01AC01C701B6010E9484
:1008A000C91123EC35EF4CE151E40E940211FF9095
:1008B000EF90DF90CF90BF90AF909F908F907F9000
:1008C0006F905F904F9008950F931F93CF93DF9396
:1008D000EC0188819981009729F02A813B812617B4
:1008E000370788F48B016F5F7F4F0E94AD1400972C
:1008F00061F0998388831B830A832C813D81232B9C
:1009000011F4FC01108281E001C080E0DF91CF9101
:100910001F910F910895EF92FF920F931F93CF9322
:10092000DF93FB0104811581E080F180E114F10483
:1009300011F480E01AC001151105B1F0EC018C81B1
:100940009D81080F191FB801CE010E9464048823FD
:1009500081F3288139818C819D81B701820F931F9A
:100960000E94A0151D830C8381E0DF91CF911F9120
:100970000F91FF90EF900895EF92FF920F931F93C6
:10098000CF93DF93EC017B018A01BA010E946404DA
:100990002881398181110DC02115310519F0C90156
:1009A0000E942414198218821D821C821B821A82C2
:1009B00006C01D830C83B701C9010E94A015CE019A
:1009C000DF91CF911F910F91FF90EF900895FC015F
:1009D00011821082138212821582148261157105B0
:1009E00051F0FB0101900020E9F73197AF01461B60
:1009F000570B0C94BC0408951F920F920FB60F92E0
:100A000011240BB60F922F933F934F935F936F93E5
:100A10007F938F939F93AF93BF93EF93FF9388E55B
:100A200093E00E948602FF91EF91BF91AF919F9159
:100A30008F917F916F915F914F913F912F910F9087
:100A40000BBE0F900FBE0F901F9018951F920F9224
:100A50000FB60F9211240BB60F922F938F939F9383
:100A6000EF93FF93E0916803F09169038081E09137
:100A70006E03F0916F0382FD12C09081809171032B
:100A80008F5F8F7320917203821751F0E091710391
:100A9000F0E0E85AFC4F958F8093710301C080818C
:100AA000FF91EF919F918F912F910F900BBE0F901F
:100AB0000FBE0F901F9018951F920F920FB60F92B6
:100AC00011240BB60F922F933F934F935F936F9325
:100AD0007F938F939F93AF93BF93EF93FF938091F7
:100AE000B900887F803609F49CC068F5883209F423
:100AF0005BC090F4803109F454C038F4882309F4C1
:100B0000F6C0883009F44DC0F6C0883109F44CC0F5
:100B1000803209F45DC0EFC0803409F468C048F445
:100B2000803309F455C0883309F0E5C08093310360
:100B3000D8C0803509F44FC0883509F45DC08834C9
:100B400009F0D9C0D6C0883909F4C7C0A8F48837DD
:100B500009F467C038F4883609F463C0803709F4B3
:100B600060C0C9C0883809F4B8C0803909F45FC0D2
:100B7000803809F0C0C05BC0803B09F486C038F4FF
:100B8000803A09F466C0883A09F47FC0B4C0803C5A
:100B900009F4A7C0883C09F4A4C0883B09F48AC0C2
:100BA000AAC080910E0310C09091300380912F0352
:100BB000981770F5E091300381E08E0F8093300339
:100BC000F0E0E15FFC4F80818093BB0085EC86C044
:100BD000809331038EC0E091300381E08E0F8093CB
:100BE00030038091BB00F0E0E15FFC4F8083909187
:100BF000300380912F036EC0E091300381E08E0FAF
:100C0000809330038091BB00F0E0E15FFC4F808374
:100C10008091320381116DC081E080930D0384EADD
:100C200061C083E0809333031092BA02CFCF8091EA
:100C3000BA02803208F051C0E091BA0281E08E0F12
:100C40008093BA028091BB00F0E0E656FD4F8083AE
:100C5000BDCF85EC8093BC00109233038091BA0223
:100C6000803230F4E091BA02F0E0E656FD4F108297
:100C70006091BA0270E0E091DB02F091DC028AE957
:100C800092E019951092BA0236C084E08093330343
:100C90001092990210929802E091DD02F091DE022A
:100CA000199580919802811105C081E08093980286
:100CB00010927802E091990281E08E0F8093990260
:100CC000F0E0E858FD4F80818093BB00909199023D
:100CD00080919802981708F479CF85E88093BC003A
:100CE0000AC085EC8093BC001092330304C01092BC
:100CF00031030E945003FF91EF91BF91AF919F91FB
:100D00008F917F916F915F914F913F912F910F90B4
:100D10000BBE0F900FBE0F901F901895E8E5F3E003
:100D2000A089B18982E08C93A485B5851C92A685A3
:100D3000B7858FEC8C93108EA489B58986E08C934F
:100D4000A289B3898C9180618C93A289B3898C919B
:100D500088608C93A289B3898C9180688C93028877
:100D6000F389E02D80818F7D80830895EF92FF923B
:100D70000F931F93CF93DF93CDB7DEB7A1970FB635
:100D8000F894DEBF0FBECDBF7C01CB01BA01F701E5
:100D90001182108213821282158214828E010F5FDB
:100DA0001F4F22E044E00E94560E009769F0FC01BC
:100DB00001900020E9F73197AF01481B590BBC01A6
:100DC000C7010E94BC040EC0F70180819181009789
:100DD00011F00E942414F7011182108215821482EE
:100DE00013821282A1960FB6F894DEBF0FBECDBF5C
:100DF000DF91CF911F910F91FF90EF9008950F9386
:100E00001F93CF93DF93EC010C811D810F5F1F4F68
:100E1000B8010E946404882369F0288139818C819B
:100E20009D8165E772E0820F931F0E94A0151D83CC
:100E30000C8381E0DF91CF911F910F910895282FAE
:100E400030915703313208F04AC080913303811149
:100E5000FCCF9091560342E040933303209332033A
:100E60002FEF209331031092300330932F03E6E3EA
:100E7000F3E0AFE0B3E020E0321721F041914D9371
:100E80002F5FFACF10920E0320910E03990F922B31
:100E900090930E0390910D03913061F410920D0325
:100EA00090910E039093BB009091BC0093FDF8CFFE
:100EB00095EC01C095EE9093BC0090913303923075
:100EC000E1F3909131039F3F79F0809131038032BB
:100ED00041F080913103803331F084E005C081E03E
:100EE00003C082E001C083E01092350310925703E3
:100EF000109234030895EF92FF921F93CF93DF93E4
:100F00007B01142FC7EFD2E0988121E020933403B6
:100F1000909356031092350310925703A981BA811A
:100F2000ED91FC9111970190F081E02D682FCD019A
:100F3000199589819A81412F50E0DC01ED91FC9156
:100F40000280F381E02DB701199581E0DF91CF9107
:100F50001F91FF90EF900C941F07CF93DF931F9288
:100F6000CDB7DEB7698341E0BE016F5F7F4F0E945E
:100F70007B070F90DF91CF9108958091FF028F77CB
:100F80000895362F90E0FC01E053FD4F4491FC01A1
:100F9000EA5EFC4F2491FC01EA58FC4F949199239E
:100FA00009F46CC0442309F455C050E0FA013197AC
:100FB000E231F10508F04EC08827EE58FF4F8F4F01
:100FC0000C94C011809180008F7707C080918000C1
:100FD0008F7D03C080918000877F809380003AC01E
:100FE00084B58F7702C084B58F7D84BD33C0809176
:100FF000B0008F7703C08091B0008F7D8093B000E8
:1010000029C0809190008F7707C0809190008F7DDC
:1010100003C080919000877F809390001BC08091D7
:10102000A0008F7707C08091A0008F7D03C08091C2
:10103000A000877F8093A0000DC0809120018F7752
:1010400007C0809120018F7D03C080912001877FA0
:1010500080932001E92FF0E0EE0FFF1FE45AFC4FD0
:10106000A591B4919FB7F894311104C08C9120954B
:10107000282302C0EC912E2B2C939FBF0895CF9371
:10108000DF9390E0FC01EA5EFC4F2491FC01EA58FA
:10109000FC4F8491882361F190E0880F991FFC0137
:1010A000EA54FD4FC591D491FC01E45AFC4FA5913F
:1010B000B491611109C09FB7F8948881209582236B
:1010C0008883EC912E230BC0623061F49FB7F894B3
:1010D0008881322F309583238883EC912E2B2C939B
:1010E0009FBF06C08FB7F894E8812E2B28838FBF4F
:1010F000DF91CF910895863308F0865390917B005D
:10110000282F2870977F922B90937B0087708064A4
:1011100080937C0080917A00806480937A00809133
:101120007A0086FDFCCF809178002091790090E0D4
:10113000922B08953FB7F89480912D0490912E043E
:10114000A0912F04B091300426B5A89B05C02F3F75
:1011500019F00196A11DB11D3FBFBA2FA92F982FDD
:101160008827820F911DA11DB11DBC01CD0142E058
:10117000660F771F881F991F4A95D1F708958F92A0
:101180009F92AF92BF92CF92DF92EF92FF926B014C
:101190007C010E949A084B015C01C114D104E10456
:1011A000F104F1F00E949A08DC01CB018819990939
:1011B000AA09BB09883E9340A105B10570F321E05F
:1011C000C21AD108E108F10888EE880E83E0981E63
:1011D000A11CB11CC114D104E104F10419F7DDCF45
:1011E000FF90EF90DF90CF90BF90AF909F908F9047
:1011F00008951F920F920FB60F9211242F933F93D1
:101200008F939F93AF93BF938091290490912A0469
:10121000A0912B04B0912C043091280423E0230FDB
:101220002D3720F40196A11DB11D05C026E8230F1E
:101230000296A11DB11D2093280480932904909348
:101240002A04A0932B04B0932C0480912D04909138
:101250002E04A0912F04B09130040196A11DB11D60
:1012600080932D0490932E04A0932F04B093300408
:10127000BF91AF919F918F913F912F910F900FBE92
:101280000F901F901895CF93DF93CDB7DEB765977A
:101290000FB6F894DEBF0FBECDBF789484B58260E0
:1012A00084BD84B5816084BD85B5826085BD85B50A
:1012B000816085BD80916E00816080936E00109288
:1012C0008100809181008260809381008091810003
:1012D0008160809381008091800081608093800094
:1012E0008091B10084608093B1008091B0008160F2
:1012F0008093B000809191008260809391008091F2
:101300009100816080939100809190008160809332
:1013100090008091A10082608093A1008091A10043
:1013200081608093A1008091A00081608093A000E3
:10133000809121018260809321018091210181604F
:101340008093210180912001816080932001809110
:101350007A00846080937A0080917A008260809322
:101360007A0080917A00816080937A0080917A007F
:10137000806880937A001092C1000E948E0685EFEB
:1013800093E09093F9028093F8021092E002109299
:10139000DF0210923503109257031092330301E0DD
:1013A0000093320310920D0361E084E10E94C107B3
:1013B00061E085E10E94C1078091B9008E7F809332
:1013C000B9008091B9008D7F8093B90088E4809343
:1013D000B80085E48093BC0083E192E09093DE0244
:1013E0008093DD0284E192E09093DC028093DB0243
:1013F00089E38093F702009334038093560310929D
:101400003503109257038091F8029091F902DC01A4
:10141000ED91FC910190F081E02D62E9199581E058
:101420000E941F07809133038111FCCF8091F70246
:1014300091E090933303909332032FEF2093310385
:101440001092300310922F0390930E0390910E038D
:10145000880F892B80930E0380910D03813061F4F6
:1014600010920D0380910E038093BB008091BC000D
:1014700083FDF8CF85EC01C085EE8093BC008091A0
:1014800033038130E1F380913003811103C09091E7
:10149000300301C091E0AFE0B3E0EBEBF2E080E0BD
:1014A000891721F02D9121938F5FFACF1092E002DE
:1014B0008093DF028091F8029091F902DC01ED91B6
:1014C000FC910084F185E02D1995892B61F08091C4
:1014D000F8029091F902DC01ED91FC910284F38510
:1014E000E02D1995182F1B3A09F0CEC06CEF81E85A
:1014F0000E94AD07609103036C7F616060930303FA
:10150000862F82958F70982F9370B0E49B9FC001B7
:1015100011246C70682B61608FE80E94AD076091A8
:101520000B036E7F60930B036695637070E0660F2C
:10153000771F8BEA0E94AD078091FF028F7B80931B
:10154000FF020E94BD07682F80E80E94AD0710923D
:10155000FA021092FB021092FC021092FD0210920D
:10156000FE028091FF028B7F8093FF020E94BD07E5
:10157000682F80E80E94AD078091FF028D7F8093E5
:10158000FF020E94BD07682F80E80E94AD0780918E
:10159000FF028F7E8093FF020E94BD07682F80E8C4
:1015A0000E94AD078091FF028F7D8093FF020E9411
:1015B000BD07682F80E80E94AD0740E060E070E062
:1015C00087EE0E947B078091FF028E7F8093FF024F
:1015D0000E94BD07682F80E80E94AD076AE070E0B6
:1015E00080E090E00E94BF088091FF0281608093BC
:1015F000FF020E94BD07682F80E80E94AD076AE0E5
:1016000070E080E090E00E94BF0880910A038C7F28
:1016100080930A0360E08AEA0E94AD0760910703A5
:101620006F736064609307036F73606482EA0E9463
:10163000AD07609108036F796064609308036F7170
:10164000606483EA0E94AD0762E380EA0E94AD070E
:101650001092FA021092FB021092FC021092FD020C
:101660001092FE0289EC8093090369EC86EA0E94DD
:10167000AD078091FF0284608093FF020E94BD0746
:10168000682F80E80E94AD078091FF0280648093FC
:10169000FF020E94BD07682F80E80E94AD071092EC
:1016A000FA021092FB021092FC021092FD021092BC
:1016B000FE0260E087E30E943F0860E088E30E944A
:1016C0003F0860E089E30E943F0860E08AE30E94EF
:1016D0003F0860E086E30E943F080E948E068091EA
:1016E000070487FD08C061E00E943F0860E0809128
:1016F00007040E94C10781E08093020480910904DD
:1017000090910A04892B09F4A2C00E949A080091C2
:101710000F04109110042091110430911204DC0187
:10172000CB01801B910BA20BB30B8C329140A10516
:10173000B10558F3F89480910504909106049E87B2
:101740008D87E0910904F0910A04DF0111968081F0
:101750008D8B90910104E0911304F0911404809119
:101760001504992309F42EC09081982B9C8B9081AD
:10177000809589238B8B8B89888B88E08F875C8908
:101780006B894D893F8528898D859E85508347FDCE
:10179000252F3A952083262F39F0441F00C00000E2
:1017A0006083000000C0F2CF38E04D9160830000FC
:1017B000019761F7F0931404E09313044D8B3F8776
:1017C000288B38C09081982B9C8B908180958923A1
:1017D0008B8B8B898A8B88E0898B5C896B894D899F
:1017E00039892A898D859E85508347FD252F00C024
:1017F00000C0208300C000C000C000C000C06083E3
:101800000000262F3A9541F0441F000000C000C0A0
:1018100000C000C000C0E8CF38E04D9100C0608338
:1018200000C0019709F7F0931404E09313044D8B63
:10183000398B2A8B9E878D8778940E949A086093B3
:101840000F0470931004809311049093120464E6C3
:1018500070E080E090E00E94BF0815E087E30E94FE
:101860007B087C018091060290910702E816F90638
:1018700009F435C11E9DB0011F9D700D1124072E66
:10188000000C880B990B0E94C71020E030EC4FE74A
:1018900054E40E9435120E9415046093F302709381
:1018A000F4028093F5029093F602F0920702E09220
:1018B0000602E090F102F090F202F0920502E0924E
:1018C000040288E30E947B089093F2028093F10265
:1018D000E816F90609F403C1189FB001199F700DAD
:1018E0001124072E000C880B990B0E94C71020E0D2
:1018F00030EC4FE754E40E9435120E9415046093C7
:10190000ED027093EE028093EF029093F002E0906C
:10191000EB02F090EC02F0920302E092020289E303
:101920000E947B089093EC028093EB02E816F90684
:1019300009F4D5C0189FB001199F700D1124072E0E
:10194000000C880B990B0E94C71020E030EC4FE789
:1019500054E40E9435120E9415046093E7027093CC
:10196000E8028093E9029093EA02E090E502F090A9
:10197000E602F0920102E09200028AE30E947B08F4
:101980009093E6028093E502E816F90609F4A7C0F1
:10199000189FB001199F700D1124072E000C880BA1
:1019A000990B0E94C71020E030EC4FE754E40E94EE
:1019B00035120E9415046093E1027093E202809355
:1019C000E3029093E40264E372E0CE0107960E9482
:1019D000E70466E174E0CE0107960E948B04CE0115
:1019E00007960E94FF064091F3025091F402609125
:1019F000F5027091F602CE0101960E94B606BE0174
:101A00006F5F7F4FCE0107960E948B04CE01019637
:101A10000E941004CE0107960E94FF064091ED023D
:101A20005091EE026091EF027091F002CE010196AA
:101A30000E94B606BE016F5F7F4FCE0107960E94DF
:101A40008B04CE0101960E941004CE0107960E94DD
:101A5000FF064091E7025091E8026091E90270911F
:101A6000EA02CE0101960E94B606BE016F5F7F4F6B
:101A7000CE0107960E948B04CE0101960E941004AD
:101A8000CE0107960E94FF064091E1025091E202CA
:101A90006091E3027091E402CE0101960E94B606C5
:101AA000BE016F5F7F4FCE0107960E948B04CE016F
:101AB00001960E9410044B855C856F81788588E5CE
:101AC00093E00E94150242E050E062E372E088E594
:101AD00093E00E941502CE0107960E94100464E66E
:101AE00070E080E090E00E94BF080E941703B6CE2D
:101AF0008091090490910A04009711F00E94241427
:101B00008091070487FD03C060E00E943F0886E1E2
:101B100094E00E9410048CE194E00E94100482E2A0
:101B200094E00C94100410925B0310925A0388EE18
:101B300093E0A0E0B0E080935C0390935D03A093FA
:101B40005E03B0935F0322E132E0309359032093A8
:101B5000580325EC30E0309365032093640324ECB4
:101B600030E0309367032093660320EC30E030933D
:101B700069032093680321EC30E030936B032093DA
:101B80006A0322EC30E030936D0320936C0326EC63
:101B900030E030936F0320936E0310927103109224
:101BA000720310927303109274031092F803109250
:101BB000F7038093F9039093FA03A093FB03B09388
:101BC000FC0384E292E09093F6038093F50365E3CF
:101BD00072E082E294E00E94E70469E472E08CE142
:101BE00094E00E94E70462E672E086E194E00E94DD
:101BF000E704109202041092080410920F0410924D
:101C00001004109211041092120481E080930E04CB
:101C100080930B0410920C0492E090930D04809337
:101C2000010480EF90E090930604809305040E94E5
:101C30008C1390930A0480930904009761F020EFBD
:101C4000FC0111922A95E9F780E590E09093040455
:101C50008093030408C010920604109205041092A9
:101C600004041092030486E0809307048091020428
:101C7000882341F061E086E00E943F0860E086E052
:101C80000E94C107ECE7F3E0E491F0E0EE0FFF1FE4
:101C9000E45AFC4F8591949190931404809313041B
:101CA000ECE1F3E0E491E09315040895EF920F93D3
:101CB0001F93CF93DF93E80147FD02C034E001C0DA
:101CC00034E1042E000C550B57FF03C0519541958C
:101CD0005109E32E022F242FAE010E94760ECE0171
:101CE000DF91CF911F910F91EF9008958F929F9266
:101CF000AF92BF92CF92DF92EF92FF920F931F931A
:101D0000CF93DF93CDB7DEB729970FB6F894DEBF38
:101D10000FBECDBF6A01122FB02E2BE3201720F08B
:101D2000FF24F394F00E02C02CE3F22E0F2D27E0D7
:101D3000AE014F5F5F4F0E94ED0FBC014981842FC0
:101D40008970813031F0E1FC06C0E0FE06C090E20F
:101D500005C09DE203C09BE201C090E05E2D507182
:101D600043FF3CC0911102C083E001C084E08117B1
:101D700018F4212F281B01C020E051110BC0F601DF
:101D8000822F30E2882319F031938150FBCFC20EAD
:101D9000D11C20E0992329F0D6019C93F6013196BD
:101DA0006F01C6010396E2FE0AC03EE4D6013C93F1
:101DB00041E411964C93119712963C9306C03EE66F
:101DC000F601308341E641833283FC01322F40E249
:101DD000332309F442C041933150FACF42FF44C04B
:101DE000911102C083E001C084E0811718F4212F13
:101DF000281B01C020E051110BC0F601822F30E2F8
:101E0000882319F031938150FBCFC20ED11C20E002
:101E1000992329F0D6019C93F60131966F01C601F2
:101E20000396E2FE0BC039E4D6013C933EE41196E2
:101E30003C93119736E412963C9307C039E6F601BD
:101E400030833EE6318336E63283FC01322F40E2B6
:101E5000332319F041933150FBCFFC01E20FF11D08
:101E600010828EEF9FEFA6C021E030E0911102C0FA
:101E700020E030E0161617061CF4FB01319602C074
:101E8000E1E0F0E02E0F3F1FBB2021F0EB2DF0E052
:101E9000319602C0E0E0F0E02E0F3F1FE12FF0E0AE
:101EA0002E173F071CF4121B212F01C020E08E2D9E
:101EB000887159F4F601822F30E2882319F03193AA
:101EC0008150FBCFC20ED11C20E0992329F0D6010E
:101ED0009C93F60131966F0151110BC0F601822FD0
:101EE00090E3882319F091938150FBCFC20ED11C4F
:101EF00020E00F2D060F9A81342F307144FF03C06C
:101F0000913309F40150101624F4093018F008E058
:101F100001C001E0AB0177FF02C040E050E0FB01EF
:101F2000E41BF50BA1E0B0E0AC0FBD1FEA0FFB1FF7
:101F30008EE2A82E4B01801A91080B2D10E011950E
:101F4000019511094F3FBFEF5B0721F4D601AC9219
:101F500011966D01641775072CF08416950614F41C
:101F6000818101C080E3415051093196D60111961B
:101F70007D014017510724F0D6018C936701E2CF11
:101F80006417750739F4963320F4953319F4311139
:101F900001C081E3F6018083F701822F90E288235C
:101FA00019F091938150FBCFF701E20FF11D1082E0
:101FB00080E090E029960FB6F894DEBF0FBECDBF4B
:101FC000DF91CF911F910F91FF90EF90DF90CF9015
:101FD000BF90AF909F908F900895283008F027E031
:101FE0003327DA01990F311D87FD91600096610555
:101FF000710539F432602E5F3D9330E32A95E1F7A5
:1020000008959F3F30F080387105610509F03C5F0D
:102010003C5F3D93913008F08068911DDF93CF9332
:102020001F930F93FF92EF92192F987F9695E92FA8
:1020300096959695E90FFF27EA5EFD4F992733277E
:10204000EE24FF24A701E70105900894079428F4E3
:10205000360FE71EF81E491F511D660F771F881F98
:10206000991F0694A1F70590079428F4E70EF81E2F
:10207000491F561FC11D770F881F991F661F0694A1
:10208000A1F70590079428F4F80E491F561FC71FA3
:10209000D11D880F991F661F771F0694A1F7059021
:1020A000079420F4490F561FC71FD81F990F661FAA
:1020B000771F881F0694A9F784911095177041F037
:1020C000D695C79557954795F794E7941A95C1F714
:1020D000ECEBF1E06894159015913591659195912F
:1020E00005907FE27395E118F10A430B560BC90B7B
:1020F000D009C0F7E10CF11E431F561FC91FD01DA8
:102100007EF4703311F48A95E6CFE894015030F0F4
:10211000080F0AF40027021708F4202F2395022F36
:102120007A3328F079E37D932A95E9F710C07D93FF
:102130002A9589F60694979567953795179517947C
:10214000E118F10A430B560BC90BD00998F02395FF
:102150007E9173957A3308F070E37C932013B8F77F
:102160007E9170617D9330F0839571E37D9370E390
:102170002A95E1F71124EF90FF900F911F91CF91D5
:10218000DF91992787FD90950895E89409C097FB02
:102190003EF490958095709561957F4F8F4F9F4F3E
:1021A0009923A9F0F92F96E9BB279395F695879582
:1021B00077956795B795F111F8CFFAF4BB0F11F445
:1021C00060FF1BC06F5F7F4F8F4F9F4F16C08823EC
:1021D00011F096E911C0772321F09EE8872F762F22
:1021E00005C0662371F096E8862F70E060E02AF063
:1021F0009A95660F771F881FDAF7880F969587954F
:1022000097F908950E9415110C9486110E94781177
:1022100038F00E947F1120F0952311F00C946F117B
:102220000C94751111240C94BA110E94971170F33B
:10223000959FC1F3950F50E0551F629FF001729F6B
:10224000BB27F00DB11D639FAA27F00DB11DAA1F7A
:10225000649F6627B00DA11D661F829F2227B00DC7
:10226000A11D621F739FB00DA11D621F839FA00D52
:10227000611D221F749F3327A00D611D231F849FA2
:10228000600D211D822F762F6A2F11249F575040F9
:102290009AF0F1F088234AF0EE0FFF1FBB1F661F74
:1022A000771F881F91505040A9F79E3F510580F03D
:1022B0000C946F110C94BA115F3FE4F3983ED4F381
:1022C000869577956795B795F795E7959F5FC1F7E1
:1022D000FE2B880F911D9695879597F9089597F98C
:1022E0009F6780E870E060E008959FEF80EC0895BC
:1022F00000240A94161617061806090608950024E5
:102300000A9412161306140605060895092E03945E
:10231000000C11F4882352F0BB0F40F4BF2B11F4D2
:1023200060FF04C06F5F7F4F8F4F9F4F089557FD31
:102330009058440F551F59F05F3F71F04795880F33
:1023400097FB991F61F09F3F79F0879508951216CA
:1023500013061406551FF2CF4695F1DF08C0161676
:1023600017061806991FF1CF869571056105089427
:102370000895E894BB2766277727CB0197F908953E
:10238000EE0FFF1F881F8BBF0790F691E02D199469
:102390005058BB27AA270E94E0110C9486110E9476
:1023A000781138F00E947F1120F039F49F3F19F422
:1023B00026F40C9475110EF4E095E7FB0C946F1164
:1023C000E92F0E94971158F3BA1762077307840721
:1023D000950720F079F4A6F50C94B9110EF4E09568
:1023E0000B2EBA2FA02D0B01B90190010C01CA01CF
:1023F000A0011124FF27591B99F0593F50F4503E7A
:1024000068F11A16F040A22F232F342F4427585F6B
:10241000F3CF469537952795A795F0405395C9F783
:102420007EF41F16BA0B620B730B840BBAF091503B
:10243000A1F0FF0FBB1F661F771F881FC2F70EC0DA
:10244000BA0F621F731F841F48F4879577956795AD
:10245000B795F7959E3F08F0B0CF9395880F08F099
:102460009927EE0F9795879508950E9449120C942D
:1024700086110E947F1158F00E94781140F029F4D3
:102480005F3F29F00C946F1151110C94BA110C9408
:1024900075110E94971168F39923B1F3552391F3B5
:1024A000951B550BBB27AA2762177307840738F0C3
:1024B0009F5F5F4F220F331F441FAA1FA9F335D020
:1024C0000E2E3AF0E0E832D091505040E695001CD4
:1024D000CAF72BD0FE2F29D0660F771F881FBB1F8E
:1024E000261737074807AB07B0E809F0BB0B802D6C
:1024F000BF01FF2793585F4F3AF09E3F510578F098
:102500000C946F110C94BA115F3FE4F3983ED4F32E
:10251000869577956795B795F7959F5FC9F7880F6B
:10252000911D9695879597F90895E1E0660F771FBD
:10253000881FBB1F621773078407BA0720F0621B4E
:10254000730B840BBA0BEE1F88F7E095089529F4FE
:1025500016F00C946F110C94B9110C9475110E9423
:102560009F11A8F39638A0F707F80F92E8942BE391
:102570003AEA48EB5FE70E9418110F920F920F9210
:102580004DB75EB70F920E944A13E8E0F1E00E9457
:10259000E1124F915F91EF91FF91E595EE1FFF1FC3
:1025A00049F0FE57E0684427EE0F441FFA95E1F723
:1025B0004195550B0E9414130F9007FE0C940813BD
:1025C0000895DF93CF931F930F93FF92EF92DF92C3
:1025D0007B018C01689406C0DA2EEF010E94151170
:1025E000FE01E894A5912591359145915591A6F369
:1025F000EF010E94E011FE019701A801DA9469F74A
:10260000DF90EF90FF900F911F91CF91DF91089590
:102610009B01AC0160E070E080E89FE30C94351210
:102620000C946F110C947E130E949F11D8F3992380
:10263000C9F3940F511DA3F39150504094F059F0F9
:10264000882332F0660F771F881F91505040C1F7E2
:102650009E3F51052CF7880F911D9695879597F908
:1026600008955F3FACF0983E9CF0BB278695779528
:102670006795B79508F4B1609395C1F7BB0F58F70C
:1026800011F460FFE8CF6F5F7F4F8F4F9F4FE3CF15
:102690000C94BA11FA01DC01AA0FBB1F9B01AC011B
:1026A000BF5728F4222733274427507820C0B7513A
:1026B00090F4AB2F0024469537952795011CA395E0
:1026C000D2F3002071F0220F331F441FB395DAF3C9
:1026D0000ED00C94C81161307105A0E88A07B94684
:1026E00030F49B01AC0166277727882790783096D5
:1026F00021F0208331834283538308959F3F31F03B
:10270000915020F4879577956795B795880F911D1F
:102710009695879597F908950F931F93CF93DF931D
:102720008230910510F482E090E0E0913304F09162
:10273000340420E030E0A0E0B0E0309719F14081AF
:1027400051810281138148175907C8F084179507F2
:1027500069F4109731F012960C93129713961C930C
:1027600027C0009333041093340422C0211531058F
:1027700019F04217530718F49A01BD01EF01DF0168
:10278000F801DBCF21153105F9F0281B390B243076
:10279000310580F48A819B816115710521F0FB016F
:1027A0009383828304C09093340480933304FE01A6
:1027B000329644C0FE01E20FF31F819391932250A1
:1027C0003109398328833AC0209131043091320491
:1027D000232B41F420910A0230910B0230933204F2
:1027E000209331042091080230910902211531050E
:1027F00041F42DB73EB740910C0250910D02241BBD
:10280000350BE0913104F0913204E217F307A0F4A4
:102810002E1B3F0B2817390778F0AC014E5F5F4F36
:102820002417350748F04E0F5F1F50933204409332
:1028300031048193919302C0E0E0F0E0CF01DF9199
:10284000CF911F910F910895CF93DF93009709F4D3
:1028500081C0FC01329713821282A0913304B0919F
:102860003404109781F420813181820F931F2091CD
:102870003104309132042817390751F5F0933204AE
:10288000E093310467C0ED0120E030E0CE17DF07B0
:1028900040F44A815B819E0141155105F1F0EA0146
:1028A000F5CFD383C28340815181840F951FC81710
:1028B000D90759F488819981840F951F02969183D5
:1028C00080838A819B81938382832115310529F43A
:1028D000F0933404E09333043DC0E901FB83EA83C1
:1028E00049915991C40FD51FEC17FD0761F4808100
:1028F0009181840F951F0296E901998388838281D3
:1029000093819B838A83E0E0F0E012968D919C9105
:102910001397009719F0FD01DC01F7CF8D919C9181
:1029200011979D012E5F3F4F820F931F209131041D
:10293000309132042817390769F4309729F410923E
:1029400034041092330402C013821282B093320412
:10295000A0933104DF91CF9108956F927F928F926F
:102960009F92AF92BF92CF92DF92EF92FF920F931E
:102970001F93CF93DF93009789F4CB01DF91CF9121
:102980001F910F91FF90EF90DF90CF90BF90AF908D
:102990009F908F907F906F900C948C13FC01E60FAA
:1029A000F71F9C0122503109E217F30708F4A9C070
:1029B000EC01D9010D911C91119706171707B0F082
:1029C0000530110508F49BC0C801049786179707C6
:1029D00008F495C002501109061B170B01931193BF
:1029E0006D937C93CF010E94241489C05B01A01ACF
:1029F000B10A4C01800E911EA0913304B0913404B1
:102A0000612C712CE12CF12C109709F446C08D91AA
:102A10009C911197A815B905B1F56C0142E0C40E5F
:102A2000D11CCA14DB0478F14C018A189B0864019C
:102A300042E0C40ED11C1296BC9012971396AC9132
:102A4000B5E0CB16D10440F0B282A383918280829C
:102A5000D9016D937C9309C00E5F1F4F800F911FAA
:102A6000F90191838083EB2DFA2FE114F10431F009
:102A7000D7011396FC93EE93129741C0F093340460
:102A8000E09333043CC06816790608F43C017D01EC
:102A900012960D90BC91A02DB7CF809131049091EA
:102AA000320488169906E1F466167706C8F4809118
:102AB000080290910902009741F48DB79EB74091AA
:102AC0000C0250910D02841B950BE817F907C8F40E
:102AD000F0933204E0933104F901718360830FC0F5
:102AE000CB010E948C137C01009759F0A801BE0114
:102AF0000E949715CE010E942414C70104C0CE0184
:102B000002C080E090E0DF91CF911F910F91FF9084
:102B1000EF90DF90CF90BF90AF909F908F907F907D
:102B20006F90089581E090E0F8940C94A715FB0154
:102B3000DC0102C001900D9241505040D8F7089539
:102B4000FB01DC0101900D920020E1F7089511E0F6
:102B5000CFEDD1E000E006C0802FFE010E94C01141
:102B60002196011DC03ED10780E00807A9F7F8941F
:022B7000FFCF95
:102B7200F0D8F0D8F0D8F0D800003504800000007A
:102B82000000A80215023F02F50270024E02620224
:102B920000000000DB03AE030B048203A6039203D2
:102BA20083030D0A0064697374616E636567726FF3
:102BB2007570342D353531380067657374757265FB
:102BC20073656E736F7267726F7570342D636331E4
:102BD2003200646973636F70726573737572652D09
:082BE20035393838002C0000E1
:00000001FF
