:100000000C94E0010C9411020C9411020C94110256
:100010000C9411020C9411020C9411020C94110214
:100020000C9411020C9411020C9411020C94110204
:100030000C9411020C9411020C9411020C941102F4
:100040000C9411020C9411020C9411020C941102E4
:100050000C9411020C9411020C9411020C94B00433
:100060000C9411020C9499050C946F050C941102D8
:100070000C9411020C9411020C9411020C941102B4
:100080000C9411020C9411020C9411020C941102A4
:100090000C9411020C9411020C9411020C94CF05D3
:1000A0000C9411020C9411020C9411020C94110284
:1000B0000C9411020C9411020C9411020C94110274
:1000C0000C9411020C9411020C9411020C94110264
:1000D0000C9411020C9411020C9411020C94110254
:1000E0000C9411023F09420931093509390979098E
:1000F00046094A095009540958095E096209660906
:1001000079096C097009740907634236B79BD8A74F
:100110001A39685618AEBAAB558C1D3CB7CC57632C
:10012000BD6DEDFD753EF6177231BF000000803FDA
:100130000C94810F0C9482030C9415020C944609C4
:100140000C9431090C94A6030C9458090C94920356
:100150000C9442090C94660F0C94AE030C94130299
:100160000C9435090C943F020C9454090C947002C1
:100170000C945E090C946C090C9474090C94790924
:100180000C9462090C9462020C94F5020C948303A3
:100190000C944E020C9470090C943F090C940B04BF
:1001A0000C944A090C9466090C94A8020C94DB0385
:1001B0000C9439090C9414020C94500900407A10E4
:1001C000F35A00A0724E18090010A5D4E80000E808
:1001D0007648170000E40B54020000CA9A3B000066
:1001E00000E1F505000080969800000040420F00F5
:1001F0000000A08601000000102700000000E803B6
:10020000000000006400000000000A000000000080
:100210000100000000002C76D888DC674F0823DF3F
:10022000C1DFAE59E1B1B796E5E3E453C63AE65112
:10023000997696E8E6C28426EB898C9B62ED407C39
:100240006FFCEFBC9C9F40F2BAA56FA5F490055AD5
:100250002AF75C936B6CF9676DC11BFCE0E40D47FA
:10026000FEF520E6B500D0ED902E0300943577051D
:100270000080841E080000204E0A000000C80C33D5
:100280003333330F986E12831141EF8D2114893B64
:10029000E65516CFFEE6DB18D1844B381BF77C1DE4
:1002A000901DA4BBE424203284725E228100C9F137
:1002B00024ECA1E53D2700002100240027002A00AE
:1002C0002D003000330001010000040107010A0184
:1002D00000000A0B02090C0D0E08070304010000C0
:1002E000000000000000000000000000000000000E
:1002F00000000000000000000000000012111000CB
:1003000000000000000000000000000000000000ED
:10031000000000000000010210202008081020400A
:1003200010204080020102010804020101020408B9
:100330001020408080402010080402018004020147
:100340008040201008040201080402010102040890
:10035000102040800102040810204080000022008C
:10036000250028002B002E0031003400020100007F
:10037000050108010B010505050507050808080822
:10038000020202020A0A080804040404010101012D
:100390000101010103030303030303030407070728
:1003A0000C0C0C0C0C0C0C0C0202020206060606CD
:1003B000060606060B0B0B0B0B0B0B0B810F660FC8
:1003C00011241FBECFEFD1E2DEBFCDBF00E00CBFD6
:1003D00024E0ACE7B2E001C01D92AA33B207E1F716
:1003E00012E0A0E0B2E0EEE4FFE200E00BBF02C0EA
:1003F00007900D92AC37B107D9F711E0CFEDD1E0FE
:1004000000E006C021970109802FFE010E94AE1373
:10041000CE3DD10780E00807A9F70E94050B0C9498
:1004200095170C94000008950895CF92DF92EF92F3
:10043000FF920F931F93CF93DF936C017A018B018F
:10044000C0E0D0E0CE15DF0581F0D8016D918D01BF
:10045000D601ED91FC910190F081E02DC601199536
:10046000892B11F02196EECF7E01C701DF91CF914C
:100470001F910F91FF90EF90DF90CF900895FC01B6
:10048000538D448D252F30E0842F90E0821B930BF9
:10049000541710F0CF96089501970895FC01918D9F
:1004A000828D981761F0828DDF01A80FB11D5D96D6
:1004B0008C91928D9F5F9F73928F90E008958FEF44
:1004C0009FEF0895FC01918D828D981731F0828DF8
:1004D000E80FF11D858D90E008958FEF9FEF08954F
:1004E000FC01918D228D892F90E0805C9F4F821BB3
:1004F00091098F739927089585E693E00E94700211
:1005000021E0892B09F420E0822F0895FC01848DDD
:10051000DF01A80FB11DA35ABF4F2C91848D90E02D
:1005200001968F739927848FA689B7892C93A08908
:10053000B1898C91837080648C93938D848D981392
:1005400006C00288F389E02D80818F7D8083089525
:10055000EF92FF920F931F93CF93DF93EC0181E013
:10056000888F9B8D8C8D981305C0E889F9898081CF
:1005700085FD26C0F62E0B8D10E00F5F1F4F0F7309
:100580001127E02E8C8DE8120CC00FB607FCFACFB5
:10059000E889F989808185FFF5CFCE010E94860226
:1005A000F1CF8B8DFE01E80FF11DE35AFF4FF08272
:1005B0009FB7F8940B8FEA89FB89808180620AC01B
:1005C0009FB7F894EE89FF896083E889F989808173
:1005D0008370806480839FBF81E090E0DF91CF9142
:1005E0001F910F91FF90EF900895CF93DF93EC014F
:1005F000888D8823C9F0EA89FB89808185FD05C043
:10060000A889B9898C9186FD0FC00FB607FCF5CF7C
:10061000808185FFF2CFA889B9898C9185FFEDCFC4
:10062000CE010E948602E7CFDF91CF91089580E04E
:1006300090E0892B21F00E947C02811125C080E08E
:1006400090E0892B41F080E090E0892B21F00E941E
:10065000000081111CC080E090E0892B41F080E017
:1006600090E0892B21F00E940000811113C080E0EE
:1006700090E0892BA1F080E090E0892B81F00E942E
:10068000000081110AC008950E940000D8CF0E9486
:100690000000E1CF0E940000EACF0C940000089512
:1006A00085ED8093BC008091BC0084FDFCCF10924E
:1006B0004103089540919C02262F30E0240F311D04
:1006C00021323105DCF4209141032430C9F4FC01CE
:1006D00080E090E0861758F430919C022191DC0173
:1006E000A458BD4FA30FB11D2C930196F3CF809159
:1006F0009C02680F60939C0280E0089581E0089559
:1007000082E008950895E091E4028091E302E81701
:1007100030F4F0E0EB51FD4F808190E008958FEFD1
:100720009FEF08959091E4028091E302981750F4AE
:10073000E92FF0E0EB51FD4F208130E09F5F909377
:10074000E40202C02FEF3FEFC90108958091E30258
:1007500090E02091E402821B91090895CF92DF92EC
:10076000EF92FF920F931F93CF93DF937C01CB0106
:100770008A0120914203222389F0EB016B01C40E10
:10078000D51ECC15DD0569F06991D701ED91FC917D
:100790000190F081E02DC7011995F3CF642F0E94DD
:1007A0005A03C801DF91CF911F910F91FF90EF90F5
:1007B000DF90CF900895CF93DF931F92CDB7DEB730
:1007C0006983209142032223D1F0209164032032D7
:1007D00040F021E030E0FC013383228380E090E0B0
:1007E00015C080914303E82FF0E0EC5BFC4F99814A
:1007F00090838F5F809343038093640305C061E01F
:10080000CE0101960E945A0381E090E00F90DF91A3
:10081000CF910895089580E090E008950E94801798
:10082000FC01808191810C9412160F931F93CF933A
:10083000DF93EC0188819981009729F02A813B811F
:100840002617370788F48B016F5F7F4F0E949B1636
:10085000009761F0998388831B830A832C813D81F3
:10086000232B11F4FC01108281E001C080E0DF91B4
:10087000CF911F910F9108954F925F926F927F9247
:100880008F929F92AF92BF92CF92DF92EF92FF92A0
:100890006B017C012FEE39EC43E75FE30E94F0121D
:1008A0000E949D142B013C0124EB38EC4EE050ECEF
:1008B000C701B6010E94F0120E949D144B015C0119
:1008C0002CE23DE748E65CE3C301B2010E94F0126E
:1008D0006B017C0128EC3EE54FE65CEBC501B40101
:1008E0000E94F0129B01AC01C701B6010E94B71330
:1008F00023EC35EF4CE151E40E94F012FF90EF90B1
:10090000DF90CF90BF90AF909F908F907F906F902F
:100910005F904F9008953FB7F8948091DB029091DB
:10092000DC02A091DD02B091DE0226B5A89B05C0D5
:100930002F3F19F00196A11DB11D3FBFBA2FA92F5E
:10094000982F8827820F911DA11DB11DBC01CD01DB
:1009500042E0660F771F881F991F4A95D1F70895C7
:100960001F920F920FB60F9211242F933F938F93E4
:100970009F93AF93BF938091DF029091E002A0918B
:10098000E102B091E2023091DA0223E0230F2D3729
:1009900020F40196A11DB11D05C026E8230F029683
:1009A000A11DB11D2093DA028093DF029093E00233
:1009B000A093E102B093E2028091DB029091DC020D
:1009C000A091DD02B091DE020196A11DB11D8093C0
:1009D000DB029093DC02A093DD02B093DE02BF91B4
:1009E000AF919F918F913F912F910F900FBE0F90DC
:1009F0001F901895EF92FF920F931F93CF93DF9361
:100A00006115710511F480E01CC041155105C1F05C
:100A10007B01EC018C819D818A01080F191FB801AF
:100A2000CE010E941504882371F3288139818C81BD
:100A30009D81B701820F931F0E948E171D830C8327
:100A400081E0DF91CF911F910F91FF90EF9008957A
:100A5000FB0144815581608171810C94FA04EF920D
:100A6000FF920F931F93CF93DF93EC017B018A01D9
:100A7000BA010E9415042881398181110DC0211508
:100A8000310519F0C9010E941216198218821D82BF
:100A90001C821B821A8206C01D830C83B701C90108
:100AA0000E948E17CE01DF91CF911F910F91FF9081
:100AB000EF900895FC011182108213821282158238
:100AC00014826115710551F0FB0101900020E9F7D6
:100AD0003197AF01461B570B0C942F0508951F92B9
:100AE0000F920FB60F9211240BB60F922F933F93D4
:100AF0004F935F936F937F938F939F93AF93BF9326
:100B0000EF93FF9385E693E00E948602FF91EF91B9
:100B1000BF91AF919F918F917F916F915F914F9115
:100B20003F912F910F900BBE0F900FBE0F901F9013
:100B300018951F920F920FB60F9211240BB60F92B9
:100B40002F938F939F93EF93FF93E0917503F09111
:100B500076038081E0917B03F0917C0382FD12C0DB
:100B6000908180917E038F5F8F7320917F03821726
:100B700051F0E0917E03F0E0EB59FC4F958F8093AC
:100B80007E0301C08081FF91EF919F918F912F9102
:100B90000F900BBE0F900FBE0F901F9018951F92D5
:100BA0000F920FB60F9211240BB60F922F933F9313
:100BB0004F935F936F937F938F939F93AF93BF9365
:100BC000EF93FF938091B900887F803609F49CC031
:100BD00068F5883209F45BC090F4803109F454C0A0
:100BE00038F4882309F4F6C0883009F44DC0F6C003
:100BF000883109F44CC0803209F45DC0EFC0803404
:100C000009F468C048F4803309F455C0883309F00A
:100C1000E5C080933F03D8C0803509F44FC08835C4
:100C200009F45DC0883409F0D9C0D6C0883909F408
:100C3000C7C0A8F4883709F467C038F4883609F4C7
:100C400063C0803709F460C0C9C0883809F4B8C0EF
:100C5000803909F45FC0803809F0C0C05BC0803BB8
:100C600009F486C038F4803A09F466C0883A09F479
:100C70007FC0B4C0803C09F4A7C0883C09F4A4C07C
:100C8000883B09F48AC0AAC080911C0310C09091CF
:100C90003E0380913D03981770F5E0913E0381E09B
:100CA0008E0F80933E03F0E0E35EFC4F80818093E3
:100CB000BB0085EC86C080933F038EC0E0913E036D
:100CC00081E08E0F80933E038091BB00F0E0E35EF5
:100CD000FC4F808390913E0380913D036EC0E09174
:100CE0003E0381E08E0F80933E038091BB00F0E0D5
:100CF000E35EFC4F80838091400381116DC081E0F1
:100D000080931B0384EA61C083E0809341031092C7
:100D1000BE02CFCF8091BE02803208F051C0E09178
:100D2000BE0281E08E0F8093BE028091BB00F0E096
:100D3000E256FD4F8083BDCF85EC8093BC001092BE
:100D400041038091BE02803230F4E091BE02F0E0B7
:100D5000E256FD4F10826091BE0270E0E091BF024A
:100D6000F091C0028EE992E019951092BE0236C051
:100D700084E08093410310929D0210929C02E091C6
:100D8000C102F091C202199580919C02811105C0A7
:100D900081E080939C0210927C02E0919D0281E0B0
:100DA0008E0F80939D02F0E0E458FD4F8081809388
:100DB000BB0090919D0280919C02981708F479CF16
:100DC00085E88093BC000AC085EC8093BC0010923B
:100DD000410304C010923F030E945003FF91EF9122
:100DE000BF91AF919F918F917F916F915F914F9143
:100DF0003F912F910F900BBE0F900FBE0F901F9041
:100E00001895282F30916403313208F04AC0809140
:100E100041038111FCCF9091350442E0409341039E
:100E2000209340032FEF20933F0310923E03309313
:100E30003D03E4E4F3E0ADE1B3E020E0321721F05C
:100E400041914D932F5FFACF10921C0320911C0308
:100E5000990F922B90931C0390911B03913061F496
:100E600010921B0390911C039093BB009091BC00C7
:100E700093FDF8CF95EC01C095EE9093BC00909156
:100E800041039230E1F390913F039F3F79F08091CD
:100E90003F03803241F080913F03803331F084E0A2
:100EA00005C081E003C082E001C083E010924303EB
:100EB00010926403109242030895E5E6F3E0A089DE
:100EC000B18982E08C93A485B5851C92A685B785EF
:100ED0008FEC8C93108EA489B58986E08C93A289BF
:100EE000B3898C9180618C93A289B3898C9188603D
:100EF0008C93A289B3898C9180688C930288F38942
:100F0000E02D80818F7D80830895CF93DF93FC0156
:100F1000448155816081718185E693E00E941502CC
:100F2000EC0142E050E069E772E085E693E00E9460
:100F300015028C0F9D1FDF91CF91089561157105EA
:100F400051F0FB0101900020E9F73197AF01461BFA
:100F5000570B0C94FA0480E008952F923F924F9221
:100F60005F926F927F928F929F92AF92BF92CF9239
:100F7000DF92EF92FF920F931F93CF93DF93582E40
:100F80005B01642E712CC0E0D1E0842E912C4424AE
:100F90004A9485EE382E95EC292EC61508F09DC092
:100FA00071109BC080910503D09342038093350458
:100FB00010924303109264038091060390910703FB
:100FC000DC01ED91FC910190F081E02D6C2F650D1D
:100FD000199581E00E940107809141038111FCCFA6
:100FE00084010C1B11090132110514F000E210E01C
:100FF00090910503802F013208F080E2D0934103E5
:10100000D093400340923F0310923E032FEF280FEE
:1010100020933D03D0931C0320911C03990F922B26
:1010200090931C0390911B03913069F410921B0361
:1010300090911C039093BB009091BC0093FDF8CF5E
:101040002092BC0002C03092BC00909141039130CC
:10105000E1F390913E03981710F480913E03EDE187
:10106000F3E0A5EEB2E090E0981721F021912D93E6
:101070009F5FFACF1092E4029093E302E12CF12CEF
:101080001127DC2EDE0CE016F10614F0CD2D85CFF5
:101090008091060390910703DC01ED91FC9100849F
:1010A000F185E02D1995892B19F477247394EECFEF
:1010B000F501ED0DF11D6F0180910603909107037D
:1010C000DC01ED91FC910284F385E02D1995F60188
:1010D0008083FFEFEF1AFF0AD4CF8C2FDF91CF91DF
:1010E0001F910F91FF90EF90DF90CF90BF90AF9046
:1010F0009F908F907F906F905F904F903F902F9038
:101100000895EF92FF920F931F93CF93DF93CDB784
:10111000DEB7A1970FB6F894DEBF0FBECDBF7C013E
:10112000CB01BA01F701118210821382128215825B
:1011300014828E010F5F1F4F22E044E00E94441092
:10114000009769F0FC0101900020E9F73197AF01A9
:10115000481B590BBC01C7010E942F050EC0F701A7
:1011600080819181009711F00E941216F70111827F
:1011700010821582148213821282A1960FB6F894FF
:10118000DEBF0FBECDBFDF91CF911F910F91FF90BA
:10119000EF900895EF92FF921F93CF93DF937B011F
:1011A000142FC5E0D3E0988121E02093420390936F
:1011B00035041092430310926403A981BA81ED9122
:1011C000FC9111970190F081E02D682FCD011995C8
:1011D00089819A81412F50E0DC01ED91FC910280E0
:1011E000F381E02DB701199581E0DF91CF911F9137
:1011F000FF90EF900C940107CF93DF931F92CDB730
:10120000DEB7698341E0BE016F5F7F4F0E94CA086D
:101210000F90DF91CF91089580910D038F770895FE
:10122000362F90E0FC01E053FD4F4491FC01EA5E53
:10123000FC4F2491FC01EA58FC4F9491992309F446
:101240006CC0442309F455C050E0FA013197E231F3
:10125000F10508F04EC08827EE58FF4F8F4F0C94D1
:10126000AE13809180008F7707C0809180008F7DC2
:1012700003C080918000877F809380003AC084B54E
:101280008F7702C084B58F7D84BD33C08091B0005C
:101290008F7703C08091B0008F7D8093B00029C00C
:1012A000809190008F7707C0809190008F7D03C060
:1012B00080919000877F809390001BC08091A00058
:1012C0008F7707C08091A0008F7D03C08091A00020
:1012D000877F8093A0000DC0809120018F7707C089
:1012E000809120018F7D03C080912001877F8093B2
:1012F0002001E92FF0E0EE0FFF1FE45AFC4FA5910B
:10130000B4919FB7F894311104C08C912095282393
:1013100002C0EC912E2B2C939FBF0895CF93DF93A7
:1013200090E0FC01EA5EFC4F2491FC01EA58FC4F7E
:101330008491882361F190E0880F991FFC01EA54A1
:10134000FD4FC591D491FC01E45AFC4FA591B49195
:10135000611109C09FB7F894888120958223888302
:10136000EC912E230BC0623061F49FB7F894888112
:10137000322F309583238883EC912E2B2C939FBFA3
:1013800006C08FB7F894E8812E2B28838FBFDF919A
:10139000CF910895863308F0865390917B00282FD3
:1013A0002870977F922B90937B0087708064809346
:1013B0007C0080917A00806480937A0080917A002A
:1013C00086FDFCCF809178002091790090E0922BEF
:1013D00008958F929F92AF92BF92CF92DF92EF9239
:1013E000FF926B017C010E948B044B015C01C114D4
:1013F000D104E104F104F1F00E948B04DC01CB0183
:1014000088199909AA09BB09883E9340A105B1052D
:1014100070F321E0C21AD108E108F10888EE880EC5
:1014200083E0981EA11CB11CC114D104E104F10495
:1014300019F7DDCFFF90EF90DF90CF90BF90AF9086
:101440009F908F900895CF92DF92EF92FF92CF936B
:10145000DF93CDB7DEB7C150D1400FB6F894DEBFF1
:101460000FBECDBFC12CD12C760141E0BE016F5F14
:101470007E4F8FEA0E94AD07CF5FDE4F2881C150BB
:10148000D140822F90E09595879590911A0380FB2B
:1014900091F920FB90F990931A03892F817090FFA6
:1014A000A6C06EE170E080E090E00E94E90941E0B2
:1014B000BE016F5F7E4F8EEA0E94AD07CF5FDE4FA9
:1014C0004881C150D140BE016F5F7F4F8CEF0E94B9
:1014D000AD07898190E02A81821B91099C0197FFC9
:1014E00004C022273327281B390B2E30310514F472
:1014F00080E090E02B8130E04C81241B3109A90170
:1015000037FF04C044275527421B530B4E3051056B
:1015100014F420E030E00097B9F097FF0AC0809102
:101520000A0381115CC0809109038F5F80930903D6
:1015300009C080910903811154C080910A038F5F13
:1015400080930A0380E04EC02115310519F180E037
:1015500037FF0AC090910C0391113DC090910B038D
:101560009F5F90930B0309C090910B03911135C0BD
:1015700090910C039F5F90930C039FB7F894C090D9
:10158000DF02D090E002E090E102F090E2029FBF23
:10159000811116C02FB7F8948091DF029091E0027C
:1015A000A091E102B091E2022FBF8C199D09AE0912
:1015B000BF098D329140A105B10508F456CF80E0F6
:1015C000109208031092090310920A0310920B0361
:1015D00010920C030CC083E0D0CF84E0CECF81E02A
:1015E00001C082E02115310509F0B2CFC6CFCF5F2F
:1015F000DE4F0FB6F894DEBF0FBECDBFDF91CF91A7
:10160000FF90EF90DF90CF900895CF93DF93CDB709
:10161000DEB765970FB6F894DEBF0FBECDBF7894E6
:1016200084B5826084BD84B5816084BD85B58260E7
:1016300085BD85B5816085BD80916E008160809398
:101640006E00109281008091810082608093810001
:101650008091810081608093810080918000816011
:10166000809380008091B10084608093B10080916C
:10167000B00081608093B00080919100826080937F
:101680009100809191008160809391008091900001
:101690008160809390008091A10082608093A1007E
:1016A0008091A10081608093A1008091A000816061
:1016B0008093A0008091210182608093210180911C
:1016C00021018160809321018091200181608093BC
:1016D000200180917A00846080937A0080917A0062
:1016E000826080937A0080917A00816080937A0092
:1016F00080917A00806880937A001092C1000E94E5
:101700005D0782E094E090930703809306031092B4
:10171000E4021092E30210924303109264031092C9
:10172000410381E08093400310921B0361E084E158
:101730000E94100961E085E10E9410098091B900C2
:101740008E7F8093B9008091B9008D7F8093B9001E
:1017500088E48093B80085E48093BC0083E192E044
:101760009093C2028093C10284E192E09093C00200
:101770008093BF0289E38093050341E0BE016F5F60
:101780007F4F82E90E94AD0789818B3A09F0CEC074
:101790006CEF81E80E94FC08609111036C7F61602E
:1017A00060931103862F82958F70982F937020E499
:1017B000929FC00111246C70682B61608FE80E94B9
:1017C000FC08609119036E7F60931903669563703E
:1017D00070E0660F771F8BEA0E94FC0880910D0372
:1017E0008F7B80930D030E940C09682F80E80E9474
:1017F000FC08109208031092090310920A03109239
:101800000B0310920C0380910D038B7F80930D03CB
:101810000E940C09682F80E80E94FC0880910D034B
:101820008D7F80930D030E940C09682F80E80E9431
:10183000FC0880910D038F7E80930D030E940C099C
:10184000682F80E80E94FC0880910D038F7D8093B3
:101850000D030E940C09682F80E80E94FC0840E0FC
:1018600060E070E087EE0E94CA0880910D038E7FD1
:1018700080930D030E940C09682F80E80E94FC08E9
:101880006AE070E080E090E00E94E90980910D0339
:10189000816080930D030E940C09682F80E80E94EC
:1018A000FC086AE070E080E090E00E94E909809125
:1018B00018038C7F8093180360E08AEA0E94FC087A
:1018C000609115036F736064609315036F736064B8
:1018D00082EA0E94FC08609116036F79606460934D
:1018E00016036F71606483EA0E94FC0862E380EA79
:1018F0000E94FC08109208031092090310920A0338
:1019000010920B0310920C0389EC8093170369EC7F
:1019100086EA0E94FC0880910D03846080930D0389
:101920000E940C09682F80E80E94FC0880910D033A
:10193000806480930D030E940C09682F80E80E9448
:10194000FC08109208031092090310920A031092E7
:101950000B0310920C03809112038C7F809312036F
:1019600083FBEE24E0F8F12CB7017695762F6627FD
:101970007795679582FB002700F910E026E0000FBD
:10198000111F2A95E1F7062B602F616080E90E9404
:10199000FC0880911103682F6F7C609311036C70B9
:1019A0008370682B8FE80E94FC0860E087E30E9448
:1019B0008E0960E088E30E948E0960E089E30E945E
:1019C0008E0960E08AE30E948E0960E086E30E944F
:1019D0008E090E945D078091140487FD08C061E0B4
:1019E0000E948E0960E0809114040E94100981E039
:1019F00080930F048091160490911704892B09F4A9
:101A0000A2C00E948B0400911C0410911D0420911F
:101A10001E0430911F04DC01CB01801B910BA20B33
:101A2000B30B8C329140A105B10558F3F894809125
:101A30001204909113049E878D87E0911604F09113
:101A40001704DF01119680818D8B90910E04E09137
:101A50002004F091210480912204992309F42EC0DE
:101A60009081982B9C8B9081809589238B8B8B897F
:101A7000888B88E08F875C896B894D893F852889B1
:101A80008D859E85508347FD252F3A952083262FEF
:101A900039F0441F00C000006083000000C0F2CF96
:101AA00038E04D9160830000019761F7F0932104C5
:101AB000E09320044D8B3F87288B38C09081982B72
:101AC0009C8B9081809589238B8B8B898A8B88E076
:101AD000898B5C896B894D8939892A898D859E8599
:101AE000508347FD252F00C000C0208300C000C0E8
:101AF00000C000C000C060830000262F3A9541F06E
:101B0000441F000000C000C000C000C000C0E8CFFB
:101B100038E04D9100C0608300C0019709F7F09351
:101B20002104E09320044D8B398B2A8B9E878D876F
:101B300078940E948B0460931C0470931D0480931E
:101B40001E0490931F0464E670E080E090E00E9421
:101B5000E90915E00E94230A8093C3026BE772E053
:101B6000CE0101960E945A058091C3028230B1F4E1
:101B700069E274E0CE0101960E94280562E372E0FA
:101B8000CE0101960E949E07CE0101960E94850714
:101B900062E370E080E090E00E94E9098091C30276
:101BA0008130B1F469E274E0CE0101960E9428050B
:101BB00065E372E0CE0101960E949E07CE01019678
:101BC0000E94850762E370E080E090E00E94E909EE
:101BD0008091C3028330B1F469E274E0CE010196D2
:101BE0000E94280568E372E0CE0101960E949E07DC
:101BF000CE0101960E94850762E370E080E090E0EC
:101C00000E94E9098091C3028430B1F469E274E072
:101C1000CE0101960E9428056BE372E0CE01019689
:101C20000E949E07CE0101960E94850762E370E044
:101C300080E090E00E94E909CE0101960E94100424
:101C400087E30E94CA097C018091060290910702F5
:101C5000E816F90609F431C11E9DB0011F9D700DF3
:101C60001124072E000C880B990B0E94B51220E05E
:101C700030EC4FE754E40E9423140E943C0460932C
:101C8000D6027093D7028093D8029093D902F09233
:101C90000702E0920602E090D402F090D502F092A2
:101CA0000502E092040288E30E94CA099093D502DB
:101CB0008093D402E816F90609F4FFC0189FB0011A
:101CC000199F700D1124072E000C880B990B0E9490
:101CD000B51220E030EC4FE754E40E9423140E9438
:101CE0003C046093D0027093D1028093D20290930F
:101CF000D302E090CE02F090CF02F0920302E09285
:101D0000020289E30E94CA099093CF028093CE0217
:101D1000E816F90609F4D1C0189FB001199F700D9B
:101D20001124072E000C880B990B0E94B51220E09D
:101D300030EC4FE754E40E9423140E943C0460936B
:101D4000CA027093CB028093CC029093CD02E090B4
:101D5000C802F090C902F0920102E09200028AE308
:101D60000E94CA099093C9028093C802E816F90636
:101D700009F4A3C0189FB001199F700D1124072EFC
:101D8000000C880B990B0E94B51220E030EC4FE755
:101D900054E40E9423140E943C046093C402709394
:101DA000C5028093C6029093C7026BE772E0CE0132
:101DB00007960E945A0563E274E0CE0107960E94DE
:101DC00028056EE372E0CE0107960E949E074091BF
:101DD000D6025091D7026091D8027091D902CE01FB
:101DE00001960E948108BE016F5F7F4FCE0107966A
:101DF0000E942805CE0101960E9410046EE372E055
:101E0000CE0107960E949E074091D0025091D102C8
:101E10006091D2027091D302CE0101960E94810896
:101E2000BE016F5F7F4FCE0107960E942805CE014D
:101E300001960E9410046EE372E0CE0107960E94A4
:101E40009E074091CA025091CB026091CC027091E2
:101E5000CD02CE0101960E948108BE016F5F7F4FC7
:101E6000CE0107960E942805CE0101960E9410041B
:101E70006EE372E0CE0107960E949E074091C40275
:101E80005091C5026091C6027091C702CE010196C1
:101E90000E948108BE016F5F7F4FCE0107960E94AE
:101EA0002805CE0101960E941004CE0107960E94DB
:101EB0008507CE0107960E94100464E670E080E07A
:101EC00090E00E94E9090E94170344CE8091160415
:101ED00090911704009711F00E941216809114043B
:101EE00087FD03C060E00E948E0983E294E00E94B7
:101EF000100489E294E00E9410048FE294E00C94B4
:101F00001004109268031092670388EE93E0A0E03B
:101F1000B0E08093690390936A03A0936B03B0933E
:101F20006C0322E132E0309366032093650325ECD5
:101F300030E0309372032093710324EC30E030934F
:101F400074032093730320EC30E0309376032093E6
:101F5000750321EC30E0309378032093770322EC73
:101F600030E030937A032093790326EC30E030930D
:101F70007C0320937B0310927E0310927F031092C8
:101F80008003109281031092050410920404809340
:101F9000060490930704A0930804B093090484E214
:101FA00092E0909303048093020460E472E08FE275
:101FB00094E00E945A0564E572E089E294E00E9490
:101FC0005A0566E672E083E294E00E945A05109298
:101FD0000F041092150410921C0410921D0410920C
:101FE0001E0410921F0481E080931B048093180448
:101FF0001092190492E090931A0480930E0480EFDB
:1020000090E090931304809312040E947A159093A9
:10201000170480931604009761F020EFFC011192E1
:102020002A95E9F780E590E09093110480931004DD
:1020300008C010921304109212041092110410920E
:10204000100486E08093140480910F04882341F0EB
:1020500061E086E00E948E0960E086E00E9410093F
:10206000ECE7F3E0E491F0E0EE0FFF1FE45AFC4FE1
:10207000859194919093210480932004ECE1F3E006
:10208000E491E09322040895EF920F931F93CF936E
:10209000DF93E80147FD02C034E001C034E1042EC3
:1020A000000C550B57FF03C0519541955109E32E84
:1020B000022F242FAE010E946410CE01DF91CF9138
:1020C0001F910F91EF9008958F929F92AF92BF92C0
:1020D000CF92DF92EF92FF920F931F93CF93DF93F4
:1020E000CDB7DEB729970FB6F894DEBF0FBECDBFD0
:1020F0006A01122FB02E2BE3201720F0FF24F39457
:10210000F00E02C02CE3F22E0F2D27E0AE014F5F40
:102110005F4F0E94DB11BC014981842F897081309F
:1021200031F0E1FC06C0E0FE06C090E205C09DE291
:1021300003C09BE201C090E05E2D507143FF3CC0A4
:10214000911102C083E001C084E0811718F4212FAF
:10215000281B01C020E051110BC0F601822F30E294
:10216000882319F031938150FBCFC20ED11C20E09F
:10217000992329F0D6019C93F60131966F01C6018F
:102180000396E2FE0AC03EE4D6013C9341E4119678
:102190004C93119712963C9306C03EE6F6013083AD
:1021A00041E641833283FC01322F40E2332309F4BC
:1021B00042C041933150FACF42FF44C0911102C056
:1021C00083E001C084E0811718F4212F281B01C08F
:1021D00020E051110BC0F601822F30E2882319F064
:1021E00031938150FBCFC20ED11C20E0992329F0FE
:1021F000D6019C93F60131966F01C6010396E2FE6B
:102200000BC039E4D6013C933EE411963C93119700
:1022100036E412963C9307C039E6F60130833EE679
:10222000318336E63283FC01322F40E2332319F04A
:1022300041933150FBCFFC01E20FF11D10828EEF74
:102240009FEFA6C021E030E0911102C020E030E015
:10225000161617061CF4FB01319602C0E1E0F0E00F
:102260002E0F3F1FBB2021F0EB2DF0E0319602C076
:10227000E0E0F0E02E0F3F1FE12FF0E02E173F07C8
:102280001CF4121B212F01C020E08E2D887159F4FF
:10229000F601822F30E2882319F031938150FBCF71
:1022A000C20ED11C20E0992329F0D6019C93F6019F
:1022B00031966F0151110BC0F601822F90E38823F4
:1022C00019F091938150FBCFC20ED11C20E00F2D4D
:1022D000060F9A81342F307144FF03C0913309F403
:1022E0000150101624F4093018F008E001C001E094
:1022F000AB0177FF02C040E050E0FB01E41BF50BAF
:10230000A1E0B0E0AC0FBD1FEA0FFB1F8EE2A82ECC
:102310004B01801A91080B2D10E0119501951109C0
:102320004F3FBFEF5B0721F4D601AC9211966D01D0
:10233000641775072CF08416950614F4818101C08A
:1023400080E3415051093196D60111967D01401725
:10235000510724F0D6018C936701E2CF641775070B
:1023600039F4963320F4953319F4311101C081E327
:10237000F6018083F701822F90E2882319F0919370
:102380008150FBCFF701E20FF11D108280E090E059
:1023900029960FB6F894DEBF0FBECDBFDF91CF9167
:1023A0001F910F91FF90EF90DF90CF90BF90AF9073
:1023B0009F908F900895283008F027E03327DA01A6
:1023C000990F311D87FD916000966105710539F403
:1023D00032602E5F3D9330E32A95E1F708959F3FE9
:1023E00030F080387105610509F03C5F3C5F3D933A
:1023F000913008F08068911DDF93CF931F930F9366
:10240000FF92EF92192F987F9695E92F96959695C2
:10241000E90FFF27EA5EFD4F99273327EE24FF24BB
:10242000A701E70105900894079428F4360FE71EEA
:10243000F81E491F511D660F771F881F991F0694AC
:10244000A1F70590079428F4E70EF81E491F561FC0
:10245000C11D770F881F991F661F0694A1F705906D
:10246000079428F4F80E491F561FC71FD11D880F67
:10247000991F661F771F0694A1F70590079420F413
:10248000490F561FC71FD81F990F661F771F881F38
:102490000694A9F784911095177041F0D695C795C9
:1024A00057954795F794E7941A95C1F7ECEBF1E04F
:1024B00068941590159135916591959105907FE2FD
:1024C0007395E118F10A430B560BC90BD009C0F7FD
:1024D000E10CF11E431F561FC91FD01D7EF470333F
:1024E00011F48A95E6CFE894015030F0080F0AF411
:1024F0000027021708F4202F2395022F7A3328F0A3
:1025000079E37D932A95E9F710C07D932A9589F6A2
:10251000069497956795379517951794E118F10AE2
:10252000430B560BC90BD00998F023957E917395F8
:102530007A3308F070E37C932013B8F77E917061D2
:102540007D9330F0839571E37D9370E32A95E1F7F5
:102550001124EF90FF900F911F91CF91DF91992758
:1025600087FD90950895E89409C097FB3EF49095F7
:102570008095709561957F4F8F4F9F4F9923A9F05C
:10258000F92F96E9BB279395F695879577956795EB
:10259000B795F111F8CFFAF4BB0F11F460FF1BC02F
:1025A0006F5F7F4F8F4F9F4F16C0882311F096E9C2
:1025B00011C0772321F09EE8872F762F05C0662370
:1025C00071F096E8862F70E060E02AF09A95660F29
:1025D000771F881FDAF7880F9695879597F90895E2
:1025E0000E9403130C9474130E94661338F00E9427
:1025F0006D1320F0952311F00C945D130C9463136C
:1026000011240C94A8130E94851370F3959FC1F3B5
:10261000950F50E0551F629FF001729FBB27F00D90
:10262000B11D639FAA27F00DB11DAA1F649F6627E5
:10263000B00DA11D661F829F2227B00DA11D621F34
:10264000739FB00DA11D621F839FA00D611D221FEE
:10265000749F3327A00D611D231F849F600D211DD2
:10266000822F762F6A2F11249F5750409AF0F1F055
:1026700088234AF0EE0FFF1FBB1F661F771F881FBE
:1026800091505040A9F79E3F510580F00C945D1386
:102690000C94A8135F3FE4F3983ED4F386957795A6
:1026A0006795B795F795E7959F5FC1F7FE2B880F64
:1026B000911D9695879597F9089597F99F6780E8FA
:1026C00070E060E008959FEF80EC089500240A9484
:1026D0001616170618060906089500240A941216FD
:1026E0001306140605060895092E0394000C11F430
:1026F000882352F0BB0F40F4BF2B11F460FF04C0DD
:102700006F5F7F4F8F4F9F4F089557FD9058440F35
:10271000551F59F05F3F71F04795880F97FB991F40
:1027200061F09F3F79F087950895121613061406FD
:10273000551FF2CF4695F1DF08C01616170618068A
:10274000991FF1CF86957105610508940895E89465
:10275000BB2766277727CB0197F90895EE0FFF1F58
:10276000881F8BBF0790F691E02D19945058BB2716
:10277000AA270E94CE130C9474130E94661338F09B
:102780000E946D1320F039F49F3F19F426F40C9445
:1027900063130EF4E095E7FB0C945D13E92F0E94A0
:1027A000851358F3BA17620773078407950720F05B
:1027B00079F4A6F50C94A7130EF4E0950B2EBA2F1E
:1027C000A02D0B01B90190010C01CA01A001112437
:1027D000FF27591B99F0593F50F4503E68F11A16E3
:1027E000F040A22F232F342F4427585FF3CF469574
:1027F00037952795A795F0405395C9F77EF41F1696
:10280000BA0B620B730B840BBAF09150A1F0FF0F5F
:10281000BB1F661F771F881FC2F70EC0BA0F621F4B
:10282000731F841F48F4879577956795B795F7953B
:102830009E3F08F0B0CF9395880F08F09927EE0FD0
:102840009795879508950E9437140C9474130E94ED
:102850006D1358F00E94661340F029F45F3F29F091
:102860000C945D1351110C94A8130C9463130E94E3
:10287000851368F39923B1F3552391F3951B550BF9
:10288000BB27AA2762177307840738F09F5F5F4F43
:10289000220F331F441FAA1FA9F335D00E2E3AF082
:1028A000E0E832D091505040E695001CCAF72BD09A
:1028B000FE2F29D0660F771F881FBB1F26173707EB
:1028C0004807AB07B0E809F0BB0B802DBF01FF271D
:1028D00093585F4F3AF09E3F510578F00C945D138A
:1028E0000C94A8135F3FE4F3983ED4F38695779554
:1028F0006795B795F7959F5FC9F7880F911D9695D6
:10290000879597F90895E1E0660F771F881FBB1F31
:10291000621773078407BA0720F0621B730B840BDE
:10292000BA0BEE1F88F7E095089529F416F00C9481
:102930005D130C94A7130C9463130E948D13A8F3DA
:102940009638A0F707F80F92E8942BE33AEA48EBA1
:102950005FE70E9406130F920F920F924DB75EB77A
:102960000F920E943815E8E0F1E00E94CF144F91D9
:102970005F91EF91FF91E595EE1FFF1F49F0FE5724
:10298000E0684427EE0F441FFA95E1F74195550B97
:102990000E9402150F9007FE0C94F6140895DF9321
:1029A000CF931F930F93FF92EF92DF927B018C01E5
:1029B000689406C0DA2EEF010E940313FE01E8942A
:1029C000A5912591359145915591A6F3EF010E946E
:1029D000CE13FE019701A801DA9469F7DF90EF901A
:1029E000FF900F911F91CF91DF9108959B01AC0152
:1029F00060E070E080E89FE30C9423140C945D1376
:102A00000C946C150E948D13D8F39923C9F3940F7D
:102A1000511DA3F39150504094F059F0882332F0A7
:102A2000660F771F881F91505040C1F79E3F510598
:102A30002CF7880F911D9695879597F908955F3F1C
:102A4000ACF0983E9CF0BB27869577956795B79537
:102A500008F4B1609395C1F7BB0F58F711F460FF0C
:102A6000E8CF6F5F7F4F8F4F9F4FE3CF0C94A8133A
:102A7000FA01DC01AA0FBB1F9B01AC01BF5728F470
:102A8000222733274427507820C0B75190F4AB2F2A
:102A90000024469537952795011CA395D2F3002075
:102AA00071F0220F331F441FB395DAF30ED00C944C
:102AB000B61361307105A0E88A07B94630F49B016E
:102AC000AC016627772788279078309621F02083FD
:102AD00031834283538308959F3F31F0915020F416
:102AE000879577956795B795880F911D96958795EA
:102AF00097F908950F931F93CF93DF938230910539
:102B000010F482E090E0E0913804F091390420E084
:102B100030E0A0E0B0E0309719F1408151810281AE
:102B2000138148175907C8F08417950769F410975F
:102B300031F012960C93129713961C9327C00093B2
:102B400038041093390422C02115310519F04217B9
:102B5000530718F49A01BD01EF01DF01F801DBCF43
:102B600021153105F9F0281B390B2430310580F48B
:102B70008A819B816115710521F0FB01938382831A
:102B800004C09093390480933804FE01329644C007
:102B9000FE01E20FF31F8193919322503109398393
:102BA00028833AC02091360430913704232B41F416
:102BB00020910A0230910B0230933704209336049F
:102BC00020910802309109022115310541F42DB7F9
:102BD0003EB740910C0250910D02241B350BE09141
:102BE0003604F0913704E217F307A0F42E1B3F0BD5
:102BF0002817390778F0AC014E5F5F4F241735076F
:102C000048F04E0F5F1F5093370440933604819372
:102C1000919302C0E0E0F0E0CF01DF91CF911F91EE
:102C20000F910895CF93DF93009709F481C0FC01C1
:102C3000329713821282A0913804B0913904109710
:102C400081F420813181820F931F209136043091CD
:102C500037042817390751F5F0933704E093360409
:102C600067C0ED0120E030E0CE17DF0740F44A8175
:102C70005B819E0141155105F1F0EA01F5CFD38347
:102C8000C28340815181840F951FC817D90759F419
:102C900088819981840F951F0296918380838A8110
:102CA0009B81938382832115310529F4F0933904A4
:102CB000E09338043DC0E901FB83EA8349915991CF
:102CC000C40FD51FEC17FD0761F480819181840F3B
:102CD000951F0296E90199838883828193819B8362
:102CE0008A83E0E0F0E012968D919C911397009713
:102CF00019F0FD01DC01F7CF8D919C9111979D0199
:102D00002E5F3F4F820F931F20913604309137047E
:102D10002817390769F4309729F410923904109272
:102D2000380402C013821282B0933704A093360491
:102D3000DF91CF9108956F927F928F929F92AF9281
:102D4000BF92CF92DF92EF92FF920F931F93CF9398
:102D5000DF93009789F4CB01DF91CF911F910F9101
:102D6000FF90EF90DF90CF90BF90AF909F908F90AB
:102D70007F906F900C947A15FC01E60FF71F9C0171
:102D800022503109E217F30708F4A9C0EC01D90178
:102D90000D911C91119706171707B0F0053011051A
:102DA00008F49BC0C80104978617970708F495C0DC
:102DB00002501109061B170B019311936D937C931D
:102DC000CF010E94121689C05B01A01AB10A4C0102
:102DD000800E911EA0913804B0913904612C712CA1
:102DE000E12CF12C109709F446C08D919C9111971C
:102DF000A815B905B1F56C0142E0C40ED11CCA1486
:102E0000DB0478F14C018A189B08640142E0C40E8F
:102E1000D11C1296BC9012971396AC91B5E0CB16CC
:102E2000D10440F0B282A38391828082D9016D9354
:102E30007C9309C00E5F1F4F800F911FF901918392
:102E40008083EB2DFA2FE114F10431F0D7011396B2
:102E5000FC93EE93129741C0F0933904E093380449
:102E60003CC06816790608F43C017D0112960D906D
:102E7000BC91A02DB7CF809136049091370488166D
:102E80009906E1F466167706C8F4809108029091DD
:102E90000902009741F48DB79EB740910C02509102
:102EA0000D02841B950BE817F907C8F4F09337045B
:102EB000E0933604F901718360830FC0CB010E9457
:102EC0007A157C01009759F0A801BE010E94851770
:102ED000CE010E941216C70104C0CE0102C080E0DC
:102EE00090E0DF91CF911F910F91FF90EF90DF90D5
:102EF000CF90BF90AF909F908F907F906F900895EC
:102F000081E090E0F8940C949517FB01DC0102C07D
:102F100001900D9241505040D8F70895FB01DC011B
:102F200001900D920020E1F7089511E0CFEDD1E07E
:102F300000E006C0802FFE010E94AE132196011D05
:0E2F4000C03ED10780E00807A9F7F894FFCF44
:102F4E00F0D8F0D8F0D8F0D800003A048000000095
:102F5E000000A80215023F02F50270024E02620244
:102F6E0000000000DB03AE030B048203A6039203F2
:102F7E0083032C32002C38002C34002C36002C000D
:102F8E0064697374616E636567726F7570342D3525
:102F9E0035313800646973636F6765737475726574
:102FAE002D3465366200646973636F707265737376
:0C2FBE007572652D35393838000D0A0099
:00000001FF
