:100000000C9463010C9494010C9494010C9494014D
:100010000C9494010C9494010C9494010C9494010C
:100020000C9494010C9494010C9494010C949401FC
:100030000C9494010C9494010C9494010C949401EC
:100040000C9494010C9494010C9494010C949401DC
:100050000C9494010C9494010C9494010C94070456
:100060000C9494010C947B040C9451040C94940112
:100070000C9494010C9494010C9494010C949401AC
:100080000C9494010C9494010C9494010C9494019C
:100090000C9494010C9494010C9494010C94B1046C
:1000A0000C9494010C9494010C9494010C9494017C
:1000B0000C9494010C9494010C9494010C9494016C
:1000C0000C9494010C9494010C9494010C9494015C
:1000D0000C9494010C9494010C9494010C9494014C
:1000E0000C9494010F081208010805080908490832
:1000F00016081A082008240828082E08320836088E
:1001000049083C084008440807634236B79BD8A713
:100110001A39685618AEBAAB558C1D3CB7CC57632C
:10012000BD6DEDFD753EF6177231BF000000803FDA
:100130000C94570D0C9420080C9405030C94980112
:100140000C941A080C9428080C9449080C94290360
:100150000C9415030C9424080C94360D0C94310364
:100160000C9496010C94C2010C9401080C9436086E
:100170000C94F3010C9440080C9405080C9444086A
:100180000C94E5010C9478020C9406030C94D101B4
:100190000C948E030C9412080C942E080C940908ED
:1001A0000C942B020C945E030C940F080C94970192
:1001B0000C9416080C943C080C94320800002100A2
:1001C000240027002A002D00300033000101000028
:1001D000040107010A0100000A0B02090C0D0E08B8
:1001E0000703040100000000000000000000000000
:1001F00000000000000000000000000000000000FF
:1002000000001211100000000000000000000000BB
:1002100000000000000000000000000001021020AB
:10022000200808102040102040800201020108042C
:1002300002010102040810204080804020100804C0
:100240000201800402018040201008040201080419
:10025000020101020408102040800102040810205D
:10026000408000002200250028002B002E003100D5
:10027000340002010000050108010B010505050518
:10028000070508080808020202020A0A080804040E
:10029000040401010101010101010303030303033C
:1002A0000303040707070C0C0C0C0C0C0C0C0202CB
:1002B000020206060606060606060B0B0B0B0B0BC8
:1002C0000B0B570D360D11241FBECFEFD1E2DEBF51
:1002D000CDBF00E00CBF24E0ACE8B2E001C01D924D
:1002E000A934B207E1F712E0A0E0B2E0E4E2F7E2FD
:1002F00000E00BBF02C007900D92AC38B107D9F7F0
:1003000011E0C2E6D1E000E006C021970109802F8C
:10031000FE010E94600FC136D10780E00807A9F7EF
:100320000E94F3080C9480130C9400000895089523
:10033000CF92DF92EF92FF920F931F93CF93DF93B1
:100340006C017A018B01C0E0D0E0CE15DF0581F0B1
:10035000D8016D918D01D601ED91FC910190F08154
:10036000E02DC6011995892B11F02196EECF7E0163
:10037000C701DF91CF911F910F91FF90EF90DF9018
:10038000CF900895FC01538D448D252F30E0842FAC
:1003900090E0821B930B541710F0CF9608950197AD
:1003A0000895FC01918D828D981761F0828DDF0197
:1003B000A80FB11D5D968C91928D9F5F9F73928F58
:1003C00090E008958FEF9FEF0895FC01918D828D4D
:1003D000981731F0828DE80FF11D858D90E008951A
:1003E0008FEF9FEF0895FC01918D228D892F90E072
:1003F000805C9F4F821B91098F739927089585E731
:1004000093E00E94F30121E0892B09F420E0822F80
:100410000895FC01848DDF01A80FB11DA35ABF4FC1
:100420002C91848D90E001968F739927848FA689F3
:10043000B7892C93A089B1898C91837080648C9347
:10044000938D848D981306C00288F389E02D8081F6
:100450008F7D80830895EF92FF920F931F93CF9328
:10046000DF93EC0181E0888F9B8D8C8D981305C004
:10047000E889F989808185FD26C0F62E0B8D10E074
:100480000F5F1F4F0F731127E02E8C8DE8120CC0E9
:100490000FB607FCFACFE889F989808185FFF5CF8F
:1004A000CE010E940902F1CF8B8DFE01E80FF11DF4
:1004B000E35AFF4FF0829FB7F8940B8FEA89FB89CC
:1004C000808180620AC09FB7F894EE89FF896083BB
:1004D000E889F98980818370806480839FBF81E08F
:1004E00090E0DF91CF911F910F91FF90EF900895D1
:1004F000CF93DF93EC01888D8823C9F0EA89FB89CB
:10050000808185FD05C0A889B9898C9186FD0FC0C1
:100510000FB607FCF5CF808185FFF2CFA889B98996
:100520008C9185FFEDCFCE010E940902E7CFDF91CC
:10053000CF91089580E090E0892B21F00E94FF0187
:10054000811125C080E090E0892B41F080E090E0AF
:10055000892B21F00E94000081111CC080E090E0F6
:10056000892B41F080E090E0892B21F00E9400006F
:10057000811113C080E090E0892BA1F080E090E031
:10058000892B81F00E94000081110AC008950E9409
:100590000000D8CF0E940000E1CF0E940000EACF07
:1005A0000C940000089585ED8093BC008091BC0000
:1005B00084FDFCCF1092500308954091AC02262F89
:1005C00030E0240F311D21323105DCF4209150033D
:1005D0002430C9F4FC0180E090E0861758F4309193
:1005E000AC022191DC01A457BD4FA30FB11D2C9388
:1005F0000196F3CF8091AC02680F6093AC0280E06B
:10060000089581E0089582E008950895E091F4024C
:100610008091F302E81730F4F0E0E153FD4F808160
:1006200090E008958FEF9FEF08959091F4028091EC
:10063000F302981750F4E92FF0E0E153FD4F2081C9
:1006400030E09F5F9093F40202C02FEF3FEFC901AB
:1006500008958091F30290E02091F402821B9109A9
:100660000895CF92DF92EF92FF920F931F93CF9353
:10067000DF937C01CB018A0120915103222389F071
:10068000EB016B01C40ED51ECC15DD0569F0699137
:10069000D701ED91FC910190F081E02DC7011995F2
:1006A000F3CF642F0E94DD02C801DF91CF911F912B
:1006B0000F91FF90EF90DF90CF900895CF93DF934D
:1006C0001F92CDB7DEB76983209151032223D1F069
:1006D00020917403203240F021E030E0FC013383AC
:1006E000228380E090E015C080915203E82FF0E073
:1006F000ED5AFC4F998190838F5F809352038093D2
:10070000740305C061E0CE0101960E94DD0281E024
:1007100090E00F90DF91CF910895089580E090E0F0
:1007200008950E946B134F925F926F927F928F9207
:100730009F92AF92BF92CF92DF92EF92FF926B01A6
:100740007C012FEE39EC43E75FE30E94800E0E94AC
:100750004F102B013C0124EB38EC4EE050ECC7016C
:10076000B6010E94800E0E944F104B015C012CE2EA
:100770003DE748E65CE3C301B2010E94800E6B01D5
:100780007C0128EC3EE54FE65CEBC501B4010E941C
:10079000800E9B01AC01C701B6010E94690F23ECDA
:1007A00035EF4CE151E40E94800EFF90EF90DF9016
:1007B000CF90BF90AF909F908F907F906F905F9001
:1007C0004F9008953FB7F8948091100390911103D2
:1007D000A0911203B091130326B5A89B05C02F3F2B
:1007E00019F00196A11DB11D3FBFBA2FA92F982F57
:1007F0008827820F911DA11DB11DBC01CD0142E0D2
:10080000660F771F881F991F4A95D1F708951F9289
:100810000F920FB60F9211242F933F938F939F93B4
:10082000AF93BF9380910C0390910D03A0910E03A1
:10083000B0910F0330910B0323E0230F2D3720F4E9
:100840000196A11DB11D05C026E8230F0296A11D2A
:10085000B11D20930B0380930C0390930D03A09381
:100860000E03B0930F038091100390911103A09198
:100870001203B09113030196A11DB11D80931003C3
:1008800090931103A0931203B0931303BF91AF9100
:100890009F918F913F912F910F900FBE0F901F90BE
:1008A00018951F920F920FB60F9211240BB60F924C
:1008B0002F933F934F935F936F937F938F939F9368
:1008C000AF93BF93EF93FF9385E793E00E940902F4
:1008D000FF91EF91BF91AF919F918F917F916F9118
:1008E0005F914F913F912F910F900BBE0F900FBED4
:1008F0000F901F9018951F920F920FB60F92112410
:100900000BB60F922F938F939F93EF93FF93E091EA
:100910008503F09186038081E0918B03F0918C0335
:1009200082FD12C0908180918E038F5F8F73209122
:100930008F03821751F0E0918E03F0E0EB58FC4FEB
:10094000958F80938E0301C08081FF91EF919F91DD
:100950008F912F910F900BBE0F900FBE0F901F9095
:1009600018951F920F920FB60F9211240BB60F928B
:100970002F933F934F935F936F937F938F939F93A7
:10098000AF93BF93EF93FF938091B900887F803638
:1009900009F49CC068F5883209F45BC090F480319A
:1009A00009F454C038F4882309F4F6C0883009F4F7
:1009B0004DC0F6C0883109F44CC0803209F45DC0E6
:1009C000EFC0803409F468C048F4803309F455C09E
:1009D000883309F0E5C080934E03D8C0803509F410
:1009E0004FC0883509F45DC0883409F0D9C0D6C03D
:1009F000883909F4C7C0A8F4883709F467C038F407
:100A0000883609F463C0803709F460C0C9C08838EB
:100A100009F4B8C0803909F45FC0803809F0C0C05B
:100A20005BC0803B09F486C038F4803A09F466C0A4
:100A3000883A09F47FC0B4C0803C09F4A7C0883C60
:100A400009F4A4C0883B09F48AC0AAC080912B0392
:100A500010C090914D0380914C03981770F5E09170
:100A60004D0381E08E0F80934D03F0E0E45DFC4F79
:100A700080818093BB0085EC86C080934E038EC03E
:100A8000E0914D0381E08E0F80934D038091BB0078
:100A9000F0E0E45DFC4F808390914D0380914C0326
:100AA0006EC0E0914D0381E08E0F80934D038091E5
:100AB000BB00F0E0E45DFC4F808380914F03811127
:100AC0006DC081E080932A0384EA61C083E0809353
:100AD00050031092CE02CFCF8091CE02803208F028
:100AE00051C0E091CE0281E08E0F8093CE028091C2
:100AF000BB00F0E0E255FD4F8083BDCF85EC8093D5
:100B0000BC00109250038091CE02803230F4E0910C
:100B1000CE02F0E0E255FD4F10826091CE0270E00F
:100B2000E091EF02F091F0028EEA92E019951092B6
:100B3000CE0236C084E0809350031092AD02109232
:100B4000AC02E091F102F091F20219958091AC02B1
:100B5000811105C081E08093AC0210928C02E0917B
:100B6000AD0281E08E0F8093AD02F0E0E457FD4FBF
:100B700080818093BB009091AD028091AC02981768
:100B800008F479CF85E88093BC000AC085EC809397
:100B9000BC001092500304C010924E030E94D30276
:100BA000FF91EF91BF91AF919F918F917F916F9145
:100BB0005F914F913F912F910F900BBE0F900FBE01
:100BC0000F901F901895E5E7F3E0A089B18982E0C6
:100BD0008C93A485B5851C92A685B7858FEC8C93E4
:100BE000108EA489B58986E08C93A289B3898C91F3
:100BF00080618C93A289B3898C9188608C93A2893F
:100C0000B3898C9180688C930288F389E02D808170
:100C10008F7D80830895009769F0FC01019000208A
:100C2000E9F73197AF01481B590BBC0185E793E009
:100C30000C94980180E090E008952F923F924F929B
:100C40005F926F927F928F929F92AF92BF92CF925C
:100C5000DF92EF92FF920F931F93CF93DF93CDB765
:100C6000DEB7A4970FB6F894DEBF0FBECDBF4B0121
:100C70005C01F42E9B01AC010E945211882319F0F3
:100C80008FE792E027C024013501E89477F82FEF31
:100C90003FEF4FE75FE7C301B2010E94521181119C
:100CA0000DC02FEF3FEF4FE75FE7C301B2010E9496
:100CB0001A0E18161CF483E892E00CC02FEF3FEFD9
:100CC0004FE75FE4C501B4010E94D71018162CF459
:100CD00087E892E00E940B06B8C02FEF3FEF4FE786
:100CE0005FECC501B4010E941A0E87FDF1CF20E030
:100CF00030E0A901C501B4010E941A0E87FF0BC0A4
:100D00006DE285E793E00E942B023C01B7FAB094B4
:100D1000B7F8B09402C0612C712C10E060E070E074
:100D200080E09FE3F11641F020E030E040E251E442
:100D30000E94D50F1F5FF6CFA50194010E94690F95
:100D40004B015C010E9481106AA3C72ED82EE92EA8
:100D500019A2262F372F482F592F8E010F5D1F4FB5
:100D60000BA31CA39AE0292E312C412C512CCA0133
:100D7000B901A20191010E943E0F605DF8016293EA
:100D80008F01211531054105510589F7CF010E94D9
:100D90000B068301080F191FFF2009F455C06AA133
:100DA0007C2D8D2D9E2D0E941F0E9B01AC01C50137
:100DB000B4010E94680F4B015C016EE285E793E08D
:100DC0000E942B02080F191F8AE0282E312C412C7B
:100DD000512C20E030E040E251E4C501B4010E9412
:100DE000800E4B015C010E9481109B0140E050E0AD
:100DF00019A2CBA0DCA0762E3AA3642EE52ECA0160
:100E0000B901A20191010E943E0F605DF60162935B
:100E10006F01211531054105510589F7CF010E9468
:100E20000B06080F191F672D7AA1862D9E2D0E9493
:100E30001F0E9B01AC01C501B4010E94680F4B015C
:100E40005C01FA94F110C5CFC801A4960FB6F894CE
:100E5000DEBF0FBECDBFDF91CF911F910F91FF90ED
:100E6000EF90DF90CF90BF90AF909F908F907F904A
:100E70006F905F904F903F902F900895282F309162
:100E80007403313208F04AC0809150038111FCCFC5
:100E90009091730342E04093500320934F032FEF50
:100EA00020934E0310924D0330934C03E3E5F3E09F
:100EB000ACE2B3E020E0321721F041914D932F5F77
:100EC000FACF10922B0320912B03990F922B909322
:100ED0002B0390912A03913061F410922A03909190
:100EE0002B039093BB009091BC0093FDF8CF95EC41
:100EF00001C095EE9093BC00909150039230E1F3C5
:100F000090914E039F3F79F080914E03803241F0E3
:100F100080914E03803331F084E005C081E003C04E
:100F200082E001C083E01092520310927403109289
:100F300051030895EF92FF921F93CF93DF937B01AC
:100F4000142FC4E1D3E0988121E0209351039093C2
:100F500073031092520310927403A981BA81ED9128
:100F6000FC9111970190F081E02D682FCD0119952A
:100F700089819A81412F50E0DC01ED91FC91028042
:100F8000F381E02DB701199581E0DF91CF911F9199
:100F9000FF90EF900C943E07CF93DF931F92CDB755
:100FA000DEB7698341E0BE016F5F7F4F0E949A0701
:100FB0000F90DF91CF91089580911C038F77089552
:100FC000362F90E0FC01EA52FE4F4491FC01E45EB2
:100FD000FD4F2491FC01E458FD4F9491992309F4AD
:100FE0006CC0442309F455C050E0FA013197E23156
:100FF000F10508F04EC08827EE58FF4F8F4F0C9434
:10100000600F809180008F7707C0809180008F7D76
:1010100003C080918000877F809380003AC084B5B0
:101020008F7702C084B58F7D84BD33C08091B000BE
:101030008F7703C08091B0008F7D8093B00029C06E
:10104000809190008F7707C0809190008F7D03C0C2
:1010500080919000877F809390001BC08091A000BA
:101060008F7707C08091A0008F7D03C08091A00082
:10107000877F8093A0000DC0809120018F7707C0EB
:10108000809120018F7D03C080912001877F809314
:101090002001E92FF0E0EE0FFF1FEE59FD4FA59163
:1010A000B4919FB7F894311104C08C9120952823F6
:1010B00002C0EC912E2B2C939FBF0895CF93DF930A
:1010C00090E0FC01E45EFD4F2491FC01E458FD4FEB
:1010D0008491882361F190E0880F991FFC01E4540A
:1010E000FE4FC591D491FC01EE59FD4FA591B491ED
:1010F000611109C09FB7F894888120958223888365
:10110000EC912E230BC0623061F49FB7F894888174
:10111000322F309583238883EC912E2B2C939FBF05
:1011200006C08FB7F894E8812E2B28838FBFDF91FC
:10113000CF910895863308F0865390917B00282F35
:101140002870977F922B90937B00877080648093A8
:101150007C0080917A00806480937A0080917A008C
:1011600086FDFCCF809178002091790090E0922B51
:1011700008958F929F92AF92BF92CF92DF92EF929B
:10118000FF926B017C010E94E2034B015C01C114E0
:10119000D104E104F104F1F00E94E203DC01CB018F
:1011A00088199909AA09BB09883E9340A105B10590
:1011B00070F321E0C21AD108E108F10888EE880E28
:1011C00083E0981EA11CB11CC114D104E104F104F8
:1011D00019F7DDCFFF90EF90DF90CF90BF90AF90E9
:1011E0009F908F900895CF93DF93CDB7DEB7299767
:1011F0000FB6F894DEBF0FBECDBF789484B5826081
:1012000084BD84B5816084BD85B5826085BD85B5AA
:10121000816085BD80916E00816080936E00109228
:1012200081008091810082608093810080918100A3
:101230008160809381008091800081608093800034
:101240008091B10084608093B1008091B000816092
:101250008093B00080919100826080939100809192
:1012600091008160809391008091900081608093D3
:1012700090008091A10082608093A1008091A100E4
:1012800081608093A1008091A00081608093A00084
:1012900080912101826080932101809121018160F0
:1012A00080932101809120018160809320018091B1
:1012B0007A00846080937A0080917A0082608093C3
:1012C0007A0080917A00816080937A0080917A0020
:1012D000806880937A001092C1000E94E30582E149
:1012E00094E090931603809315031092F4021092E9
:1012F000F30210925203109274031092500301E013
:1013000000934F0310922A0361E084E10E94E007FA
:1013100061E085E10E94E0078091B9008E7F8093B3
:10132000B9008091B9008D7F8093B90088E48093E3
:10133000B80085E48093BC0086E991E09093F202C6
:101340008093F10287E991E09093F0028093EF029D
:1013500089E38093140300935103809373031092E5
:101360005203109274038091150390911603DC01CF
:10137000ED91FC910190F081E02D62E9199581E0F9
:101380000E943E07809150038111FCCF809114038D
:1013900091E09093500390934F032FEF20934E03CF
:1013A00010924D0310924C0390932B0390912B03BA
:1013B000880F892B80932B0380912A03813061F45D
:1013C00010922A0380912B038093BB008091BC0074
:1013D00083FDF8CF85EC01C085EE8093BC00809141
:1013E00050038130E1F380914D03811103C090914E
:1013F0004D0301C091E0ACE2B3E0EFECF2E080E03D
:10140000891721F02D9121938F5FFACF1092F4026A
:101410008093F3028091150390911603DC01ED9106
:10142000FC910084F185E02D1995892B61F0809164
:10143000150390911603DC01ED91FC910284F38574
:10144000E02D1995182F1B3A09F0CEC06CEF81E8FA
:101450000E94CC07609120036C7F61606093200341
:10146000862F82958F70982F9370B0E49B9FC00158
:1014700011246C70682B61608FE80E94CC0760912A
:1014800028036E7F609328036695637070E0660F93
:10149000771F8BEA0E94CC0780911C038F7B80937F
:1014A0001C030E94DC07682F80E80E94CC07109282
:1014B0001703109218031092190310921A03109236
:1014C0001B0380911C038B7F80931C030E94DC070D
:1014D000682F80E80E94CC0780911C038D7F809349
:1014E0001C030E94DC07682F80E80E94CC078091D3
:1014F0001C038F7E80931C030E94DC07682F80E80A
:101500000E94CC0780911C038F7D80931C030E9456
:10151000DC07682F80E80E94CC0740E060E070E0C4
:1015200087EE0E949A0780911C038E7F80931C0394
:101530000E94DC07682F80E80E94CC076AE070E018
:1015400080E090E00E94B90880911C038160809344
:101550001C030E94DC07682F80E80E94CC076AE029
:1015600070E080E090E00E94B908809127038C7FB2
:101570008093270360E08AEA0E94CC0760912403ED
:101580006F736064609324036F73606482EA0E94E7
:10159000CC07609125036F796064609325036F71B8
:1015A000606483EA0E94CC0762E380EA0E94CC0771
:1015B00010921703109218031092190310921A0335
:1015C00010921B0389EC8093260369EC86EA0E9443
:1015D000CC0780911C03846080931C030E94DC076D
:1015E000682F80E80E94CC0780911C038064809360
:1015F0001C030E94DC07682F80E80E94CC07109231
:101600001703109218031092190310921A031092E4
:101610001B0360E087E30E945E0860E088E30E94AD
:101620005E0860E089E30E945E0860E08AE30E9451
:101630005E0860E086E30E945E080E94E3058091F8
:10164000240487FD08C061E00E945E0860E080918C
:1016500024040E94E00781E080931F048091260407
:1016600090912704892B09F4A2C00E94E203009103
:101670002C0410912D0420912E0430912F04DC01B4
:10168000CB01801B910BA20BB30B8C329140A105B7
:10169000B10558F3F89480912204909123049A8321
:1016A0008983E0912604F0912704DF01119680815F
:1016B000898790911E04E0913004F091310480916B
:1016C0003204992309F42EC09081982B9887908139
:1016D000809589238F838F818C8388E08B835885C5
:1016E0006F8149853B812C8189819A81508347FD97
:1016F000252F3A952083262F39F0441F00C0000083
:101700006083000000C0F2CF38E04D91608300009C
:10171000019761F7F0933104E093300449873B83EC
:101720002C8338C09081982B98879081809589234D
:101730008F838F818E8388E08D8358856F81498563
:101740003D812E8189819A81508347FD252F00C0DC
:1017500000C0208300C000C000C000C000C0608383
:101760000000262F3A9541F0441F000000C000C041
:1017700000C000C000C0E8CF38E04D9100C06083D9
:1017800000C0019709F7F0933104E09330044987D2
:101790003D832E839A83898378940E94E203609329
:1017A0002C0470932D0480932E0490932F0464E6F0
:1017B00070E080E090E00E94B90815E087E30E94A5
:1017C0009A087C018091060290910702E816F906BA
:1017D00009F4F5C01E9DB0011F9D700D1124072E48
:1017E000000C880B990B0E94210E20E030EC4FE793
:1017F00054E40E94D50F0E949303609307037093F3
:1018000008038093090390930A03F0920702E09281
:101810000602E0900503F0900603F0920502E092C4
:10182000040288E30E949A089093060380930503BC
:10183000E816F90609F4C3C0189FB001199F700D8E
:101840001124072E000C880B990B0E94210E20E01A
:1018500030EC4FE754E40E94D50F0E94930360934D
:101860000103709302038093030390930403E090B9
:10187000FF02F0900003F0920302E092020289E37B
:101880000E949A08909300038093FF02E816F906DD
:1018900009F495C0189FB001199F700D1124072EEF
:1018A000000C880B990B0E94210E20E030EC4FE7D2
:1018B00054E40E94D50F0E9493036093FB0270933F
:1018C000FC028093FD029093FE02E090F902F090FA
:1018D000FA02F0920102E09200028AE30E949A0862
:1018E0009093FA028093F902E816F90609F467C0AA
:1018F000189FB001199F700D1124072E000C880B42
:10190000990B0E94210E20E030EC4FE754E40E9436
:10191000D50F0E9493036093F5027093F6028093B3
:10192000F7029093F8024091370450913804609187
:1019300033047091340485E793E00E94980182E3B8
:1019400092E00E940B06609107037091080380915A
:10195000090390910A0342E00E941D0682E392E08F
:101960000E940B06609101037091020380910303B2
:101970009091040342E00E941D0682E392E00E94DF
:101980000B066091FB027091FC028091FD02909128
:10199000FE0242E00E941D0682E392E00E940B06D6
:1019A0006091F5027091F6028091F7029091F80231
:1019B00042E00E941D0684E392E00E940B066AE06A
:1019C00070E080E090E00E94B9080E949A02F6CE92
:1019D000EF92FF920F931F93CF93DF93EC01198245
:1019E00018821B821A821D821C8261157105B9F151
:1019F0007B01FB0101900020E9F731978F01061B65
:101A0000170BB8016F5F7F4F80E090E00E94861255
:101A1000009759F0998388831B830A832C813D8129
:101A2000232B81F4FC0110820DC0888199810097DD
:101A300011F00E94FD11198218821D821C821B82E6
:101A40001A820DC01D830C83B70188819981DF91B3
:101A5000CF911F910F91FF90EF900C947913DF912C
:101A6000CF911F910F91FF90EF90089580912604E0
:101A700090912704009711F00E94FD118091240499
:101A800087FD03C060E00E945E088091330490915E
:101A900034040E94FD118091390490913A040E940F
:101AA000FD1180913F04909140040C94FD1110921F
:101AB00078031092770388EE93E0A0E0B0E0809383
:101AC000790390937A03A0937B03B0937C0322E184
:101AD00032E0309376032093750325EC30E03093A9
:101AE00082032093810324EC30E03093840320931D
:101AF000830320EC30E0309386032093850321ECB0
:101B000030E0309388032093870322EC30E0309359
:101B10008A032093890326EC30E030938C032093D2
:101B20008B0310928E0310928F03109290031092E9
:101B3000910310921504109214048093160490934C
:101B40001704A0931804B093190484E292E09093D0
:101B500013048093120467E372E08FE394E00E9421
:101B6000E80C6BE472E089E394E00E94E80C64E620
:101B700072E083E394E00E94E80C10921F0410923C
:101B8000250410922C0410922D0410922E04109211
:101B90002F0481E080932B04809328041092290461
:101BA00092E090932A0480931E0480EF90E090933B
:101BB0002304809322040E9465119093270480934C
:101BC0002604009761F020EFFC0111922A95E9F7B5
:101BD00080E590E0909321048093200408C0109247
:101BE000230410922204109221041092200486E013
:101BF0008093240480911F04882341F061E086E0F3
:101C00000E945E0860E086E00E94E007E2E8F2E001
:101C1000E491F0E0EE0FFF1FEE59FD4F8591949196
:101C20009093310480933004E2E2F2E0E491E09397
:101C3000320408950E945C0E08F481E00895E8944F
:101C400009C097FB3EF490958095709561957F4F04
:101C50008F4F9F4F9923A9F0F92F96E9BB279395B2
:101C6000F695879577956795B795F111F8CFFAF4C2
:101C7000BB0F11F460FF1BC06F5F7F4F8F4F9F4FF3
:101C800016C0882311F096E911C0772321F09EE851
:101C9000872F762F05C0662371F096E8862F70E0B7
:101CA00060E02AF09A95660F771F881FDAF7880F91
:101CB0009695879597F90895990F0008550FAA0BE7
:101CC000E0E8FEEF16161706E807F907C0F012164F
:101CD0001306E407F50798F0621B730B840B950B52
:101CE00039F40A2661F0232B242B252B21F40895A7
:101CF0000A2609F4A140A6958FEF811D811D089544
:101D00000E94930E0C94040F0E94F60E38F00E946D
:101D1000FD0E20F0952311F00C94ED0E0C94F30EB3
:101D200011240C94380F0E94150F70F3959FC1F386
:101D3000950F50E0551F629FF001729FBB27F00D79
:101D4000B11D639FAA27F00DB11DAA1F649F6627CE
:101D5000B00DA11D661F829F2227B00DA11D621F1D
:101D6000739FB00DA11D621F839FA00D611D221FD7
:101D7000749F3327A00D611D231F849F600D211DBB
:101D8000822F762F6A2F11249F5750409AF0F1F03E
:101D900088234AF0EE0FFF1FBB1F661F771F881FA7
:101DA00091505040A9F79E3F510580F00C94ED0EE4
:101DB0000C94380F5F3FE4F3983ED4F38695779503
:101DC0006795B795F795E7959F5FC1F7FE2B880F4D
:101DD000911D9695879597F9089597F99F6780E8E3
:101DE00070E060E008959FEF80EC089500240A946D
:101DF0001616170618060906089500240A941216E6
:101E00001306140605060895092E0394000C11F418
:101E1000882352F0BB0F40F4BF2B11F460FF04C0C5
:101E20006F5F7F4F8F4F9F4F089557FD9058440F1E
:101E3000551F59F05F3F71F04795880F97FB991F29
:101E400061F09F3F79F087950895121613061406E6
:101E5000551FF2CF4695F1DF08C016161706180673
:101E6000991FF1CF86957105610508940895E8944E
:101E7000BB2766277727CB0197F90895A1E21A2E91
:101E8000AA1BBB1BFD010DC0AA1FBB1FEE1FFF1F1E
:101E9000A217B307E407F50720F0A21BB30BE40B6E
:101EA000F50B661F771F881F991F1A9469F76095B5
:101EB0007095809590959B01AC01BD01CF0108956F
:101EC000EE0FFF1F881F8BBF0790F691E02D19942E
:101ED0005058BB27AA270E94800F0C94040F0E9421
:101EE000F60E38F00E94FD0E20F039F49F3F19F4F1
:101EF00026F40C94F30E0EF4E095E7FB0C94ED0E33
:101F0000E92F0E94150F58F3BA1762077307840769
:101F1000950720F079F4A6F50C94370F0EF4E095B0
:101F20000B2EBA2FA02D0B01B90190010C01CA0193
:101F3000A0011124FF27591B99F0593F50F4503E3E
:101F400068F11A16F040A22F232F342F4427585F30
:101F5000F3CF469537952795A795F0405395C9F748
:101F60007EF41F16BA0B620B730B840BBAF0915000
:101F7000A1F0FF0FBB1F661F771F881FC2F70EC09F
:101F8000BA0F621F731F841F48F487957795679572
:101F9000B795F7959E3F08F0B0CF9395880F08F05E
:101FA0009927EE0F9795879508950E94E90F0C9455
:101FB000040F0E94FD0E58F00E94F60E40F029F426
:101FC0005F3F29F00C94ED0E51110C94380F0C94D6
:101FD000F30E0E94150F68F39923B1F3552391F383
:101FE000951B550BBB27AA2762177307840738F088
:101FF0009F5F5F4F220F331F441FAA1FA9F335D0E5
:102000000E2E3AF0E0E832D091505040E695001C98
:10201000CAF72BD0FE2F29D0660F771F881FBB1F52
:10202000261737074807AB07B0E809F0BB0B802D30
:10203000BF01FF2793585F4F3AF09E3F510578F05C
:102040000C94ED0E0C94380F5F3FE4F3983ED4F3FC
:10205000869577956795B795F7959F5FC9F7880F30
:10206000911D9695879597F90895E1E0660F771F82
:10207000881FBB1F621773078407BA0720F0621B13
:10208000730B840BBA0BEE1F88F7E095089529F4C3
:1020900016F00C94ED0E0C94370F0C94F30E0E9476
:1020A0001D0FA8F39638A0F707F80F92E8942BE3DA
:1020B0003AEA48EB5FE70E94960E0F920F920F925A
:1020C0004DB75EB70F920E941E11E8E0F1E00E944A
:1020D000B0104F915F91EF91FF91E595EE1FFF1FBB
:1020E00049F0FE57E0684427EE0F441FFA95E1F7E8
:1020F0004195550B0E94E8100F9007FE0C94DC10E0
:1021000008950E941D0F88F09F5798F0B92F9927C6
:10211000B751B0F0E1F0660F771F881F991F1AF0D2
:10212000BA95C9F714C0B13091F00E94370FB1E0F1
:1021300008950C94370F672F782F8827B85F39F0F0
:10214000B93FCCF3869577956795B395D9F73EF46B
:1021500090958095709561957F4F8F4F9F4F089513
:10216000DF93CF931F930F93FF92EF92DF927B0148
:102170008C01689406C0DA2EEF010E94930EFE01D6
:10218000E894A5912591359145915591A6F3EF01DC
:102190000E94800FFE019701A801DA9469F7DF9091
:1021A000EF90FF900F911F91CF91DF9108950E94C2
:1021B0005C0E08F48FEF08959B01AC0160E070E0C5
:1021C00080E89FE30C94D50F0C94ED0E0C945711FE
:1021D0000E941D0FD8F39923C9F3940F511DA3F347
:1021E0009150504094F059F0882332F0660F771FD9
:1021F000881F91505040C1F79E3F51052CF7880F22
:10220000911D9695879597F908955F3FACF0983E9C
:102210009CF0BB27869577956795B79508F4B160D4
:102220009395C1F7BB0F58F711F460FFE8CF6F5FCC
:102230007F4F8F4F9F4FE3CF0C94380FFA01DC0193
:10224000AA0FBB1F9B01AC01BF5728F422273327DD
:102250004427507820C0B75190F4AB2F0024469506
:1022600037952795011CA395D2F3002071F0220F1A
:10227000331F441FB395DAF30ED00C94680F61300E
:102280007105A0E88A07B94630F49B01AC016627C6
:10229000772788279078309621F0208331834283F6
:1022A000538308950E945C0E880B990B08959F3FFD
:1022B00031F0915020F4879577956795B795880F01
:1022C000911D9695879597F908950F931F93CF9336
:1022D000DF938230910510F482E090E0E0914704B2
:1022E000F091480420E030E0A0E0B0E0309719F130
:1022F000408151810281138148175907C8F0841722
:10230000950769F4109731F012960C931297139673
:102310001C9327C0009347041093480422C0211542
:10232000310519F04217530718F49A01BD01EF0166
:10233000DF01F801DBCF21153105F9F0281B390B3E
:102340002430310580F48A819B816115710521F06B
:10235000FB019383828304C09093480480934704D5
:10236000FE01329644C0FE01E20FF31F8193919368
:1023700022503109398328833AC020914504309195
:102380004604232B41F420910A0230910B02309332
:10239000460420934504209108023091090221153A
:1023A000310541F42DB73EB740910C0250910D021A
:1023B000241B350BE0914504F0914604E217F30726
:1023C000A0F42E1B3F0B2817390778F0AC014E5FA5
:1023D0005F4F2417350748F04E0F5F1F5093460498
:1023E000409345048193919302C0E0E0F0E0CF0177
:1023F000DF91CF911F910F910895CF93DF930097B5
:1024000009F481C0FC01329713821282A091470423
:10241000B0914804109781F420813181820F931F7D
:1024200020914504309146042817390751F5F0935F
:102430004604E093450467C0ED0120E030E0CE178C
:10244000DF0740F44A815B819E0141155105F1F09F
:10245000EA01F5CFD383C28340815181840F951F58
:10246000C817D90759F488819981840F951F02965E
:10247000918380838A819B81938382832115310597
:1024800029F4F0934804E09347043DC0E901FB833D
:10249000EA8349915991C40FD51FEC17FD0761F4E8
:1024A00080819181840F951F0296E9019983888329
:1024B000828193819B838A83E0E0F0E012968D9184
:1024C0009C911397009719F0FD01DC01F7CF8D91D6
:1024D0009C9111979D012E5F3F4F820F931F20917A
:1024E0004504309146042817390769F4309729F4D8
:1024F000109248041092470402C013821282B093D3
:102500004604A0934504DF91CF9108956F927F9286
:102510008F929F92AF92BF92CF92DF92EF92FF92F3
:102520000F931F93CF93DF93009789F4CB01DF9133
:10253000CF911F910F91FF90EF90DF90CF90BF90C0
:10254000AF909F908F907F906F900C946511FC01DD
:10255000E60FF71F9C0122503109E217F30708F438
:10256000A9C0EC01D9010D911C911197061717070D
:10257000B0F00530110508F49BC0C8010497861718
:10258000970708F495C002501109061B170B019319
:1025900011936D937C93CF010E94FD1189C05B0163
:1025A000A01AB10A4C01800E911EA0914704B0916F
:1025B0004804612C712CE12CF12C109709F446C0D1
:1025C0008D919C911197A815B905B1F56C0142E068
:1025D000C40ED11CCA14DB0478F14C018A189B0884
:1025E000640142E0C40ED11C1296BC90129713965F
:1025F000AC91B5E0CB16D10440F0B282A3839182B6
:102600008082D9016D937C9309C00E5F1F4F800FAC
:10261000911FF90191838083EB2DFA2FE114F104CE
:1026200031F0D7011396FC93EE93129741C0F093CB
:102630004804E09347043CC06816790608F43C015E
:102640007D0112960D90BC91A02DB7CF80914504CD
:102650009091460488169906E1F466167706C8F448
:102660008091080290910902009741F48DB79EB7BE
:1026700040910C0250910D02841B950BE817F9074D
:10268000C8F4F0934604E0934504F9017183608334
:102690000FC0CB010E9465117C01009759F0A80181
:1026A000BE010E947013CE010E94FD11C70104C03B
:1026B000CE0102C080E090E0DF91CF911F910F9199
:1026C000FF90EF90DF90CF90BF90AF909F908F9052
:1026D0007F906F90089581E090E0F8940C948013BF
:1026E000FB01DC0102C001900D9241505040D8F72F
:1026F0000895FB01DC0101900D920020E1F708959F
:1027000011E0C2E6D1E000E006C0802FFE010E9489
:10271000600F2196011DC336D10780E00807A9F795
:04272000F894FFCF5B
:10272400F0D8F0D8F0D8F0D80000490480000000B8
:1027340000002B029801C2017802F301D101E501E6
:10274400000000005E0331038E0305032903150313
:1027540006032C000D0A0064697374616E63656777
:10276400726F7570342D3535313800676573747543
:10277400726573656E736F7267726F7570342D63F3
:1027840063313200707265737375726573656E734D
:102794006F727367726F7570342D61356530006EBA
:0C27A400616E00696E66006F76660000D2
:00000001FF
