:100000000C9463010C9494010C9494010C9494014D
:100010000C9494010C9494010C9494010C9494010C
:100020000C9494010C9494010C9494010C949401FC
:100030000C9494010C9494010C9494010C949401EC
:100040000C9494010C9494010C9494010C949401DC
:100050000C9494010C9494010C9494010C946608F3
:100060000C9494010C940C040C94E2030C949401F1
:100070000C9494010C9494010C9494010C949401AC
:100080000C9494010C9494010C9494010C9494019C
:100090000C9494010C9494010C9494010C944204DB
:1000A0000C9494010C9494010C9494010C9494017C
:1000B0000C9494010C9494010C9494010C9494016C
:1000C0000C9494010C9494010C9494010C9494015C
:1000D0000C9494010C9494010C9494010C9494014C
:1000E0000C949401C407C707B607BA07BE07FE07FA
:1000F000CB07CF07D507D907DD07E307E707EB07EE
:10010000FE07F107F507F90707634236B79BD8A743
:100110001A39685618AEBAAB558C1D3CB7CC57632C
:10012000BD6DEDFD753EF6177231BF000000803FDA
:100130000C9431030C9415030C94CF070C94960186
:100140000C94670C0C9478020C94F5070C948E03B5
:100150000C94F1070C94F3010C942B020C9498016D
:100160000C94D1010C94EB070C9497010C94B607F6
:100170000C94DD070C94C4070C94550C0C94BE072A
:100180000C94D5070C94F9070C94E3070C94CB0757
:100190000C94E7070C94C7070C9429030C94BA0736
:1001A0000C9406030C94FE070C94C2010C94E50118
:1001B0000C945E030C9405030C94D90700000A0B01
:1001C00002090C0D0E0807030401000000000000E6
:1001D000000000000000000000000000000000001F
:1001E00000000000000000001211100000000000DC
:1001F00000000000000000000000000000000000FF
:10020000000000002200250028002B002E003100F5
:10021000340002010000050108010B01000021006B
:10022000240027002A002D003000330001010000C7
:10023000040107010A010505050507050808080866
:10024000020202020A0A080804040404010101016E
:100250000101010103030303030303030407070769
:100260000C0C0C0C0C0C0C0C02020202060606060E
:10027000060606060B0B0B0B0B0B0B0B01021020DB
:1002800020080810204010204080020102010804CC
:100290000201010204081020408080402010080460
:1002A00002018004020180402010080402010804B9
:1002B00002010102040810204080010204081020FD
:1002C0004080670C550C11241FBECFEFD1E2DEBF7A
:1002D000CDBF00E00CBF24E0ACE8B2E001C01D924D
:1002E000A433B207E1F712E0A0E0B2E0E2E5F4E205
:1002F00000E00BBF02C007900D92AC38B107D9F7F0
:1003000011E0C2E6D1E000E006C021970109802F8C
:10031000FE010E94F70DC136D10780E00807A9F75A
:100320000E94B0080C9417120C94000008950895D0
:10033000CF92DF92EF92FF920F931F93CF93DF93B1
:100340006C017A018B01C0E0D0E0CE15DF0581F0B1
:10035000D8016D918D01D601ED91FC910190F08154
:10036000E02DC6011995892B11F02196EECF7E0163
:10037000C701DF91CF911F910F91FF90EF90DF9018
:10038000CF900895FC01538D448D252F30E0842FAC
:1003900090E0821B930B541710F0CF9608950197AD
:1003A0000895FC01918D828D981761F0828DDF0197
:1003B000A80FB11D5D968C91928D9F5F9F73928F58
:1003C00090E008958FEF9FEF0895FC01918D828D4D
:1003D000981731F0828DE80FF11D858D90E008951A
:1003E0008FEF9FEF0895FC01918D228D892F90E072
:1003F000805C9F4F821B91098F73992708958CE62B
:1004000093E00E94F30121E0892B09F420E0822F80
:100410000895FC01848DDF01A80FB11DA35ABF4FC1
:100420002C91848D90E001968F739927848FA689F3
:10043000B7892C93A089B1898C91837080648C9347
:10044000938D848D981306C00288F389E02D8081F6
:100450008F7D80830895EF92FF920F931F93CF9328
:10046000DF93EC0181E0888F9B8D8C8D981305C004
:10047000E889F989808185FD26C0F62E0B8D10E074
:100480000F5F1F4F0F731127E02E8C8DE8120CC0E9
:100490000FB607FCFACFE889F989808185FFF5CF8F
:1004A000CE010E940902F1CF8B8DFE01E80FF11DF4
:1004B000E35AFF4FF0829FB7F8940B8FEA89FB89CC
:1004C000808180620AC09FB7F894EE89FF896083BB
:1004D000E889F98980818370806480839FBF81E08F
:1004E00090E0DF91CF911F910F91FF90EF900895D1
:1004F000CF93DF93EC01888D8823C9F0EA89FB89CB
:10050000808185FD05C0A889B9898C9186FD0FC0C1
:100510000FB607FCF5CF808185FFF2CFA889B98996
:100520008C9185FFEDCFCE010E940902E7CFDF91CC
:10053000CF91089580E090E0892B21F00E94FF0187
:10054000811125C080E090E0892B41F080E090E0AF
:10055000892B21F00E94000081111CC080E090E0F6
:10056000892B41F080E090E0892B21F00E9400006F
:10057000811113C080E090E0892BA1F080E090E031
:10058000892B81F00E94000081110AC008950E9409
:100590000000D8CF0E940000E1CF0E940000EACF07
:1005A0000C940000089585ED8093BC008091BC0000
:1005B00084FDFCCF1092470308954091AC02262F92
:1005C00030E0240F311D21323105DCF42091470346
:1005D0002430C9F4FC0180E090E0861758F4309193
:1005E000AC022191DC01A457BD4FA30FB11D2C9388
:1005F0000196F3CF8091AC02680F6093AC0280E06B
:10060000089581E0089582E008950895E091F4024C
:100610008091F302E81730F4F0E0E153FD4F808160
:1006200090E008958FEF9FEF08959091F4028091EC
:10063000F302981750F4E92FF0E0E153FD4F2081C9
:1006400030E09F5F9093F40202C02FEF3FEFC901AB
:1006500008958091F30290E02091F402821B9109A9
:100660000895CF92DF92EF92FF920F931F93CF9353
:10067000DF937C01CB018A0120914803222389F07A
:10068000EB016B01C40ED51ECC15DD0569F0699137
:10069000D701ED91FC910190F081E02DC7011995F2
:1006A000F3CF642F0E94DD02C801DF91CF911F912B
:1006B0000F91FF90EF90DF90CF900895CF93DF934D
:1006C0001F92CDB7DEB76983209148032223D1F072
:1006D00020916B03203240F021E030E0FC013383B5
:1006E000228380E090E015C080914903E82FF0E07C
:1006F000E65BFC4F998190838F5F809349038093E1
:100700006B0305C061E0CE0101960E94DD0281E02D
:1007100090E00F90DF91CF910895089580E090E0F0
:1007200008950E9402124F925F926F927F928F9271
:100730009F92AF92BF92CF92DF92EF92FF926B01A6
:100740007C012FEE39EC43E75FE30E94170D0E9416
:10075000E60E2B013C0124EB38EC4EE050ECC701D7
:10076000B6010E94170D0E94E60E4B015C012CE2BF
:100770003DE748E65CE3C301B2010E94170D6B013F
:100780007C0128EC3EE54FE65CEBC501B4010E941C
:10079000170D9B01AC01C701B6010E94000E23ECAE
:1007A00035EF4CE151E40E94170DFF90EF90DF9080
:1007B000CF90BF90AF909F908F907F906F905F9001
:1007C0004F9008951F920F920FB60F9211240BB6FF
:1007D0000F922F933F934F935F936F937F938F93DA
:1007E0009F93AF93BF93EF93FF938CE693E00E94A8
:1007F0000902FF91EF91BF91AF919F918F917F91EE
:100800006F915F914F913F912F910F900BBE0F9081
:100810000FBE0F901F9018951F920F920FB60F9258
:1008200011240BB60F922F938F939F93EF93FF9307
:10083000E0917C03F0917D038081E0918203F0914F
:10084000830382FD12C09081809185038F5F8F7337
:1008500020918603821751F0E0918503F0E0E4597E
:10086000FC4F958F8093850301C08081FF91EF91AC
:100870009F918F912F910F900BBE0F900FBE0F90F5
:100880001F9018951F920F920FB60F9211240BB65E
:100890000F922F933F934F935F936F937F938F9319
:1008A0009F93AF93BF93EF93FF938091B900887F9D
:1008B000803609F49CC068F5883209F45BC090F476
:1008C000803109F454C038F4882309F4F6C0883024
:1008D00009F44DC0F6C0883109F44CC0803209F4E7
:1008E0005DC0EFC0803409F468C048F4803309F477
:1008F00055C0883309F0E5C080934503D8C08035E2
:1009000009F44FC0883509F45DC0883409F0D9C0B6
:10091000D6C0883909F4C7C0A8F4883709F467C07D
:1009200038F4883609F463C0803709F460C0C9C060
:10093000883809F4B8C0803909F45FC0803809F0FC
:10094000C0C05BC0803B09F486C038F4803A09F42B
:1009500066C0883A09F47FC0B4C0803C09F4A7C0DF
:10096000883C09F4A4C0883B09F48AC0AAC08091DD
:10097000220310C09091440380914303981770F5AF
:10098000E091440381E08E0F80934403F0E0ED5D3D
:10099000FC4F80818093BB0085EC86C0809345032B
:1009A0008EC0E091440381E08E0F809344038091D8
:1009B000BB00F0E0ED5DFC4F80839091440380919B
:1009C00043036EC0E091440381E08E0F80934403A3
:1009D0008091BB00F0E0ED5DFC4F80838091460389
:1009E00081116DC081E08093210384EA61C083E0BE
:1009F000809347031092CE02CFCF8091CE028032F7
:100A000008F051C0E091CE0281E08E0F8093CE02BB
:100A10008091BB00F0E0E255FD4F8083BDCF85ECB7
:100A20008093BC00109247038091CE02803230F454
:100A3000E091CE02F0E0E255FD4F10826091CE02CF
:100A400070E0E091EF02F091F0028EEA92E01995E9
:100A50001092CE0236C084E0809347031092AD021C
:100A60001092AC02E091F102F091F202199580919E
:100A7000AC02811105C081E08093AC0210928C021F
:100A8000E091AD0281E08E0F8093AD02F0E0E4577B
:100A9000FD4F80818093BB009091AD028091AC02AC
:100AA000981708F479CF85E88093BC000AC085ECDC
:100AB0008093BC001092470304C0109245030E942B
:100AC000D302FF91EF91BF91AF919F918F917F9151
:100AD0006F915F914F913F912F910F900BBE0F90AF
:100AE0000FBE0F901F9018953FB7F89480912C047B
:100AF00090912D04A0912E04B0912F0426B5A89BAF
:100B000005C02F3F19F00196A11DB11D3FBFBA2F9F
:100B1000A92F982F8827820F911DA11DB11DBC01FF
:100B2000CD0142E0660F771F881F991F4A95D1F7C4
:100B30000895009769F0FC0101900020E9F73197D2
:100B4000AF01481B590BBC018CE693E00C94980153
:100B500080E090E008952F923F924F925F926F92C3
:100B60007F928F929F92AF92BF92CF92DF92EF923D
:100B7000FF920F931F93CF93DF93CDB7DEB7A49768
:100B80000FB6F894DEBF0FBECDBF4B015C01F42E53
:100B90009B01AC010E94E90F882319F08FE792E0D6
:100BA00027C024013501E89477F82FEF3FEF4FE796
:100BB0005FE7C301B2010E94E90F81110DC02FEF61
:100BC0003FEF4FE75FE7C301B2010E94B10C181677
:100BD0001CF483E892E00CC02FEF3FEF4FE75FE497
:100BE000C501B4010E946E0F18162CF487E892E03C
:100BF0000E949905B8C02FEF3FEF4FE75FECC501AA
:100C0000B4010E94B10C87FDF1CF20E030E0A901D2
:100C1000C501B4010E94B10C87FF0BC06DE28CE6E8
:100C200093E00E942B023C01B7FAB094B7F8B0945D
:100C300002C0612C712C10E060E070E080E09FE366
:100C4000F11641F020E030E040E251E40E946C0EE9
:100C50001F5FF6CFA50194010E94000E4B015C01BD
:100C60000E94180F6AA3C72ED82EE92E19A2262F8C
:100C7000372F482F592F8E010F5D1F4F0BA31CA339
:100C80009AE0292E312C412C512CCA01B901A20124
:100C900091010E94D50D605DF80162938F012115CD
:100CA00031054105510589F7CF010E94990583015E
:100CB000080F191FFF2009F455C06AA17C2D8D2D46
:100CC0009E2D0E94B60C9B01AC01C501B4010E948F
:100CD000FF0D4B015C016EE28CE693E00E942B025B
:100CE000080F191F8AE0282E312C412C512C20E0AE
:100CF00030E040E251E4C501B4010E94170D4B0100
:100D00005C010E94180F9B0140E050E019A2CBA0AB
:100D1000DCA0762E3AA3642EE52ECA01B901A20109
:100D200091010E94D50D605DF60162936F0121155E
:100D300031054105510589F7CF010E949905080F3A
:100D4000191F672D7AA1862D9E2D0E94B60C9B013E
:100D5000AC01C501B4010E94FF0D4B015C01FA9486
:100D6000F110C5CFC801A4960FB6F894DEBF0FBE30
:100D7000CDBFDF91CF911F910F91FF90EF90DF904A
:100D8000CF90BF90AF909F908F907F906F905F902B
:100D90004F903F902F900895CF93DF9390E0FC0108
:100DA000E458FD4F2491FC01EA5CFD4F84918823B7
:100DB000C1F090E0880F991FFC01E45EFD4FC591E2
:100DC000D491FC01EE5FFD4FA591B4919FB7F894CB
:100DD0008881E22FE0958E2388838C91E823EC9321
:100DE0009FBFDF91CF910895282F30916B0331324F
:100DF00008F04AC0809147038111FCCF90916A03AB
:100E000042E040934703209346032FEF209345038E
:100E10001092440330934303EAE4F3E0A3E2B3E027
:100E200020E0321721F041914D932F5FFACF1092BD
:100E3000220320912203990F922B909322039091E9
:100E40002103913061F41092210390912203909339
:100E5000BB009091BC0093FDF8CF95EC01C095EEDE
:100E60009093BC00909147039230E1F39091450339
:100E70009F3F79F080914503803241F08091450396
:100E8000803331F084E005C081E003C082E001C01E
:100E900083E01092490310926B0310924803089567
:100EA000EF92FF921F93CF93DF937B01142FCBE040
:100EB000D3E0988121E02093480390936A03109235
:100EC000490310926B03A981BA81ED91FC911197AE
:100ED0000190F081E02D682FCD01199589819A81CB
:100EE000412F50E0DC01ED91FC910280F381E02D77
:100EF000B701199581E0DF91CF911F91FF90EF909D
:100F00000C94F406CF93DF931F92CDB7DEB76983BD
:100F100041E0BE016F5F7F4F0E9450070F90DF914D
:100F2000CF910895809113038F77089590E0FC018D
:100F3000E454FE4F4491FC01E458FD4F2491FC0120
:100F4000EA5CFD4F9491992309F466C0442309F4A7
:100F500055C050E0FA013197E231F10508F04EC07A
:100F60008827EE58FF4F8F4F0C94F70D809180002B
:100F70008F7707C0809180008F7D03C080918000B3
:100F8000877F809380003AC084B58F7702C084B594
:100F90008F7D84BD33C08091B0008F7703C0809176
:100FA000B0008F7D8093B00029C0809190008F7732
:100FB00007C0809190008F7D03C080919000877F53
:100FC000809390001BC08091A0008F7707C0809114
:100FD000A0008F7D03C08091A000877F8093A00038
:100FE0000DC0809120018F7707C0809120018F7DF7
:100FF00003C080912001877F80932001E92FF0E0DA
:10100000EE0FFF1FEE5FFD4FA591B4918FB7F894DF
:10101000EC91E22BEC938FBF0895863308F0865352
:1010200090917B00282F2870977F922B90937B00C4
:101030008770806480937C0080917A0080648093C4
:101040007A0080917A0086FDFCCF80917800209113
:10105000790090E0922B08958F929F92AF92BF9269
:10106000CF92DF92EF92FF926B017C010E94740598
:101070004B015C01C114D104E104F104F1F00E94C0
:101080007405DC01CB0188199909AA09BB09883EBE
:101090009340A105B10570F321E0C21AD108E1081F
:1010A000F10888EE880E83E0981EA11CB11CC114C3
:1010B000D104E104F10419F7DDCFFF90EF90DF9048
:1010C000CF90BF90AF909F908F9008951F920F92F6
:1010D0000FB60F9211242F933F938F939F93AF934B
:1010E000BF938091280490912904A0912A04B09183
:1010F0002B043091270423E0230F2D3720F4019691
:10110000A11DB11D05C026E8230F0296A11DB11D2A
:10111000209327048093280490932904A0932A0401
:10112000B0932B0480912C0490912D04A0912E0457
:10113000B0912F040196A11DB11D80932C049093B2
:101140002D04A0932E04B0932F04BF91AF919F91D3
:101150008F913F912F910F900FBE0F901F90189578
:10116000789484B5826084BD84B5816084BD85B582
:10117000826085BD85B5816085BD80916E0081608E
:1011800080936E0010928100809181008260809334
:101190008100809181008160809381008091800036
:1011A0008160809380008091B10084608093B10061
:1011B0008091B00081608093B00080919100826046
:1011C0008093910080919100816080939100809143
:1011D00090008160809390008091A1008260809354
:1011E000A1008091A10081608093A1008091A00066
:1011F00081608093A0008091210182608093210111
:101200008091210181608093210180912001816082
:101210008093200180917A00846080937A0080918D
:101220007A00826080937A0080917A008160809356
:101230007A0080917A00806880937A001092C100D1
:10124000E0917C03F0917D0382E08083E09178035C
:10125000F09179031082E0917A03F0917B038FEC97
:10126000808310928403E0918003F091810386E0F3
:101270008083E0917E03F0917F0380818061808391
:10128000E0917E03F0917F03808188608083E0910C
:101290007E03F0917F03808180688083E0917E03EC
:1012A000F0917F0380818F7D808389E094E090932B
:1012B0000D0380930C031092F4021092F30210922B
:1012C000490310926B031092470311E010934603F9
:1012D0001092210384E10E94960785E10E949607FF
:1012E0008091B9008E7F8093B9008091B9008D7F85
:1012F0008093B90088E48093B80085E48093BC00B3
:1013000086E991E09093F2028093F10287E991E0FF
:101310009093F0028093EF0289E380930B03109384
:10132000480380936A031092490310926B038091E3
:101330000C0390910D03DC01ED91FC910190F08183
:10134000E02D62E9199581E00E94F406809147033F
:101350008111FCCF80910B0391E090934703909310
:1013600046032FEF2093450310924403109243034A
:101370009093220390912203880F892B809322035C
:1013800080912103813061F4109221038091220326
:101390008093BB008091BC0083FDF8CF85EC01C039
:1013A00085EE8093BC00809147038130E1F380910A
:1013B0004403811103C09091440301C091E0A3E272
:1013C000B3E0EFECF2E080E0891721F02D9121935A
:1013D0008F5FFACF1092F4028093F30280910C0396
:1013E00090910D03DC01ED91FC910084F185E02DDD
:1013F0001995892B61F080910C0390910D03DC010C
:10140000ED91FC910284F385E02D1995C82FCB3A1C
:1014100009F0CEC06CEF81E80E948207609117034B
:101420006C7F616060931703862F82958F70982F71
:101430009370B0E49B9FC00111246C70682B6160B5
:101440008FE80E94820760911F036E7F60931F03E5
:101450006695637070E0660F771F8BEA0E948207C3
:10146000809113038F7B809313030E949207682F50
:1014700080E80E94820710920E0310920F031092D0
:1014800010031092110310921203809113038B7FAB
:10149000809313030E949207682F80E80E948207BE
:1014A000809113038D7F809313030E949207682F0E
:1014B00080E80E948207809113038F7E809313033C
:1014C0000E949207682F80E80E9482078091130390
:1014D0008F7D809313030E949207682F80E80E94FB
:1014E000820740E060E070E087EE0E945007809144
:1014F00013038E7F809313030E949207682F80E866
:101500000E9482076AE070E080E090E00E942C0870
:10151000809113038160809313030E949207682FC8
:1015200080E80E9482076AE070E080E090E00E941C
:101530002C0880911E038C7F80931E0360E08AEA52
:101540000E94820760911B036F73606460931B03AA
:101550006F73606482EA0E94820760911C036F7956
:10156000606460931C036F71606483EA0E94820769
:1015700062E380EA0E94820710920E0310920F032A
:1015800010921003109211031092120389EC8093B1
:101590001D0369EC86EA0E94820780911303846030
:1015A000809313030E949207682F80E80E948207AD
:1015B000809113038064809313030E949207682F25
:1015C00080E80E94820710920E0310920F0310927F
:1015D0001003109211031092120387E30E94CC06AD
:1015E00088E30E94CC0689E30E94CC068AE30E942D
:1015F000CC0686E30E94CC06C5E087E30E940D0876
:101600008C0180910602909107020817190709F4CE
:10161000F5C0C09FB001C19F700D1124072E000CB2
:10162000880B990B0E94B80C20E030EC4FE754E493
:101630000E946C0E0E94930360930703709308034B
:101640008093090390930A03109307020093060204
:101650000091050310910603109305020093040204
:1016600088E30E940D0890930603809305030817F2
:10167000190709F4C3C0C89FB001C99F700D112498
:10168000072E000C880B990B0E94B80C20E030EC60
:101690004FE754E40E946C0E0E9493036093010391
:1016A0007093020380930303909304030091FF025D
:1016B00010910003109303020093020289E30E9439
:1016C0000D08909300038093FF020817190709F48F
:1016D00095C0C89FB001C99F700D1124072E000C42
:1016E000880B990B0E94B80C20E030EC4FE754E4D3
:1016F0000E946C0E0E9493036093FB027093FC02A5
:101700008093FD029093FE020091F9021091FA027B
:1017100010930102009300028AE30E940D08909347
:10172000FA028093F9020817190709F467C0C89FE5
:10173000B001C99F700D1124072E000C880B990B66
:101740000E94B80C20E030EC4FE754E40E946C0E8D
:101750000E9493036093F5027093F6028093F70260
:101760009093F8024091190450911A046091150465
:10177000709116048CE693E00E94980182E392E057
:101780000E949905609107037091080380910903F5
:1017900090910A0342E00E94AB0582E392E00E942E
:1017A0009905609101037091020380910303909168
:1017B000040342E00E94AB0582E392E00E94990597
:1017C0006091FB027091FC028091FD029091FE02FB
:1017D00042E00E94AB0582E392E00E94990560918D
:1017E000F5027091F6028091F7029091F80242E0C2
:1017F0000E94AB0584E392E00E94990562E370E0E9
:1018000080E090E00E942C080E949A02F6CEEF92AF
:10181000FF920F931F93CF93DF93EC0119821882ED
:101820001B821A821D821C8261157105B9F17B0130
:10183000FB0101900020E9F731978F01061B170B80
:10184000B8016F5F7F4F80E090E00E941D1100970C
:1018500059F0998388831B830A832C813D81232B34
:1018600081F4FC0110820DC088819981009711F0EC
:101870000E949410198218821D821C821B821A8277
:101880000DC01D830C83B70188819981DF91CF91B1
:101890001F910F91FF90EF900C941012DF91CF9158
:1018A0001F910F91FF90EF900895809115049091F2
:1018B00016040E94941080911B0490911C040E94B5
:1018C000941080912104909122040C949410ECE6E1
:1018D000F3E01382128288EE93E0A0E0B0E084830C
:1018E0009583A683B78322E132E03183208325EC00
:1018F00030E03587248724EC30E03787268720ECDA
:1019000030E0318B208B21EC30E0338B228B22ECCA
:1019100030E0358B248B26EC30E0378B268B118E14
:10192000128E138E148EE9E0F4E013821282848307
:101930009583A683B78384E292E09183808367E3F3
:1019400072E081E294E00E94070C6BE472E08BE1AC
:1019500094E00E94070C64E672E085E194E00C9448
:10196000070C0E94F30C08F481E00895E89409C084
:1019700097FB3EF490958095709561957F4F8F4FC2
:101980009F4F9923A9F0F92F96E9BB279395F695D8
:10199000879577956795B795F111F8CFFAF4BB0F56
:1019A00011F460FF1BC06F5F7F4F8F4F9F4F16C0BA
:1019B000882311F096E911C0772321F09EE8872F44
:1019C000762F05C0662371F096E8862F70E060E000
:1019D0002AF09A95660F771F881FDAF7880F969579
:1019E000879597F90895990F0008550FAA0BE0E81D
:1019F000FEEF16161706E807F907C0F012161306D1
:101A0000E407F50798F0621B730B840B950B39F410
:101A10000A2661F0232B242B252B21F408950A2676
:101A200009F4A140A6958FEF811D811D08950E94A4
:101A30002A0D0C949B0D0E948D0D38F00E94940D80
:101A400020F0952311F00C94840D0C948A0D112430
:101A50000C94CF0D0E94AC0D70F3959FC1F3950FC0
:101A600050E0551F629FF001729FBB27F00DB11D22
:101A7000639FAA27F00DB11DAA1F649F6627B00DB2
:101A8000A11D661F829F2227B00DA11D621F739F9B
:101A9000B00DA11D621F839FA00D611D221F749FA9
:101AA0003327A00D611D231F849F600D211D822FF0
:101AB000762F6A2F11249F5750409AF0F1F0882317
:101AC0004AF0EE0FFF1FBB1F661F771F881F915044
:101AD0005040A9F79E3F510580F00C94840D0C9462
:101AE000CF0D5F3FE4F3983ED4F3869577956795E5
:101AF000B795F795E7959F5FC1F7FE2B880F911D6E
:101B00009695879597F9089597F99F6780E870E013
:101B100060E008959FEF80EC089500240A94161663
:101B2000170618060906089500240A9412161306CB
:101B3000140605060895092E0394000C11F4882359
:101B400052F0BB0F40F4BF2B11F460FF04C06F5F75
:101B50007F4F8F4F9F4F089557FD9058440F551F4B
:101B600059F05F3F71F04795880F97FB991F61F01F
:101B70009F3F79F087950895121613061406551F96
:101B8000F2CF4695F1DF08C0161617061806991F02
:101B9000F1CF86957105610508940895E894BB27F7
:101BA00066277727CB0197F90895A1E21A2EAA1B81
:101BB000BB1BFD010DC0AA1FBB1FEE1FFF1FA217FD
:101BC000B307E407F50720F0A21BB30BE40BF50BFA
:101BD000661F771F881F991F1A9469F76095709583
:101BE000809590959B01AC01BD01CF010895EE0F4A
:101BF000FF1F881F8BBF0790F691E02D1994505856
:101C0000BB27AA270E94170E0C949B0D0E948D0DD6
:101C100038F00E94940D20F039F49F3F19F426F417
:101C20000C948A0D0EF4E095E7FB0C94840DE92FDB
:101C30000E94AC0D58F3BA17620773078407950723
:101C400020F079F4A6F50C94CE0D0EF4E0950B2E51
:101C5000BA2FA02D0B01B90190010C01CA01A001FE
:101C60001124FF27591B99F0593F50F4503E68F159
:101C70001A16F040A22F232F342F4427585FF3CF9A
:101C8000469537952795A795F0405395C9F77EF46B
:101C90001F16BA0B620B730B840BBAF09150A1F0B4
:101CA000FF0FBB1F661F771F881FC2F70EC0BA0F3A
:101CB000621F731F841F48F4879577956795B795C2
:101CC000F7959E3F08F0B0CF9395880F08F09927BD
:101CD000EE0F9795879508950E94800E0C949B0DAA
:101CE0000E94940D58F00E948D0D40F029F45F3F42
:101CF00029F00C94840D51110C94CF0D0C948A0D85
:101D00000E94AC0D68F39923B1F3552391F3951B11
:101D1000550BBB27AA2762177307840738F09F5F0C
:101D20005F4F220F331F441FAA1FA9F335D00E2E79
:101D30003AF0E0E832D091505040E695001CCAF7E6
:101D40002BD0FE2F29D0660F771F881FBB1F2617A9
:101D500037074807AB07B0E809F0BB0B802DBF0180
:101D6000FF2793585F4F3AF09E3F510578F00C944F
:101D7000840D0C94CF0D5F3FE4F3983ED4F3869529
:101D800077956795B795F7959F5FC9F7880F911D70
:101D90009695879597F90895E1E0660F771F881F5C
:101DA000BB1F621773078407BA0720F0621B730B0F
:101DB000840BBA0BEE1F88F7E095089529F416F00E
:101DC0000C94840D0C94CE0D0C948A0D0E94B40DCD
:101DD000A8F39638A0F707F80F92E8942BE33AEAB5
:101DE00048EB5FE70E942D0D0F920F920F924DB7B7
:101DF0005EB70F920E94B50FE8E0F1E00E94470F36
:101E00004F915F91EF91FF91E595EE1FFF1F49F014
:101E1000FE57E0684427EE0F441FFA95E1F741951D
:101E2000550B0E947F0F0F9007FE0C94730F0895BF
:101E30000E94B40D88F09F5798F0B92F9927B75199
:101E4000B0F0E1F0660F771F881F991F1AF0BA955E
:101E5000C9F714C0B13091F00E94CE0DB1E00895E1
:101E60000C94CE0D672F782F8827B85F39F0B93FD3
:101E7000CCF3869577956795B395D9F73EF4909511
:101E80008095709561957F4F8F4F9F4F0895DF9399
:101E9000CF931F930F93FF92EF92DF927B018C0100
:101EA000689406C0DA2EEF010E942A0DFE01E89424
:101EB000A5912591359145915591A6F3EF010E9489
:101EC000170EFE019701A801DA9469F7DF90EF90F1
:101ED000FF900F911F91CF91DF9108950E94F30C15
:101EE00008F48FEF08959B01AC0160E070E080E89A
:101EF0009FE30C946C0E0C94840D0C94EE0F0E94D6
:101F0000B40DD8F39923C9F3940F511DA3F3915045
:101F1000504094F059F0882332F0660F771F881FE5
:101F200091505040C1F79E3F51052CF7880F911DED
:101F30009695879597F908955F3FACF0983E9CF091
:101F4000BB27869577956795B79508F4B16093950B
:101F5000C1F7BB0F58F711F460FFE8CF6F5F7F4FF9
:101F60008F4F9F4FE3CF0C94CF0DFA01DC01AA0FE6
:101F7000BB1F9B01AC01BF5728F4222733274427FE
:101F8000507820C0B75190F4AB2F00244695379578
:101F90002795011CA395D2F3002071F0220F331F67
:101FA000441FB395DAF30ED00C94FF0D6130710528
:101FB000A0E88A07B94630F49B01AC016627772771
:101FC00088279078309621F0208331834283538391
:101FD00008950E94F30C880B990B08959F3F31F0F0
:101FE000915020F4879577956795B795880F911D47
:101FF0009695879597F908950F931F93CF93DF9345
:102000008230910510F482E090E0E0913204F0918A
:10201000330420E030E0A0E0B0E0309719F14081D7
:1020200051810281138148175907C8F08417950719
:1020300069F4109731F012960C93129713961C9333
:1020400027C0009332041093330422C021153105B8
:1020500019F04217530718F49A01BD01EF01DF018F
:10206000F801DBCF21153105F9F0281B390B24309D
:10207000310580F48A819B816115710521F0FB0196
:102080009383828304C09093330480933204FE01CF
:10209000329644C0FE01E20FF31F819391932250C8
:1020A0003109398328833AC02091300430913104BA
:1020B000232B41F420910A0230910B02309331041A
:1020C0002093300420910802309109022115310536
:1020D00041F42DB73EB740910C0250910D02241BE4
:1020E000350BE0913004F0913104E217F307A0F4CE
:1020F0002E1B3F0B2817390778F0AC014E5F5F4F5E
:102100002417350748F04E0F5F1F5093310440935A
:1021100030048193919302C0E0E0F0E0CF01DF91C1
:10212000CF911F910F910895CF93DF93009709F4FA
:1021300081C0FC01329713821282A0913204B091C7
:102140003304109781F420813181820F931F2091F5
:102150003004309131042817390751F5F0933104D8
:10216000E093300467C0ED0120E030E0CE17DF07D8
:1021700040F44A815B819E0141155105F1F0EA016D
:10218000F5CFD383C28340815181840F951FC81737
:10219000D90759F488819981840F951F02969183FC
:1021A00080838A819B81938382832115310529F461
:1021B000F0933304E09332043DC0E901FB83EA83EA
:1021C00049915991C40FD51FEC17FD0761F4808127
:1021D0009181840F951F0296E901998388838281FA
:1021E00093819B838A83E0E0F0E012968D919C912D
:1021F0001397009719F0FD01DC01F7CF8D919C91A9
:1022000011979D012E5F3F4F820F931F2091300445
:10221000309131042817390769F4309729F4109266
:1022200033041092320402C013821282B09331043C
:10223000A0933004DF91CF9108956F927F928F9297
:102240009F92AF92BF92CF92DF92EF92FF920F9345
:102250001F93CF93DF93009789F4CB01DF91CF9148
:102260001F910F91FF90EF90DF90CF90BF90AF90B4
:102270009F908F907F906F900C94FC0FFC01E60F65
:10228000F71F9C0122503109E217F30708F4A9C097
:10229000EC01D9010D911C91119706171707B0F0A9
:1022A0000530110508F49BC0C801049786179707ED
:1022B00008F495C002501109061B170B01931193E6
:1022C0006D937C93CF010E94941089C05B01A01A8A
:1022D000B10A4C01800E911EA0913204B0913304DA
:1022E000612C712CE12CF12C109709F446C08D91D2
:1022F0009C911197A815B905B1F56C0142E0C40E87
:10230000D11CCA14DB0478F14C018A189B086401C3
:1023100042E0C40ED11C1296BC9012971396AC9159
:10232000B5E0CB16D10440F0B282A38391828082C3
:10233000D9016D937C9309C00E5F1F4F800F911FD1
:10234000F90191838083EB2DFA2FE114F10431F030
:10235000D7011396FC93EE93129741C0F093330488
:10236000E09332043CC06816790608F43C017D0114
:1023700012960D90BC91A02DB7CF80913004909112
:10238000310488169906E1F466167706C8F4809140
:10239000080290910902009741F48DB79EB74091D1
:1023A0000C0250910D02841B950BE817F907C8F435
:1023B000F0933104E0933004F901718360830FC01E
:1023C000CB010E94FC0F7C01009759F0A801BE01CF
:1023D0000E940712CE010E949410C70104C0CE01D2
:1023E00002C080E090E0DF91CF911F910F91FF90AC
:1023F000EF90DF90CF90BF90AF909F908F907F90A5
:102400006F90089581E090E0F8940C941712FB010E
:10241000DC0102C001900D9241505040D8F7089560
:10242000FB01DC0101900D920020E1F7089511E01D
:10243000C2E6D1E000E006C0802FFE010E94F70D49
:102440002196011DC336D10780E00807A9F7F8944B
:02245000FFCFBC
:10245200F0D8F0D8F0D8F0D80000340480000000A2
:1024620000002B029801C2017802F301D101E501BB
:10247200000000005E0331038E03050329031503E8
:1024820006032C000D0A0064697374616E6365674C
:10249200726F7570342D3535313800676573747518
:1024A200726573656E736F7267726F7570342D63C8
:1024B20063313200707265737375726573656E7322
:1024C2006F727367726F7570342D61356530006E8F
:0C24D200616E00696E66006F76660000A7
:00000001FF
