:100000000C9463010C9494010C9494010C9494014D
:100010000C9494010C9494010C9494010C9494010C
:100020000C9494010C9494010C9494010C949401FC
:100030000C9494010C9494010C9494010C949401EC
:100040000C9494010C9494010C9494010C949401DC
:100050000C9494010C9494010C9494010C94E20A75
:100060000C9494010C9406090C94DC080C949401F3
:100070000C9494010C9494010C9494010C949401AC
:100080000C9494010C9494010C9494010C9494019C
:100090000C9494010C9494010C9494010C943C09DC
:1000A0000C9494010C9494010C9494010C9494017C
:1000B0000C9494010C9494010C9494010C9494016C
:1000C0000C9494010C9494010C9494010C9494015C
:1000D0000C9494010C9494010C9494010C9494014C
:1000E0000C949401FB05FE05ED05F105F5053506BB
:1000F000020606060C06100614061A061E0622063E
:10010000350628062C06300607634236B79BD8A76B
:100110001A39685618AEBAAB558C1D3CB7CC57632C
:10012000BD6DEDFD753EF6177231BF000000803FDA
:100130000C9472070C94A7080C942C060C940C06D3
:100140000C94F5050C944C080C9430060C944E0855
:100150000C9414060C9406060C941A060C94ED05E7
:100160000C943A070C942C070C9422060C945E080D
:100170000C9402060C9435060C944F080C94FE0562
:100180000C94FB050C9499120C9418070C94F1052F
:100190000C9409070C94DF060C947A080C9428063A
:1001A0000C941E060C9488110C94BF070C944D08F7
:1001B0000C9410060C94D7080C94720800002100CF
:1001C000240027002A002D00300033000101000028
:1001D000040107010A0100000A0B02090C0D0E08B8
:1001E0000703040100000000000000000000000000
:1001F00000000000000000000000000000000000FF
:1002000000001211100000000000000000000000BB
:1002100000000000000000000000000001021020AB
:10022000200808102040102040800201020108042C
:1002300002010102040810204080804020100804C0
:100240000201800402018040201008040201080419
:10025000020101020408102040800102040810205D
:10026000408000002200250028002B002E003100D5
:10027000340002010000050108010B010505050518
:10028000070508080808020202020A0A080804040E
:10029000040401010101010101010303030303033C
:1002A0000303040707070C0C0C0C0C0C0C0C0202CB
:1002B000020206060606060606060B0B0B0B0B0BC8
:1002C0000B0B8811991211241FBECFEFD1E2DEBFB4
:1002D000CDBF00E00CBF24E0A0E9B2E001C01D9258
:1002E000AA35B207E1F712E0A0E0B2E0E8EDF0E3F2
:1002F00000E00BBF02C007900D92A039B107D9F7FB
:1003000011E0C2E6D1E000E006C021970109802F8C
:10031000FE010E943314C136D10780E00807A9F717
:100320000E942C0B0C945A180C940000EAE3F3E0A2
:10033000A089B18982E08C93A485B5851C92A6859D
:10034000B7858FEC8C93108EA489B58986E08C9349
:10035000A289B3898C9180618C93A289B3898C9195
:1003600088608C93A289B3898C9180688C93028871
:10037000F389E02D80818F7D80830895009769F057
:10038000FC0101900020E9F73197AF01481B590BA0
:10039000BC018AE393E00C94DF0680E090E00895CE
:1003A0002F923F924F925F926F927F928F929F9285
:1003B000AF92BF92CF92DF92EF92FF920F931F9373
:1003C000CF93DF93CDB7DEB7A4970FB6F894DEBF17
:1003D0000FBECDBF4B015C01F42E9B01AC010E940E
:1003E0002C16882319F083E892E027C024013501F8
:1003F000E89477F82FEF3FEF4FE75FE7C301B201D3
:100400000E942C1681110DC02FEF3FEF4FE75FE7E1
:10041000C301B2010E94BA1218161CF487E892E0D8
:100420000CC02FEF3FEF4FE75FE4C501B4010E941E
:10043000B11518162CF48BE892E00E94BE01B8C0EA
:100440002FEF3FEF4FE75FECC501B4010E94BA12F6
:1004500087FDF1CF20E030E0A901C501B4010E9481
:10046000BA1287FF0BC06DE28AE393E00E94720725
:100470003C01B7FAB094B7F8B09402C0612C712C6B
:1004800010E060E070E080E09FE3F11641F020E0D2
:1004900030E040E251E40E94A8141F5FF6CFA501AE
:1004A00094010E943C144B015C010E945B156AA3FD
:1004B000C72ED82EE92E19A2262F372F482F592FB5
:1004C0008E010F5D1F4F0BA31CA39AE0292E312C28
:1004D000412C512CCA01B901A20191010E94F213D1
:1004E000605DF80162938F012115310541055105C9
:1004F00089F7CF010E94BE018301080F191FFF2059
:1005000009F455C06AA17C2D8D2D9E2D0E94BF122D
:100510009B01AC01C501B4010E943B144B015C017D
:100520006EE28AE393E00E947207080F191F8AE0C7
:10053000282E312C412C512C20E030E040E251E4B7
:10054000C501B4010E9420134B015C010E945B15A0
:100550009B0140E050E019A2CBA0DCA0762E3AA38C
:10056000642EE52ECA01B901A20191010E94F21385
:10057000605DF60162936F0121153105410551055A
:1005800089F7CF010E94BE01080F191F672D7AA1BC
:10059000862D9E2D0E94BF129B01AC01C501B401A6
:1005A0000E943B144B015C01FA94F110C5CFC801C5
:1005B000A4960FB6F894DEBF0FBECDBFDF91CF91EA
:1005C0001F910F91FF90EF90DF90CF90BF90AF9071
:1005D0009F908F907F906F905F904F903F902F9063
:1005E00008958F929F92AF92BF92CF92DF92EF9237
:1005F000FF92CF93DF934B01AA24BB24F82DC52E85
:10060000D62EE72EFF24AC2DE42F2091EA032223DF
:1006100061F0829E40011124F92D2C9D600111246E
:10062000AD2D249FE0011124ED2F3091F003B09106
:10063000ED03E090EB03F090EC033B1308C09C014A
:10064000220F331F820F931F8E0D9F1D19C0880F1D
:10065000991F880F991F8E0D9F1D472F55276627BD
:100660007727EC01C30FD11D222349F030E0249FEE
:100670007001259FF00C349FF00C11244F2D4883FE
:100680002091ED03EC01C20FD11DF8832091EE0300
:10069000EC01C20FD11DA8832091EF03DC01A20F52
:1006A000B11DEC93DF91CF91FF90EF90DF90CF9051
:1006B000BF90AF909F908F9008954F925F926F92EE
:1006C0007F928F929F92AF92BF92CF92DF92EF92E2
:1006D000FF920F931F93CF93DF932091F003C0906D
:1006E000ED034091EB035091EC038090EA031091ED
:1006F000EE03E22EF12C0091EF03EC012C1163C00C
:10070000CC0FDD1FC80FD91FC40FD51F882009F4D7
:1007100043C0912CA12CB12CFE01E10FF11D608191
:1007200070E0762F6627072E000C880B990BA50129
:1007300094010E94F2134424522E632E742EFE0163
:10074000EE0DFF1D608170E0762F6627072E000CEE
:10075000880B990BA50194010E94F213D9019927E6
:10076000882773016201C82AD92AEA2AFB2AC00F06
:10077000D11D688170E0762F6627072E000C880B4C
:10078000990BA50194010E94F213C701B601622BD7
:10079000732B842B952B94C0FE01E10FF11D20815A
:1007A000FE01EE0DFF1D6081862F90E0A0E0B0E01D
:1007B000DC0199278827922BC00FD11D2881BC010D
:1007C000CD01622B7DC0CC0FDD1FCC0FDD1FC40F10
:1007D000D51FD12C882009F458C0912CA12CB12C04
:1007E000FE01EE0DFF1D608170E0762F6627072E5B
:1007F000000C880B990BA50194010E94F213722E34
:10080000662455244424FE01EC0DFD1D608170E03A
:10081000762F6627072E000C880B990BA5019401F3
:100820000E94F2137901DD24CC24C428D528E628BF
:10083000F728FE01E00FF11D608170E0762F66273A
:10084000072E000C880B990BA50194010E94F2134E
:10085000C22AD32AE42AF52AC10FD11D688170E08B
:10086000762F6627072E000C880B990BA5019401A3
:100870000E94F213B42FA32F922F8827BC01CD0121
:100880006C297D298E299F291BC0FE01EE0DFF1DBD
:100890002081FE01EC0DFD1D6081862F90E0A0E01F
:1008A000B0E0DC0199278827B22BFE01E00FF11D93
:1008B0002081822BC10FD11D2881BC01CD01722B5B
:1008C000DF91CF911F910F91FF90EF90DF90CF902C
:1008D000BF90AF909F908F907F906F905F904F9060
:1008E00008950F931F93CF93DF93CDB7DEB729976A
:1008F0000FB6F894DEBF0FBECDBF0E94BD0A0091B7
:10090000F1031091F2032091F3033091F403DC0121
:10091000CB01801B910BA20BB30B8C329140A10534
:10092000B10558F3F8948091E7039091E8039A8316
:100930008983E091EB03F091EC03DF011196808154
:1009400089879091E303E091F503F091F60380919C
:10095000F703992309F42EC09081982B98879081F2
:10096000809589238F838F818C8388E08B83588542
:100970006F8149853B812C8189819A81508347FD14
:10098000252F3A952083262F39F0441F00C0000000
:100990006083000000C0F2CF38E04D91608300001A
:1009A000019761F7F093F603E093F50349873B83E2
:1009B0002C8338C09081982B9887908180958923CB
:1009C0008F838F818E8388E08D8358856F814985E1
:1009D0003D812E8189819A81508347FD252F00C05A
:1009E00000C0208300C000C000C000C000C0608301
:1009F0000000262F3A9541F0441F000000C000C0BF
:100A000000C000C000C0E8CF38E04D9100C0608356
:100A100000C0019709F7F093F603E093F5034987C7
:100A20003D832E839A83898378940E94BD0A6093C4
:100A3000F1037093F2038093F3039093F4032996E8
:100A40000FB6F894DEBF0FBECDBFDF91CF911F91DF
:100A50000F910895282F30913903313208F04AC0A0
:100A6000809115038111FCCF9091380342E04093AF
:100A70001503209314032FEF2093130310921203F6
:100A800030931103E8E1F3E0A1EFB2E020E0321788
:100A900021F041914D932F5FFACF1092F0022091F7
:100AA000F002990F922B9093F0029091EF02913007
:100AB00061F41092EF029091F0029093BB0090913C
:100AC000BC0093FDF8CF95EC01C095EE9093BC006F
:100AD000909115039230E1F3909113039F3F79F0C9
:100AE00080911303803241F080911303803331F001
:100AF00084E005C081E003C082E001C083E0109281
:100B0000170310923903109216030895EF92FF9283
:100B10001F93CF93DF937B01142FC9EDD2E098810F
:100B200021E020931603909338031092170310923C
:100B30003903A981BA81ED91FC9111970190F0815F
:100B4000E02D682FCD01199589819A81412F50E0C0
:100B5000DC01ED91FC910280F381E02DB701199544
:100B600081E0DF91CF911F91FF90EF900C942A05C7
:100B7000CF93DF931F92CDB7DEB7698341E0BE010B
:100B80006F5F7F4F0E9486050F90DF91CF91089590
:100B90008091E1028F770895362F90E0FC01EA52B0
:100BA000FE4F4491FC01E45EFD4F2491FC01E458AA
:100BB000FD4F9491992309F46CC0442309F455C066
:100BC00050E0FA013197E231F10508F04EC0882774
:100BD000EE58FF4F8F4F0C943314809180008F7725
:100BE00007C0809180008F7D03C080918000877F47
:100BF000809380003AC084B58F7702C084B58F7D22
:100C000084BD33C08091B0008F7703C08091B00065
:100C10008F7D8093B00029C0809190008F7707C0AE
:100C2000809190008F7D03C080919000877F80939A
:100C300090001BC08091A0008F7707C08091A0001A
:100C40008F7D03C08091A000877F8093A0000DC09E
:100C5000809120018F7707C0809120018F7D03C094
:100C600080912001877F80932001E92FF0E0EE0F33
:100C7000FF1FEE59FD4FA591B4919FB7F894311124
:100C800004C08C912095282302C0EC912E2B2C932C
:100C90009FBF0895CF93DF9390E0FC01E45EFD4F8A
:100CA0002491FC01E458FD4F8491882361F190E088
:100CB000880F991FFC01E454FE4FC591D491FC01AB
:100CC000EE59FD4FA591B491611109C09FB7F894F9
:100CD0008881209582238883EC912E230BC062307B
:100CE00061F49FB7F8948881322F309583238883ED
:100CF000EC912E2B2C939FBF06C08FB7F894E88100
:100D00002E2B28838FBFDF91CF910895863308F073
:100D1000865390917B00282F2870977F922B909379
:100D20007B008770806480937C0080917A0080646F
:100D300080937A0080917A0086FDFCCF80917800C4
:100D40002091790090E0922B08958F929F92AF921C
:100D5000BF92CF92DF92EF92FF926B017C010E94D3
:100D6000BD0A4B015C01C114D104E104F104F1F0AE
:100D70000E94BD0ADC01CB0188199909AA09BB09A7
:100D8000883E9340A105B10570F321E0C21AD10855
:100D9000E108F10888EE880E83E0981EA11CB11CC2
:100DA000C114D104E104F10419F7DDCFFF90EF90F5
:100DB000DF90CF90BF90AF909F908F900895CF928B
:100DC000DF92EF92FF920F931F93CF93DF936C010B
:100DD0007A018B01C0E0D0E0CE15DF0581F0D801AB
:100DE0006D918D01D601ED91FC910190F081E02D86
:100DF000C6011995892B11F02196EECF7E01C7010E
:100E0000DF91CF911F910F91FF90EF90DF90CF90E6
:100E10000895FC01538D448D252F30E0842F90E000
:100E2000821B930B541710F0CF96089501970895E5
:100E3000FC01918D828D981761F0828DDF01A80FE2
:100E4000B11D5D968C91928D9F5F9F73928F90E004
:100E500008958FEF9FEF0895FC01918D828D981773
:100E600031F0828DE80FF11D858D90E008958FEFB0
:100E70009FEF0895FC01918D228D892F90E0805C79
:100E80009F4F821B91098F73992708958AE393E0FE
:100E90000E943A0721E0892B09F420E0822F08956F
:100EA000FC01848DDF01A80FB11DA35ABF4F2C9107
:100EB000848D90E001968F739927848FA689B789D6
:100EC0002C93A089B1898C91837080648C93938DCD
:100ED000848D981306C00288F389E02D80818F7D70
:100EE00080830895EF92FF920F931F93CF93DF9328
:100EF000EC0181E0888F9B8D8C8D981305C0E8896B
:100F0000F989808185FD26C0F62E0B8D10E00F5FDC
:100F10001F4F0F731127E02E8C8DE8120CC00FB6F7
:100F200007FCFACFE889F989808185FFF5CFCE01EA
:100F30000E945007F1CF8B8DFE01E80FF11DE35A9F
:100F4000FF4FF0829FB7F8940B8FEA89FB8980816D
:100F500080620AC09FB7F894EE89FF896083E889B0
:100F6000F98980818370806480839FBF81E090E0F5
:100F7000DF91CF911F910F91FF90EF900895CF9344
:100F8000DF93EC01888D8823C9F0EA89FB89808191
:100F900085FD05C0A889B9898C9186FD0FC00FB663
:100FA00007FCF5CF808185FFF2CFA889B9898C91A4
:100FB00085FFEDCFCE010E945007E7CFDF91CF91A3
:100FC000089580E090E0892B21F00E94460781116E
:100FD00025C080E090E0892B41F080E090E0892BF3
:100FE00021F00E94000081111CC080E090E0892B5C
:100FF00041F080E090E0892B21F00E9400008111F7
:1010000013C080E090E0892BA1F080E090E0892B74
:1010100081F00E94000081110AC008950E94000022
:10102000D8CF0E940000E1CF0E940000EACF0C94CC
:101030000000089585ED8093BC008091BC0084FD84
:10104000FCCF10921503089540912A04262F30E01A
:10105000240F311D21323105DCF420911503243099
:10106000C9F4FC0180E090E0861758F430912A041E
:101070002191DC01A65FBB4FA30FB11D2C930196FC
:10108000F3CF80912A04680F60932A0480E00895CA
:1010900081E0089582E00895089508950895E0910B
:1010A000B5028091B402E81730F4F0E0E057FD4F4C
:1010B000808190E008958FEF9FEF08959091B502A1
:1010C0008091B402981750F4E92FF0E0E057FD4FFB
:1010D000208130E09F5F9093B50202C02FEF3FEF79
:1010E000C90108958091B40290E02091B502821B5D
:1010F00091090895CF92DF92EF92FF920F931F9381
:10110000CF93DF937C01CB018A0120911603222328
:1011100089F0EB016B01C40ED51ECC15DD0569F01D
:101120006991D701ED91FC910190F081E02DC7010B
:101130001995F3CF642F0E942408C801DF91CF9145
:101140001F910F91FF90EF90DF90CF900895CF9374
:10115000DF931F92CDB7DEB7698320911603222358
:10116000D1F020913903203240F021E030E0FC0141
:101170003383228380E090E015C080911703E82F2D
:10118000F0E0E85EFC4F998190838F5F80931703B6
:101190008093390305C061E0CE0101960E942408C6
:1011A00081E090E00F90DF91CF910895089580E065
:1011B00090E008950E9445181F920F920FB60F926B
:1011C00011240BB60F922F933F934F935F936F931E
:1011D0007F938F939F93AF93BF93EF93FF938AE394
:1011E00093E00E945007FF91EF91BF91AF919F91C3
:1011F0008F917F916F915F914F913F912F910F90C0
:101200000BBE0F900FBE0F901F9018951F920F925C
:101210000FB60F9211240BB60F922F938F939F93BB
:10122000EF93FF93E0914A03F0914B038081E091AB
:101230005003F091510382FD12C0908180915303BD
:101240008F5F8F7320915403821751F0E091530305
:10125000F0E0E65CFC4F958F8093530301C08081E2
:10126000FF91EF919F918F912F910F900BBE0F9057
:101270000FBE0F901F9018951F920F920FB60F92EE
:1012800011240BB60F922F933F934F935F936F935D
:101290007F938F939F93AF93BF93EF93FF9380912F
:1012A000B900887F803609F49CC068F5883209F45B
:1012B0005BC090F4803109F454C038F4882309F4F9
:1012C000F6C0883009F44DC0F6C0883109F44CC02E
:1012D000803209F45DC0EFC0803409F468C048F47E
:1012E000803309F455C0883309F0E5C080931303B7
:1012F000D8C0803509F44FC0883509F45DC0883402
:1013000009F0D9C0D6C0883909F4C7C0A8F4883715
:1013100009F467C038F4883609F463C0803709F4EB
:1013200060C0C9C0883809F4B8C0803909F45FC00A
:10133000803809F0C0C05BC0803B09F486C038F437
:10134000803A09F466C0883A09F47FC0B4C0803C92
:1013500009F4A7C0883C09F4A4C0883B09F48AC0FA
:10136000AAC08091F00210C09091120380911103E5
:10137000981770F5E091120381E08E0F80931203AD
:10138000F0E0EF50FD4F80818093BB0085EC86C07C
:10139000809313038EC0E091120381E08E0F80933F
:1013A00012038091BB00F0E0EF50FD4F80839091DD
:1013B0001203809111036EC0E091120381E08E0F41
:1013C000809312038091BB00F0E0EF50FD4F8083CB
:1013D0008091140381116DC081E08093EF0284EA53
:1013E00061C083E08093150310924C04CFCF8091AD
:1013F0004C04803208F051C0E0914C0481E08E0F23
:1014000080934C048091BB00F0E0E45DFB4F80834F
:10141000BDCF85EC8093BC001092150380914C04E5
:10142000803230F4E0914C04F0E0E45DFB4F108238
:1014300060914C0470E0E091B002F091B1028CE256
:1014400094E0199510924C0436C084E08093150303
:1014500010922B0410922A04E091B202F091B30290
:10146000199580912A04811105C081E080932A0496
:1014700010920A04E0912B0481E08E0F80932B04DC
:10148000F0E0E65FFB4F80818093BB0090912B04DE
:1014900080912A04981708F479CF85E88093BC00DE
:1014A0000AC085EC8093BC001092150304C0109212
:1014B00013030E941A08FF91EF91BF91AF919F9182
:1014C0008F917F916F915F914F913F912F910F90ED
:1014D0000BBE0F900FBE0F901F9018954F925F920A
:1014E0006F927F928F929F92AF92BF92CF92DF9234
:1014F000EF92FF926B017C012FEE39EC43E75FE343
:101500000E9420130E9422152B013C0124EB38EC91
:101510004EE050ECC701B6010E9420130E94221534
:101520004B015C012CE23DE748E65CE3C301B201FC
:101530000E9420136B017C0128EC3EE54FE65CEB3A
:10154000C501B4010E9420139B01AC01C701B60183
:101550000E943C1423EC35EF4CE151E40E9420132F
:10156000FF90EF90DF90CF90BF90AF909F908F90C3
:101570007F906F905F904F9008953FB7F89480915F
:10158000520490915304A0915404B091550426B58F
:10159000A89B05C02F3F19F00196A11DB11D3FBFAB
:1015A000BA2FA92F982F8827820F911DA11DB11D39
:1015B000BC01CD0142E0660F771F881F991F4A9535
:1015C000D1F708951F920F920FB60F9211242F9307
:1015D0003F938F939F93AF93BF9380914E049091CD
:1015E0004F04A0915004B091510430914D0423E078
:1015F000230F2D3720F40196A11DB11D05C026E84B
:10160000230F0296A11DB11D20934D0480934E041B
:1016100090934F04A0935004B093510480915204CE
:1016200090915304A0915404B09155040196A11DCA
:10163000B11D8093520490935304A0935404B0932B
:101640005504BF91AF919F918F913F912F910F9032
:101650000FBE0F901F901895CF93DF93CDB7DEB7D5
:1016600065970FB6F894DEBF0FBECDBF789484B5F2
:10167000826084BD84B5816084BD85B5826085BD8E
:1016800085B5816085BD80916E00816080936E001C
:10169000109281008091810082608093810080910E
:1016A00081008160809381008091800081608093BF
:1016B00080008091B10084608093B1008091B0007F
:1016C00081608093B000809191008260809391004E
:1016D0008091910081608093910080919000816061
:1016E000809390008091A10082608093A1008091FE
:1016F000A10081608093A1008091A000816080930F
:10170000A0008091210182608093210180912101BC
:10171000816080932101809120018160809320016C
:1017200080917A00846080937A0080917A00826050
:1017300080937A0080917A00816080937A00809112
:101740007A00806880937A001092C1000E9496010E
:1017500087ED93E09093DB028093DA021092B5025A
:101760001092B402109217031092390310921503CD
:1017700021E0209314031092EF0261E084E10E94C3
:10178000CC0561E085E10E94CC058091B9008E7F97
:101790008093B9008091B9008D7F8093B90088E46F
:1017A0008093B80085E48093BC008CE498E090932B
:1017B000B3028093B2028DE498E09093B1028093DB
:1017C000B00289E38093D90231E03093160380930D
:1017D000380310921703109239038091DA02909126
:1017E000DB02DC01ED91FC910190F081E02D62E9DA
:1017F000199581E00E942A058091D90290911503E4
:101800009111FCCF91E090931503909314032FEF67
:101810002093130310921203109211039093F0027D
:101820009091F002880F892B8093F0028091EF0253
:10183000813061F41092EF028091F0028093BB003E
:101840008091BC0083FDF8CF85EC01C085EE8093CC
:10185000BC00809115038130E1F380911203811166
:1018600003C09091120301C091E0A1EFB2E0E0E962
:10187000F2E080E0891721F02D9121938F5FFACF5C
:101880001092B5028093B4028091DA029091DB024B
:10189000DC01ED91FC910084F185E02D1995892BF7
:1018A00061F08091DA029091DB02DC01ED91FC9114
:1018B0000284F385E02D19958983B981BB3A09F03B
:1018C000CEC06CEF81E80E94B8056091E5026C7FA4
:1018D00061606093E502862F82958F70982F9370D8
:1018E00020E4929FC00111246C70682B61608FE826
:1018F0000E94B8056091ED026E7F6093ED026695DF
:10190000637070E0660F771F8BEA0E94B8058091C4
:10191000E1028F7B8093E1020E94C805682F80E876
:101920000E94B8051092DC021092DD021092DE02D5
:101930001092DF021092E0028091E1028B7F80938F
:10194000E1020E94C805682F80E80E94B8058091D6
:10195000E1028D7F8093E1020E94C805682F80E834
:101960000E94B8058091E1028F7E8093E1020E947F
:10197000C805682F80E80E94B8058091E1028F7D3C
:101980008093E1020E94C805682F80E80E94B80594
:1019900040E060E070E087EE0E9486058091E10201
:1019A0008E7F8093E1020E94C805682F80E80E9424
:1019B000B8056AE070E080E090E00E94A5068091A2
:1019C000E10281608093E1020E94C805682F80E8EF
:1019D0000E94B8056AE070E080E090E00E94A506F1
:1019E0008091EC028C7F8093EC0260E08AEA0E9496
:1019F000B8056091E9026F7360646093E9026F73E8
:101A0000606482EA0E94B8056091EA026F796064BE
:101A10006093EA026F71606483EA0E94B80562E332
:101A200080EA0E94B8051092DC021092DD0210924A
:101A3000DE021092DF021092E00289EC8093EB024A
:101A400069EC86EA0E94B8058091E1028460809387
:101A5000E1020E94C805682F80E80E94B8058091C5
:101A6000E10280648093E1020E94C805682F80E84B
:101A70000E94B8051092DC021092DD021092DE0284
:101A80001092DF021092E00260E087E30E944A06B3
:101A900060E088E30E944A0660E089E30E944A060B
:101AA00060E08AE30E944A0660E086E30E944A06FC
:101AB0000E9496018091E90387FD08C061E00E94C1
:101AC0004A0660E08091E9030E94CC0581E08093A2
:101AD000E4038091EB039091EC03892B11F00E94B9
:101AE00071040FEF10E087E30E9486067C0180916D
:101AF000060290910702E816F90609F4F9C035E0EC
:101B00003E9DB0013F9D700D1124072E000C880BE7
:101B1000990B0E94C11220E030EC4FE754E40E9480
:101B2000A8140E946E0A6093C8027093C902809341
:101B3000CA029093CB02F0920702E0920602E09074
:101B4000C602F090C702F0920502E092040288E318
:101B50000E9486069093C7028093C602E816F90693
:101B600009F4C6C045E0489FB001499F700D11249B
:101B7000072E000C880B990B0E94C11220E030EC5C
:101B80004FE754E40E94A8140E946E0A6093C202B8
:101B90007093C3028093C4029093C502E090C00288
:101BA000F090C102F0920302E092020289E30E94E7
:101BB00086069093C1028093C002E816F90609F4E4
:101BC00097C055E0589FB001599F700D1124072E02
:101BD000000C880B990B0E94C11220E030EC4FE7FB
:101BE00054E40E94A8140E946E0A6093BC02709391
:101BF000BD028093BE029093BF02E090BA02F090C3
:101C0000BB02F0920102E09200028AE30E94860683
:101C10009093BB028093BA02E816F90609F468C0F3
:101C2000A5E0A89FB001A99F700D1124072E000CFC
:101C3000880B990B0E94C11220E030EC4FE754E46E
:101C40000E94A8140E946E0A6093B6027093B702B5
:101C50008093B8029093B9024091FC035091FD0328
:101C60006091F8037091F9038AE393E00E94DF0624
:101C700086E392E00E94BE016091C8027091C902A1
:101C80008091CA029091CB0242E00E94D00186E38B
:101C900092E00E94BE016091C2027091C3028091E5
:101CA000C4029091C50242E00E94D00186E392E016
:101CB0000E94BE016091BC027091BD028091BE0283
:101CC0009091BF0242E00E94D00186E392E00E9420
:101CD000BE016091B6027091B7028091B8029091F6
:101CE000B90242E00E94D00188E392E00E94BE0166
:101CF00062E370E080E090E00E94A5068BE30E9422
:101D0000860689838093D802BC017727072E000CB2
:101D1000880B990B0E94C1126B017C012091D402A7
:101D20003091D5024091D6025091D7020E943C14C6
:101D300020E030E040E05FE30E9420132B013C01F3
:101D40006093D4027093D5028093D6029093D70209
:101D500020E030E040E05FE30E9420139B01AC01F3
:101D6000C701B6010E94BA1287FD03C0B981BF3016
:101D700010F41092D8022091D8022983C22ED12CBF
:101D8000B6010D2C000C880B990B0E94C1124B015F
:101D90005C01209108023091090240910A025091A1
:101DA0000B020E94B11518167CF43981632F70E084
:101DB00080E090E00E94BF126093080270930902D5
:101DC00080930A0290930B028091D2029091D302E9
:101DD0008A3F45E0940710F16AEF75E00E94DE1338
:101DE0009093D3028093D20220910802309109028D
:101DF00040910A0250910B02C501B4010E943C14AB
:101E000020E030E040E05FE30E942013609308028E
:101E10007093090280930A0290930B02E090D10222
:101E2000F12CB6016E197F09072E000C880B990B57
:101E30000E94C1124B015C01B701FF0C880B990B8A
:101E40000E94C1129B01AC01C301B2010E943B146C
:101E50006B017C019B01AC01C501B4010E94B1156D
:101E600018161CF520E030E0A901C701B6010E9458
:101E7000B1151816D4F42091CD023091CE024091C4
:101E8000CF025091D002C501B4010E943C1420E061
:101E900030E040E05FE30E9420136093CD02709336
:101EA000CE028093CF029093D00251E059832091CB
:101EB000CD023091CE024091CF025091D002C501A7
:101EC000B4010E94B11518160CF019828981809313
:101ED000CC02E12CF12C6090E5037090E603E6144F
:101EE000F70408F047C0C7010E945D032B013C01C5
:101EF000672B682B692BD1F1662D70E080E090E0B4
:101F00000E94C11220E030E040E45FE30E94201311
:101F10000E945B15862E912CA12CB12C5401992482
:101F20008824652D70E080E090E00E94C11220E0DE
:101F300030E040E45FE30E9420130E945B15962A84
:101F4000642D70E080E090E00E94C11220E030E05B
:101F500040E45FE30E9420130E945B15D501C40199
:101F6000862BAC01BD01C7010E94F1029FEFE91A67
:101F7000F90AB1CF8091CC02882351F08091D2022E
:101F80009091D302805C9F4F9093D3028093D202B2
:101F9000A091D802AD8BAA2309F497C18091D202F7
:101FA0009091D3028A3FB5E09B0728F06AEF75E075
:101FB0000E94DE13F7CF8B3F24E0920740F0B80178
:101FC0000E94DE13809590E0A0E0B0E046C08C3F18
:101FD00033E0930748F0B8010E94DE13A0E0B0E0C0
:101FE000DC01992788270FC08D3F42E0940780F0DD
:101FF000B8010E94DE13809590E0A0E0B0E0BA2F17
:10200000A92F982F88276C017D01CC24CA9429C060
:102010008E3F51E0950740F0B8010E94DE139F6F9C
:102020006C01E12CF12C1DC08F3F910581F078F0FF
:10203000B8010E94DE13809590E0A0E0B0E0DC01E2
:10204000992788276C017D01DD24DA940AC0A0E07D
:10205000B0E0BA2FA92F982F88276C017D01EE24BC
:10206000EA94AD896A2F70E080E090E00E94C1128E
:10207000209108023091090240910A0250910B020E
:102080000E94A81469837A838B839C8320E030E0CC
:1020900040E252E40E9420134B015C019B01AC0121
:1020A00060E070E080E292E40E943B140E945415CC
:1020B0006D837E838F8398872D813E813A87298720
:1020C000B3016170772780E090E00E94BF122B017E
:1020D0003C0120E030E040E252E4C501B4010E943E
:1020E0003C149B01AC01C301B2010E943C140E944C
:1020F00054157C876B876D807E80CB01861997098C
:102100009C01990F440B550B2D833E834F835887B9
:10211000C701FF0CAA0BBB0B8D879E87AF87B88BBF
:102120002D2D30E040E050E0298B3A8B4B8B5C8BBF
:102130002C2C312C412C512C4B855C85641675065A
:102140000CF078C06D817E818F8198850E94C112CC
:1021500020E030E040E05FE30E9420134B015C018F
:10216000B30189859A85681B790B072E000C880BB3
:10217000990B0E94C112A50194010E943B146B01AE
:102180007C0120E030E0A9010E94B115181624F06E
:10219000F7FAF094F7F8F0948091E5039091E60354
:1021A0006816790608F042C0A7019601C501B4017E
:1021B0000E943B14A50194010E94A8149B01AC014C
:1021C0000E9420134B015C016D857E858F85988967
:1021D0000E94C112A50194010E9420130E945B1568
:1021E000C62ED12CE12CF12C7601DD24CC2469897A
:1021F0007A898B899C890E94C112A50194010E9451
:1022000020130E945B15D62AC201B1010E94C1129F
:10221000A50194010E9420130E945B15D701C601FD
:10222000862BAC01BD01C3010E94F1029FEF691A28
:10223000790A82CF29813A814B815C81CA01B90137
:102240000E94201320E030E04FE753E40E94201367
:102250000E945B15FF24F394F60E2091EA03F21618
:10226000A1F1C090EB03D090EC032150B9F06F3F87
:1022700059F430E040E050E06FEF7FEF80E090E015
:102280000E941414B9010CC08F2D90E0982F88275C
:102290000197622F70E00E94DE1302C060E070E0E0
:1022A000F6014091E7035091E803CF018C199D0995
:1022B0008417950740F44081469FC001479F900DC9
:1022C00011249193EECFF092EA038091EB03909169
:1022D000EC03892B11F00E9471048091D20290913D
:1022E000D30201969093D3028093D202AD89A0933A
:1022F000D1026EE170E080E090E00E94A50662E30A
:1023000070E080E090E00E94A5060E94E107EBCB20
:1023100010923D0310923C0388EE93E0A0E0B0E001
:1023200080933E0390933F03A0934003B0934103F7
:1023300026E132E030933B0320933A0325EC30E072
:10234000309347032093460324EC30E03093490355
:102350002093480320EC30E030934B0320934A0352
:1023600021EC30E030934D0320934C0322EC30E01D
:1023700030934F0320934E0326EC30E0309351030B
:10238000209350031092530310925403109255035C
:10239000109256031092DA031092D9038093DB0354
:1023A0009093DC03A093DD03B093DE0388E292E018
:1023B0009093D8038093D7036BE372E084E094E0BA
:1023C0000E944B126FE472E08EEF93E00E944B127A
:1023D00068E672E088EF93E00E944B121092E403EB
:1023E0001092EA031092F1031092F2031092F30399
:1023F0001092F40381E08093F0038093ED03109238
:10240000EE0392E09093EF038093E30380EF90E07C
:102410009093E8038093E7030E943F169093EC03A8
:102420008093EB03009761F020EFFC0111922A9555
:10243000E9F780E590E09093E6038093E50308C018
:102440001092E8031092E7031092E6031092E5035E
:1024500086E08093E9038091E403882341F061E002
:1024600086E00E944A0660E086E00E94CC05E2E831
:10247000F2E0E491F0E0EE0FFF1FEE59FD4F859181
:1024800094919093F6038093F503E2E2F2E0E491F5
:10249000E093F7030895EF92FF920F931F93CF936A
:1024A000DF93EC01198218821B821A821D821C8222
:1024B00061157105B9F17B01FB0101900020E9F77D
:1024C00031978F01061B170BB8016F5F7F4F80E0BC
:1024D00090E00E946017009759F0998388831B83CE
:1024E0000A832C813D81232B81F4FC0110820DC0D5
:1024F00088819981009711F00E94D716198218825D
:102500001D821C821B821A820DC01D830C83B701A1
:1025100088819981DF91CF911F910F91FF90EF906A
:102520000C945318DF91CF911F910F91FF90EF9072
:1025300008958091EB039091EC03009711F00E94B5
:10254000D7168091E90387FD03C060E00E944A0628
:102550008091F8039091F9030E94D7168091FE03B1
:102560009091FF030E94D716809104049091050476
:102570000C94D7160E94FC1208F481E00895E894A8
:1025800009C097FB3EF490958095709561957F4FBB
:102590008F4F9F4F9923A9F0F92F96E9BB27939569
:1025A000F695879577956795B795F111F8CFFAF479
:1025B000BB0F11F460FF1BC06F5F7F4F8F4F9F4FAA
:1025C00016C0882311F096E911C0772321F09EE808
:1025D000872F762F05C0662371F096E8862F70E06E
:1025E00060E02AF09A95660F771F881FDAF7880F48
:1025F0009695879597F90895990F0008550FAA0B9E
:10260000E0E8FEEF16161706E807F907C0F0121605
:102610001306E407F50798F0621B730B840B950B08
:1026200039F40A2661F0232B242B252B21F408955D
:102630000A2609F4A140A6958FEF811D811D0895FA
:102640000E9433130C94A4130E94961338F00E9436
:102650009D1320F0952311F00C948D130C9493137B
:1026600011240C94D8130E94B51370F3959FC1F3F5
:10267000950F50E0551F629FF001729FBB27F00D30
:10268000B11D639FAA27F00DB11DAA1F649F662785
:10269000B00DA11D661F829F2227B00DA11D621FD4
:1026A000739FB00DA11D621F839FA00D611D221F8E
:1026B000749F3327A00D611D231F849F600D211D72
:1026C000822F762F6A2F11249F5750409AF0F1F0F5
:1026D00088234AF0EE0FFF1FBB1F661F771F881F5E
:1026E00091505040A9F79E3F510580F00C948D13F6
:1026F0000C94D8135F3FE4F3983ED4F38695779516
:102700006795B795F795E7959F5FC1F7FE2B880F03
:10271000911D9695879597F9089597F99F6780E899
:1027200070E060E008959FEF80EC089500240A9423
:102730001616170618060906089500240A9412169C
:102740001306140605060895092E0394000C11F4CF
:10275000882352F0BB0F40F4BF2B11F460FF04C07C
:102760006F5F7F4F8F4F9F4F089557FD9058440FD5
:10277000551F59F05F3F71F04795880F97FB991FE0
:1027800061F09F3F79F0879508951216130614069D
:10279000551FF2CF4695F1DF08C01616170618062A
:1027A000991FF1CF86957105610508940895E89405
:1027B000BB2766277727CB0197F90895AA1BBB1B78
:1027C00051E107C0AA1FBB1FA617B70710F0A61B31
:1027D000B70B881F991F5A95A9F780959095BC0152
:1027E000CD010895A1E21A2EAA1BBB1BFD010DC04D
:1027F000AA1FBB1FEE1FFF1FA217B307E407F507B1
:1028000020F0A21BB30BE40BF50B661F771F881F8C
:10281000991F1A9469F760957095809590959B0122
:10282000AC01BD01CF010895052E97FB1EF4009465
:102830000E942B1457FD07D00E94F21307FC03D00F
:102840004EF40C942B1450954095309521953F4FA4
:102850004F4F5F4F089590958095709561957F4F8C
:102860008F4F9F4F0895EE0FFF1F881F8BBF07905C
:10287000F691E02D19945058BB27AA270E945314B3
:102880000C94A4130E94961338F00E949D1320F01C
:1028900039F49F3F19F426F40C9493130EF4E09549
:1028A000E7FB0C948D13E92F0E94B51358F3BA1768
:1028B000620773078407950720F079F4A6F50C9456
:1028C000D7130EF4E0950B2EBA2FA02D0B01B901F2
:1028D00090010C01CA01A0011124FF27591B99F096
:1028E000593F50F4503E68F11A16F040A22F232FA2
:1028F000342F4427585FF3CF469537952795A795F2
:10290000F0405395C9F77EF41F16BA0B620B730B98
:10291000840BBAF09150A1F0FF0FBB1F661F771F09
:10292000881FC2F70EC0BA0F621F731F841F48F4BE
:10293000879577956795B795F7959E3F08F0B0CF47
:102940009395880F08F09927EE0F9795879508952E
:102950000E94BC140C94A4130E949D1358F00E9472
:10296000961340F029F45F3F29F00C948D13511118
:102970000C94D8130C9493130E94B51368F3992305
:10298000B1F3552391F3951B550BBB27AA2762176B
:102990007307840738F09F5F5F4F220F331F441F78
:1029A000AA1FA9F335D00E2E3AF0E0E832D09150AC
:1029B0005040E695001CCAF72BD0FE2F29D0660F99
:1029C000771F881FBB1F261737074807AB07B0E8DC
:1029D00009F0BB0B802DBF01FF2793585F4F3AF0E2
:1029E0009E3F510578F00C948D130C94D8135F3FE3
:1029F000E4F3983ED4F3869577956795B795F79568
:102A00009F5FC9F7880F911D9695879597F908954F
:102A1000E1E0660F771F881FBB1F621773078407EB
:102A2000BA0720F0621B730B840BBA0BEE1F88F7FA
:102A3000E095089529F416F00C948D130C94D71397
:102A40000C9493130E94BD13A8F39638A0F707F8CF
:102A50000F92E8942BE33AEA48EB5FE70E943613C3
:102A60000F920F920F924DB75EB70F920E94F8151A
:102A7000E8E0F1E00E948A154F915F91EF91FF919C
:102A8000E595EE1FFF1F49F0FE57E0684427EE0F63
:102A9000441FFA95E1F74195550B0E94C2150F901E
:102AA00007FE0C94B61508950E945B156894B11149
:102AB0000C94D81308950E94BD1388F09F5798F086
:102AC000B92F9927B751B0F0E1F0660F771F881F33
:102AD000991F1AF0BA95C9F714C0B13091F00E944D
:102AE000D713B1E008950C94D713672F782F882758
:102AF000B85F39F0B93FCCF3869577956795B39574
:102B0000D9F73EF490958095709561957F4F8F4FE2
:102B10009F4F0895DF93CF931F930F93FF92EF92F0
:102B2000DF927B018C01689406C0DA2EEF010E94CF
:102B30003313FE01E894A591259135914591559166
:102B4000A6F3EF010E945314FE019701A801DA9445
:102B500069F7DF90EF90FF900F911F91CF91DF9178
:102B600008950E94FC1208F48FEF08959B01AC01B8
:102B700060E070E080E89FE30C94A8140C948D133F
:102B80000C9431160E94BD13D8F39923C9F3940F06
:102B9000511DA3F39150504094F059F0882332F026
:102BA000660F771F881F91505040C1F79E3F510517
:102BB0002CF7880F911D9695879597F908955F3F9B
:102BC000ACF0983E9CF0BB27869577956795B795B6
:102BD00008F4B1609395C1F7BB0F58F711F460FF8B
:102BE000E8CF6F5F7F4F8F4F9F4FE3CF0C94D81389
:102BF000FA01DC01AA0FBB1F9B01AC01BF5728F4EF
:102C0000222733274427507820C0B75190F4AB2FA8
:102C10000024469537952795011CA395D2F30020F3
:102C200071F0220F331F441FB395DAF30ED00C94CA
:102C30003B1461307105A0E88A07B94630F49B0166
:102C4000AC016627772788279078309621F020837B
:102C500031834283538308950E94FC12880B990BA1
:102C600008959F3F31F0915020F4879577956795AF
:102C7000B795880F911D9695879597F908950F93AD
:102C80001F93CF93DF938230910510F482E090E0A0
:102C9000E0915804F091590420E030E0A0E0B0E069
:102CA000309719F1408151810281138148175907EA
:102CB000C8F08417950769F4109731F012960C93B9
:102CC000129713961C9327C000935804109359042D
:102CD00022C02115310519F04217530718F49A0143
:102CE000BD01EF01DF01F801DBCF21153105F9F05E
:102CF000281B390B2430310580F48A819B816115B2
:102D0000710521F0FB019383828304C090935904E1
:102D100080935804FE01329644C0FE01E20FF31F77
:102D20008193919322503109398328833AC02091AD
:102D3000560430915704232B41F420910E02309118
:102D40000F02309357042093560420910C023091C7
:102D50000D022115310541F42DB73EB74091100207
:102D600050911102241B350BE0915604F091570449
:102D7000E217F307A0F42E1B3F0B2817390778F052
:102D8000AC014E5F5F4F2417350748F04E0F5F1FB1
:102D900050935704409356048193919302C0E0E00E
:102DA000F0E0CF01DF91CF911F910F910895CF9364
:102DB000DF93009709F481C0FC01329713821282DD
:102DC000A0915804B0915904109781F42081318169
:102DD000820F931F2091560430915704281739070A
:102DE00051F5F0935704E093560467C0ED0120E0DD
:102DF00030E0CE17DF0740F44A815B819E01411528
:102E00005105F1F0EA01F5CFD383C28340815181AE
:102E1000840F951FC817D90759F488819981840FA9
:102E2000951F0296918380838A819B8193838283FD
:102E30002115310529F4F0935904E09358043DC05D
:102E4000E901FB83EA8349915991C40FD51FEC171F
:102E5000FD0761F480819181840F951F0296E9013D
:102E600099838883828193819B838A83E0E0F0E069
:102E700012968D919C911397009719F0FD01DC013A
:102E8000F7CF8D919C9111979D012E5F3F4F820F3F
:102E9000931F20915604309157042817390769F47D
:102EA000309729F4109259041092580402C01382EA
:102EB0001282B0935704A0935604DF91CF910895E6
:102EC0006F927F928F929F92AF92BF92CF92DF923A
:102ED000EF92FF920F931F93CF93DF93009789F4A4
:102EE000CB01DF91CF911F910F91FF90EF90DF9079
:102EF000CF90BF90AF909F908F907F906F900C94E9
:102F00003F16FC01E60FF71F9C0122503109E21722
:102F1000F30708F4A9C0EC01D9010D911C91119798
:102F200006171707B0F00530110508F49BC0C8015B
:102F300004978617970708F495C002501109061BDD
:102F4000170B019311936D937C93CF010E94D716B9
:102F500089C05B01A01AB10A4C01800E911EA0919C
:102F60005804B0915904612C712CE12CF12C10976C
:102F700009F446C08D919C911197A815B905B1F53A
:102F80006C0142E0C40ED11CCA14DB0478F14C0180
:102F90008A189B08640142E0C40ED11C1296BC90B2
:102FA00012971396AC91B5E0CB16D10440F0B282E3
:102FB000A38391828082D9016D937C9309C00E5FB7
:102FC0001F4F800F911FF90191838083EB2DFA2F02
:102FD000E114F10431F0D7011396FC93EE931297AC
:102FE00041C0F0935904E09358043CC06816790638
:102FF00008F43C017D0112960D90BC91A02DB7CF35
:10300000809156049091570488169906E1F466164B
:103010007706C8F480910C0290910D02009741F45C
:103020008DB79EB74091100250911102841B950BF1
:10303000E817F907C8F4F0935704E0935604F90130
:10304000718360830FC0CB010E943F167C01009703
:1030500059F0A801BE010E944A18CE010E94D7165D
:10306000C70104C0CE0102C080E090E0DF91CF91A3
:103070001F910F91FF90EF90DF90CF90BF90AF9096
:103080009F908F907F906F90089581E090E0F894EA
:103090000C945A18FB01DC0102C001900D924150C2
:1030A0005040D8F70895FB01DC0101900D920020FB
:1030B000E1F7089511E0C2E6D1E000E006C0802FFC
:1030C000FE010E9433142196011DC336D10780E012
:0830D0000807A9F7F894FFCFEF
:1030D800F0D8F0D8F0D8F0D80000704100005A04B9
:1030E8008000000000007207DF060907BF073A07E3
:1030F80018072C0700000000A7087A08D7084E0810
:1031080072085E084F082C000D0A00646973746128
:103118006E636567726F7570342D353531380067A9
:1031280065737475726573656E736F7267726F75A8
:1031380070342D6363313200707265737375726514
:1031480073656E736F727367726F7570342D613546
:103158006530006E616E00696E66006F766600000D
:00000001FF
