:100000000C944F010C9480010C9480010C9480019D
:100010000C9480010C9480010C9480010C9480015C
:100020000C9480010C9480010C9480010C9480014C
:100030000C9480010C9480010C9480010C9480013C
:100040000C9480010C9480010C9480010C9480012C
:100050000C9480010C9480010C9480010C94A403F6
:100060000C9480010C9418040C94EE030C94800101
:100070000C9480010C9480010C9480010C948001FC
:100080000C9480010C9480010C9480010C948001EC
:100090000C9480010C9480010C9480010C944E040B
:1000A0000C9480010C9480010C9480010C948001CC
:1000B0000C9480010C9480010C9480010C948001BC
:1000C0000C9480010C9480010C9480010C948001AC
:1000D0000C9480010C9480010C9480010C9480019C
:1000E0000C94800179077C076B076F077307B307D0
:1000F000800784078A078E07920798079C07A00746
:10010000B307A607AA07AE070C947E0C0C94F10265
:100110000C9484010C947C070C94AA070C9415038E
:100120000C94AE070C9401030C945D0C0C948407A2
:100130000C941D030C9482010C9492070C946B0791
:100140000C9479070C94AE010C94DF010C947307A6
:100150000C948A070C949C070C94D1010C946402B3
:100160000C94F2020C94BD010C947A030C948E074B
:100170000C9480070C94A0070C94A6070C9417020B
:100180000C944A030C9483010C94B3070C946F07EE
:100190000C94980700002100240027002A002D005D
:1001A0003000330001010000040107010A010000D2
:1001B0000A0B02090C0D0E080703040100000000E1
:1001C000000000000000000000000000000000002F
:1001D00000000000000000000000121110000000EC
:1001E000000000000000000000000000000000000F
:1001F00000000000010210202008081020401020FC
:1002000040800201020108040201010204081020DA
:1002100040808040201008040201800402018040D8
:100220002010080402010804020101020408102041
:1002300040800102040810204080000022002500B8
:1002400028002B002E0031003400020100000501BF
:1002500008010B0105050505070508080808020245
:1002600002020A0A08080404040401010101010150
:1002700001010303030303030303040707070C0C33
:100280000C0C0C0C0C0C02020202060606060606FA
:1002900006060B0B0B0B0B0B0B0B7E0C5D0C1124D2
:1002A0001FBECFEFD1E2DEBFCDBF00E00CBF24E028
:1002B000AEE6B2E001C01D92A631B207E1F712E04E
:1002C000A0E0B2E0ECEEFEE100E00BBF02C0079060
:1002D0000D92AE36B107D9F711E0CEE4D1E000E0DF
:1002E00006C021970109802FFE010E94410DCD34E7
:1002F000D10780E00807A9F70E9420090C94640F39
:100300000C94000008950895CF92DF92EF92FF922F
:100310000F931F93CF93DF936C017A018B01C0E0A1
:10032000D0E0CE15DF0581F0D8016D918D01D601A9
:10033000ED91FC910190F081E02DC6011995892B7A
:1003400011F02196EECF7E01C701DF91CF911F9171
:100350000F91FF90EF90DF90CF900895FC01538DA7
:10036000448D252F30E0842F90E0821B930B54178F
:1003700010F0CF96089501970895FC01918D828D1C
:10038000981761F0828DDF01A80FB11D5D968C91E9
:10039000928D9F5F9F73928F90E008958FEF9FEFF4
:1003A0000895FC01918D828D981731F0828DE80FB0
:1003B000F11D858D90E008958FEF9FEF0895FC016A
:1003C000918D228D892F90E0805C9F4F821B910937
:1003D0008F739927089581E493E00E94DF0121E063
:1003E000892B09F420E0822F0895FC01848DDF0120
:1003F000A80FB11DA35ABF4F2C91848D90E0019698
:100400008F739927848FA689B7892C93A089B18986
:100410008C91837080648C93938D848D981306C027
:100420000288F389E02D80818F7D80830895EF928B
:10043000FF920F931F93CF93DF93EC0181E0888F9E
:100440009B8D8C8D981305C0E889F989808185FD85
:1004500026C0F62E0B8D10E00F5F1F4F0F73112774
:10046000E02E8C8DE8120CC00FB607FCFACFE8899D
:10047000F989808185FFF5CFCE010E94F501F1CF8A
:100480008B8DFE01E80FF11DE35AFF4FF0829FB7FD
:10049000F8940B8FEA89FB89808180620AC09FB73C
:1004A000F894EE89FF896083E889F98980818370F7
:1004B000806480839FBF81E090E0DF91CF911F91A6
:1004C0000F91FF90EF900895CF93DF93EC01888D0B
:1004D0008823C9F0EA89FB89808185FD05C0A88948
:1004E000B9898C9186FD0FC00FB607FCF5CF8081CE
:1004F00085FFF2CFA889B9898C9185FFEDCFCE0118
:100500000E94F501E7CFDF91CF91089580E090E060
:10051000892B21F00E94EB01811125C080E090E041
:10052000892B41F080E090E0892B21F00E940000AF
:1005300081111CC080E090E0892B41F080E090E0C8
:10054000892B21F00E940000811113C080E090E00F
:10055000892BA1F080E090E0892B81F00E940000BF
:1005600081110AC008950E940000D8CF0E940000A7
:10057000E1CF0E940000EACF0C940000089585EDC1
:100580008093BC008091BC0084FDFCCF10921D03C1
:10059000089540918E02262F30E0240F311D213224
:1005A0003105DCF420911D032430C9F4FC0180E006
:1005B00090E0861758F430918E022191DC01A25907
:1005C000BD4FA30FB11D2C930196F3CF80918E02E6
:1005D000680F60938E0280E0089581E0089582E0C4
:1005E00008950895E091C0028091BF02E81730F4A9
:1005F000F0E0EF53FD4F808190E008958FEF9FEF83
:1006000008959091C0028091BF02981750F4E92F8D
:10061000F0E0EF53FD4F208130E09F5F9093C002E8
:1006200002C02FEF3FEFC90108958091BF0290E013
:100630002091C002821B91090895CF92DF92EF9220
:10064000FF920F931F93CF93DF937C01CB018A011D
:1006500020911E03222389F0EB016B01C40ED51EED
:10066000CC15DD0569F06991D701ED91FC91019000
:10067000F081E02DC7011995F3CF642F0E94C902C4
:10068000C801DF91CF911F910F91FF90EF90DF9004
:10069000CF900895CF93DF931F92CDB7DEB76983D4
:1006A00020911E032223D1F020914003203240F0FC
:1006B00021E030E0FC013383228380E090E015C02C
:1006C00080911F03E82FF0E0E05EFC4F998190835A
:1006D0008F5F80931F038093400305C061E0CE01CC
:1006E00001960E94C90281E090E00F90DF91CF91C6
:1006F0000895089580E090E008950E944F0F3FB75D
:10070000F8948091B7029091B802A091B902B0918B
:10071000BA0226B5A89B05C02F3F19F00196A11D6E
:10072000B11D3FBFBA2FA92F982F8827820F911D87
:10073000A11DB11DBC01CD0142E0660F771F881FCE
:10074000991F4A95D1F708951F920F920FB60F92F5
:1007500011242F933F938F939F93AF93BF938091D7
:10076000BB029091BC02A091BD02B091BE0230913B
:10077000B60223E0230F2D3720F40196A11DB11DF1
:1007800005C026E8230F0296A11DB11D2093B602D5
:100790008093BB029093BC02A093BD02B093BE02B3
:1007A0008091B7029091B802A091B902B091BA02BB
:1007B0000196A11DB11D8093B7029093B802A0933A
:1007C000B902B093BA02BF91AF919F918F913F91BF
:1007D0002F910F900FBE0F901F9018951F920F92A0
:1007E0000FB60F9211240BB60F922F933F934F9396
:1007F0005F936F937F938F939F93AF93BF93EF9389
:10080000FF9381E493E00E94F501FF91EF91BF9186
:10081000AF919F918F917F916F915F914F913F9198
:100820002F910F900BBE0F900FBE0F901F90189539
:100830001F920F920FB60F9211240BB60F922F93A7
:100840008F939F93EF93FF93E0915103F0915203A5
:100850008081E0915703F091580382FD12C090818E
:1008600080915A038F5F8F7320915B03821751F041
:10087000E0915A03F0E0EF5BFC4F958F80935A03B1
:1008800001C08081FF91EF919F918F912F910F90E7
:100890000BBE0F900FBE0F901F9018951F920F92D6
:1008A0000FB60F9211240BB60F922F933F934F93D5
:1008B0005F936F937F938F939F93AF93BF93EF93C8
:1008C000FF938091B900887F803609F49CC068F559
:1008D000883209F45BC090F4803109F454C038F4D4
:1008E000882309F4F6C0883009F44DC0F6C0883179
:1008F00009F44CC0803209F45DC0EFC0803409F4C3
:1009000068C048F4803309F455C0883309F0E5C065
:1009100080931B03D8C0803509F44FC0883509F493
:100920005DC0883409F0D9C0D6C0883909F4C7C081
:10093000A8F4883709F467C038F4883609F463C02E
:10094000803709F460C0C9C0883809F4B8C080395C
:1009500009F45FC0803809F0C0C05BC0803B09F477
:1009600086C038F4803A09F466C0883A09F47FC03A
:10097000B4C0803C09F4A7C0883C09F4A4C0883BFB
:1009800009F48AC0AAC08091F80210C090911A039D
:1009900080911903981770F5E0911A0381E08E0F8A
:1009A00080931A03F0E0E750FD4F80818093BB00F5
:1009B00085EC86C080931B038EC0E0911A0381E012
:1009C0008E0F80931A038091BB00F0E0E750FD4F3B
:1009D000808390911A03809119036EC0E0911A03ED
:1009E00081E08E0F80931A038091BB00F0E0E75006
:1009F000FD4F808380911C0381116DC081E0809345
:100A0000F70284EA61C083E080931D031092B00274
:100A1000CFCF8091B002803208F051C0E091B00297
:100A200081E08E0F8093B0028091BB00F0E0E05730
:100A3000FD4F8083BDCF85EC8093BC0010921D03D9
:100A40008091B002803230F4E091B002F0E0E057E3
:100A5000FD4F10826091B00270E0E091B102F09120
:100A6000B20280E992E019951092B00236C084E09B
:100A700080931D0310928F0210928E02E091B302B8
:100A8000F091B402199580918E02811105C081E028
:100A900080938E0210926E02E0918F0281E08E0FA1
:100AA00080938F02F0E0E259FD4F80818093BB007C
:100AB00090918F0280918E02981708F479CF85E883
:100AC0008093BC000AC085EC8093BC0010921D038B
:100AD00004C010921B030E94BF02FF91EF91BF91CF
:100AE000AF919F918F917F916F915F914F913F91C6
:100AF0002F910F900BBE0F900FBE0F901F90189567
:100B0000282F30914003313208F04AC080911D03F4
:100B10008111FCCF9091110442E040931D0320937A
:100B20001C032FEF20931B0310921A033093190319
:100B3000E0E2F3E0A9EFB2E020E0321721F04191CA
:100B40004D932F5FFACF1092F8022091F802990F7F
:100B5000922B9093F8029091F702913061F41092E9
:100B6000F7029091F8029093BB009091BC0093FD26
:100B7000F8CF95EC01C095EE9093BC0090911D03C9
:100B80009230E1F390911B039F3F79F080911B031A
:100B9000803241F080911B03803331F084E005C046
:100BA00081E003C082E001C083E010921F03109235
:100BB000400310921E030895E1E4F3E0A089B18997
:100BC00082E08C93A485B5851C92A685B7858FECB1
:100BD0008C93108EA489B58986E08C93A289B38901
:100BE0008C9180618C93A289B3898C9188608C935D
:100BF000A289B3898C9180688C930288F389E02D57
:100C000080818F7D80830895009769F0FC010190B9
:100C10000020E9F73197AF01481B590BBC0181E473
:100C200093E00C94840180E090E008958BE692E0DC
:100C30000C940406CF93DF930E940406EC010E94FB
:100C400016068C0F9D1FDF91CF910895E5E0F4E02B
:100C5000448155816081718181E493E00C94840129
:100C60002F923F924F925F926F927F928F929F92BC
:100C7000AF92BF92CF92DF92EF92FF920F931F93AA
:100C8000CF93DF93582E5B01642E712CC0E0D1E02E
:100C9000842E912C44244A9485EE382E95EC292EEE
:100CA000C61508F09DC071109BC08091E102D093E1
:100CB0001E038093110410921F0310924003809131
:100CC000E2029091E302DC01ED91FC910190F08150
:100CD000E02D6C2F650D199581E00E9480058091B3
:100CE0001D038111FCCF84010C1B11090132110578
:100CF00014F000E210E09091E102802F013208F040
:100D000080E2D0931D03D0931C0340921B031092EA
:100D10001A032FEF280F20931903D093F802209184
:100D2000F802990F922B9093F8029091F70291306C
:100D300069F41092F7029091F8029093BB009091A1
:100D4000BC0093FDF8CF2092BC0002C03092BC00E2
:100D500090911D039130E1F390911A03981710F4CC
:100D600080911A03E9EFF2E0A1ECB2E090E098176D
:100D700021F021912D939F5FFACF1092C0029093A2
:100D8000BF02E12CF12C1127DC2EDE0CE016F1065F
:100D900014F0CD2D85CF8091E2029091E302DC0129
:100DA000ED91FC910084F185E02D1995892B19F4C2
:100DB00077247394EECFF501ED0DF11D6F01809155
:100DC000E2029091E302DC01ED91FC910284F38553
:100DD000E02D1995F6018083FFEFEF1AFF0AD4CFBB
:100DE0008C2FDF91CF911F910F91FF90EF90DF90AB
:100DF000CF90BF90AF909F908F907F906F905F90BB
:100E00004F903F902F900895EF92FF921F93CF93B2
:100E1000DF937B01142FC1EED2E0988121E0209373
:100E20001E039093110410921F0310924003A98196
:100E3000BA81ED91FC9111970190F081E02D682F1E
:100E4000CD01199589819A81412F50E0DC01ED9106
:100E5000FC910280F381E02DB701199581E0DF91CB
:100E6000CF911F91FF90EF900C948005CF93DF936B
:100E70001F92CDB7DEB7698341E0BE016F5F7F4F40
:100E80000E9404070F90DF91CF9108958091E902AD
:100E90008F770895362F90E0FC01E255FE4F449184
:100EA000FC01EC50FE4F2491FC01EC5AFD4F949153
:100EB000992309F46CC0442309F455C050E0FA01A9
:100EC0003197E231F10508F04EC08827EE58FF4F08
:100ED0008F4F0C94410D809180008F7707C08091D7
:100EE00080008F7D03C080918000877F8093800089
:100EF0003AC084B58F7702C084B58F7D84BD33C07E
:100F00008091B0008F7703C08091B0008F7D809377
:100F1000B00029C0809190008F7707C08091900029
:100F20008F7D03C080919000877F809390001BC0CD
:100F30008091A0008F7707C08091A0008F7D03C0B3
:100F40008091A000877F8093A0000DC08091200138
:100F50008F7707C0809120018F7D03C08091200191
:100F6000877F80932001E92FF0E0EE0FFF1FE65C02
:100F7000FD4FA591B4919FB7F894311104C08C91A5
:100F80002095282302C0EC912E2B2C939FBF08950F
:100F9000CF93DF9390E0FC01EC50FE4F2491FC01D5
:100FA000EC5AFD4F8491882361F190E0880F991FDE
:100FB000FC01EC56FE4FC591D491FC01E65CFD4F5F
:100FC000A591B491611109C09FB7F89488812095CB
:100FD00082238883EC912E230BC0623061F49FB78B
:100FE000F8948881322F309583238883EC912E2BBF
:100FF0002C939FBF06C08FB7F894E8812E2B2883CF
:101000008FBFDF91CF9108958F929F92AF92BF9241
:10101000CF92DF92EF92FF926B017C010E947F03DF
:101020004B015C01C114D104E104F104F1F00E9410
:101030007F03DC01CB0188199909AA09BB09883E05
:101040009340A105B10570F321E0C21AD108E1086F
:10105000F10888EE880E83E0981EA11CB11CC11413
:10106000D104E104F10419F7DDCFFF90EF90DF9098
:10107000CF90BF90AF909F908F900895CF92DF92C6
:10108000EF92FF92CF93DF93CDB7DEB7C150D1403F
:101090000FB6F894DEBF0FBECDBFC12CD12C7601A8
:1010A00041E0BE016F5F7E4F8FEA0E943006CF5F46
:1010B000DE4F2881C150D140822F90E095958795D1
:1010C0009091F60280FB91F920FB90F99093F60243
:1010D000892F817090FFA6C06EE170E080E090E003
:1010E0000E94040841E0BE016F5F7E4F8EEA0E94BD
:1010F0003006CF5FDE4F4881C150D140BE016F5FE7
:101100007F4F8CEF0E943006898190E02A81821BFC
:1011100091099C0197FF04C022273327281B390B14
:101120002E30310514F480E090E02B8130E04C81CA
:10113000241B3109A90137FF04C044275527421B4E
:10114000530B4E30510514F420E030E00097B9F015
:1011500097FF0AC08091E60281115CC08091E50290
:101160008F5F8093E50209C08091E502811154C030
:101170008091E6028F5F8093E60280E04EC02115E9
:10118000310519F180E037FF0AC09091E802911112
:101190003DC09091E7029F5F9093E70209C0909154
:1011A000E702911135C09091E8029F5F9093E802A9
:1011B0009FB7F894C090BB02D090BC02E090BD02F3
:1011C000F090BE029FBF811116C02FB7F894809196
:1011D000BB029091BC02A091BD02B091BE022FBF94
:1011E0008C199D09AE09BF098D329140A105B10549
:1011F00008F456CF80E01092E4021092E5021092BB
:10120000E6021092E7021092E8020CC083E0D0CF11
:1012100084E0CECF81E001C082E02115310509F0E4
:10122000B2CFC6CFCF5FDE4F0FB6F894DEBF0FBE92
:10123000CDBFDF91CF91FF90EF90DF90CF900895D9
:10124000CF93DF93CDB7DEB729970FB6F894DEBF03
:101250000FBECDBF789484B5826084BD84B58160B3
:1012600084BD85B5826085BD85B5816085BD809171
:101270006E00816080936E001092810080918100E9
:1012800082608093810080918100816080938100E1
:10129000809180008160809380008091B1008460A3
:1012A0008093B1008091B00081608093B000809104
:1012B0009100826080939100809191008160809381
:1012C0009100809190008160809390008091A100B6
:1012D00082608093A1008091A10081608093A10031
:1012E0008091A00081608093A000809121018260A4
:1012F000809321018091210181608093210180915F
:10130000200181608093200180917A008460809325
:101310007A0080917A00826080937A0080917A00CE
:10132000816080937A0080917A00806880937A004F
:101330001092C1000E94DC058EED93E09093E302D1
:101340008093E2021092C0021092BF0210921F031B
:101350001092400310921D0381E080931C031092B1
:10136000F70261E084E10E944A0761E085E10E94A2
:101370004A078091B9008E7F8093B9008091B900AF
:101380008D7F8093B90088E48093B80085E48093D2
:10139000BC0082E891E09093B4028093B30283E8AA
:1013A00091E09093B2028093B10289E38093E102CD
:1013B00041E0BE016F5F7F4F82E90E943006898164
:1013C0008B3A09F0CEC06CEF81E80E94360760913D
:1013D000ED026C7F61606093ED02862F82958F70C5
:1013E000982F937020E4929FC00111246C70682B99
:1013F00061608FE80E9436076091F5026E7F60930E
:10140000F5026695637070E0660F771F8BEA0E94A5
:1014100036078091E9028F7B8093E9020E9446079C
:10142000682F80E80E9436071092E4021092E502CD
:101430001092E6021092E7021092E8028091E9020F
:101440008B7F8093E9020E944607682F80E80E9404
:1014500036078091E9028D7F8093E9020E9446075A
:10146000682F80E80E9436078091E9028F7E809382
:10147000E9020E944607682F80E80E9436078091A3
:10148000E9028F7D8093E9020E944607682F80E879
:101490000E94360740E060E070E087EE0E9404079B
:1014A0008091E9028E7F8093E9020E944607682FAF
:1014B00080E80E9436076AE070E080E090E00E94D9
:1014C00004088091E90281608093E9020E94460746
:1014D000682F80E80E9436076AE070E080E090E0C4
:1014E0000E9404088091F4028C7F8093F40260E0F3
:1014F0008AEA0E9436076091F1026F73606460931C
:10150000F1026F73606482EA0E9436076091F20212
:101510006F7960646093F2026F71606483EA0E9485
:10152000360762E380EA0E9436071092E4021092C6
:10153000E5021092E6021092E7021092E80289ECAE
:101540008093F30269EC86EA0E9436078091E902F3
:1015500084608093E9020E944607682F80E80E9419
:1015600036078091E90280648093E9020E94460771
:10157000682F80E80E9436071092E4021092E5027C
:101580001092E6021092E7021092E8028091EE02B9
:101590008C7F8093EE0283FBEE24E0F8F12CB70100
:1015A0007695762F66277795679582FB002700F959
:1015B00010E026E0000F111F2A95E1F7062B602F9F
:1015C000616080E90E9436078091ED02682F6F7C90
:1015D0006093ED026C708370682B8FE80E94360771
:1015E00060E087E30E94C80760E088E30E94C807C4
:1015F00060E089E30E94C80760E08AE30E94C807B0
:1016000060E086E30E94C8070E94DC058091F00339
:1016100087FD08C061E00E94C80760E08091F00388
:101620000E944A0781E08093EB038091F20390913E
:10163000F303892B09F4A2C00E947F030091F803F1
:101640001091F9032091FA033091FB03DC01CB01E7
:10165000801B910BA20BB30B8C329140A105B105FD
:1016600058F3F8948091EE039091EF039A83898365
:10167000E091F203F091F303DF01119680818987F5
:101680009091EA03E091FC03F091FD038091FE0349
:10169000992309F42EC09081982B9887908180958A
:1016A00089238F838F818C8388E08B8358856F811A
:1016B00049853B812C8189819A81508347FD252F63
:1016C0003A952083262F39F0441F00C00000608324
:1016D000000000C0F2CF38E04D9160830000019718
:1016E00061F7F093FD03E093FC0349873B832C8370
:1016F00038C09081982B98879081809589238F831B
:101700008F818E8388E08D8358856F8149853D81E7
:101710002E8189819A81508347FD252F00C000C00A
:10172000208300C000C000C000C000C06083000073
:10173000262F3A9541F0441F000000C000C000C0B1
:1017400000C000C0E8CF38E04D9100C0608300C009
:10175000019709F7F093FD03E093FC0349873D836C
:101760002E839A83898378940E947F036093F80381
:101770007093F9038093FA039093FB0364E670E09F
:1017800080E090E00E9404080E943E088093B50229
:10179000823061F40E9416060E9426068AE292E0D8
:1017A0000E9404068CE292E00E941A068091B50223
:1017B000813061F40E9416060E9426068AE292E0B9
:1017C0000E94040684E492E00E941A068091B50209
:1017D000833061F40E9416060E9426068AE292E097
:1017E0000E9404068EE292E00E941A068091B502E1
:1017F000843061F40E9416060E9426068AE292E076
:101800000E94040680E392E00E941A0664E670E0FB
:1018100080E090E00E9404080E948602B5CFEF921B
:10182000FF920F931F93CF93DF93EC0119821882DD
:101830001B821A821D821C8261157105B9F17B0120
:10184000FB0101900020E9F731978F01061B170B70
:10185000B8016F5F7F4F80E090E00E946A0E0097B2
:1018600059F0998388831B830A832C813D81232B24
:1018700081F4FC0110820DC088819981009711F0DC
:101880000E94E10D198218821D821C821B821A821D
:101890000DC01D830C83B70188819981DF91CF91A1
:1018A0001F910F91FF90EF900C945D0FDF91CF91FE
:1018B0001F910F91FF90EF9008958091F203909106
:1018C000F303009711F00E94E10D8091F00387FD72
:1018D00003C060E00E94C8078091FF03909100045C
:1018E0000E94E10D80910504909106040E94E10D93
:1018F00080910B0490910C040C94E10D1092440320
:101900001092430388EE93E0A0E0B0E0809345039B
:1019100090934603A0934703B09348032AE032E034
:10192000309342032093410325EC30E030934E0383
:1019300020934D0324EC30E03093500320934F0369
:1019400020EC30E0309352032093510321EC30E03F
:10195000309354032093530322EC30E0309356032A
:101960002093550326EC30E030935803209357031F
:1019700010925A0310925B0310925C0310925D0365
:101980001092E1031092E0038093E2039093E3034B
:10199000A093E403B093E5038CE192E09093DF031E
:1019A0008093DE0362E372E08BE094E00E940F0C10
:1019B00066E472E085E094E00E940F0C68E572E056
:1019C0008FEF93E00E940F0C1092EB031092F10343
:1019D0001092F8031092F9031092FA031092FB038D
:1019E00081E08093F7038093F4031092F50392E073
:1019F0009093F6038093EA0380EF90E09093EF03D7
:101A00008093EE030E94490D9093F3038093F203B9
:101A1000009761F020EFFC0111922A95E9F780E52B
:101A200090E09093ED038093EC0308C01092EF03D5
:101A30001092EE031092ED031092EC0386E0809377
:101A4000F0038091EB03882341F061E086E00E947F
:101A5000C80760E086E00E944A07EAE5F2E0E49108
:101A6000F0E0EE0FFF1FE65CFD4F8591949190939F
:101A7000FD038093FC03EAEFF1E0E491E093FE03C1
:101A80000895EE0FFF1F881F8BBF0790F691E02D82
:101A900019940F931F93CF93DF938230910510F425
:101AA00082E090E0E0911404F091150420E030E031
:101AB000A0E0B0E0309719F140815181028113819B
:101AC00048175907C8F08417950769F4109731F043
:101AD00012960C93129713961C9327C0009314042C
:101AE0001093150422C02115310519F04217530730
:101AF00018F49A01BD01EF01DF01F801DBCF2115D8
:101B00003105F9F0281B390B2430310580F48A8126
:101B10009B816115710521F0FB019383828304C0D1
:101B20009093150480931404FE01329644C0FE0184
:101B3000E20FF31F81939193225031093983288357
:101B40003AC02091120430911304232B41F42091C8
:101B50000202309103023093130420931204209167
:101B60000002309101022115310541F42DB73EB735
:101B70004091040250910502241B350BE0911204A0
:101B8000F0911304E217F307A0F42E1B3F0B281764
:101B9000390778F0AC014E5F5F4F2417350748F0E6
:101BA0004E0F5F1F5093130440931204819391933F
:101BB00002C0E0E0F0E0CF01DF91CF911F910F91E3
:101BC0000895CF93DF93009709F481C0FC01329709
:101BD00013821282A0911404B0911504109781F41D
:101BE00020813181820F931F2091120430911304C0
:101BF0002817390751F5F0931304E093120467C0D6
:101C0000ED0120E030E0CE17DF0740F44A815B8130
:101C10009E0141155105F1F0EA01F5CFD383C2834E
:101C200040815181840F951FC817D90759F48881C5
:101C30009981840F951F0296918380838A819B816D
:101C4000938382832115310529F4F0931504E093E1
:101C500014043DC0E901FB83EA8349915991C40F03
:101C6000D51FEC17FD0761F480819181840F951FCA
:101C70000296E90199838883828193819B838A8379
:101C8000E0E0F0E012968D919C911397009719F087
:101C9000FD01DC01F7CF8D919C9111979D012E5F85
:101CA0003F4F820F931F2091120430911304281785
:101CB000390769F4309729F410921504109214042E
:101CC00002C013821282B0931304A0931204DF9116
:101CD000CF9108956F927F928F929F92AF92BF9211
:101CE000CF92DF92EF92FF920F931F93CF93DF93E8
:101CF000009789F4CB01DF91CF911F910F91FF9055
:101D0000EF90DF90CF90BF90AF909F908F907F909B
:101D10006F900C94490DFC01E60FF71F9C012250B7
:101D20003109E217F30708F4A9C0EC01D9010D91BC
:101D30001C91119706171707B0F00530110508F42C
:101D40009BC0C80104978617970708F495C00250F6
:101D50001109061B170B019311936D937C93CF010F
:101D60000E94E10D89C05B01A01AB10A4C01800EEE
:101D7000911EA0911404B0911504612C712CE12CDA
:101D8000F12C109709F446C08D919C911197A815DC
:101D9000B905B1F56C0142E0C40ED11CCA14DB04D4
:101DA00078F14C018A189B08640142E0C40ED11CF2
:101DB0001296BC9012971396AC91B5E0CB16D10455
:101DC00040F0B282A38391828082D9016D937C938B
:101DD00009C00E5F1F4F800F911FF901918380830F
:101DE000EB2DFA2FE114F10431F0D7011396FC9397
:101DF000EE93129741C0F0931504E09314043CC095
:101E00006816790608F43C017D0112960D90BC918C
:101E1000A02DB7CF809112049091130488169906D3
:101E2000E1F466167706C8F48091000290910102F1
:101E3000009741F48DB79EB740910402509105027E
:101E4000841B950BE817F907C8F4F0931304E0938B
:101E50001204F901718360830FC0CB010E94490D08
:101E60007C01009759F0A801BE010E94540FCE01D9
:101E70000E94E10DC70104C0CE0102C080E090E0E5
:101E8000DF91CF911F910F91FF90EF90DF90CF9056
:101E9000BF90AF909F908F907F906F90089581E05A
:101EA00090E0F8940C94640FFB01DC0102C00190F7
:101EB0000D9241505040D8F70895FB01DC0101908C
:101EC0000D920020E1F7089511E0CEE4D1E000E0AA
:101ED00006C0802FFE010E94410D2196011DCF34C6
:0C1EE000D10780E00807A9F7F894FFCFB5
:101EEC000000160480000000000017028401AE01FF
:101EFC006402DF01BD01D101000000004A031D0393
:101F0C007A03F10215030103F2022C0032003400B3
:101F1C00360064697374616E636567726F757034D3
:101F2C002D3535313800646973636F67657374756B
:101F3C0072652D3465366200646973636F70726507
:0E1F4C0073737572652D35393838000D0A0033
:00000001FF
