:100000000C94E0010C9411020C9411020C94110256
:100010000C9411020C9411020C9411020C94110214
:100020000C9411020C9411020C9411020C94110204
:100030000C9411020C9411020C9411020C941102F4
:100040000C9411020C9411020C9411020C941102E4
:100050000C9411020C9411020C9411020C94F40CE7
:100060000C9411020C94BF090C9495090C94110284
:100070000C9411020C9411020C9411020C941102B4
:100080000C9411020C9411020C9411020C941102A4
:100090000C9411020C9411020C9411020C94F509A9
:1000A0000C9411020C9411020C9411020C94110284
:1000B0000C9411020C9411020C9411020C94110274
:1000C0000C9411020C9411020C9411020C94110264
:1000D0000C9411020C9411020C9411020C94110254
:1000E0000C941102EB0BEE0BDD0BE10BE50B250C79
:1000F000F20BF60BFC0B000C040C0A0C0E0C120C91
:10010000250C180C1C0C200C07634236B79BD8A793
:100110001A39685618AEBAAB558C1D3CB7CC57632C
:10012000BD6DEDFD753EF6177231BF000000803FDA
:100130000C94C8140C94FC0B0C94F60B0C94520702
:100140000C940E0C0C94BF080C94EF080C94EB0B61
:100150000C9492080C94180C0C94F7060C94F20B67
:100160000C94040C0C94E50B0C94E10B0C946708B4
:100170000C9430070C94DD0B0C9444070C94650828
:100180000C9464080C948A070C9476080C948A08E2
:100190000C94200C0C94120C0C941C0C0C94D7078F
:1001A0000C94250C0C94EE0B0C9421070C9466080F
:1001B0000C9405140C940A0C0C94000C00407A105A
:1001C000F35A00A0724E18090010A5D4E80000E808
:1001D0007648170000E40B54020000CA9A3B000066
:1001E00000E1F505000080969800000040420F00F5
:1001F0000000A08601000000102700000000E803B6
:10020000000000006400000000000A000000000080
:100210000100000000002C76D888DC674F0823DF3F
:10022000C1DFAE59E1B1B796E5E3E453C63AE65112
:10023000997696E8E6C28426EB898C9B62ED407C39
:100240006FFCEFBC9C9F40F2BAA56FA5F490055AD5
:100250002AF75C936B6CF9676DC11BFCE0E40D47FA
:10026000FEF520E6B500D0ED902E0300943577051D
:100270000080841E080000204E0A000000C80C33D5
:100280003333330F986E12831141EF8D2114893B64
:10029000E65516CFFEE6DB18D1844B381BF77C1DE4
:1002A000901DA4BBE424203284725E228100C9F137
:1002B00024ECA1E53D270102102020080810204071
:1002C000102040800201020108040201010204081A
:1002D00010204080804020100804020180040201A8
:1002E00080402010080402010804020101020408F1
:1002F00010204080010204081020408000002200ED
:10030000250028002B002E003100340002010000DF
:10031000050108010B010505050507050808080882
:10032000020202020A0A080804040404010101018D
:100330000101010103030303030303030407070788
:100340000C0C0C0C0C0C0C0C02020202060606062D
:10035000060606060B0B0B0B0B0B0B0B000021000C
:10036000240027002A002D00300033000101000086
:10037000040107010A0100000A0B02090C0D0E0816
:10038000070304010000000000000000000000005E
:10039000000000000000000000000000000000005D
:1003A000000012111000000000000000000000001A
:1003B0000000000000000000000000000514C81448
:1003C00011241FBECFEFD1E2DEBFCDBF00E00CBFD6
:1003D00024E0A0E8B2E001C01D92AB34B207E1F71F
:1003E00012E0A0E0B2E0EEEFF9E300E00BBF02C0E4
:1003F00007900D92A038B107D9F711E0CFEDD1E009
:1004000000E006C021970109802FFE010E94CB1851
:10041000CE3DD10780E00807A9F70E943E0D0C945D
:10042000ED1C0C940000EFE2F3E0A089B18982E0BA
:100430008C93A485B5851C92A685B7858FEC8C938B
:10044000108EA489B58986E08C93A289B3898C919A
:1004500080618C93A289B3898C9188608C93A289E6
:10046000B3898C9180688C930288F389E02D808118
:100470008F7D80830895CF93DF93FC014481558164
:10048000608171818FE293E00E94F706EC0142E007
:1004900050E06DE772E08FE293E00E94F7068C0F68
:1004A0009D1FDF91CF9108956115710551F0FB01FA
:1004B00001900020E9F73197AF01461B570B0C94D0
:1004C0001B0980E00895282F30912E03313208F067
:1004D0004AC080910A038111FCCF90912D0342E024
:1004E00040930A03209309032FEF209308031092EF
:1004F000070330930603EDE0F3E0A6EEB2E020E060
:10050000321721F041914D932F5FFACF1092E502FF
:100510002091E502990F922B9093E5029091E402CD
:10052000913061F41092E4029091E5029093BB0047
:100530009091BC0093FDF8CF95EC01C095EE90939F
:10054000BC0090910A039230E1F3909108039F3F21
:1005500079F080910803803241F080910803803364
:1005600031F084E005C081E003C082E001C083E097
:1005700010920C0310922E0310920B0308952F92E9
:100580003F924F925F926F927F928F929F92AF9223
:10059000BF92CF92DF92EF92FF920F931F93CF9370
:1005A000DF93582E5B01642E712CC0E0D1E0842EC5
:1005B000912C44244A9485EE382E95EC292EC615AC
:1005C00008F09DC071109BC08091CE02D0930B03A8
:1005D00080932D0310920C0310922E038091CF0272
:1005E0009091D002DC01ED91FC910190F081E02D21
:1005F0006C2F650D199581E00E94630280910A03BA
:100600008111FCCF84010C1B11090132110514F07A
:1006100000E210E09091CE02802F013208F080E2DB
:10062000D0930A03D0930903409208031092070362
:100630002FEF280F20930603D093E5022091E502C7
:10064000990F922B9093E5029091E402913069F416
:100650001092E4029091E5029093BB009091BC004F
:1006600093FDF8CF2092BC0002C03092BC00909164
:100670000A039130E1F390910703981710F48091E9
:100680000703E6EEF2E0AEEAB2E090E0981721F060
:1006900021912D939F5FFACF1092AD029093AC02FF
:1006A000E12CF12C1127DC2EDE0CE016F10614F003
:1006B000CD2D85CF8091CF029091D002DC01ED91BC
:1006C000FC910084F185E02D1995892B19F477248C
:1006D0007394EECFF501ED0DF11D6F018091CF0206
:1006E0009091D002DC01ED91FC910284F385E02D24
:1006F0001995F6018083FFEFEF1AFF0AD4CF8C2FF4
:10070000DF91CF911F910F91FF90EF90DF90CF90ED
:10071000BF90AF909F908F907F906F905F904F9021
:100720003F902F900895CF92DF92EF92FF92CF9358
:10073000DF93CDB7DEB7C150D1400FB6F894DEBF1E
:100740000FBECDBFC12CD12C760141E0BE016F5F41
:100750007E4F8FEA0E94BF02CF5FDE4F2881C150DB
:10076000D140822F90E0959587959091E30280FB90
:1007700091F920FB90F99093E302892F817090FF0B
:10078000A6C06EE170E080E090E00E94BA0C41E00B
:10079000BE016F5F7E4F8EEA0E94BF02CF5FDE4FC9
:1007A0004881C150D140BE016F5F7F4F8CEF0E94E6
:1007B000BF02898190E02A81821B91099C0197FFE9
:1007C00004C022273327281B390B2E30310514F49F
:1007D00080E090E02B8130E04C81241B3109A9019D
:1007E00037FF04C044275527421B530B4E30510599
:1007F00014F420E030E00097B9F097FF0AC0809130
:10080000D30281115CC08091D2028F5F8093D202AB
:1008100009C08091D202811154C08091D3028F5FB0
:100820008093D30280E04EC02115310519F180E09C
:1008300037FF0AC09091D50291113DC09091D4022A
:100840009F5F9093D40209C09091D402911135C05A
:100850009091D5029F5F9093D5029FB7F894C09076
:10086000A802D090A902E090AA02F090AB029FBF2C
:10087000811116C02FB7F8948091A8029091A90217
:10088000A091AA02B091AB022FBF8C199D09AE09AD
:10089000BF098D329140A105B10508F456CF80E023
:1008A0001092D1021092D2021092D3021092D4026E
:1008B0001092D5020CC083E0D0CF84E0CECF81E08F
:1008C00001C082E02115310509F0B2CFC6CFCF5F5C
:1008D000DE4F0FB6F894DEBF0FBECDBFDF91CF91D4
:1008E000FF90EF90DF90CF900895EF92FF920F93DB
:1008F0001F93CF93DF93CDB7DEB7A1970FB6F894D0
:10090000DEBF0FBECDBF7C01CB01BA01F701118262
:10091000108213821282158214828E010F5F1F4F84
:1009200022E044E00E94E314009769F0FC0101908A
:100930000020E9F73197AF01481B590BBC01C701F3
:100940000E9450090EC0F70180819181009711F03B
:100950000E946A1BF7011182108215821482138291
:100960001282A1960FB6F894DEBF0FBECDBFDF9105
:10097000CF911F910F91FF90EF9008958F929F92CA
:10098000AF92BF92CF92DF92EF92FF92CF93DF931D
:100990004B01AA24BB24F82DC52ED62EE72EFF240A
:1009A000AC2DE42F2091DF03222361F0829E4001D1
:1009B0001124F92D2C9D60011124AD2D249FE001FF
:1009C0001124ED2F3091E503B091E203E090E003B4
:1009D000F090E1033B1308C09C01220F331F820FEC
:1009E000931F8E0D9F1D19C0880F991F880F991F87
:1009F0008E0D9F1D472F552766277727EC01C30FC4
:100A0000D11D222349F030E0249F7001259FF00C76
:100A1000349FF00C11244F2D48832091E203EC0108
:100A2000C20FD11DF8832091E303EC01C20FD11D49
:100A3000A8832091E403DC01A20FB11DEC93DF91A8
:100A4000CF91FF90EF90DF90CF90BF90AF909F90AD
:100A50008F9008954F925F926F927F928F929F92A4
:100A6000AF92BF92CF92DF92EF92FF920F931F93BC
:100A7000CF93DF932091E503C090E2034091E00320
:100A80005091E1038090DF031091E303E22EF12CFB
:100A90000091E403EC012C1163C0CC0FDD1FC80FE3
:100AA000D91FC40FD51F882009F443C0912CA12C55
:100AB000B12CFE01E10FF11D608170E0762F6627F9
:100AC000072E000C880B990BA50194010E948A182F
:100AD0004424522E632E742EFE01EE0DFF1D608104
:100AE00070E0762F6627072E000C880B990BA50166
:100AF00094010E948A18D9019927882773016201FD
:100B0000C82AD92AEA2AFB2AC00FD11D688170E0C1
:100B1000762F6627072E000C880B990BA5019401F0
:100B20000E948A18C701B601622B732B842B952B68
:100B300094C0FE01E10FF11D2081FE01EE0DFF1DAD
:100B40006081862F90E0A0E0B0E0DC019927882743
:100B5000922BC00FD11D2881BC01CD01622B7DC01D
:100B6000CC0FDD1FCC0FDD1FC40FD51FD12C88206B
:100B700009F458C0912CA12CB12CFE01EE0DFF1DE3
:100B8000608170E0762F6627072E000C880B990B8A
:100B9000A50194010E948A18722E662455244424CB
:100BA000FE01EC0DFD1D608170E0762F6627072E9B
:100BB000000C880B990BA50194010E948A187901F9
:100BC000DD24CC24C428D528E628F728FE01E00F30
:100BD000F11D608170E0762F6627072E000C880BD0
:100BE000990BA50194010E948A18C22AD32AE42AEB
:100BF000F52AC10FD11D688170E0762F6627072E78
:100C0000000C880B990BA50194010E948A18B42F3F
:100C1000A32F922F8827BC01CD016C297D298E2915
:100C20009F291BC0FE01EE0DFF1D2081FE01EC0D72
:100C3000FD1D6081862F90E0A0E0B0E0DC019927E7
:100C40008827B22BFE01E00FF11D2081822BC10FFE
:100C5000D11D2881BC01CD01722BDF91CF911F9155
:100C60000F91FF90EF90DF90CF90BF90AF909F904B
:100C70008F907F906F905F904F9008950F931F9388
:100C8000CF93DF93CDB7DEB729970FB6F894DEBFC9
:100C90000FBECDBF0E94950C0091E6031091E703B3
:100CA0002091E8033091E903DC01CB01801B910B1B
:100CB000A20BB30B8C329140A105B10558F3F89407
:100CC0008091DC039091DD039A838983E091E003B6
:100CD000F091E103DF011196808189879091D8031B
:100CE000E091EA03F091EB038091EC03992309F47E
:100CF0002EC09081982B98879081809589238F832F
:100D00008F818C8388E08B8358856F8149853B81F7
:100D10002C8189819A81508347FD252F3A95208324
:100D2000262F39F0441F00C000006083000000C07F
:100D3000F2CF38E04D9160830000019761F7F093A6
:100D4000EB03E093EA0349873B832C8338C090810F
:100D5000982B98879081809589238F838F818E83AC
:100D600088E08D8358856F8149853D812E818981F9
:100D70009A81508347FD252F00C000C0208300C00A
:100D800000C000C000C000C060830000262F3A955C
:100D900041F0441F000000C000C000C000C000C0FF
:100DA000E8CF38E04D9100C0608300C0019709F79B
:100DB000F093EB03E093EA0349873D832E839A8304
:100DC000898378940E94950C6093E6037093E703FF
:100DD0008093E8039093E90329960FB6F894DEBF59
:100DE0000FBECDBFDF91CF911F910F910895CF928C
:100DF000DF92EF92FF920F931F93CF93DF936C01DB
:100E00007A018B01C0E0D0E0CE15DF0581F0D8017A
:100E10006D918D01D601ED91FC910190F081E02D55
:100E2000C6011995892B11F02196EECF7E01C701DD
:100E3000DF91CF911F910F91FF90EF90DF90CF90B6
:100E40000895FC01538D448D252F30E0842F90E0D0
:100E5000821B930B541710F0CF96089501970895B5
:100E6000FC01918D828D981761F0828DDF01A80FB2
:100E7000B11D5D968C91928D9F5F9F73928F90E0D4
:100E800008958FEF9FEF0895FC01918D828D981743
:100E900031F0828DE80FF11D858D90E008958FEF80
:100EA0009FEF0895FC01918D228D892F90E0805C49
:100EB0009F4F821B91098F73992708958FE293E0CA
:100EC0000E94520721E0892B09F420E0822F089527
:100ED000FC01848DDF01A80FB11DA35ABF4F2C91D7
:100EE000848D90E001968F739927848FA689B789A6
:100EF0002C93A089B1898C91837080648C93938D9D
:100F0000848D981306C00288F389E02D80818F7D3F
:100F100080830895EF92FF920F931F93CF93DF93F7
:100F2000EC0181E0888F9B8D8C8D981305C0E8893A
:100F3000F989808185FD26C0F62E0B8D10E00F5FAC
:100F40001F4F0F731127E02E8C8DE8120CC00FB6C7
:100F500007FCFACFE889F989808185FFF5CFCE01BA
:100F60000E946807F1CF8B8DFE01E80FF11DE35A57
:100F7000FF4FF0829FB7F8940B8FEA89FB8980813D
:100F800080620AC09FB7F894EE89FF896083E88980
:100F9000F98980818370806480839FBF81E090E0C5
:100FA000DF91CF911F910F91FF90EF900895CF9314
:100FB000DF93EC01888D8823C9F0EA89FB89808161
:100FC00085FD05C0A889B9898C9186FD0FC00FB633
:100FD00007FCF5CF808185FFF2CFA889B9898C9174
:100FE00085FFEDCFCE010E946807E7CFDF91CF915B
:100FF000089580E090E0892B21F00E945E07811126
:1010000025C080E090E0892B41F080E090E0892BC2
:1010100021F00E94000081111CC080E090E0892B2B
:1010200041F080E090E0892B21F00E9400008111C6
:1010300013C080E090E0892BA1F080E090E0892B44
:1010400081F00E94000081110AC008950E940000F2
:10105000D8CF0E940000E1CF0E940000EACF0C949C
:101060000000089585ED8093BC008091BC0084FD54
:10107000FCCF10920A03089540911F04262F30E000
:10108000240F311D21323105DCF420910A03243074
:10109000C9F4FC0180E090E0861758F430911F04F9
:1010A0002191DC01A150BC4FA30FB11D2C930196DF
:1010B000F3CF80911F04680F60931F0480E00895B0
:1010C00081E0089582E00895089508950895E091DB
:1010D000AD028091AC02E81730F4F0E0E255FD4F2C
:1010E000808190E008958FEF9FEF08959091AD0279
:1010F0008091AC02981750F4E92FF0E0E255FD4FD3
:10110000208130E09F5F9093AD0202C02FEF3FEF50
:10111000C90108958091AC0290E02091AD02821B3C
:1011200091090895CF92DF92EF92FF920F931F9350
:10113000CF93DF937C01CB018A0120910B03222303
:1011400089F0EB016B01C40ED51ECC15DD0569F0ED
:101150006991D701ED91FC910190F081E02DC701DB
:101160001995F3CF642F0E943C08C801DF91CF91FD
:101170001F910F91FF90EF90DF90CF900895CF9344
:10118000DF931F92CDB7DEB7698320910B03222333
:10119000D1F020912E03203240F021E030E0FC011C
:1011A0003383228380E090E015C080910C03E82F08
:1011B000F0E0E35FFC4F998190838F5F80930C0395
:1011C00080932E0305C061E0CE0101960E943C0889
:1011D00081E090E00F90DF91CF910895089580E035
:1011E00090E008950E94D81C0F931F93CF93DF9334
:1011F000EC0188819981009729F02A813B8126178B
:10120000370788F48B016F5F7F4F0E94F31B0097B5
:1012100061F0998388831B830A832C813D81232B72
:1012200011F4FC01108281E001C080E0DF91CF91D8
:101230001F910F910895EF92FF920F931F93CF93F9
:10124000DF936115710511F480E01CC04115510553
:10125000C1F07B01EC018C819D818A01080F191F6F
:10126000B801CE010E94F408882371F328813981E6
:101270008C819D81B701820F931F0E94E61C1D8304
:101280000C8381E0DF91CF911F910F91FF90EF9040
:101290000895FB0144815581608171810C941B0983
:1012A000EF92FF920F931F93CF93DF93EC017B019B
:1012B0008A01BA010E94F4082881398181110DC088
:1012C0002115310519F0C9010E946A1B1982188283
:1012D0001D821C821B821A8206C01D830C83B701EB
:1012E000C9010E94E61CCE01DF91CF911F910F91A1
:1012F000FF90EF900895FC01808191810C946A1B0E
:10130000FC011182108213821282158214826115EF
:10131000710551F0FB0101900020E9F73197AF0111
:10132000461B570B0C94500908951F920F920FB64D
:101330000F9211240BB60F922F933F934F935F930D
:101340006F937F938F939F93AF93BF93EF93FF938D
:101350008FE293E00E946807FF91EF91BF91AF91F8
:101360009F918F917F916F915F914F913F912F91BD
:101370000F900BBE0F900FBE0F901F9018951F92ED
:101380000F920FB60F9211240BB60F922F938F93DB
:101390009F93EF93FF93E0913F03F091400380818F
:1013A000E0914503F091460382FD12C09081809147
:1013B00048038F5F8F7320914903821751F0E091AA
:1013C0004803F0E0E15DFC4F958F8093480301C036
:1013D0008081FF91EF919F918F912F910F900BBE84
:1013E0000F900FBE0F901F9018951F920F920FB67F
:1013F0000F9211240BB60F922F933F934F935F934D
:101400006F937F938F939F93AF93BF93EF93FF93CC
:101410008091B900887F803609F49CC068F58832D5
:1014200009F45BC090F4803109F454C038F4882387
:1014300009F4F6C0883009F44DC0F6C0883109F4CB
:101440004CC0803209F45DC0EFC0803409F468C03C
:1014500048F4803309F455C0883309F0E5C080931F
:101460000803D8C0803509F44FC0883509F45DC041
:10147000883409F0D9C0D6C0883909F4C7C0A8F4A7
:10148000883709F467C038F4883609F463C08037B8
:1014900009F460C0C9C0883809F4B8C0803909F4BB
:1014A0005FC0803809F0C0C05BC0803B09F486C0D3
:1014B00038F4803A09F466C0883A09F47FC0B4C0B1
:1014C000803C09F4A7C0883C09F4A4C0883B09F417
:1014D0008AC0AAC08091E50210C090910703809154
:1014E0000603981770F5E091070381E08E0F809353
:1014F0000703F0E0EA51FD4F80818093BB0085EC4B
:1015000086C0809308038EC0E091070381E08E0FB0
:10151000809307038091BB00F0E0EA51FD4F808388
:1015200090910703809106036EC0E091070381E06C
:101530008E0F809307038091BB00F0E0EA51FD4FCE
:1015400080838091090381116DC081E08093E40262
:1015500084EA61C083E080930A0310924104CFCFF4
:1015600080914104803208F051C0E091410481E053
:101570008E0F809341048091BB00F0E0EF5DFB4F44
:101580008083BDCF85EC8093BC0010920A038091CC
:101590004104803230F4E0914104F0E0EF5DFB4F14
:1015A00010826091410470E0E0918002F09181022C
:1015B00081E294E019951092410436C084E0809352
:1015C0000A031092200410921F04E0918202F0910D
:1015D0008302199580911F04811105C081E08093D9
:1015E0001F041092FF03E091200481E08E0F80938E
:1015F0002004F0E0E150FC4F80818093BB0090918B
:10160000200480911F04981708F479CF85E880930F
:10161000BC000AC085EC8093BC0010920A0304C091
:10162000109208030E943208FF91EF91BF91AF9191
:101630009F918F917F916F915F914F913F912F91EA
:101640000F900BBE0F900FBE0F901F9018954F92EA
:101650005F926F927F928F929F92AF92BF92CF9242
:10166000DF92EF92FF926B017C012FEE39EC43E7A2
:101670005FE30E94B8170E94BA192B013C0124EBCA
:1016800038EC4EE050ECC701B6010E94B8170E943A
:10169000BA194B015C012CE23DE748E65CE3C3016B
:1016A000B2010E94B8176B017C0128EC3EE54FE6C1
:1016B0005CEBC501B4010E94B8179B01AC01C701E6
:1016C000B6010E94D41823EC35EF4CE151E40E949E
:1016D000B817FF90EF90DF90CF90BF90AF909F90A2
:1016E0008F907F906F905F904F900895EF92FF9250
:1016F0001F93CF93DF937B01142FCEECD2E0988120
:1017000021E020930B0390932D0310920C03109271
:101710002E03A981BA81ED91FC9111970190F0817E
:10172000E02D682FCD01199589819A81412F50E0D4
:10173000DC01ED91FC910280F381E02DB701199558
:1017400081E0DF91CF911F91FF90EF900C946302A5
:10175000CF93DF931F92CDB7DEB7698341E0BE011F
:101760006F5F7F4F0E94760B0F90DF91CF910895AE
:101770008091D6028F770895362F90E0FC01EA58C9
:10178000FC4F4491FC01EA54FD4F2491FC01EA5EB8
:10179000FC4F9491992309F46CC0442309F455C07B
:1017A00050E0FA013197E231F10508F04EC0882788
:1017B000EE58FF4F8F4F0C94CB18809180008F779D
:1017C00007C0809180008F7D03C080918000877F5B
:1017D000809380003AC084B58F7702C084B58F7D36
:1017E00084BD33C08091B0008F7703C08091B0007A
:1017F0008F7D8093B00029C0809190008F7707C0C3
:10180000809190008F7D03C080919000877F8093AE
:1018100090001BC08091A0008F7707C08091A0002E
:101820008F7D03C08091A000877F8093A0000DC0B2
:10183000809120018F7707C0809120018F7D03C0A8
:1018400080912001877F80932001E92FF0E0EE0F47
:10185000FF1FE450FD4FA591B4919FB7F89431114B
:1018600004C08C912095282302C0EC912E2B2C9340
:101870009FBF0895CF93DF9390E0FC01EA54FD4FA2
:101880002491FC01EA5EFC4F8491882361F190E091
:10189000880F991FFC01E45AFC4FC591D491FC01BB
:1018A000E450FD4FA591B491611109C09FB7F89420
:1018B0008881209582238883EC912E230BC062308F
:1018C00061F49FB7F8948881322F30958323888301
:1018D000EC912E2B2C939FBF06C08FB7F894E88114
:1018E0002E2B28838FBFDF91CF910895863308F088
:1018F000865390917B00282F2870977F922B90938E
:101900007B008770806480937C0080917A00806483
:1019100080937A0080917A0086FDFCCF80917800D8
:101920002091790090E0922B08953FB7F894809130
:10193000430490914404A0914504B091460426B517
:10194000A89B05C02F3F19F00196A11DB11D3FBFF7
:10195000BA2FA92F982F8827820F911DA11DB11D85
:10196000BC01CD0142E0660F771F881F991F4A9581
:10197000D1F708958F929F92AF92BF92CF92DF924C
:10198000EF92FF926B017C010E94950C4B015C0170
:10199000C114D104E104F104F1F00E94950CDC01C2
:1019A000CB0188199909AA09BB09883E9340A10572
:1019B000B10570F321E0C21AD108E108F10888EE00
:1019C000880E83E0981EA11CB11CC114D104E1044F
:1019D000F10419F7DDCFFF90EF90DF90CF90BF902B
:1019E000AF909F908F9008951F920F920FB60F9215
:1019F00011242F933F938F939F93AF93BF93809125
:101A0000A8029091A902A091AA02B091AB023091D4
:101A1000420423E0230F2D3720F40196A11DB11DB0
:101A200005C026E8230F0296A11DB11D2093420494
:101A30008093A8029093A902A093AA02B093AB024C
:101A40008091430490914404A0914504B0914604D0
:101A50000196A11DB11D8093430490934404A0936B
:101A60004504B0934604BF91AF919F918F913F91F0
:101A70002F910F900FBE0F901F901895CF93DF936B
:101A8000CDB7DEB7A1970FB6F894DEBF0FBECDBFBE
:101A9000789484B5826084BD84B5816084BD85B549
:101AA000826085BD85B5816085BD80916E00816055
:101AB00080936E00109281008091810082608093FB
:101AC00081008091810081608093810080918000FD
:101AD0008160809380008091B10084608093B10028
:101AE0008091B00081608093B0008091910082600D
:101AF000809391008091910081608093910080910A
:101B000090008160809390008091A100826080931A
:101B1000A1008091A10081608093A1008091A0002C
:101B200081608093A00080912101826080932101D7
:101B30008091210181608093210180912001816049
:101B40008093200180917A00846080937A00809154
:101B50007A00826080937A0080917A00816080931D
:101B60007A0080917A00806880937A001092C10098
:101B70000E9413028CEC93E09093D0028093CF02EA
:101B80001092AD021092AC0210920C0310922E0330
:101B900010920A0381E0809309031092E40261E04D
:101BA00084E10E94BC0B61E085E10E94BC0B809146
:101BB000B9008E7F8093B9008091B9008D7F8093AA
:101BC000B90088E48093B80085E48093BC0084E683
:101BD00098E0909383028093820285E698E0909348
:101BE00081028093800289E38093CE0241E0BE01AE
:101BF0006F5F7F4F82E90E94BF0289818B3A09F0B3
:101C0000CEC06CEF81E80E94A80B6091DA026C7F75
:101C100061606093DA02862F82958F70982F93709F
:101C200020E4929FC00111246C70682B61608FE8E2
:101C30000E94A80B6091E2026E7F6093E2026695BB
:101C4000637070E0660F771F8BEA0E94A80B80918B
:101C5000D6028F7B8093D6020E94B80B682F80E853
:101C60000E94A80B1092D1021092D2021092D302BD
:101C70001092D4021092D5028091D6028B7F80936D
:101C8000D6020E94B80B682F80E80E94A80B8091B2
:101C9000D6028D7F8093D6020E94B80B682F80E811
:101CA0000E94A80B8091D6028F7E8093D6020E945C
:101CB000B80B682F80E80E94A80B8091D6028F7D18
:101CC0008093D6020E94B80B682F80E80E94A80B70
:101CD00040E060E070E087EE0E94760B8091D602D3
:101CE0008E7F8093D6020E94B80B682F80E80E94F6
:101CF000A80B6AE070E080E090E00E94BA0C80914E
:101D0000D60281608093D6020E94B80B682F80E8CB
:101D10000E94A80B6AE070E080E090E00E94BA0C9C
:101D20008091E1028C7F8093E10260E08AEA0E9468
:101D3000A80B6091DE026F7360646093DE026F73C4
:101D4000606482EA0E94A80B6091DF026F79606490
:101D50006093DF026F71606483EA0E94A80B62E304
:101D600080EA0E94A80B1092D1021092D202109227
:101D7000D3021092D4021092D50289EC8093E00233
:101D800069EC86EA0E94A80B8091D6028460809359
:101D9000D6020E94B80B682F80E80E94A80B8091A1
:101DA000D60280648093D6020E94B80B682F80E828
:101DB0000E94A80B1092D1021092D2021092D3026C
:101DC0001092D4021092D5028091DB028C7F809316
:101DD000DB0283FBEE24E0F8F12CB7017695762F39
:101DE00066277795679582FB002700F910E086E06B
:101DF000000F111F8A95E1F7062B602F616080E9C3
:101E00000E94A80B8091DA02682F6F7C6093DA023F
:101E10006C708370682B8FE80E94A80B60E087E3EA
:101E20000E943A0C60E088E30E943A0C60E089E38B
:101E30000E943A0C60E08AE30E943A0C60E086E37C
:101E40000E943A0C0E9413028091DE0387FD08C0B5
:101E500061E00E943A0C60E08091DE030E94BC0BBE
:101E600081E08093D9038091E0039091E103892B75
:101E700011F00E943E0664E670E080E090E00E946F
:101E8000BA0C22242A94312C0E949303809384025A
:101E90006FE772E0CE0101960E9480098091840272
:101EA0008230B1F463EF73E0CE0101960E944909DC
:101EB00066E372E0CE0101960E945402CE010196C3
:101EC0000E943B0262E370E080E090E00E94BA0C66
:101ED000809184028130B1F463EF73E0CE0101960A
:101EE0000E94490969E372E0CE0101960E94540202
:101EF000CE0101960E943B0262E370E080E090E038
:101F00000E94BA0C809184028330B1F463EF73E0D5
:101F1000CE0101960E9449096CE372E0CE01019660
:101F20000E945402CE0101960E943B0262E370E0DF
:101F300080E090E00E94BA0C809184028430B1F479
:101F400063EF73E0CE0101960E9449096FE372E0EE
:101F5000CE0101960E945402CE0101960E943B02DE
:101F600062E370E080E090E00E94BA0CCE0101963E
:101F70000E947B0987E30E94760C8C018091060207
:101F8000909107020817190709F435C135E0309F11
:101F9000B001319F700D1124072E000C880B990B96
:101FA0000E94591720E030EC4FE754E40E9440199A
:101FB0000E94270B60939702709398028093990276
:101FC00090939A02109307020093060200919502E3
:101FD00010919602109305020093040288E30E9478
:101FE000760C90939602809395020817190709F4CE
:101FF00002C145E0489FB001499F700D1124072E92
:10200000000C880B990B0E94591720E030EC4FE729
:1020100054E40E9440190E94270B60939102709330
:102020009202809393029093940200918F021091F8
:102030009002109303020093020289E30E94760C3F
:102040009093900280938F020817190709F4D3C068
:1020500055E0589FB001599F700D1124072E000CB8
:10206000880B990B0E94591720E030EC4FE754E49D
:102070000E9440190E94270B60938B0270938C0280
:1020800080938D0290938E020091890210918A02B2
:1020900010930102009300028AE30E94760C909351
:1020A0008A02809389020817190709F4A4C0A5E0E1
:1020B000A89FB001A99F700D1124072E000C880B5A
:1020C000990B0E94591720E030EC4FE754E40E942E
:1020D00040190E94270B60938502709386028093BB
:1020E0008702909388026FE772E0CE0107960E9404
:1020F00080096DEE73E0CE0107960E94490962E403
:1021000072E0CE0107960E945402409197025091CE
:1021100098026091990270919A02CE0101960E94F4
:102120007504BE016F5F7F4FCE0107960E9449097B
:10213000CE0101960E947B0962E472E0CE0107960F
:102140000E94540240919102509192026091930238
:1021500070919402CE0101960E947504BE016F5FDA
:102160007F4FCE0107960E944909CE0101960E9439
:102170007B0962E472E0CE0107960E94540240910E
:102180008B0250918C0260918D0270918E02CE0173
:1021900001960E947504BE016F5F7F4FCE010796C6
:1021A0000E944909CE0101960E947B0962E472E017
:1021B000CE0107960E9454024091850250918602FA
:1021C0006091870270918802CE0101960E94750489
:1021D000BE016F5F7F4FCE0107960E944909CE0175
:1021E00001960E947B09CE0107960E943B02CE0118
:1021F00007960E947B0962E370E080E090E00E9415
:10220000BA0C8BE30E94760C182F8093A702BC01B6
:102210007727072E000C880B990B0E9459176B012A
:102220007C012091A3023091A4024091A50250911B
:10223000A6020E94D41820E030E040E05FE30E9454
:10224000B8174B015C016093A3027093A4028093C2
:10225000A5029093A60220E030E040E05FE30E94F8
:10226000B8179B01AC01C701B6010E94521787FD48
:1022700002C01F3010F41092A7021091A702E12EA5
:10228000F12CB7010F2C000C880B990B0E945917E9
:102290002B013C01209108023091090240910A0271
:1022A00050910B020E94491A181674F4612F70E0C5
:1022B00080E090E00E945717609308027093090233
:1022C00080930A0290930B028091A1029091A20246
:1022D0008A3FB5E09B0710F16AEF75E00E9476181F
:1022E0009093A2028093A1022091080230910902EA
:1022F00040910A0250910B02C301B2010E94D4180E
:1023000020E030E040E05FE30E94B81760930802ED
:102310007093090280930A0290930B020091A0022D
:1023200010E0B701601B710B072E000C880B990B96
:102330000E9459176B017C01B801110F880B990B92
:102340000E9459179B01AC01C501B4010E94D3182A
:102350004B015C019B01AC01C701B6010E94491A07
:1023600018161CF520E030E0A901C501B4010E9457
:10237000491A1816D4F420919C0230919D02409184
:102380009E0250919F02C701B6010E94D41820E01E
:1023900030E040E05FE30E94B81760939C027093C6
:1023A0009D0280939E0290939F0211E020919C02D7
:1023B00030919D0240919E0250919F02C701B6014B
:1023C0000E94491A18160CF010E010939B02E12CA1
:1023D000F12C0091DA031091DB03E016F10608F00E
:1023E00047C0C7010E942A052B013C01672B682BBF
:1023F000692BD1F1662D70E080E090E00E945917C2
:1024000020E030E040E45FE30E94B8170E94F31937
:10241000862E912CA12CB12C540199248824652D51
:1024200070E080E090E00E94591720E030E040E446
:102430005FE30E94B8170E94F319962A642D70E09A
:1024400080E090E00E94591720E030E040E45FE334
:102450000E94B8170E94F319D501C401862BAC0164
:10246000BD01C7010E94BE049FEFE91AF90AB1CF6E
:1024700080919B02882351F08091A1029091A20249
:10248000805C9F4F9093A2028093A102A091A7022B
:10249000AD8BAA2309F496C18091A1029091A2026A
:1024A0008A3FB5E09B0728F06AEF75E00E94761836
:1024B000F7CF8B3F24E0920740F0B1010E947618DD
:1024C000809590E0A0E0B0E046C08C3F33E09307F9
:1024D00048F0B1010E947618A0E0B0E0DC01992735
:1024E00088270FC08D3F42E0940780F0B1010E9421
:1024F0007618809590E0A0E0B0E0BA2FA92F982F31
:1025000088276C017D01CC24CA9429C08E3F51E0FC
:10251000950740F0B1010E9476189F6F6C01E12C85
:10252000F12C1DC08F3F910581F078F0B1010E9420
:102530007618809590E0A0E0B0E0DC01992788272C
:102540006C017D01DD24DA940AC0A0E0B0E0BA2F6E
:10255000A92F982F88276C017D01EE24EA94AD897C
:102560006A2F70E080E090E00E94591720910802E5
:102570003091090240910A0250910B020E944019C9
:102580006D877E878F87988B20E030E040E252E4B1
:102590000E94B8174B015C019B01AC0160E070E048
:1025A00080E292E40E94D3180E94EC19698B7A8B26
:1025B0008B8B9C8B29893A893F8B2E8BB80161705C
:1025C000772780E090E00E9457172B013C0120E024
:1025D00030E040E252E4C501B4010E94D4189B01EE
:1025E000AC01C301B2010E94D4180E94EC19798F8A
:1025F000688F09891A89CB01801B910B9C01990F67
:10260000440B550B298B3A8B4B8B5C8BC701FF0C12
:10261000AA0BBB0B8A8F9B8FAC8FBD8F2D2D30E00B
:1026200040E050E02E8F3F8F48A359A34C2C512CF3
:10263000612C712C488D598D041715070CF077C04B
:1026400069897A898B899C890E94591720E030E03A
:1026500040E05FE30E94B8174B015C01B8018E892E
:102660009F89681B790B072E000C880B990B0E9421
:102670005917A50194010E94D3186B017C0120E039
:1026800030E0A9010E94491A181624F0F7FAF094D4
:10269000F7F8F0948091DA039091DB03081719079B
:1026A00008F042C0A7019601C501B4010E94D318E9
:1026B000A50194010E9440199B01AC010E94B8172A
:1026C0004B015C016A8D7B8D8C8D9D8D0E9459170D
:1026D000A50194010E94B8170E94F319C62ED12CAF
:1026E000E12CF12C7601DD24CC246E8D7F8D88A128
:1026F00099A10E945917A50194010E94B8170E9440
:10270000F319D62AC301B2010E945917A5019401F9
:102710000E94B8170E94F319D701C601862BAC019D
:10272000BD01C8010E94BE040F5F1F4F83CF2D85DE
:102730003E854F855889CA01B9010E94B81720E02B
:1027400030E04FE753E40E94B8170E94F319FF24CA
:10275000F394F60E2091DF03F216A1F10091E0034D
:102760001091E1032150B9F06F3F59F430E040E09F
:1027700050E06FEF7FEF80E090E00E94AC18B9016D
:102780000CC08F2D90E0982F88270197622F70E062
:102790000E94761802C060E070E0F8014091DC030E
:1027A0005091DD03CF01801B910B8417950740F4F6
:1027B0004081469FC001479F900D11249193EECF19
:1027C000F092DF038091E0039091E103892B11F0F7
:1027D0000E943E068091A1029091A20201969093E0
:1027E000A2028093A1029D899093A0026EE170E005
:1027F00080E090E00E94BA0C62E370E080E090E03C
:102800000E94BA0C0E94F9073FCB1092320310923B
:10281000310388EE93E0A0E0B0E08093330390931F
:102820003403A0933503B093360326E132E03093AE
:10283000300320932F0325EC30E030933C032093AA
:102840003B0324EC30E030933E0320933D0320EC27
:1028500030E03093400320933F0321EC30E030938D
:1028600042032093410322EC30E030934403209351
:10287000430326EC30E03093460320934503109247
:1028800048031092490310924A0310924B0310928E
:10289000CF031092CE038093D0039093D103A093E3
:1028A000D203B093D30388E292E09093CD03809358
:1028B000CC0364E472E089EF93E00E94800968E54C
:1028C00072E083EF93E00E9480096AE672E08DEE89
:1028D00093E00E9480091092D9031092DF031092B6
:1028E000E6031092E7031092E8031092E90381E0F7
:1028F0008093E5038093E2031092E30392E09093C8
:10290000E4038093D80380EF90E09093DD038093FD
:10291000DC030E94D21A9093E1038093E0030097B6
:1029200061F020EFFC0111922A95E9F780E590E033
:102930009093DB038093DA0308C01092DD031092BA
:10294000DC031092DB031092DA0386E08093DE034F
:102950008091D903882341F061E086E00E943A0C1F
:1029600060E086E00E94BC0BECE1F3E0E491F0E073
:10297000EE0FFF1FE450FD4F859194919093EB0370
:102980008093EA03ECEBF2E0E491E093EC0308952A
:102990008091E0039091E103009711F00E946A1B7F
:1029A0008091DE0387FD03C060E00E943A0C8DEE4B
:1029B00093E00E947B0983EF93E00E947B0989EFFB
:1029C00093E00C947B09EF920F931F93CF93DF93C7
:1029D000E80147FD02C034E001C034E1042E000CE0
:1029E000550B57FF03C0519541955109E32E022F16
:1029F000242FAE010E940315CE01DF91CF911F91CC
:102A00000F91EF9008958F929F92AF92BF92CF92C5
:102A1000DF92EF92FF920F931F93CF93DF93CDB787
:102A2000DEB729970FB6F894DEBF0FBECDBF6A019F
:102A3000122FB02E2BE3201720F0FF24F394F00E7A
:102A400002C02CE3F22E0F2D27E0AE014F5F5F4F47
:102A50000E947A16BC014981842F8970813031F03F
:102A6000E1FC06C0E0FE06C090E205C09DE203C0A6
:102A70009BE201C090E05E2D507143FF3CC091117C
:102A800002C083E001C084E0811718F4212F281BC5
:102A900001C020E051110BC0F601822F30E28823E3
:102AA00019F031938150FBCFC20ED11C20E0992345
:102AB00029F0D6019C93F60131966F01C601039669
:102AC000E2FE0AC03EE4D6013C9341E411964C93E9
:102AD000119712963C9306C03EE6F601308341E61C
:102AE00041833283FC01322F40E2332309F442C098
:102AF00041933150FACF42FF44C0911102C083E0AC
:102B000001C084E0811718F4212F281B01C020E0A8
:102B100051110BC0F601822F30E2882319F0319356
:102B20008150FBCFC20ED11C20E0992329F0D601A1
:102B30009C93F60131966F01C6010396E2FE0BC02D
:102B400039E4D6013C933EE411963C93119736E468
:102B500012963C9307C039E6F60130833EE6318396
:102B600036E63283FC01322F40E2332319F04193E1
:102B70003150FBCFFC01E20FF11D10828EEF9FEF71
:102B8000A6C021E030E0911102C020E030E016162E
:102B900017061CF4FB01319602C0E1E0F0E02E0FB5
:102BA0003F1FBB2021F0EB2DF0E0319602C0E0E0AA
:102BB000F0E02E0F3F1FE12FF0E02E173F071CF42F
:102BC000121B212F01C020E08E2D887159F4F601CF
:102BD000822F30E2882319F031938150FBCFC20E4F
:102BE000D11C20E0992329F0D6019C93F60131965F
:102BF0006F0151110BC0F601822F90E3882319F069
:102C000091938150FBCFC20ED11C20E00F2D060FF7
:102C10009A81342F307144FF03C0913309F401507D
:102C2000101624F4093018F008E001C001E0AB01EF
:102C300077FF02C040E050E0FB01E41BF50BA1E090
:102C4000B0E0AC0FBD1FEA0FFB1F8EE2A82E4B01B8
:102C5000801A91080B2D10E01195019511094F3F35
:102C6000BFEF5B0721F4D601AC9211966D0164179A
:102C700075072CF08416950614F4818101C080E359
:102C8000415051093196D60111967D0140175107E7
:102C900024F0D6018C936701E2CF6417750739F4ED
:102CA000963320F4953319F4311101C081E3F60114
:102CB0008083F701822F90E2882319F0919381504D
:102CC000FBCFF701E20FF11D108280E090E0299622
:102CD0000FB6F894DEBF0FBECDBFDF91CF911F912D
:102CE0000F91FF90EF90DF90CF90BF90AF909F90AB
:102CF0008F900895283008F027E03327DA01990FE4
:102D0000311D87FD916000966105710539F43260CF
:102D10002E5F3D9330E32A95E1F708959F3F30F011
:102D200080387105610509F03C5F3C5F3D9391304F
:102D300008F08068911DDF93CF931F930F93FF924C
:102D4000EF92192F987F9695E92F96959695E90F12
:102D5000FF27EA5EFD4F99273327EE24FF24A701C2
:102D6000E70105900894079428F4360FE71EF81E33
:102D7000491F511D660F771F881F991F0694A1F7E1
:102D80000590079428F4E70EF81E491F561FC11D31
:102D9000770F881F991F661F0694A1F70590079467
:102DA00028F4F80E491F561FC71FD11D880F991F01
:102DB000661F771F0694A1F70590079420F4490F2A
:102DC000561FC71FD81F990F661F771F881F0694AD
:102DD000A9F784911095177041F0D695C79557952E
:102DE0004795F794E7941A95C1F7ECEBF1E06894F6
:102DF0001590159135916591959105907FE27395A8
:102E0000E118F10A430B560BC90BD009C0F7E10CCE
:102E1000F11E431F561FC91FD01D7EF4703311F4DD
:102E20008A95E6CFE894015030F0080F0AF40027A5
:102E3000021708F4202F2395022F7A3328F079E324
:102E40007D932A95E9F710C07D932A9589F606941B
:102E500097956795379517951794E118F10A430BE5
:102E6000560BC90BD00998F023957E9173957A3350
:102E700008F070E37C932013B8F77E9170617D9326
:102E800030F0839571E37D9370E32A95E1F7112487
:102E9000EF90FF900F911F91CF91DF91992787FDC0
:102EA000909508950E94941708F481E00895E8949D
:102EB00009C097FB3EF490958095709561957F4F82
:102EC0008F4F9F4F9923A9F0F92F96E9BB27939530
:102ED000F695879577956795B795F111F8CFFAF440
:102EE000BB0F11F460FF1BC06F5F7F4F8F4F9F4F71
:102EF00016C0882311F096E911C0772321F09EE8CF
:102F0000872F762F05C0662371F096E8862F70E034
:102F100060E02AF09A95660F771F881FDAF7880F0E
:102F20009695879597F90895990F0008550FAA0B64
:102F3000E0E8FEEF16161706E807F907C0F01216CC
:102F40001306E407F50798F0621B730B840B950BCF
:102F500039F40A2661F0232B242B252B21F4089524
:102F60000A2609F4A140A6958FEF811D811D0895C1
:102F70000E94CB170C943C180E942E1838F00E9427
:102F8000351820F0952311F00C9425180C942B186B
:102F900011240C9470180E944D1870F3959FC1F382
:102FA000950F50E0551F629FF001729FBB27F00DF7
:102FB000B11D639FAA27F00DB11DAA1F649F66274C
:102FC000B00DA11D661F829F2227B00DA11D621F9B
:102FD000739FB00DA11D621F839FA00D611D221F55
:102FE000749F3327A00D611D231F849F600D211D39
:102FF000822F762F6A2F11249F5750409AF0F1F0BC
:1030000088234AF0EE0FFF1FBB1F661F771F881F24
:1030100091505040A9F79E3F510580F00C9425181F
:103020000C9470185F3FE4F3983ED4F3869577953F
:103030006795B795F795E7959F5FC1F7FE2B880FCA
:10304000911D9695879597F9089597F99F6780E860
:1030500070E060E008959FEF80EC089500240A94EA
:103060001616170618060906089500240A94121663
:103070001306140605060895092E0394000C11F496
:10308000882352F0BB0F40F4BF2B11F460FF04C043
:103090006F5F7F4F8F4F9F4F089557FD9058440F9C
:1030A000551F59F05F3F71F04795880F97FB991FA7
:1030B00061F09F3F79F08795089512161306140664
:1030C000551FF2CF4695F1DF08C0161617061806F1
:1030D000991FF1CF86957105610508940895E894CC
:1030E000BB2766277727CB0197F90895AA1BBB1B3F
:1030F00051E107C0AA1FBB1FA617B70710F0A61BF8
:10310000B70B881F991F5A95A9F780959095BC0118
:10311000CD010895A1E21A2EAA1BBB1BFD010DC013
:10312000AA1FBB1FEE1FFF1FA217B307E407F50777
:1031300020F0A21BB30BE40BF50B661F771F881F53
:10314000991F1A9469F760957095809590959B01E9
:10315000AC01BD01CF010895052E97FB1EF400942C
:103160000E94C31857FD07D00E948A1807FC03D09D
:103170004EF40C94C31850954095309521953F4FCF
:103180004F4F5F4F089590958095709561957F4F53
:103190008F4F9F4F0895EE0FFF1F881F8BBF079023
:1031A000F691E02D19945058BB27AA270E94EB18DE
:1031B0000C943C180E942E1838F00E94351820F00C
:1031C00039F49F3F19F426F40C942B180EF4E09573
:1031D000E7FB0C942518E92F0E944D1858F3BA17F5
:1031E000620773078407950720F079F4A6F50C941D
:1031F0006F180EF4E0950B2EBA2FA02D0B01B9011C
:1032000090010C01CA01A0011124FF27591B99F05C
:10321000593F50F4503E68F11A16F040A22F232F68
:10322000342F4427585FF3CF469537952795A795B8
:10323000F0405395C9F77EF41F16BA0B620B730B5F
:10324000840BBAF09150A1F0FF0FBB1F661F771FD0
:10325000881FC2F70EC0BA0F621F731F841F48F485
:10326000879577956795B795F7959E3F08F0B0CF0E
:103270009395880F08F09927EE0F979587950895F5
:103280000E9454190C943C180E94351858F00E9462
:103290002E1840F029F45F3F29F00C9425185111A5
:1032A0000C9470180C942B180E944D1868F39923F5
:1032B000B1F3552391F3951B550BBB27AA27621732
:1032C0007307840738F09F5F5F4F220F331F441F3F
:1032D000AA1FA9F335D00E2E3AF0E0E832D0915073
:1032E0005040E695001CCAF72BD0FE2F29D0660F60
:1032F000771F881FBB1F261737074807AB07B0E8A3
:1033000009F0BB0B802DBF01FF2793585F4F3AF0A8
:103310009E3F510578F00C9425180C9470185F3F6F
:10332000E4F3983ED4F3869577956795B795F7952E
:103330009F5FC9F7880F911D9695879597F9089516
:10334000E1E0660F771F881FBB1F621773078407B2
:10335000BA0720F0621B730B840BBA0BEE1F88F7C1
:10336000E095089529F416F00C9425180C946F1824
:103370000C942B180E945518A8F39638A0F707F85C
:103380000F92E8942BE33AEA48EB5FE70E94CE17EE
:103390000F920F920F924DB75EB70F920E94901A44
:1033A000E8E0F1E00E94221A4F915F91EF91FF91C6
:1033B000E595EE1FFF1F49F0FE57E0684427EE0F2A
:1033C000441FFA95E1F74195550B0E945A1A0F9048
:1033D00007FE0C944E1A08950E94F3196894B111D7
:1033E0000C94701808950E94551888F09F5798F013
:1033F000B92F9927B751B0F0E1F0660F771F881FFA
:10340000991F1AF0BA95C9F714C0B13091F00E9413
:103410006F18B1E008950C946F18672F782F8827E4
:10342000B85F39F0B93FCCF3869577956795B3953A
:10343000D9F73EF490958095709561957F4F8F4FA9
:103440009F4F0895DF93CF931F930F93FF92EF92B7
:10345000DF927B018C01689406C0DA2EEF010E9496
:10346000CB17FE01E894A591259135914591559191
:10347000A6F3EF010E94EB18FE019701A801DA9470
:1034800069F7DF90EF90FF900F911F91CF91DF913F
:1034900008950E94941708F48FEF08959B01AC01E2
:1034A00060E070E080E89FE30C9440190C942518CC
:1034B0000C94C41A0E945518D8F39923C9F3940F99
:1034C000511DA3F39150504094F059F0882332F0ED
:1034D000660F771F881F91505040C1F79E3F5105DE
:1034E0002CF7880F911D9695879597F908955F3F62
:1034F000ACF0983E9CF0BB27869577956795B7957D
:1035000008F4B1609395C1F7BB0F58F711F460FF51
:10351000E8CF6F5F7F4F8F4F9F4FE3CF0C947018B2
:10352000FA01DC01AA0FBB1F9B01AC01BF5728F4B5
:10353000222733274427507820C0B75190F4AB2F6F
:103540000024469537952795011CA395D2F30020BA
:1035500071F0220F331F441FB395DAF30ED00C9491
:10356000D31861307105A0E88A07B94630F49B0191
:10357000AC016627772788279078309621F0208342
:1035800031834283538308959F3F31F0915020F45B
:10359000879577956795B795880F911D969587952F
:1035A00097F908950F931F93CF93DF93823091057E
:1035B00010F482E090E0E0914904F0914A0420E0A8
:1035C00030E0A0E0B0E0309719F1408151810281F4
:1035D000138148175907C8F08417950769F41097A5
:1035E00031F012960C93129713961C9327C00093F8
:1035F000490410934A0422C02115310519F04217DD
:10360000530718F49A01BD01EF01DF01F801DBCF88
:1036100021153105F9F0281B390B2430310580F4D0
:103620008A819B816115710521F0FB01938382835F
:1036300004C090934A0480934904FE01329644C02A
:10364000FE01E20FF31F81939193225031093983D8
:1036500028833AC02091470430914804232B41F439
:1036600020910E0230910F023093480420934704BA
:1036700020910C0230910D022115310541F42DB736
:103680003EB74091100250911102241B350BE0917E
:103690004704F0914804E217F307A0F42E1B3F0BF8
:1036A0002817390778F0AC014E5F5F4F24173507B4
:1036B00048F04E0F5F1F5093480440934704819396
:1036C000919302C0E0E0F0E0CF01DF91CF911F9134
:1036D0000F910895CF93DF93009709F481C0FC0107
:1036E000329713821282A0914904B0914A04109734
:1036F00081F420813181820F931F20914704309102
:1037000048042817390751F5F0934804E09347041B
:1037100067C0ED0120E030E0CE17DF0740F44A81BA
:103720005B819E0141155105F1F0EA01F5CFD3838C
:10373000C28340815181840F951FC817D90759F45E
:1037400088819981840F951F0296918380838A8155
:103750009B81938382832115310529F4F0934A04D8
:10376000E09349043DC0E901FB83EA834991599103
:10377000C40FD51FEC17FD0761F480819181840F80
:10378000951F0296E90199838883828193819B83A7
:103790008A83E0E0F0E012968D919C911397009758
:1037A00019F0FD01DC01F7CF8D919C9111979D01DE
:1037B0002E5F3F4F820F931F2091470430914804A2
:1037C0002817390769F4309729F410924A041092A7
:1037D000490402C013821282B0934804A0934704A4
:1037E000DF91CF9108956F927F928F929F92AF92C7
:1037F000BF92CF92DF92EF92FF920F931F93CF93DE
:10380000DF93009789F4CB01DF91CF911F910F9146
:10381000FF90EF90DF90CF90BF90AF909F908F90F0
:103820007F906F900C94D21AFC01E60FF71F9C0159
:1038300022503109E217F30708F4A9C0EC01D901BD
:103840000D911C91119706171707B0F0053011055F
:1038500008F49BC0C80104978617970708F495C021
:1038600002501109061B170B019311936D937C9362
:10387000CF010E946A1B89C05B01A01AB10A4C01EA
:10388000800E911EA0914904B0914A04612C712CC4
:10389000E12CF12C109709F446C08D919C91119761
:1038A000A815B905B1F56C0142E0C40ED11CCA14CB
:1038B000DB0478F14C018A189B08640142E0C40ED5
:1038C000D11C1296BC9012971396AC91B5E0CB1612
:1038D000D10440F0B282A38391828082D9016D939A
:1038E0007C9309C00E5F1F4F800F911FF9019183D8
:1038F0008083EB2DFA2FE114F10431F0D7011396F8
:10390000FC93EE93129741C0F0934A04E09349046C
:103910003CC06816790608F43C017D0112960D90B2
:10392000BC91A02DB7CF8091470490914804881690
:103930009906E1F466167706C8F480910C0290911E
:103940000D02009741F48DB79EB74091100250913F
:103950001102841B950BE817F907C8F4F09348048B
:10396000E0934704F901718360830FC0CB010E948B
:10397000D21A7C01009759F0A801BE010E94DD1CFB
:10398000CE010E946A1BC70104C0CE0102C080E0C4
:1039900090E0DF91CF911F910F91FF90EF90DF901A
:1039A000CF90BF90AF909F908F907F906F90089531
:1039B00081E090E0F8940C94ED1CFB01DC0102C066
:1039C00001900D9241505040D8F70895FB01DC0161
:1039D00001900D920020E1F7089511E0CFEDD1E0C4
:1039E00000E006C0802FFE010E94CB182196011D29
:0E39F000C03ED10780E00807A9F7F894FFCF8A
:1039FE00F0D8F0D8F0D8F0D80000704100004B0499
:103A0E008000000000008A07F7062107D70752073B
:103A1E003007440700000000BF089208EF08660850
:103A2E008A08760867082C32002C38002C34002CBB
:103A3E0036002C0064697374616E636567726F750E
:103A4E0070342D3535313800646973636F67657373
:103A5E00747572652D3465366200646973636F70B8
:103A6E00726573737572652D35393838000D0A001D
:00000001FF
