:100000000C9463010C9494010C9494010C9494014D
:100010000C9494010C9494010C9494010C9494010C
:100020000C9494010C9494010C9494010C949401FC
:100030000C9494010C9494010C9494010C949401EC
:100040000C9494010C9494010C9494010C949401DC
:100050000C9494010C9494010C9494010C947408E5
:100060000C9494010C940C040C94E2030C949401F1
:100070000C9494010C9494010C9494010C949401AC
:100080000C9494010C9494010C9494010C9494019C
:100090000C9494010C9494010C9494010C944204DB
:1000A0000C9494010C9494010C9494010C9494017C
:1000B0000C9494010C9494010C9494010C9494016C
:1000C0000C9494010C9494010C9494010C9494015C
:1000D0000C9494010C9494010C9494010C9494014C
:1000E0000C949401D207D507C407C807CC070C08A5
:1000F000D907DD07E307E707EB07F107F507F9077E
:100100000C08FF070308070807634236B79BD8A708
:100110001A39685618AEBAAB558C1D3CB7CC57632C
:10012000BD6DEDFD753EF6177231BF000000803FDA
:100130000C9431030C9415030C9496010C94880CC8
:100140000C94FF070C9478020C94F5070C948E0322
:100150000C94F1070C94F3010C942B020C9498016D
:100160000C94D1010C94EB070C9497010C940C089F
:100170000C9403080C94DD070C94C4070C94C80776
:100180000C94760C0C94D5070C94F9070C94E307A7
:100190000C94E7070C94D2070C94CC070C94070836
:1001A0000C9429030C9406030C94C2010C94E501F1
:1001B0000C945E030C9405030C94D90700000A0B01
:1001C00002090C0D0E0807030401000000000000E6
:1001D000000000000000000000000000000000001F
:1001E00000000000000000001211100000000000DC
:1001F00000000000000000000000000000000000FF
:10020000000000002200250028002B002E003100F5
:10021000340002010000050108010B01000021006B
:10022000240027002A002D003000330001010000C7
:10023000040107010A010505050507050808080866
:10024000020202020A0A080804040404010101016E
:100250000101010103030303030303030407070769
:100260000C0C0C0C0C0C0C0C02020202060606060E
:10027000060606060B0B0B0B0B0B0B0B01021020DB
:1002800020080810204010204080020102010804CC
:100290000201010204081020408080402010080460
:1002A00002018004020180402010080402010804B9
:1002B00002010102040810204080010204081020FD
:1002C0004080880C760C11241FBECFEFD1E2DEBF38
:1002D000CDBF00E00CBF24E0ACE0B3E001C01D9254
:1002E000A43BB207E1F713E0A0E0B2E0E4E9F4E2F6
:1002F00000E00BBF02C007900D92AC30B107D9F7F8
:1003000011E0C2E6D1E000E006C021970109802F8C
:10031000FE010E94180EC136D10780E00807A9F738
:100320000E94BE080C9438120C94000008950895A1
:10033000CF92DF92EF92FF920F931F93CF93DF93B1
:100340006C017A018B01C0E0D0E0CE15DF0581F0B1
:10035000D8016D918D01D601ED91FC910190F08154
:10036000E02DC6011995892B11F02196EECF7E0163
:10037000C701DF91CF911F910F91FF90EF90DF9018
:10038000CF900895FC01538D448D252F30E0842FAC
:1003900090E0821B930B541710F0CF9608950197AD
:1003A0000895FC01918D828D981761F0828DDF0197
:1003B000A80FB11D5D968C91928D9F5F9F73928F58
:1003C00090E008958FEF9FEF0895FC01918D828D4D
:1003D000981731F0828DE80FF11D858D90E008951A
:1003E0008FEF9FEF0895FC01918D228D892F90E072
:1003F000805C9F4F821B91098F73992708958CEE23
:1004000093E00E94F30121E0892B09F420E0822F80
:100410000895FC01848DDF01A80FB11DA35ABF4FC1
:100420002C91848D90E001968F739927848FA689F3
:10043000B7892C93A089B1898C91837080648C9347
:10044000938D848D981306C00288F389E02D8081F6
:100450008F7D80830895EF92FF920F931F93CF9328
:10046000DF93EC0181E0888F9B8D8C8D981305C004
:10047000E889F989808185FD26C0F62E0B8D10E074
:100480000F5F1F4F0F731127E02E8C8DE8120CC0E9
:100490000FB607FCFACFE889F989808185FFF5CF8F
:1004A000CE010E940902F1CF8B8DFE01E80FF11DF4
:1004B000E35AFF4FF0829FB7F8940B8FEA89FB89CC
:1004C000808180620AC09FB7F894EE89FF896083BB
:1004D000E889F98980818370806480839FBF81E08F
:1004E00090E0DF91CF911F910F91FF90EF900895D1
:1004F000CF93DF93EC01888D8823C9F0EA89FB89CB
:10050000808185FD05C0A889B9898C9186FD0FC0C1
:100510000FB607FCF5CF808185FFF2CFA889B98996
:100520008C9185FFEDCFCE010E940902E7CFDF91CC
:10053000CF91089580E090E0892B21F00E94FF0187
:10054000811125C080E090E0892B41F080E090E0AF
:10055000892B21F00E94000081111CC080E090E0F6
:10056000892B41F080E090E0892B21F00E9400006F
:10057000811113C080E090E0892BA1F080E090E031
:10058000892B81F00E94000081110AC008950E9409
:100590000000D8CF0E940000E1CF0E940000EACF07
:1005A0000C940000089585ED8093BC008091BC0000
:1005B00084FDFCCF1092C703089540912C03262F91
:1005C00030E0240F311D21323105DCF42091C703C6
:1005D0002430C9F4FC0180E090E0861758F4309193
:1005E0002C032191DC01A45FBC4FA30FB11D2C9300
:1005F0000196F3CF80912C03680F60932C0380E069
:10060000089581E0089582E008950895E0917403CB
:1006100080917303E81730F4F0E0E15BFC4F8081D8
:1006200090E008958FEF9FEF08959091740380916B
:100630007303981750F4E92FF0E0E15BFC4F208141
:1006400030E09F5F9093740302C02FEF3FEFC9012A
:1006500008958091730390E020917403821B9109A7
:100660000895CF92DF92EF92FF920F931F93CF9353
:10067000DF937C01CB018A012091C803222389F0FA
:10068000EB016B01C40ED51ECC15DD0569F0699137
:10069000D701ED91FC910190F081E02DC7011995F2
:1006A000F3CF642F0E94DD02C801DF91CF911F912B
:1006B0000F91FF90EF90DF90CF900895CF93DF934D
:1006C0001F92CDB7DEB769832091C8032223D1F0F2
:1006D0002091EB03203240F021E030E0FC01338335
:1006E000228380E090E015C08091C903E82FF0E0FC
:1006F000E653FC4F998190838F5F8093C903809369
:10070000EB0305C061E0CE0101960E94DD0281E0AD
:1007100090E00F90DF91CF910895089580E090E0F0
:1007200008950E9423124F925F926F927F928F9250
:100730009F92AF92BF92CF92DF92EF92FF926B01A6
:100740007C012FEE39EC43E75FE30E94380D0E94F5
:10075000070F2B013C0124EB38EC4EE050ECC701B5
:10076000B6010E94380D0E94070F4B015C012CE27C
:100770003DE748E65CE3C301B2010E94380D6B011E
:100780007C0128EC3EE54FE65CEBC501B4010E941C
:10079000380D9B01AC01C701B6010E94210E23EC6C
:1007A00035EF4CE151E40E94380DFF90EF90DF905F
:1007B000CF90BF90AF909F908F907F906F905F9001
:1007C0004F9008951F920F920FB60F9211240BB6FF
:1007D0000F922F933F934F935F936F937F938F93DA
:1007E0009F93AF93BF93EF93FF938CEE93E00E94A0
:1007F0000902FF91EF91BF91AF919F918F917F91EE
:100800006F915F914F913F912F910F900BBE0F9081
:100810000FBE0F901F9018951F920F920FB60F9258
:1008200011240BB60F922F938F939F93EF93FF9307
:10083000E091FC03F091FD038081E0910204F091CE
:10084000030482FD12C09081809105048F5F8F7335
:1008500020910604821751F0E0910504F0E0E45184
:10086000FC4F958F8093050401C08081FF91EF912B
:100870009F918F912F910F900BBE0F900FBE0F90F5
:100880001F9018951F920F920FB60F9211240BB65E
:100890000F922F933F934F935F936F937F938F9319
:1008A0009F93AF93BF93EF93FF938091B900887F9D
:1008B000803609F49CC068F5883209F45BC090F476
:1008C000803109F454C038F4882309F4F6C0883024
:1008D00009F44DC0F6C0883109F44CC0803209F4E7
:1008E0005DC0EFC0803409F468C048F4803309F477
:1008F00055C0883309F0E5C08093C503D8C0803562
:1009000009F44FC0883509F45DC0883409F0D9C0B6
:10091000D6C0883909F4C7C0A8F4883709F467C07D
:1009200038F4883609F463C0803709F460C0C9C060
:10093000883809F4B8C0803909F45FC0803809F0FC
:10094000C0C05BC0803B09F486C038F4803A09F42B
:1009500066C0883A09F47FC0B4C0803C09F4A7C0DF
:10096000883C09F4A4C0883B09F48AC0AAC08091DD
:10097000A20310C09091C4038091C303981770F52F
:10098000E091C40381E08E0F8093C403F0E0ED5545
:10099000FC4F80818093BB0085EC86C08093C503AB
:1009A0008EC0E091C40381E08E0F8093C4038091D8
:1009B000BB00F0E0ED55FC4F80839091C403809123
:1009C000C3036EC0E091C40381E08E0F8093C40323
:1009D0008091BB00F0E0ED55FC4F80838091C60311
:1009E00081116DC081E08093A10384EA61C083E03E
:1009F0008093C70310924E03CFCF80914E03803275
:100A000008F051C0E0914E0381E08E0F80934E03B9
:100A10008091BB00F0E0E25DFC4F8083BDCF85ECB0
:100A20008093BC001092C70380914E03803230F453
:100A3000E0914E03F0E0E25DFC4F108260914E03C6
:100A400070E0E0916F03F09170038EE293E01995EE
:100A500010924E0336C084E08093C70310922D039A
:100A600010922C03E0917103F0917203199580911B
:100A70002C03811105C081E080932C0310920C039C
:100A8000E0912D0381E08E0F80932D03F0E0E45F71
:100A9000FC4F80818093BB0090912D0380912C03AB
:100AA000981708F479CF85E88093BC000AC085ECDC
:100AB0008093BC001092C70304C01092C5030E942B
:100AC000D302FF91EF91BF91AF919F918F917F9151
:100AD0006F915F914F913F912F910F900BBE0F90AF
:100AE0000FBE0F901F9018953FB7F8948091AC04FB
:100AF0009091AD04A091AE04B091AF0426B5A89B2F
:100B000005C02F3F19F00196A11DB11D3FBFBA2F9F
:100B1000A92F982F8827820F911DA11DB11DBC01FF
:100B2000CD0142E0660F771F881F991F4A95D1F7C4
:100B30000895009769F0FC0101900020E9F73197D2
:100B4000AF01481B590BBC018CEE93E00C9498014B
:100B500080E090E008952F923F924F925F926F92C3
:100B60007F928F929F92AF92BF92CF92DF92EF923D
:100B7000FF920F931F93CF93DF93CDB7DEB7A49768
:100B80000FB6F894DEBF0FBECDBF4B015C01F42E53
:100B90009B01AC010E940A10882319F080E093E0C9
:100BA00027C024013501E89477F82FEF3FEF4FE796
:100BB0005FE7C301B2010E940A1081110DC02FEF3F
:100BC0003FEF4FE75FE7C301B2010E94D20C181656
:100BD0001CF484E093E00CC02FEF3FEF4FE75FE49D
:100BE000C501B4010E948F0F18162CF488E093E021
:100BF0000E949905B8C02FEF3FEF4FE75FECC501AA
:100C0000B4010E94D20C87FDF1CF20E030E0A901B1
:100C1000C501B4010E94D20C87FF0BC06DE28CEEBF
:100C200093E00E942B023C01B7FAB094B7F8B0945D
:100C300002C0612C712C10E060E070E080E09FE366
:100C4000F11641F020E030E040E251E40E948D0EC8
:100C50001F5FF6CFA50194010E94210E4B015C019C
:100C60000E94390F6AA3C72ED82EE92E19A2262F6B
:100C7000372F482F592F8E010F5D1F4F0BA31CA339
:100C80009AE0292E312C412C512CCA01B901A20124
:100C900091010E94F60D605DF80162938F012115AC
:100CA00031054105510589F7CF010E94990583015E
:100CB000080F191FFF2009F455C06AA17C2D8D2D46
:100CC0009E2D0E94D70C9B01AC01C501B4010E946E
:100CD000200E4B015C016EE28CEE93E00E942B0231
:100CE000080F191F8AE0282E312C412C512C20E0AE
:100CF00030E040E251E4C501B4010E94380D4B01DF
:100D00005C010E94390F9B0140E050E019A2CBA08A
:100D1000DCA0762E3AA3642EE52ECA01B901A20109
:100D200091010E94F60D605DF60162936F0121153D
:100D300031054105510589F7CF010E949905080F3A
:100D4000191F672D7AA1862D9E2D0E94D70C9B011D
:100D5000AC01C501B4010E94200E4B015C01FA9464
:100D6000F110C5CFC801A4960FB6F894DEBF0FBE30
:100D7000CDBFDF91CF911F910F91FF90EF90DF904A
:100D8000CF90BF90AF909F908F907F906F905F902B
:100D90004F903F902F900895CF93DF9390E0FC0108
:100DA000E458FD4F2491FC01EA5CFD4F84918823B7
:100DB000C1F090E0880F991FFC01E45EFD4FC591E2
:100DC000D491FC01EE5FFD4FA591B4919FB7F894CB
:100DD0008881E22FE0958E2388838C91E823EC9321
:100DE0009FBFDF91CF910895CF93DF930E94990524
:100DF000EC018CE792E00E9499058C0F9D1FDF911A
:100E0000CF910895282F3091EB03313208F04AC07A
:100E10008091C7038111FCCF9091EA0342E0409397
:100E2000C7032093C6032FEF2093C5031092C4037A
:100E30003093C303EAECF3E0A3EAB3E020E0321717
:100E400021F041914D932F5FFACF1092A203209190
:100E5000A203990F922B9093A2039091A10391303A
:100E600061F41092A1039091A2039093BB00909122
:100E7000BC0093FDF8CF95EC01C095EE9093BC00BB
:100E80009091C7039230E1F39091C5039F3F79F0B1
:100E90008091C503803241F08091C503803331F0E9
:100EA00084E005C081E003C082E001C083E01092CD
:100EB000C9031092EB031092C8030895EF92FF92BA
:100EC0001F93CF93DF937B01142FCBE8D3E098815E
:100ED00021E02093C8039093EA031092C903109273
:100EE000EB03A981BA81ED91FC9111970190F081FA
:100EF000E02D682FCD01199589819A81412F50E00D
:100F0000DC01ED91FC910280F381E02DB701199590
:100F100081E0DF91CF911F91FF90EF900C94020739
:100F2000CF93DF931F92CDB7DEB7698341E0BE0157
:100F30006F5F7F4F0E945E070F90DF91CF91089502
:100F4000809193038F77089590E0FC01E454FE4F65
:100F50004491FC01E458FD4F2491FC01EA5CFD4FF3
:100F60009491992309F466C0442309F455C050E0D4
:100F7000FA013197E231F10508F04EC08827EE58AA
:100F8000FF4F8F4F0C94180E809180008F7707C011
:100F9000809180008F7D03C080918000877F809347
:100FA00080003AC084B58F7702C084B58F7D84BD40
:100FB00033C08091B0008F7703C08091B0008F7DE7
:100FC0008093B00029C0809190008F7707C08091F6
:100FD00090008F7D03C080919000877F8093900068
:100FE0001BC08091A0008F7707C08091A0008F7DEB
:100FF00003C08091A000877F8093A0000DC08091E6
:1010000020018F7707C0809120018F7D03C08091E0
:101010002001877F80932001E92FF0E0EE0FFF1F72
:10102000EE5FFD4FA591B4918FB7F894EC91E22B50
:10103000EC938FBF0895863308F0865390917B0020
:10104000282F2870977F922B90937B008770806465
:1010500080937C0080917A00806480937A008091F4
:101060007A0086FDFCCF809178002091790090E095
:10107000922B08958F929F92AF92BF92CF92DF9260
:10108000EF92FF926B017C010E9474054B015C01A1
:10109000C114D104E104F104F1F00E947405DC01F3
:1010A000CB0188199909AA09BB09883E9340A1057B
:1010B000B10570F321E0C21AD108E108F10888EE09
:1010C000880E83E0981EA11CB11CC114D104E10458
:1010D000F10419F7DDCFFF90EF90DF90CF90BF9034
:1010E000AF909F908F9008951F920F920FB60F921E
:1010F00011242F933F938F939F93AF93BF9380912E
:10110000A8049091A904A091AA04B091AB043091D5
:10111000A70423E0230F2D3720F40196A11DB11D54
:1011200005C026E8230F0296A11DB11D2093A70438
:101130008093A8049093A904A093AA04B093AB044D
:101140008091AC049091AD04A091AE04B091AF0435
:101150000196A11DB11D8093AC049093AD04A093A2
:10116000AE04B093AF04BF91AF919F918F913F9127
:101170002F910F900FBE0F901F901895789484B503
:10118000826084BD84B5816084BD85B5826085BD83
:1011900085B5816085BD80916E00816080936E0011
:1011A0001092810080918100826080938100809103
:1011B00081008160809381008091800081608093B4
:1011C00080008091B10084608093B1008091B00074
:1011D00081608093B0008091910082608093910043
:1011E0008091910081608093910080919000816056
:1011F000809390008091A10082608093A1008091F3
:10120000A10081608093A1008091A0008160809303
:10121000A0008091210182608093210180912101B1
:101220008160809321018091200181608093200161
:1012300080917A00846080937A0080917A00826045
:1012400080937A0080917A00816080937A00809107
:101250007A00806880937A001092C100E091FC03CC
:10126000F091FD0382E08083E091F803F091F903AF
:101270001082E091FA03F091FB038FEC80831092CF
:101280000404E0910004F091010486E08083E09181
:10129000FE03F091FF03808180618083E091FE0373
:1012A000F091FF03808188608083E091FE03F091DC
:1012B000FF03808180688083E091FE03F091FF034B
:1012C00080818F7D808389E894E090938D03809363
:1012D0008C0310927403109273031092C90310923E
:1012E000EB031092C70311E01093C6031092A10301
:1012F00084E10E94A40785E10E94A4078091B900BF
:101300008E7F8093B9008091B9008D7F8093B90062
:1013100088E48093B80085E48093BC0086E991E07E
:10132000909372038093710387E991E09093700327
:1013300080936F0389E380938B031093C80380939A
:10134000EA031092C9031092EB0380918C039091F1
:101350008D03DC01ED91FC910190F081E02D62E9BB
:10136000199581E00E9402078091C7038111FCCF8B
:1013700080918B0391E09093C7039093C6032FEF66
:101380002093C5031092C4031092C3039093A20349
:101390009091A203880F892B8093A2038091A103CF
:1013A000813061F41092A1038091A2038093BB006D
:1013B0008091BC0083FDF8CF85EC01C085EE809361
:1013C000BC008091C7038130E1F38091C403811197
:1013D00003C09091C40301C091E0A3EAB3E0EFE43D
:1013E000F3E080E0891721F02D9121938F5FFACFF0
:1013F000109274038093730380918C0390918D03FA
:10140000DC01ED91FC910084F185E02D1995892B8B
:1014100061F080918C0390918D03DC01ED91FC9142
:101420000284F385E02D1995C82FCB3A09F00DC23F
:101430006CEF81E80E949007609197036C7F616078
:1014400060939703862F82958F70982F9370B0E4E6
:101450009B9FC00111246C70682B61608FE80E9413
:10146000900760919F036E7F60939F036695637002
:1014700070E0660F771F8BEA0E94900780919303BC
:101480008F7B809393030E94A007682F80E80E94BF
:10149000900710928E0310928F0310929003109277
:1014A000910310929203809193038B7F8093930317
:1014B0000E94A007682F80E80E9490078091930304
:1014C0008D7F809393030E94A007682F80E80E947D
:1014D0009007809193038F7E809393030E94A007CF
:1014E000682F80E80E949007809193038F7D8093FE
:1014F00093030E94A007682F80E80E94900740E0B5
:1015000060E070E087EE0E945E07809193038E7F1B
:10151000809393030E94A007682F80E80E949007A1
:101520006AE070E080E090E00E943A0880919303C6
:101530008160809393030E94A007682F80E80E9437
:1015400090076AE070E080E090E00E943A088091A5
:101550009E038C7F80939E0360E08AEA0E9490073E
:1015600060919B036F73606460939B036F7360640F
:1015700082EA0E94900760919C036F796064609397
:101580009C036F71606483EA0E94900762E380EAC3
:101590000E94900710928E0310928F031092900376
:1015A000109291031092920389EC80939D0369EC51
:1015B00086EA0E94900782E392E00E94F4068091FE
:1015C00093038460809393030E94A007682F80E8B0
:1015D0000E949007809193038064809393030E94FC
:1015E000A007682F80E80E94900710928E03109247
:1015F0008F031092900310929103109292038EE445
:1016000092E00E94F40687E30E94CC0688E30E94E1
:10161000CC0689E30E94CC068AE30E94CC068BE6C6
:1016200092E00E94F40686E30E94CC06C5E087E3C0
:101630000E941B088C0180910602909107020817F6
:10164000190709F4F9C0C09FB001C19F700D1124A2
:10165000072E000C880B990B0E94D90C20E030EC6F
:101660004FE754E40E948D0E0E949303609387031A
:10167000709388038093890390938A0310930702E1
:1016800000930602009185031091860310930502D2
:101690000093040288E30E941B08909386038093C2
:1016A00085030817190709F4C7C0C89FB001C99F6F
:1016B000700D1124072E000C880B990B0E94D90C79
:1016C00020E030EC4FE754E40E948D0E0E9493031B
:1016D00060938103709382038093830390938403C8
:1016E00000917F0310918003109303020093020284
:1016F00089E30E941B089093800380937F0308175F
:10170000190709F499C0C89FB001C99F700D112431
:10171000072E000C880B990B0E94D90C20E030ECAE
:101720004FE754E40E948D0E0E94930360937B0365
:1017300070937C0380937D0390937E0300917903E3
:1017400010917A0310930102009300028AE30E9431
:101750001B0890937A03809379030817190709F4FB
:101760006BC0C89FB001C99F700D1124072E000CDB
:10177000880B990B0E94D90C20E030EC4FE754E421
:101780000E948D0E0E9493036093750370937603FD
:1017900080937703909378038CE792E00E949905F9
:1017A0004091990450919A04609195047091960427
:1017B0008CEE93E00E9498018FE792E00E949905D9
:1017C00060918703709188038091890390918A03C7
:1017D00042E00E94AB058FE792E00E94990560917C
:1017E000810370918203809183039091840342E08E
:1017F0000E94AB058FE792E00E94990560917B0300
:1018000070917C0380917D0390917E0342E00E9461
:10181000AB058FE792E00E94990560917503709186
:101820007603809177039091780342E00E94AB05A4
:101830008CE792E00E94990562E370E080E090E01E
:101840000E943A080E949A02F2CE81E892E0B5CE58
:10185000EF92FF920F931F93CF93DF93EC011982C6
:1018600018821B821A821D821C8261157105B9F1D2
:101870007B01FB0101900020E9F731978F01061BE6
:10188000170BB8016F5F7F4F80E090E00E943E1120
:10189000009759F0998388831B830A832C813D81AB
:1018A000232B81F4FC0110820DC08881998100975F
:1018B00011F00E94B510198218821D821C821B82B1
:1018C0001A820DC01D830C83B70188819981DF9135
:1018D000CF911F910F91FF90EF900C943112DF91F7
:1018E000CF911F910F91FF90EF90089580919504F3
:1018F000909196040E94B51080919B0490919C0455
:101900000E94B5108091A1049091A2040C94B5108E
:10191000ECEEF3E01382128288EE93E0A0E0B0E0F8
:1019200084839583A683B78322E132E031832083C9
:1019300025EC30E03587248724EC30E03787268794
:1019400020EC30E0318B208B21EC30E0338B228B8C
:1019500022EC30E0358B248B26EC30E0378B268B65
:10196000118E128E138E148EE9E8F4E01382128227
:1019700084839583A683B78384E292E091838083F6
:1019800068EB72E081EA94E00E94280C6CEC72E053
:101990008BE994E00E94280C65EE72E085E994E002
:1019A0000C94280C0E94140D08F481E00895E8942A
:1019B00009C097FB3EF490958095709561957F4F97
:1019C0008F4F9F4F9923A9F0F92F96E9BB27939545
:1019D000F695879577956795B795F111F8CFFAF455
:1019E000BB0F11F460FF1BC06F5F7F4F8F4F9F4F86
:1019F00016C0882311F096E911C0772321F09EE8E4
:101A0000872F762F05C0662371F096E8862F70E049
:101A100060E02AF09A95660F771F881FDAF7880F23
:101A20009695879597F90895990F0008550FAA0B79
:101A3000E0E8FEEF16161706E807F907C0F01216E1
:101A40001306E407F50798F0621B730B840B950BE4
:101A500039F40A2661F0232B242B252B21F4089539
:101A60000A2609F4A140A6958FEF811D811D0895D6
:101A70000E944B0D0C94BC0D0E94AE0D38F00E94DC
:101A8000B50D20F0952311F00C94A50D0C94AB0D21
:101A900011240C94F00D0E94CD0D70F3959FC1F3AD
:101AA000950F50E0551F629FF001729FBB27F00D0C
:101AB000B11D639FAA27F00DB11DAA1F649F662761
:101AC000B00DA11D661F829F2227B00DA11D621FB0
:101AD000739FB00DA11D621F839FA00D611D221F6A
:101AE000749F3327A00D611D231F849F600D211D4E
:101AF000822F762F6A2F11249F5750409AF0F1F0D1
:101B000088234AF0EE0FFF1FBB1F661F771F881F39
:101B100091505040A9F79E3F510580F00C94A50DBF
:101B20000C94F00D5F3FE4F3983ED4F386957795DF
:101B30006795B795F795E7959F5FC1F7FE2B880FDF
:101B4000911D9695879597F9089597F99F6780E875
:101B500070E060E008959FEF80EC089500240A94FF
:101B60001616170618060906089500240A94121678
:101B70001306140605060895092E0394000C11F4AB
:101B8000882352F0BB0F40F4BF2B11F460FF04C058
:101B90006F5F7F4F8F4F9F4F089557FD9058440FB1
:101BA000551F59F05F3F71F04795880F97FB991FBC
:101BB00061F09F3F79F08795089512161306140679
:101BC000551FF2CF4695F1DF08C016161706180606
:101BD000991FF1CF86957105610508940895E894E1
:101BE000BB2766277727CB0197F90895A1E21A2E24
:101BF000AA1BBB1BFD010DC0AA1FBB1FEE1FFF1FB1
:101C0000A217B307E407F50720F0A21BB30BE40B00
:101C1000F50B661F771F881F991F1A9469F7609547
:101C20007095809590959B01AC01BD01CF01089501
:101C3000EE0FFF1F881F8BBF0790F691E02D1994C0
:101C40005058BB27AA270E94380E0C94BC0D0E9446
:101C5000AE0D38F00E94B50D20F039F49F3F19F415
:101C600026F40C94AB0D0EF4E095E7FB0C94A50D57
:101C7000E92F0E94CD0D58F3BA1762077307840746
:101C8000950720F079F4A6F50C94EF0D0EF4E0958D
:101C90000B2EBA2FA02D0B01B90190010C01CA0126
:101CA000A0011124FF27591B99F0593F50F4503ED1
:101CB00068F11A16F040A22F232F342F4427585FC3
:101CC000F3CF469537952795A795F0405395C9F7DB
:101CD0007EF41F16BA0B620B730B840BBAF0915093
:101CE000A1F0FF0FBB1F661F771F881FC2F70EC032
:101CF000BA0F621F731F841F48F487957795679505
:101D0000B795F7959E3F08F0B0CF9395880F08F0F0
:101D10009927EE0F9795879508950E94A10E0C9430
:101D2000BC0D0E94B50D58F00E94AE0D40F029F494
:101D30005F3F29F00C94A50D51110C94F00D0C94FB
:101D4000AB0D0E94CD0D68F39923B1F3552391F3A8
:101D5000951B550BBB27AA2762177307840738F01A
:101D60009F5F5F4F220F331F441FAA1FA9F335D077
:101D70000E2E3AF0E0E832D091505040E695001C2B
:101D8000CAF72BD0FE2F29D0660F771F881FBB1FE5
:101D9000261737074807AB07B0E809F0BB0B802DC3
:101DA000BF01FF2793585F4F3AF09E3F510578F0EF
:101DB0000C94A50D0C94F00D5F3FE4F3983ED4F322
:101DC000869577956795B795F7959F5FC9F7880FC3
:101DD000911D9695879597F90895E1E0660F771F15
:101DE000881FBB1F621773078407BA0720F0621BA6
:101DF000730B840BBA0BEE1F88F7E095089529F456
:101E000016F00C94A50D0C94EF0D0C94AB0D0E94E4
:101E1000D50DA8F39638A0F707F80F92E8942BE3B6
:101E20003AEA48EB5FE70E944E0D0F920F920F9235
:101E30004DB75EB70F920E94D60FE8E0F1E00E9426
:101E4000680F4F915F91EF91FF91E595EE1FFF1F96
:101E500049F0FE57E0684427EE0F441FFA95E1F77A
:101E60004195550B0E94A00F0F9007FE0C94940F04
:101E700008950E94D50D88F09F5798F0B92F9927A3
:101E8000B751B0F0E1F0660F771F881F991F1AF065
:101E9000BA95C9F714C0B13091F00E94EF0DB1E0CE
:101EA00008950C94EF0D672F782F8827B85F39F0CD
:101EB000B93FCCF3869577956795B395D9F73EF4FE
:101EC00090958095709561957F4F8F4F9F4F0895A6
:101ED000DF93CF931F930F93FF92EF92DF927B01DB
:101EE0008C01689406C0DA2EEF010E944B0DFE01B2
:101EF000E894A5912591359145915591A6F3EF016F
:101F00000E94380EFE019701A801DA9469F7DF906C
:101F1000EF90FF900F911F91CF91DF9108950E9454
:101F2000140D08F48FEF08959B01AC0160E070E0A0
:101F300080E89FE30C948D0E0C94A50D0C940F106B
:101F40000E94D50DD8F39923C9F3940F511DA3F323
:101F50009150504094F059F0882332F0660F771F6B
:101F6000881F91505040C1F79E3F51052CF7880FB4
:101F7000911D9695879597F908955F3FACF0983E2F
:101F80009CF0BB27869577956795B79508F4B16067
:101F90009395C1F7BB0F58F711F460FFE8CF6F5F5F
:101FA0007F4F8F4F9F4FE3CF0C94F00DFA01DC0170
:101FB000AA0FBB1F9B01AC01BF5728F42227332770
:101FC0004427507820C0B75190F4AB2F0024469599
:101FD00037952795011CA395D2F3002071F0220FAD
:101FE000331F441FB395DAF30ED00C94200E6130EA
:101FF0007105A0E88A07B94630F49B01AC01662759
:10200000772788279078309621F020833183428388
:10201000538308950E94140D880B990B08959F3FD8
:1020200031F0915020F4879577956795B795880F93
:10203000911D9695879597F908950F931F93CF93C8
:10204000DF938230910510F482E090E0E091B204D9
:10205000F091B30420E030E0A0E0B0E0309719F157
:10206000408151810281138148175907C8F08417B4
:10207000950769F4109731F012960C931297139606
:102080001C9327C00093B2041093B30422C02115FF
:10209000310519F04217530718F49A01BD01EF01F9
:1020A000DF01F801DBCF21153105F9F0281B390BD1
:1020B0002430310580F48A819B816115710521F0FE
:1020C000FB019383828304C09093B3048093B20492
:1020D000FE01329644C0FE01E20FF31F81939193FB
:1020E00022503109398328833AC02091B0043091BD
:1020F000B104232B41F420910A0230910B0230935A
:10210000B1042093B00420910802309109022115F6
:10211000310541F42DB73EB740910C0250910D02AC
:10212000241B350BE091B004F091B104E217F307E2
:10213000A0F42E1B3F0B2817390778F0AC014E5F37
:102140005F4F2417350748F04E0F5F1F5093B104BF
:102150004093B0048193919302C0E0E0F0E0CF019E
:10216000DF91CF911F910F910895CF93DF93009747
:1021700009F481C0FC01329713821282A091B2044B
:10218000B091B304109781F420813181820F931FA5
:102190002091B0043091B1042817390751F5F0931C
:1021A000B104E093B00467C0ED0120E030E0CE1749
:1021B000DF0740F44A815B819E0141155105F1F032
:1021C000EA01F5CFD383C28340815181840F951FEB
:1021D000C817D90759F488819981840F951F0296F1
:1021E000918380838A819B8193838283211531052A
:1021F00029F4F093B304E093B2043DC0E901FB83FA
:10220000EA8349915991C40FD51FEC17FD0761F47A
:1022100080819181840F951F0296E90199838883BB
:10222000828193819B838A83E0E0F0E012968D9116
:102230009C911397009719F0FD01DC01F7CF8D9168
:102240009C9111979D012E5F3F4F820F931F20910C
:10225000B0043091B1042817390769F4309729F494
:102260001092B3041092B20402C013821282B0938F
:10227000B104A093B004DF91CF9108956F927F9243
:102280008F929F92AF92BF92CF92DF92EF92FF9286
:102290000F931F93CF93DF93009789F4CB01DF91C6
:1022A000CF911F910F91FF90EF90DF90CF90BF9053
:1022B000AF909F908F907F906F900C941D10FC01B9
:1022C000E60FF71F9C0122503109E217F30708F4CB
:1022D000A9C0EC01D9010D911C91119706171707A0
:1022E000B0F00530110508F49BC0C80104978617AB
:1022F000970708F495C002501109061B170B0193AC
:1023000011936D937C93CF010E94B51089C05B013E
:10231000A01AB10A4C01800E911EA091B204B09196
:10232000B304612C712CE12CF12C109709F446C0F8
:102330008D919C911197A815B905B1F56C0142E0FA
:10234000C40ED11CCA14DB0478F14C018A189B0816
:10235000640142E0C40ED11C1296BC9012971396F1
:10236000AC91B5E0CB16D10440F0B282A383918248
:102370008082D9016D937C9309C00E5F1F4F800F3F
:10238000911FF90191838083EB2DFA2FE114F10461
:1023900031F0D7011396FC93EE93129741C0F0935E
:1023A000B304E093B2043CC06816790608F43C011B
:1023B0007D0112960D90BC91A02DB7CF8091B004F5
:1023C0009091B10488169906E1F466167706C8F470
:1023D0008091080290910902009741F48DB79EB751
:1023E00040910C0250910D02841B950BE817F907E0
:1023F000C8F4F093B104E093B004F90171836083F1
:102400000FC0CB010E941D107C01009759F0A8015C
:10241000BE010E942812CE010E94B510C70104C05F
:10242000CE0102C080E090E0DF91CF911F910F912B
:10243000FF90EF90DF90CF90BF90AF909F908F90E4
:102440007F906F90089581E090E0F8940C9438129A
:10245000FB01DC0102C001900D9241505040D8F7C1
:102460000895FB01DC0101900D920020E1F7089531
:1024700011E0C2E6D1E000E006C0802FFE010E941C
:10248000180E2196011DC336D10780E00807A9F771
:04249000F894FFCFEE
:10249400F0D8F0D8F0D8F0D80000B40480000000E0
:1024A40000002B029801C2017802F301D101E50179
:1024B400000000005E0331038E03050329031503A6
:1024C4000603476573747572652053656E736F7286
:1024D40020696E697469616C697A6564210050725F
:1024E4006573737572652073656E736F72732062A2
:1024F4006567696E2068657265210044697374615B
:102504006E63652073656E736F7221000D0A002C73
:10251400004661696C656420746F20696E69746932
:10252400616C697A652053656E736F722120506CFB
:102534006561736520636865636B20796F757220CC
:10254400776972696E672E0064697374616E63657E
:1025540067726F7570342D35353138006765737463
:1025640075726573656E736F7267726F7570342DF3
:102574006363313200707265737375726573656E6F
:10258400736F727367726F7570342D31383635001E
:0C2594006E616E00696E66006F76660076
:00000001FF
