:100000000C9463010C9494010C9494010C9494014D
:100010000C9494010C9494010C9494010C9494010C
:100020000C9494010C9494010C9494010C949401FC
:100030000C9494010C9494010C9494010C949401EC
:100040000C9494010C9494010C9494010C949401DC
:100050000C9494010C9494010C9494010C94070456
:100060000C9494010C947B040C9451040C94940112
:100070000C9494010C9494010C9494010C949401AC
:100080000C9494010C9494010C9494010C9494019C
:100090000C9494010C9494010C9494010C94B1046C
:1000A0000C9494010C9494010C9494010C9494017C
:1000B0000C9494010C9494010C9494010C9494016C
:1000C0000C9494010C9494010C9494010C9494015C
:1000D0000C9494010C9494010C9494010C9494014C
:1000E0000C9494010F081208010805080908490832
:1000F00016081A082008240828082E08320836088E
:1001000049083C084008440807634236B79BD8A713
:100110001A39685618AEBAAB558C1D3CB7CC57632C
:10012000BD6DEDFD753EF6177231BF000000803FDA
:100130000C94430D0C9420080C9405030C94980126
:100140000C941A080C9428080C9449080C94290360
:100150000C9415030C9424080C94220D0C94310378
:100160000C9496010C94C2010C9401080C9436086E
:100170000C94F3010C9440080C9405080C9444086A
:100180000C94E5010C9478020C9406030C94D101B4
:100190000C948E030C9412080C942E080C940908ED
:1001A0000C942B020C945E030C940F080C94970192
:1001B0000C9416080C943C080C94320800002100A2
:1001C000240027002A002D00300033000101000028
:1001D000040107010A0100000A0B02090C0D0E08B8
:1001E0000703040100000000000000000000000000
:1001F00000000000000000000000000000000000FF
:1002000000001211100000000000000000000000BB
:1002100000000000000000000000000001021020AB
:10022000200808102040102040800201020108042C
:1002300002010102040810204080804020100804C0
:100240000201800402018040201008040201080419
:10025000020101020408102040800102040810205D
:10026000408000002200250028002B002E003100D5
:10027000340002010000050108010B010505050518
:10028000070508080808020202020A0A080804040E
:10029000040401010101010101010303030303033C
:1002A0000303040707070C0C0C0C0C0C0C0C0202CB
:1002B000020206060606060606060B0B0B0B0B0BC8
:1002C0000B0B430D220D11241FBECFEFD1E2DEBF79
:1002D000CDBF00E00CBF24E0A4E8B2E001C01D9255
:1002E000A134B207E1F712E0A0E0B2E0ECEFF6E2F1
:1002F00000E00BBF02C007900D92A438B107D9F7F8
:1003000011E0C2E6D1E000E006C021970109802F8C
:10031000FE010E944C0FC136D10780E00807A9F703
:100320000E94F3080C946C130C9400000895089537
:10033000CF92DF92EF92FF920F931F93CF93DF93B1
:100340006C017A018B01C0E0D0E0CE15DF0581F0B1
:10035000D8016D918D01D601ED91FC910190F08154
:10036000E02DC6011995892B11F02196EECF7E0163
:10037000C701DF91CF911F910F91FF90EF90DF9018
:10038000CF900895FC01538D448D252F30E0842FAC
:1003900090E0821B930B541710F0CF9608950197AD
:1003A0000895FC01918D828D981761F0828DDF0197
:1003B000A80FB11D5D968C91928D9F5F9F73928F58
:1003C00090E008958FEF9FEF0895FC01918D828D4D
:1003D000981731F0828DE80FF11D858D90E008951A
:1003E0008FEF9FEF0895FC01918D228D892F90E072
:1003F000805C9F4F821B91098F73992708958DE62A
:1004000093E00E94F30121E0892B09F420E0822F80
:100410000895FC01848DDF01A80FB11DA35ABF4FC1
:100420002C91848D90E001968F739927848FA689F3
:10043000B7892C93A089B1898C91837080648C9347
:10044000938D848D981306C00288F389E02D8081F6
:100450008F7D80830895EF92FF920F931F93CF9328
:10046000DF93EC0181E0888F9B8D8C8D981305C004
:10047000E889F989808185FD26C0F62E0B8D10E074
:100480000F5F1F4F0F731127E02E8C8DE8120CC0E9
:100490000FB607FCFACFE889F989808185FFF5CF8F
:1004A000CE010E940902F1CF8B8DFE01E80FF11DF4
:1004B000E35AFF4FF0829FB7F8940B8FEA89FB89CC
:1004C000808180620AC09FB7F894EE89FF896083BB
:1004D000E889F98980818370806480839FBF81E08F
:1004E00090E0DF91CF911F910F91FF90EF900895D1
:1004F000CF93DF93EC01888D8823C9F0EA89FB89CB
:10050000808185FD05C0A889B9898C9186FD0FC0C1
:100510000FB607FCF5CF808185FFF2CFA889B98996
:100520008C9185FFEDCFCE010E940902E7CFDF91CC
:10053000CF91089580E090E0892B21F00E94FF0187
:10054000811125C080E090E0892B41F080E090E0AF
:10055000892B21F00E94000081111CC080E090E0F6
:10056000892B41F080E090E0892B21F00E9400006F
:10057000811113C080E090E0892BA1F080E090E031
:10058000892B81F00E94000081110AC008950E9409
:100590000000D8CF0E940000E1CF0E940000EACF07
:1005A0000C940000089585ED8093BC008091BC0000
:1005B00084FDFCCF1092480308954091A402262F99
:1005C00030E0240F311D21323105DCF42091480345
:1005D0002430C9F4FC0180E090E0861758F4309193
:1005E000A4022191DC01AC57BD4FA30FB11D2C9388
:1005F0000196F3CF8091A402680F6093A40280E07B
:10060000089581E0089582E008950895E091EC0254
:100610008091EB02E81730F4F0E0E953FD4F808160
:1006200090E008958FEF9FEF08959091EC028091F4
:10063000EB02981750F4E92FF0E0E953FD4F2081C9
:1006400030E09F5F9093EC0202C02FEF3FEFC901B3
:1006500008958091EB0290E02091EC02821B9109B9
:100660000895CF92DF92EF92FF920F931F93CF9353
:10067000DF937C01CB018A0120914903222389F079
:10068000EB016B01C40ED51ECC15DD0569F0699137
:10069000D701ED91FC910190F081E02DC7011995F2
:1006A000F3CF642F0E94DD02C801DF91CF911F912B
:1006B0000F91FF90EF90DF90CF900895CF93DF934D
:1006C0001F92CDB7DEB76983209149032223D1F071
:1006D00020916C03203240F021E030E0FC013383B4
:1006E000228380E090E015C080914A03E82FF0E07B
:1006F000E55BFC4F998190838F5F80934A038093E1
:100700006C0305C061E0CE0101960E94DD0281E02C
:1007100090E00F90DF91CF910895089580E090E0F0
:1007200008950E9457134F925F926F927F928F921B
:100730009F92AF92BF92CF92DF92EF92FF926B01A6
:100740007C012FEE39EC43E75FE30E946C0E0E94C0
:100750003B102B013C0124EB38EC4EE050ECC70180
:10076000B6010E946C0E0E943B104B015C012CE212
:100770003DE748E65CE3C301B2010E946C0E6B01E9
:100780007C0128EC3EE54FE65CEBC501B4010E941C
:100790006C0E9B01AC01C701B6010E94550F23EC02
:1007A00035EF4CE151E40E946C0EFF90EF90DF902A
:1007B000CF90BF90AF909F908F907F906F905F9001
:1007C0004F9008953FB7F8948091080390910903E2
:1007D000A0910A03B0910B0326B5A89B05C02F3F3B
:1007E00019F00196A11DB11D3FBFBA2FA92F982F57
:1007F0008827820F911DA11DB11DBC01CD0142E0D2
:10080000660F771F881F991F4A95D1F708951F9289
:100810000F920FB60F9211242F933F938F939F93B4
:10082000AF93BF938091040390910503A0910603B9
:10083000B09107033091030323E0230F2D3720F4F9
:100840000196A11DB11D05C026E8230F0296A11D2A
:10085000B11D209303038093040390930503A09399
:100860000603B09307038091080390910903A091B8
:100870000A03B0910B030196A11DB11D80930803DB
:1008800090930903A0930A03B0930B03BF91AF9118
:100890009F918F913F912F910F900FBE0F901F90BE
:1008A00018951F920F920FB60F9211240BB60F924C
:1008B0002F933F934F935F936F937F938F939F9368
:1008C000AF93BF93EF93FF938DE693E00E940902ED
:1008D000FF91EF91BF91AF919F918F917F916F9118
:1008E0005F914F913F912F910F900BBE0F900FBED4
:1008F0000F901F9018951F920F920FB60F92112410
:100900000BB60F922F938F939F93EF93FF93E091EA
:100910007D03F0917E038081E0918303F091840355
:1009200082FD12C09081809186038F5F8F7320912A
:100930008703821751F0E0918603F0E0E359FC4F02
:10094000958F8093860301C08081FF91EF919F91E5
:100950008F912F910F900BBE0F900FBE0F901F9095
:1009600018951F920F920FB60F9211240BB60F928B
:100970002F933F934F935F936F937F938F939F93A7
:10098000AF93BF93EF93FF938091B900887F803638
:1009900009F49CC068F5883209F45BC090F480319A
:1009A00009F454C038F4882309F4F6C0883009F4F7
:1009B0004DC0F6C0883109F44CC0803209F45DC0E6
:1009C000EFC0803409F468C048F4803309F455C09E
:1009D000883309F0E5C080934603D8C0803509F418
:1009E0004FC0883509F45DC0883409F0D9C0D6C03D
:1009F000883909F4C7C0A8F4883709F467C038F407
:100A0000883609F463C0803709F460C0C9C08838EB
:100A100009F4B8C0803909F45FC0803809F0C0C05B
:100A20005BC0803B09F486C038F4803A09F466C0A4
:100A3000883A09F47FC0B4C0803C09F4A7C0883C60
:100A400009F4A4C0883B09F48AC0AAC0809123039A
:100A500010C09091450380914403981770F5E09180
:100A6000450381E08E0F80934503F0E0EC5DFC4F81
:100A700080818093BB0085EC86C0809346038EC046
:100A8000E091450381E08E0F809345038091BB0088
:100A9000F0E0EC5DFC4F808390914503809144032E
:100AA0006EC0E091450381E08E0F809345038091F5
:100AB000BB00F0E0EC5DFC4F808380914703811127
:100AC0006DC081E08093220384EA61C083E080935B
:100AD00048031092C602CFCF8091C602803208F040
:100AE00051C0E091C60281E08E0F8093C6028091D2
:100AF000BB00F0E0EA55FD4F8083BDCF85EC8093CD
:100B0000BC00109248038091C602803230F4E0911C
:100B1000C602F0E0EA55FD4F10826091C60270E017
:100B2000E091E702F091E80286EA92E019951092CE
:100B3000C60236C084E0809348031092A50210924A
:100B4000A402E091E902F091EA0219958091A402D1
:100B5000811105C081E08093A40210928402E0918B
:100B6000A50281E08E0F8093A502F0E0EC57FD4FC7
:100B700080818093BB009091A5028091A402981778
:100B800008F479CF85E88093BC000AC085EC809397
:100B9000BC001092480304C0109246030E94D30286
:100BA000FF91EF91BF91AF919F918F917F916F9145
:100BB0005F914F913F912F910F900BBE0F900FBE01
:100BC0000F901F901895EDE6F3E0A089B18982E0BF
:100BD0008C93A485B5851C92A685B7858FEC8C93E4
:100BE000108EA489B58986E08C93A289B3898C91F3
:100BF00080618C93A289B3898C9188608C93A2893F
:100C0000B3898C9180688C930288F389E02D808170
:100C10008F7D80830895009769F0FC01019000208A
:100C2000E9F73197AF01481B590BBC018DE693E002
:100C30000C94980180E090E008952F923F924F929B
:100C40005F926F927F928F929F92AF92BF92CF925C
:100C5000DF92EF92FF920F931F93CF93DF93CDB765
:100C6000DEB7A4970FB6F894DEBF0FBECDBF4B0121
:100C70005C01F42E9B01AC010E943E11882319F007
:100C800087E792E027C024013501E89477F82FEF39
:100C90003FEF4FE75FE7C301B2010E943E118111B0
:100CA0000DC02FEF3FEF4FE75FE7C301B2010E9496
:100CB000060E18161CF48BE792E00CC02FEF3FEFE6
:100CC0004FE75FE4C501B4010E94C31018162CF46D
:100CD0008FE792E00E940B06B8C02FEF3FEF4FE77F
:100CE0005FECC501B4010E94060E87FDF1CF20E044
:100CF00030E0A901C501B4010E94060E87FF0BC0B8
:100D00006DE28DE693E00E942B023C01B7FAB094AD
:100D1000B7F8B09402C0612C712C10E060E070E074
:100D200080E09FE3F11641F020E030E040E251E442
:100D30000E94C10F1F5FF6CFA50194010E94550FBD
:100D40004B015C010E946D106AA3C72ED82EE92EBC
:100D500019A2262F372F482F592F8E010F5D1F4FB5
:100D60000BA31CA39AE0292E312C412C512CCA0133
:100D7000B901A20191010E942A0F605DF8016293FE
:100D80008F01211531054105510589F7CF010E94D9
:100D90000B068301080F191FFF2009F455C06AA133
:100DA0007C2D8D2D9E2D0E940B0E9B01AC01C5014B
:100DB000B4010E94540F4B015C016EE28DE693E09A
:100DC0000E942B02080F191F8AE0282E312C412C7B
:100DD000512C20E030E040E251E4C501B4010E9412
:100DE0006C0E4B015C010E946D109B0140E050E0D5
:100DF00019A2CBA0DCA0762E3AA3642EE52ECA0160
:100E0000B901A20191010E942A0F605DF60162936F
:100E10006F01211531054105510589F7CF010E9468
:100E20000B06080F191F672D7AA1862D9E2D0E9493
:100E30000B0E9B01AC01C501B4010E94540F4B0184
:100E40005C01FA94F110C5CFC801A4960FB6F894CE
:100E5000DEBF0FBECDBFDF91CF911F910F91FF90ED
:100E6000EF90DF90CF90BF90AF909F908F907F904A
:100E70006F905F904F903F902F900895282F309162
:100E80006C03313208F04AC0809148038111FCCFD5
:100E900090916B0342E040934803209347032FEF68
:100EA000209346031092450330934403EBE4F3E0B0
:100EB000A4E2B3E020E0321721F041914D932F5F7F
:100EC000FACF1092230320912303990F922B909332
:100ED000230390912203913061F4109222039091A8
:100EE00023039093BB009091BC0093FDF8CF95EC49
:100EF00001C095EE9093BC00909148039230E1F3CD
:100F0000909146039F3F79F080914603803241F0F3
:100F100080914603803331F084E005C081E003C056
:100F200082E001C083E010924A0310926C03109299
:100F300049030895EF92FF921F93CF93DF937B01B4
:100F4000142FCCE0D3E0988121E0209349039093C3
:100F50006B0310924A0310926C03A981BA81ED9140
:100F6000FC9111970190F081E02D682FCD0119952A
:100F700089819A81412F50E0DC01ED91FC91028042
:100F8000F381E02DB701199581E0DF91CF911F9199
:100F9000FF90EF900C943E07CF93DF931F92CDB755
:100FA000DEB7698341E0BE016F5F7F4F0E949A0701
:100FB0000F90DF91CF910895809114038F7708955A
:100FC000362F90E0FC01EA52FE4F4491FC01E45EB2
:100FD000FD4F2491FC01E458FD4F9491992309F4AD
:100FE0006CC0442309F455C050E0FA013197E23156
:100FF000F10508F04EC08827EE58FF4F8F4F0C9434
:101000004C0F809180008F7707C0809180008F7D8A
:1010100003C080918000877F809380003AC084B5B0
:101020008F7702C084B58F7D84BD33C08091B000BE
:101030008F7703C08091B0008F7D8093B00029C06E
:10104000809190008F7707C0809190008F7D03C0C2
:1010500080919000877F809390001BC08091A000BA
:101060008F7707C08091A0008F7D03C08091A00082
:10107000877F8093A0000DC0809120018F7707C0EB
:10108000809120018F7D03C080912001877F809314
:101090002001E92FF0E0EE0FFF1FEE59FD4FA59163
:1010A000B4919FB7F894311104C08C9120952823F6
:1010B00002C0EC912E2B2C939FBF0895CF93DF930A
:1010C00090E0FC01E45EFD4F2491FC01E458FD4FEB
:1010D0008491882361F190E0880F991FFC01E4540A
:1010E000FE4FC591D491FC01EE59FD4FA591B491ED
:1010F000611109C09FB7F894888120958223888365
:10110000EC912E230BC0623061F49FB7F894888174
:10111000322F309583238883EC912E2B2C939FBF05
:1011200006C08FB7F894E8812E2B28838FBFDF91FC
:10113000CF910895863308F0865390917B00282F35
:101140002870977F922B90937B00877080648093A8
:101150007C0080917A00806480937A0080917A008C
:1011600086FDFCCF809178002091790090E0922B51
:1011700008958F929F92AF92BF92CF92DF92EF929B
:10118000FF926B017C010E94E2034B015C01C114E0
:10119000D104E104F104F1F00E94E203DC01CB018F
:1011A00088199909AA09BB09883E9340A105B10590
:1011B00070F321E0C21AD108E108F10888EE880E28
:1011C00083E0981EA11CB11CC114D104E104F104F8
:1011D00019F7DDCFFF90EF90DF90CF90BF90AF90E9
:1011E0009F908F900895CF93DF93CDB7DEB7299767
:1011F0000FB6F894DEBF0FBECDBF789484B5826081
:1012000084BD84B5816084BD85B5826085BD85B5AA
:10121000816085BD80916E00816080936E00109228
:1012200081008091810082608093810080918100A3
:101230008160809381008091800081608093800034
:101240008091B10084608093B1008091B000816092
:101250008093B00080919100826080939100809192
:1012600091008160809391008091900081608093D3
:1012700090008091A10082608093A1008091A100E4
:1012800081608093A1008091A00081608093A00084
:1012900080912101826080932101809121018160F0
:1012A00080932101809120018160809320018091B1
:1012B0007A00846080937A0080917A0082608093C3
:1012C0007A0080917A00816080937A0080917A0020
:1012D000806880937A001092C1000E94E3058AE042
:1012E00094E090930E0380930D031092EC02109201
:1012F000EB0210924A0310926C031092480301E033
:10130000009347031092220361E084E10E94E0070A
:1013100061E085E10E94E0078091B9008E7F8093B3
:10132000B9008091B9008D7F8093B90088E48093E3
:10133000B80085E48093BC0086E991E09093EA02CE
:101340008093E90287E991E09093E8028093E702B5
:1013500089E380930C030093490380936B031092FD
:101360004A0310926C0380910D0390910E03DC01EF
:10137000ED91FC910190F081E02D62E9199581E0F9
:101380000E943E07809148038111FCCF80910C039D
:1013900091E090934803909347032FEF20934603E7
:1013A00010924503109244039093230390912303DA
:1013B000880F892B8093230380912203813061F46D
:1013C00010922203809123038093BB008091BC0084
:1013D00083FDF8CF85EC01C085EE8093BC00809141
:1013E00048038130E1F380914503811103C090915E
:1013F000450301C091E0A4E2B3E0E7ECF2E080E055
:10140000891721F02D9121938F5FFACF1092EC0272
:101410008093EB0280910D0390910E03DC01ED911E
:10142000FC910084F185E02D1995892B61F0809164
:101430000D0390910E03DC01ED91FC910284F38584
:10144000E02D1995182F1B3A09F0CEC06CEF81E8FA
:101450000E94CC07609118036C7F61606093180351
:10146000862F82958F70982F9370B0E49B9FC00158
:1014700011246C70682B61608FE80E94CC0760912A
:1014800020036E7F609320036695637070E0660FA3
:10149000771F8BEA0E94CC07809114038F7B809387
:1014A00014030E94DC07682F80E80E94CC0710928A
:1014B0000F03109210031092110310921203109256
:1014C0001303809114038B7F809314030E94DC0725
:1014D000682F80E80E94CC07809114038D7F809351
:1014E00014030E94DC07682F80E80E94CC078091DB
:1014F00014038F7E809314030E94DC07682F80E81A
:101500000E94CC07809114038F7D809314030E9466
:10151000DC07682F80E80E94CC0740E060E070E0C4
:1015200087EE0E949A07809114038E7F80931403A4
:101530000E94DC07682F80E80E94CC076AE070E018
:1015400080E090E00E94B90880911403816080934C
:1015500014030E94DC07682F80E80E94CC076AE031
:1015600070E080E090E00E94B90880911F038C7FBA
:1015700080931F0360E08AEA0E94CC0760911C03FD
:101580006F73606460931C036F73606482EA0E94EF
:10159000CC0760911D036F79606460931D036F71C8
:1015A000606483EA0E94CC0762E380EA0E94CC0771
:1015B00010920F0310921003109211031092120355
:1015C0001092130389EC80931E0369EC86EA0E9453
:1015D000CC07809114038460809314030E94DC077D
:1015E000682F80E80E94CC07809114038064809368
:1015F00014030E94DC07682F80E80E94CC07109239
:101600000F03109210031092110310921203109204
:10161000130360E087E30E945E0860E088E30E94B5
:101620005E0860E089E30E945E0860E08AE30E9451
:101630005E0860E086E30E945E080E94E3058091F8
:101640001C0487FD08C061E00E945E0860E0809194
:101650001C040E94E00781E08093170480911E041F
:1016600090911F04892B09F4A2C00E94E20300910B
:101670002404109125042091260430912704DC01D4
:10168000CB01801B910BA20BB30B8C329140A105B7
:10169000B10558F3F89480911A0490911B049A8331
:1016A0008983E0911E04F0911F04DF01119680816F
:1016B000898790911604E0912804F0912904809183
:1016C0002A04992309F42EC09081982B9887908141
:1016D000809589238F838F818C8388E08B835885C5
:1016E0006F8149853B812C8189819A81508347FD97
:1016F000252F3A952083262F39F0441F00C0000083
:101700006083000000C0F2CF38E04D91608300009C
:10171000019761F7F0932904E093280449873B83FC
:101720002C8338C09081982B98879081809589234D
:101730008F838F818E8388E08D8358856F81498563
:101740003D812E8189819A81508347FD252F00C0DC
:1017500000C0208300C000C000C000C000C0608383
:101760000000262F3A9541F0441F000000C000C041
:1017700000C000C000C0E8CF38E04D9100C06083D9
:1017800000C0019709F7F0932904E09328044987E2
:101790003D832E839A83898378940E94E203609329
:1017A000240470932504809326049093270464E610
:1017B00070E080E090E00E94B90815E087E30E94A5
:1017C0009A085C018091060290910702A816B9065A
:1017D00009F4E1C01A9DB0011B9D700D1124072E64
:1017E000000C880B990B0E940D0E20E030EC4FE7A7
:1017F00054E40E94C10F0E9493036B017C0160932B
:10180000FF02709300038093010390930203B09250
:101810000702A0920602A090FD02B090FE02B092D4
:101820000502A092040288E30E949A089093FE02A7
:101830008093FD02A816B90609F4ADC0189FB00147
:10184000199F700D1124072E000C880B990B0E9414
:101850000D0E20E030EC4FE754E40E94C10F0E94CF
:1018600093036093F9027093FA028093FB029093C2
:10187000FC02A090F702B090F802B0920302A0928E
:10188000020289E30E949A089093F8028093F7027B
:10189000A816B90609F47FC0189FB001199F700DF2
:1018A0001124072E000C880B990B0E940D0E20E0CE
:1018B00030EC4FE754E40E94C10F0E949303609301
:1018C000F3027093F4028093F5029093F602A090D5
:1018D000F102B090F202B0920102A09200028AE3FB
:1018E0000E949A089093F2028093F102A816B9061A
:1018F00009F451C0189FB001199F700D1124072ED3
:10190000000C880B990B0E940D0E20E030EC4FE785
:1019100054E40E94C10F0E9493036093ED02709300
:10192000EE028093EF029093F00242E0C701B6010D
:101930000E941D0682E392E00E940B066091F9026C
:101940007091FA028091FB029091FC0242E00E94A9
:101950001D0682E392E00E940B066091F3027091F3
:10196000F4028091F5029091F60242E00E941D0679
:1019700082E392E00E940B066091ED027091EE020C
:101980008091EF029091F00242E00E941D0684E3F4
:1019900092E00E940B066AE070E080E090E00E9416
:1019A000B9080E949A020ACFEF92FF920F931F93F9
:1019B000CF93DF93EC01198218821B821A821D8259
:1019C0001C8261157105B9F17B01FB0101900020BA
:1019D000E9F731978F01061B170BB8016F5F7F4F37
:1019E00080E090E00E947212009759F099838883FA
:1019F0001B830A832C813D81232B81F4FC011082FF
:101A00000DC088819981009711F00E94E911198217
:101A100018821D821C821B821A820DC01D830C83BA
:101A2000B70188819981DF91CF911F910F91FF902C
:101A3000EF900C946513DF91CF911F910F91FF9060
:101A4000EF90089580911E0490911F04009711F06B
:101A50000E94E91180911C0487FD03C060E00E9490
:101A60005E0880912B0490912C040E94E9118091D2
:101A70003104909132040E94E911809137049091D1
:101A800038040C94E9111092700310926F0388EEE1
:101A900093E0A0E0B0E08093710390937203A09371
:101AA0007303B093740322E132E030936E0320930A
:101AB0006D0325EC30E030937A032093790324EC16
:101AC00030E030937C0320937B0320EC30E03093B4
:101AD0007E0320937D0321EC30E03093800320933C
:101AE0007F0322EC30E0309382032093810326ECC5
:101AF00030E0309384032093830310928603109286
:101B00008703109288031092890310920D0410929B
:101B10000C0480930E0490930F04A0931004B093D0
:101B2000110484E292E090930B0480930A0467E32B
:101B300072E087E394E00E94D40C6BE472E081E3EE
:101B400094E00E94D40C64E672E08BE294E00E9480
:101B5000D40C1092170410921D04109224041092B9
:101B60002504109226041092270481E08093230418
:101B7000809320041092210492E090932204809399
:101B8000160480EF90E090931B0480931A040E9447
:101B9000511190931F0480931E04009761F020EF71
:101BA000FC0111922A95E9F780E590E090931904E1
:101BB0008093180408C010921B0410921A0410920B
:101BC00019041092180486E080931C048091170475
:101BD000882341F061E086E00E945E0860E086E0D4
:101BE0000E94E007E2E8F2E0E491F0E0EE0FFF1F70
:101BF000EE59FD4F85919491909329048093280488
:101C0000E2E2F2E0E491E0932A0408950E94480E93
:101C100008F481E00895E89409C097FB3EF490959C
:101C20008095709561957F4F8F4F9F4F9923A9F0B5
:101C3000F92F96E9BB279395F69587957795679544
:101C4000B795F111F8CFFAF4BB0F11F460FF1BC088
:101C50006F5F7F4F8F4F9F4F16C0882311F096E91B
:101C600011C0772321F09EE8872F762F05C06623C9
:101C700071F096E8862F70E060E02AF09A95660F82
:101C8000771F881FDAF7880F9695879597F908953B
:101C9000990F0008550FAA0BE0E8FEEF161617067D
:101CA000E807F907C0F012161306E407F50798F0E5
:101CB000621B730B840B950B39F40A2661F0232BFE
:101CC000242B252B21F408950A2609F4A140A6957A
:101CD0008FEF811D811D08950E947F0E0C94F00EE0
:101CE0000E94E20E38F00E94E90E20F0952311F0D8
:101CF0000C94D90E0C94DF0E11240C94240F0E9426
:101D0000010F70F3959FC1F3950F50E0551F629F2F
:101D1000F001729FBB27F00DB11D639FAA27F00D44
:101D2000B11DAA1F649F6627B00DA11D661F829F6B
:101D30002227B00DA11D621F739FB00DA11D621F50
:101D4000839FA00D611D221F749F3327A00D611D6D
:101D5000231F849F600D211D822F762F6A2F11244F
:101D60009F5750409AF0F1F088234AF0EE0FFF1F82
:101D7000BB1F661F771F881F91505040A9F79E3FD9
:101D8000510580F00C94D90E0C94240F5F3FE4F3BE
:101D9000983ED4F3869577956795B795F795E7952F
:101DA0009F5FC1F7FE2B880F911D9695879597F938
:101DB000089597F99F6780E870E060E008959FEFCD
:101DC00080EC089500240A941616170618060906D2
:101DD000089500240A9412161306140605060895A1
:101DE000092E0394000C11F4882352F0BB0F40F429
:101DF000BF2B11F460FF04C06F5F7F4F8F4F9F4F69
:101E0000089557FD9058440F551F59F05F3F71F0EA
:101E10004795880F97FB991F61F09F3F79F0879551
:101E20000895121613061406551FF2CF4695F1DFDA
:101E300008C0161617061806991FF1CF869571056A
:101E4000610508940895E894BB2766277727CB019E
:101E500097F90895A1E21A2EAA1BBB1BFD010DC024
:101E6000AA1FBB1FEE1FFF1FA217B307E407F5074A
:101E700020F0A21BB30BE40BF50B661F771F881F26
:101E8000991F1A9469F760957095809590959B01BC
:101E9000AC01BD01CF010895EE0FFF1F881F8BBF5E
:101EA0000790F691E02D19945058BB27AA270E945D
:101EB0006C0F0C94F00E0E94E20E38F00E94E90EB6
:101EC00020F039F49F3F19F426F40C94DF0E0EF441
:101ED000E095E7FB0C94D90EE92F0E94010F58F30F
:101EE000BA17620773078407950720F079F4A6F5FF
:101EF0000C94230F0EF4E0950B2EBA2FA02D0B019E
:101F0000B90190010C01CA01A0011124FF27591B3E
:101F100099F0593F50F4503E68F11A16F040A22F44
:101F2000232F342F4427585FF3CF469537952795B5
:101F3000A795F0405395C9F77EF41F16BA0B620BB4
:101F4000730B840BBAF09150A1F0FF0FBB1F661FFB
:101F5000771F881FC2F70EC0BA0F621F731F841F3E
:101F600048F4879577956795B795F7959E3F08F064
:101F7000B0CF9395880F08F09927EE0F9795879526
:101F800008950E94D50F0C94F00E0E94E90E58F0AF
:101F90000E94E20E40F029F45F3F29F00C94D90E24
:101FA00051110C94240F0C94DF0E0E94010F68F362
:101FB0009923B1F3552391F3951B550BBB27AA2702
:101FC00062177307840738F09F5F5F4F220F331F3C
:101FD000441FAA1FA9F335D00E2E3AF0E0E832D004
:101FE00091505040E695001CCAF72BD0FE2F29D007
:101FF000660F771F881FBB1F261737074807AB07D9
:10200000B0E809F0BB0B802DBF01FF2793585F4F4D
:102010003AF09E3F510578F00C94D90E0C94240FA1
:102020005F3FE4F3983ED4F3869577956795B7952F
:10203000F7959F5FC9F7880F911D9695879597F93A
:102040000895E1E0660F771F881FBB1F62177307B3
:102050008407BA0720F0621B730B840BBA0BEE1FC8
:1020600088F7E095089529F416F00C94D90E0C9495
:10207000230F0C94DF0E0E94090FA8F39638A0F7E7
:1020800007F80F92E8942BE33AEA48EB5FE70E94E7
:10209000820E0F920F920F924DB75EB70F920E9471
:1020A0000A11E8E0F1E00E949C104F915F91EF91DE
:1020B000FF91E595EE1FFF1F49F0FE57E0684427AA
:1020C000EE0F441FFA95E1F74195550B0E94D4108D
:1020D0000F9007FE0C94C81008950E94090F88F015
:1020E0009F5798F0B92F9927B751B0F0E1F0660FDC
:1020F000771F881F991F1AF0BA95C9F714C0B1301D
:1021000091F00E94230FB1E008950C94230F672FE4
:10211000782F8827B85F39F0B93FCCF3869577954B
:102120006795B395D9F73EF4909580957095619534
:102130007F4F8F4F9F4F0895DF93CF931F930F9340
:10214000FF92EF92DF927B018C01689406C0DA2E39
:10215000EF010E947F0EFE01E894A5912591359133
:1021600045915591A6F3EF010E946C0FFE01970176
:10217000A801DA9469F7DF90EF90FF900F911F911B
:10218000CF91DF9108950E94480E08F48FEF0895D3
:102190009B01AC0160E070E080E89FE30C94C10F0C
:1021A0000C94D90E0C9443110E94090FD8F3992373
:1021B000C9F3940F511DA3F39150504094F059F07E
:1021C000882332F0660F771F881F91505040C1F767
:1021D0009E3F51052CF7880F911D9695879597F98D
:1021E00008955F3FACF0983E9CF0BB2786957795AD
:1021F0006795B79508F4B1609395C1F7BB0F58F791
:1022000011F460FFE8CF6F5F7F4F8F4F9F4FE3CF99
:102210000C94240FFA01DC01AA0FBB1F9B01AC0137
:10222000BF5728F4222733274427507820C0B751BE
:1022300090F4AB2F0024469537952795011CA39564
:10224000D2F3002071F0220F331F441FB395DAF34D
:102250000ED00C94540F61307105A0E88A07B9467E
:1022600030F49B01AC016627772788279078309659
:1022700021F0208331834283538308950E94480EC6
:10228000880B990B08959F3F31F0915020F487956A
:1022900077956795B795880F911D9695879597F9CE
:1022A00008950F931F93CF93DF938230910510F41D
:1022B00082E090E0E0913F04F091400420E030E0C3
:1022C000A0E0B0E0309719F1408151810281138183
:1022D00048175907C8F08417950769F4109731F02B
:1022E00012960C93129713961C9327C000933F04E9
:1022F0001093400422C02115310519F042175307ED
:1023000018F49A01BD01EF01DF01F801DBCF2115BF
:102310003105F9F0281B390B2430310580F48A810E
:102320009B816115710521F0FB019383828304C0B9
:102330009093400480933F04FE01329644C0FE0116
:10234000E20FF31F8193919322503109398328833F
:102350003AC020913D0430913E04232B41F420915A
:102360000A0230910B0230933E0420933D042091E9
:102370000802309109022115310541F42DB73EB70D
:1023800040910C0250910D02241B350BE0913D044D
:10239000F0913E04E217F307A0F42E1B3F0B281721
:1023A000390778F0AC014E5F5F4F2417350748F0CE
:1023B0004E0F5F1F50933E0440933D0481939193D1
:1023C00002C0E0E0F0E0CF01DF91CF911F910F91CB
:1023D0000895CF93DF93009709F481C0FC013297F1
:1023E00013821282A0913F04B0914004109781F4AF
:1023F00020813181820F931F20913D0430913E0452
:102400002817390751F5F0933E04E0933D0467C067
:10241000ED0120E030E0CE17DF0740F44A815B8118
:102420009E0141155105F1F0EA01F5CFD383C28336
:1024300040815181840F951FC817D90759F48881AD
:102440009981840F951F0296918380838A819B8155
:10245000938382832115310529F4F0934004E0939E
:102460003F043DC0E901FB83EA8349915991C40FC0
:10247000D51FEC17FD0761F480819181840F951FB2
:102480000296E90199838883828193819B838A8361
:10249000E0E0F0E012968D919C911397009719F06F
:1024A000FD01DC01F7CF8D919C9111979D012E5F6D
:1024B0003F4F820F931F20913D0430913E04281717
:1024C000390769F4309729F41092400410923F04C0
:1024D00002C013821282B0933E04A0933D04DF91A8
:1024E000CF9108956F927F928F929F92AF92BF92F9
:1024F000CF92DF92EF92FF920F931F93CF93DF93D0
:10250000009789F4CB01DF91CF911F910F91FF903C
:10251000EF90DF90CF90BF90AF909F908F907F9083
:102520006F900C945111FC01E60FF71F9C01225093
:102530003109E217F30708F4A9C0EC01D9010D91A4
:102540001C91119706171707B0F00530110508F414
:102550009BC0C80104978617970708F495C00250DE
:102560001109061B170B019311936D937C93CF01F7
:102570000E94E91189C05B01A01AB10A4C01800ECA
:10258000911EA0913F04B0914004612C712CE12C6C
:10259000F12C109709F446C08D919C911197A815C4
:1025A000B905B1F56C0142E0C40ED11CCA14DB04BC
:1025B00078F14C018A189B08640142E0C40ED11CDA
:1025C0001296BC9012971396AC91B5E0CB16D1043D
:1025D00040F0B282A38391828082D9016D937C9373
:1025E00009C00E5F1F4F800F911FF90191838083F7
:1025F000EB2DFA2FE114F10431F0D7011396FC937F
:10260000EE93129741C0F0934004E0933F043CC026
:102610006816790608F43C017D0112960D90BC9174
:10262000A02DB7CF80913D0490913E048816990665
:10263000E1F466167706C8F48091080290910902C9
:10264000009741F48DB79EB740910C0250910D0256
:10265000841B950BE817F907C8F4F0933E04E09348
:102660003D04F901718360830FC0CB010E945111B9
:102670007C01009759F0A801BE010E945C13CE01B5
:102680000E94E911C70104C0CE0102C080E090E0C1
:10269000DF91CF911F910F91FF90EF90DF90CF903E
:1026A000BF90AF909F908F907F906F90089581E042
:1026B00090E0F8940C946C13FB01DC0102C00190D3
:1026C0000D9241505040D8F70895FB01DC01019074
:1026D0000D920020E1F7089511E0C2E6D1E000E09C
:1026E00006C0802FFE010E944C0F2196011DC336AB
:0C26F000D10780E00807A9F7F894FFCF9D
:1026FC00F0D8F0D8F0D8F0D80000410480000000E9
:10270C0000002B029801C2017802F301D101E5010E
:10271C00000000005E0331038E030503290315033B
:10272C0006032C000D0A0064697374616E6365679F
:10273C00726F7570342D353531380067657374756B
:10274C00726573656E736F7267726F7570342D631B
:10275C0063313200646973636F7072657373757281
:10276C00652D35393838006E616E00696E66006F04
:04277C00766600007D
:00000001FF
